{
  "address": "0x327FB1F18359B530877be28486c87C325C369f73",
  "abi": [
    {
      "inputs": [
        {
          "internalType": "address",
          "name": "tradeToken_",
          "type": "address"
        },
        {
          "internalType": "address",
          "name": "basePairAddr",
          "type": "address"
        }
      ],
      "stateMutability": "nonpayable",
      "type": "constructor"
    },
    {
      "inputs": [],
      "name": "ErrorKInvariantFailed",
      "type": "error"
    },
    {
      "inputs": [
        {
          "internalType": "uint256",
          "name": "currentIndex",
          "type": "uint256"
        },
        {
          "internalType": "uint256",
          "name": "maxIndex",
          "type": "uint256"
        }
      ],
      "name": "ErrorSafePriceCurrentIndex",
      "type": "error"
    },
    {
      "inputs": [],
      "name": "IndexOutOfRangeErrMsg",
      "type": "error"
    },
    {
      "anonymous": false,
      "inputs": [
        {
          "indexed": true,
          "internalType": "address",
          "name": "user",
          "type": "address"
        },
        {
          "indexed": false,
          "internalType": "uint256",
          "name": "balance",
          "type": "uint256"
        }
      ],
      "name": "BalanceUpdated",
      "type": "event"
    },
    {
      "anonymous": false,
      "inputs": [
        {
          "indexed": true,
          "internalType": "address",
          "name": "from",
          "type": "address"
        },
        {
          "indexed": false,
          "internalType": "uint256",
          "name": "amount",
          "type": "uint256"
        },
        {
          "indexed": false,
          "internalType": "uint256",
          "name": "liqAdded",
          "type": "uint256"
        }
      ],
      "name": "LiquidityAdded",
      "type": "event"
    },
    {
      "anonymous": false,
      "inputs": [
        {
          "indexed": true,
          "internalType": "address",
          "name": "previousOwner",
          "type": "address"
        },
        {
          "indexed": true,
          "internalType": "address",
          "name": "newOwner",
          "type": "address"
        }
      ],
      "name": "OwnershipTransferred",
      "type": "event"
    },
    {
      "anonymous": false,
      "inputs": [
        {
          "indexed": true,
          "internalType": "address",
          "name": "from",
          "type": "address"
        },
        {
          "indexed": false,
          "internalType": "uint256",
          "name": "amount",
          "type": "uint256"
        }
      ],
      "name": "RewardReceived",
      "type": "event"
    },
    {
      "anonymous": false,
      "inputs": [
        {
          "indexed": true,
          "internalType": "address",
          "name": "from",
          "type": "address"
        },
        {
          "indexed": true,
          "internalType": "address",
          "name": "to",
          "type": "address"
        },
        {
          "indexed": false,
          "internalType": "uint256",
          "name": "amountIn",
          "type": "uint256"
        },
        {
          "indexed": false,
          "internalType": "uint256",
          "name": "amountOut",
          "type": "uint256"
        },
        {
          "indexed": false,
          "internalType": "uint256",
          "name": "fee",
          "type": "uint256"
        }
      ],
      "name": "SellExecuted",
      "type": "event"
    },
    {
      "inputs": [
        {
          "components": [
            {
              "internalType": "contract IERC20",
              "name": "token",
              "type": "address"
            },
            {
              "internalType": "uint256",
              "name": "amount",
              "type": "uint256"
            }
          ],
          "internalType": "struct ERC20TokenPayment",
          "name": "wholePayment",
          "type": "tuple"
        },
        {
          "internalType": "address",
          "name": "from",
          "type": "address"
        }
      ],
      "name": "addLiquidity",
      "outputs": [
        {
          "internalType": "uint256",
          "name": "liqAdded",
          "type": "uint256"
        }
      ],
      "stateMutability": "nonpayable",
      "type": "function"
    },
    {
      "inputs": [
        {
          "internalType": "address",
          "name": "to",
          "type": "address"
        },
        {
          "internalType": "uint256",
          "name": "amount",
          "type": "uint256"
        }
      ],
      "name": "completeSell",
      "outputs": [],
      "stateMutability": "nonpayable",
      "type": "function"
    },
    {
      "inputs": [],
      "name": "deposits",
      "outputs": [
        {
          "internalType": "uint256",
          "name": "",
          "type": "uint256"
        }
      ],
      "stateMutability": "view",
      "type": "function"
    },
    {
      "inputs": [],
      "name": "lpSupply",
      "outputs": [
        {
          "internalType": "uint256",
          "name": "",
          "type": "uint256"
        }
      ],
      "stateMutability": "view",
      "type": "function"
    },
    {
      "inputs": [],
      "name": "owner",
      "outputs": [
        {
          "internalType": "address",
          "name": "",
          "type": "address"
        }
      ],
      "stateMutability": "view",
      "type": "function"
    },
    {
      "inputs": [
        {
          "components": [
            {
              "internalType": "contract IERC20",
              "name": "token",
              "type": "address"
            },
            {
              "internalType": "uint256",
              "name": "amount",
              "type": "uint256"
            }
          ],
          "internalType": "struct ERC20TokenPayment",
          "name": "payment",
          "type": "tuple"
        }
      ],
      "name": "receiveReward",
      "outputs": [],
      "stateMutability": "nonpayable",
      "type": "function"
    },
    {
      "inputs": [],
      "name": "renounceOwnership",
      "outputs": [],
      "stateMutability": "nonpayable",
      "type": "function"
    },
    {
      "inputs": [],
      "name": "reserve",
      "outputs": [
        {
          "internalType": "uint256",
          "name": "",
          "type": "uint256"
        }
      ],
      "stateMutability": "view",
      "type": "function"
    },
    {
      "inputs": [],
      "name": "rewards",
      "outputs": [
        {
          "internalType": "uint256",
          "name": "",
          "type": "uint256"
        }
      ],
      "stateMutability": "view",
      "type": "function"
    },
    {
      "inputs": [],
      "name": "sales",
      "outputs": [
        {
          "internalType": "uint256",
          "name": "",
          "type": "uint256"
        }
      ],
      "stateMutability": "view",
      "type": "function"
    },
    {
      "inputs": [
        {
          "internalType": "address",
          "name": "caller",
          "type": "address"
        },
        {
          "internalType": "address",
          "name": "referrerOfCaller",
          "type": "address"
        },
        {
          "components": [
            {
              "internalType": "contract IERC20",
              "name": "token",
              "type": "address"
            },
            {
              "internalType": "uint256",
              "name": "amount",
              "type": "uint256"
            }
          ],
          "internalType": "struct ERC20TokenPayment",
          "name": "inPayment",
          "type": "tuple"
        },
        {
          "internalType": "contract Pair",
          "name": "outPair",
          "type": "address"
        },
        {
          "internalType": "uint256",
          "name": "slippage",
          "type": "uint256"
        },
        {
          "internalType": "uint256",
          "name": "totalFeePercent",
          "type": "uint256"
        }
      ],
      "name": "sell",
      "outputs": [],
      "stateMutability": "nonpayable",
      "type": "function"
    },
    {
      "inputs": [
        {
          "internalType": "address",
          "name": "referrer",
          "type": "address"
        },
        {
          "internalType": "uint256",
          "name": "amount",
          "type": "uint256"
        },
        {
          "internalType": "uint256",
          "name": "totalFeePercent",
          "type": "uint256"
        }
      ],
      "name": "takeFees",
      "outputs": [
        {
          "internalType": "uint256",
          "name": "amountOut",
          "type": "uint256"
        }
      ],
      "stateMutability": "nonpayable",
      "type": "function"
    },
    {
      "inputs": [],
      "name": "tradeToken",
      "outputs": [
        {
          "internalType": "contract ERC20",
          "name": "",
          "type": "address"
        }
      ],
      "stateMutability": "view",
      "type": "function"
    },
    {
      "inputs": [
        {
          "internalType": "address",
          "name": "newOwner",
          "type": "address"
        }
      ],
      "name": "transferOwnership",
      "outputs": [],
      "stateMutability": "nonpayable",
      "type": "function"
    }
  ],
  "transactionHash": "0x4a9272c8906dfd4c509e5649a43960d4a8503230abb4b059a57454583dbc44a9",
  "args": [
    "0x4590660F6f9bec56Ece349EB5F8cA7e0acdd1fe1",
    "0x2cCf5488cbAa7Bfd8Eff7b74Bb59c98b3F881586"
  ],
  "numDeployments": 2,
  "solcInputHash": "c1d9408b7c80247d8d3f8c7cfcd2ce01",
  "bytecode": "0x60c060405234801561001057600080fd5b506040516122e63803806122e683398101604081905261002f91610233565b610038336101c7565b6001600160a01b03821661009d5760405162461bcd60e51b815260206004820152602160248201527f506169723a20496e76616c696420747261646520746f6b656e206164647265736044820152607360f81b60648201526084015b60405180910390fd5b6001600160a01b0381166100f35760405162461bcd60e51b815260206004820152601f60248201527f506169723a20496e76616c6964206261736520706169722061646472657373006044820152606401610094565b6001600160a01b0382166080819052604080516395d89b4160e01b81529051600092916395d89b4191600480830192869291908290030181865afa15801561013f573d6000803e3d6000fd5b505050506040513d6000823e601f3d908101601f19168201604052610167919081019061027c565b51116101b55760405162461bcd60e51b815260206004820152601960248201527f506169723a20496e76616c696420747261646520746f6b656e000000000000006044820152606401610094565b6001600160a01b031660a05250610348565b600080546001600160a01b038381166001600160a01b0319831681178455604051919092169283917f8be0079c531659141344cd1fd0a4f28419497f9722a3daafe3b4186f6b6457e09190a35050565b80516001600160a01b038116811461022e57600080fd5b919050565b6000806040838503121561024657600080fd5b61024f83610217565b915061025d60208401610217565b90509250929050565b634e487b7160e01b600052604160045260246000fd5b60006020828403121561028e57600080fd5b81516001600160401b038111156102a457600080fd5b8201601f810184136102b557600080fd5b80516001600160401b038111156102ce576102ce610266565b604051601f8201601f19908116603f011681016001600160401b03811182821017156102fc576102fc610266565b60405281815282820160200186101561031457600080fd5b60005b8281101561033357602081850181015183830182015201610317565b50600091810160200191909152949350505050565b60805160a051611f106103d6600039600081816102010152818161024901528181610812015281816109f6015281816113a601526118d60152600081816101ae015281816103c10152818161056101528181610755015281816108a80152818161095401528181610b1001528181610bbc01528181610ef70152818161172f01526117db0152611f106000f3fe608060405234801561001057600080fd5b50600436106100ea5760003560e01c80639ec5a8941161008c578063cef2f8e911610066578063cef2f8e914610196578063d83678ac146101a9578063e1015bb6146101d0578063f2fde38b146101e357600080fd5b80639ec5a8941461017c578063aace52fe14610185578063cd3293de1461018e57600080fd5b80633b22fc03116100c85780633b22fc03146101335780635541955f1461013c578063715018a61461014f5780638da5cb5b1461015757600080fd5b80630766a2be146100ef57806307fefe4814610104578063323a5e0b1461012a575b600080fd5b6101026100fd366004611be9565b6101f6565b005b610117610112366004611c1a565b610440565b6040519081526020015b60405180910390f35b61011760015481565b61011760045481565b61010261014a366004611c4f565b61064d565b610102610685565b6000546001600160a01b03165b6040516001600160a01b039091168152602001610121565b61011760035481565b61011760025481565b610117610699565b6101026101a4366004611cbc565b6106b0565b6101647f000000000000000000000000000000000000000000000000000000000000000081565b6101176101de366004611ce8565b6109d4565b6101026101f1366004611d20565b610c40565b336001600160a01b037f000000000000000000000000000000000000000000000000000000000000000016146102475760405162461bcd60e51b815260040161023e90611d44565b60405180910390fd5b7f00000000000000000000000000000000000000000000000000000000000000006001600160a01b031663d83678ac6040518163ffffffff1660e01b8152600401602060405180830381865afa1580156102a5573d6000803e3d6000fd5b505050506040513d601f19601f820116820180604052508101906102c99190611d69565b6001600160a01b03166102df6020830183611d20565b6001600160a01b0316146103355760405162461bcd60e51b815260206004820152601a60248201527f506169723a20696e76616c69642072657761726420746f6b656e000000000000604482015260640161023e565b61033e81610cb9565b8060200135600360008282546103549190611d9c565b9091555050604051602082810135825233917f9ac954606f877c9c9e6deec30e9265abff5a57c7123a34777ca9321eb6c26d8e910160405180910390a26040516370a0823160e01b8152306004820181905290600080516020611ebb833981519152906001600160a01b037f000000000000000000000000000000000000000000000000000000000000000016906370a0823190602401602060405180830381865afa158015610408573d6000803e3d6000fd5b505050506040513d601f19601f8201168201806040525081019061042c9190611daf565b60405190815260200160405180910390a250565b6000336001600160a01b0316638da5cb5b6040518163ffffffff1660e01b8152600401602060405180830381865afa158015610480573d6000803e3d6000fd5b505050506040513d601f19601f820116820180604052508101906104a49190611d69565b6001600160a01b03166104bf6000546001600160a01b031690565b6001600160a01b0316146104e55760405162461bcd60e51b815260040161023e90611d44565b60006127106104f48585611dc8565b6104fe9190611df5565b905061050a8185611e09565b9150600061051782610d46565b90506105268160400151610ddd565b600160008282546105379190611d9c565b909155505080516001600160a01b0387161580159061055a575060008260200151115b15610611577f00000000000000000000000000000000000000000000000000000000000000006001600160a01b031663a9059cbb8861059c8560200151610ddd565b6040516001600160e01b031960e085901b1681526001600160a01b03909216600483015260248201526044016020604051808303816000875af11580156105e7573d6000803e3d6000fd5b505050506040513d601f19601f8201168201806040525081019061060b9190611e1c565b50610623565b60208201516106209082611d9c565b90505b61062c81610ddd565b6002600082825461063d9190611d9c565b9091555093979650505050505050565b610655610e93565b61066184876000610eed565b61067d61067336869003860186611e3e565b8787868686610f99565b505050505050565b61068d610e93565b6106976000611301565b565b60006002546001546106ab9190611d9c565b905090565b336001600160a01b0316638da5cb5b6040518163ffffffff1660e01b8152600401602060405180830381865afa1580156106ee573d6000803e3d6000fd5b505050506040513d601f19601f820116820180604052508101906107129190611d69565b6001600160a01b031661072d6000546001600160a01b031690565b6001600160a01b0316146107535760405162461bcd60e51b815260040161023e90611d44565b7f00000000000000000000000000000000000000000000000000000000000000006001600160a01b031663a9059cbb8361078c84610ddd565b6040516001600160e01b031960e085901b1681526001600160a01b03909216600483015260248201526044016020604051808303816000875af11580156107d7573d6000803e3d6000fd5b505050506040513d601f19601f820116820180604052508101906107fb9190611e1c565b50604051634828ced960e01b8152600481018290527f00000000000000000000000000000000000000000000000000000000000000006001600160a01b031690634828ced990602401600060405180830381600087803b15801561085e57600080fd5b505af1158015610872573d6000803e3d6000fd5b50506040516370a0823160e01b81526001600160a01b03808616600483018190529350600080516020611ebb83398151915292507f000000000000000000000000000000000000000000000000000000000000000016906370a0823190602401602060405180830381865afa1580156108ef573d6000803e3d6000fd5b505050506040513d601f19601f820116820180604052508101906109139190611daf565b60405190815260200160405180910390a26040516370a0823160e01b8152306004820181905290600080516020611ebb833981519152906001600160a01b037f000000000000000000000000000000000000000000000000000000000000000016906370a0823190602401602060405180830381865afa15801561099b573d6000803e3d6000fd5b505050506040513d601f19601f820116820180604052508101906109bf9190611daf565b60405190815260200160405180910390a25050565b60006109de610e93565b6109e88383611351565b600454306001600160a01b037f00000000000000000000000000000000000000000000000000000000000000001614908115610a2c57610a278561135e565b610a35565b610a3585611384565b8060045411610a865760405162461bcd60e51b815260206004820181905260248201527f506169723a20696e76616c6964206c6971756964697479206164646974696f6e604482015260640161023e565b80600454610a949190611e09565b60408051602080890135825281018390529194506001600160a01b038616917fac1d76749e5447b7b16f5ab61447e1bd502f3bb4807af3b28e620d1700a6ee45910160405180910390a26040516370a0823160e01b81526001600160a01b038086166004830181905291600080516020611ebb833981519152917f000000000000000000000000000000000000000000000000000000000000000016906370a0823190602401602060405180830381865afa158015610b57573d6000803e3d6000fd5b505050506040513d601f19601f82011682018060405250810190610b7b9190611daf565b60405190815260200160405180910390a26040516370a0823160e01b8152306004820181905290600080516020611ebb833981519152906001600160a01b037f000000000000000000000000000000000000000000000000000000000000000016906370a0823190602401602060405180830381865afa158015610c03573d6000803e3d6000fd5b505050506040513d601f19601f82011682018060405250810190610c279190611daf565b60405190815260200160405180910390a2505092915050565b610c48610e93565b6001600160a01b038116610cad5760405162461bcd60e51b815260206004820152602660248201527f4f776e61626c653a206e6577206f776e657220697320746865207a65726f206160448201526564647265737360d01b606482015260840161023e565b610cb681611301565b50565b610cc66020820182611d20565b6040516323b872dd60e01b8152336004820152306024820152602083013560448201526001600160a01b0391909116906323b872dd906064016020604051808303816000875af1158015610d1e573d6000803e3d6000fd5b505050506040513d601f19601f82011682018060405250810190610d429190611e1c565b5050565b610d6a60405180606001604052806000815260200160008152602001600081525090565b6000612710610d7b846101f4611dc8565b610d859190611df5565b90506000612710610d978560c8611dc8565b610da19190611df5565b9050600081610db08487611e09565b610dba9190611e09565b604080516060810182529485526020850193909352918301919091525092915050565b60008160025410610e05578160026000828254610dfa9190611e09565b909155509192915050565b81600254600154610e169190611d9c565b10610e4b57506002548190610e2b9082611e09565b60016000828254610e3c9190611e09565b90915550506000600255919050565b60405162461bcd60e51b815260206004820152601f60248201527f416d6f756e7420746f2062652074616b656e20697320746f6f206c6172676500604482015260640161023e565b6000546001600160a01b031633146106975760405162461bcd60e51b815260206004820181905260248201527f4f776e61626c653a2063616c6c6572206973206e6f7420746865206f776e6572604482015260640161023e565b6001600160a01b037f000000000000000000000000000000000000000000000000000000000000000016610f246020850185611d20565b6001600160a01b0316141580610f3d5750808360200135105b15610f8a5760405162461bcd60e51b815260206004820152601a60248201527f506169723a20426164207265636569766564207061796d656e74000000000000604482015260640161023e565b610f94838361145c565b505050565b6000610fa3610699565b90506000846001600160a01b031663cd3293de6040518163ffffffff1660e01b8152600401602060405180830381865afa158015610fe5573d6000803e3d6000fd5b505050506040513d601f19601f820116820180604052508101906110099190611daf565b9050600061102561101e8a60200151876114e7565b8484611512565b90508082116110765760405162461bcd60e51b815260206004820152601860248201527f506169723a206e6f7420656e6f75676820726573657276650000000000000000604482015260640161023e565b6001600160a01b0386166000908152600560205260409020611099908484611531565b60006110a58484611643565b905060006110b88b60200151868661164f565b60405162ffdfc960e31b81526001600160a01b038b811660048301526024820183905260448201899052919250908916906307fefe48906064016020604051808303816000875af1158015611111573d6000803e3d6000fd5b505050506040513d601f19601f820116820180604052508101906111359190611daf565b90508281101561117b5760405162461bcd60e51b815260206004820152601160248201527014db1a5c1c1859d948115e18d959591959607a1b604482015260640161023e565b806000036111bd5760405162461bcd60e51b815260206004820152600f60248201526e16995c9bc81bdd5d08185b5bdd5b9d608a1b604482015260640161023e565b6111c98b8b8a84611680565b600061123d6111d6610699565b8a6001600160a01b031663cd3293de6040518163ffffffff1660e01b8152600401602060405180830381865afa158015611214573d6000803e3d6000fd5b505050506040513d601f19601f820116820180604052508101906112389190611daf565b611643565b90508083111561128f5760405162461bcd60e51b815260206004820152601860248201527f4552524f525f4b5f494e56415249414e545f4641494c45440000000000000000604482015260640161023e565b886001600160a01b03168b6001600160a01b03167ff28b12fec161da274c54399738657d50f53663799a86a4c2e8898efdc9228ad18e60200151858b6040516112eb939291909283526020830191909152604082015260600190565b60405180910390a3505050505050505050505050565b600080546001600160a01b038381166001600160a01b0319831681178455604051919092169283917f8be0079c531659141344cd1fd0a4f28419497f9722a3daafe3b4186f6b6457e09190a35050565b610d428282610fa0610eed565b600081602001359050610d4260405180604001604052808381526020018381525061185d565b600061138f82611894565b905060008061139c6118c9565b6001600160a01b037f000000000000000000000000000000000000000000000000000000000000000016600090815260056020526040902091935091506113e4818484611531565b60006113f08484611643565b90506114136040518060400160405280878152602001886020013581525061185d565b60008061141e6118c9565b91509150600061142e8383611643565b90508084111561145157604051631d9ab40760e31b815260040160405180910390fd5b505050505050505050565b6114696020830183611d20565b6040516323b872dd60e01b81526001600160a01b0383811660048301523060248301526020850135604483015291909116906323b872dd906064016020604051808303816000875af11580156114c3573d6000803e3d6000fd5b505050506040513d601f19601f82011682018060405250810190610f949190611e1c565b60006127106114f58361195e565b6114ff9085611dc8565b6115099190611df5565b90505b92915050565b60008261151f8386611dc8565b6115299190611df5565b949350505050565b81158061153c575080155b1561154657505050565b8254439062010000101561157c57835460405163e3bb1f6360e01b8152600481019190915262010000602482015260440161023e565b6115a76040518060800160405280600081526020016000815260200160008152602001600081525090565b6003850154600190156115e55785546115c49060018801906119c2565b86549092506115d7906201000090611ea6565b6115e2906001611d9c565b90505b828260600151036115f857505050505050565b600061160684878786611a56565b600388015490915061ffff190161162a57611625600188018383611b0d565b611639565b6116376001880182611b67565b505b5090945550505050565b60006115098284611dc8565b60008061165c8386611dc8565b9050600061166a8686611d9c565b90506116768183611df5565b9695505050505050565b8360200151600260008282546116969190611d9c565b909155505060405163cef2f8e960e01b81526001600160a01b0384811660048301526024820183905283169063cef2f8e990604401600060405180830381600087803b1580156116e557600080fd5b505af11580156116f9573d6000803e3d6000fd5b50506040516370a0823160e01b81526001600160a01b03808716600483018190529350600080516020611ebb83398151915292507f000000000000000000000000000000000000000000000000000000000000000016906370a0823190602401602060405180830381865afa158015611776573d6000803e3d6000fd5b505050506040513d601f19601f8201168201806040525081019061179a9190611daf565b60405190815260200160405180910390a26040516370a0823160e01b8152306004820181905290600080516020611ebb833981519152906001600160a01b037f000000000000000000000000000000000000000000000000000000000000000016906370a0823190602401602060405180830381865afa158015611822573d6000803e3d6000fd5b505050506040513d601f19601f820116820180604052508101906118469190611daf565b60405190815260200160405180910390a250505050565b8060200151600160008282546118739190611d9c565b909155505080516004805460009061188c908490611d9c565b909155505050565b60008060006118a16118c9565b909250905081156118b257816118b8565b83602001355b915061152984602001358383611512565b6000806118d4610699565b7f00000000000000000000000000000000000000000000000000000000000000006001600160a01b031663cd3293de6040518163ffffffff1660e01b8152600401602060405180830381865afa158015611932573d6000803e3d6000fd5b505050506040513d601f19601f820116820180604052508101906119569190611daf565b915091509091565b60006001821080611970575061271082115b156119b65760405162461bcd60e51b8152602060048201526016602482015275496e76616c696420736c6970706167652076616c756560501b604482015260640161023e565b61150c82612710611e09565b6119ed6040518060800160405280600081526020016000815260200160008152602001600081525090565b8260020154821115611a125760405163038f948b60e21b815260040160405180910390fd5b506000908152602091825260409081902081516080810183526001820154815260028201549381019390935260038101549183019190915260040154606082015290565b611a816040518060800160405280600081526020016000815260200160008152602001600081525090565b60008260600151600014611aa3576060830151611a9e9087611e09565b611aa6565b60015b8392509050611ab58582611dc8565b82518390611ac4908390611d9c565b905250611ad18482611dc8565b82602001818151611ae29190611d9c565b905250604082018051829190611af9908390611d9c565b905250506060810194909452509192915050565b8260020154821115611b325760405163038f948b60e21b815260040160405180910390fd5b600082815260209384526040908190208251600182015593820151600285015581015160038401556060015160048301559055565b60006001836002016000828254611b7e9190611d9c565b909155505050600280830180546000908152602085815260408083208651600182015591860151948201949094558385015160038201556060850151600490910155905480825291902081905592915050565b600060408284031215611be357600080fd5b50919050565b600060408284031215611bfb57600080fd5b6115098383611bd1565b6001600160a01b0381168114610cb657600080fd5b600080600060608486031215611c2f57600080fd5b8335611c3a81611c05565b95602085013595506040909401359392505050565b60008060008060008060e08789031215611c6857600080fd5b8635611c7381611c05565b95506020870135611c8381611c05565b9450611c928860408901611bd1565b93506080870135611ca281611c05565b9598949750929560a08101359460c0909101359350915050565b60008060408385031215611ccf57600080fd5b8235611cda81611c05565b946020939093013593505050565b60008060608385031215611cfb57600080fd5b611d058484611bd1565b91506040830135611d1581611c05565b809150509250929050565b600060208284031215611d3257600080fd5b8135611d3d81611c05565b9392505050565b6020808252600b908201526a1b9bdd08185b1b1bddd95960aa1b604082015260600190565b600060208284031215611d7b57600080fd5b8151611d3d81611c05565b634e487b7160e01b600052601160045260246000fd5b8082018082111561150c5761150c611d86565b600060208284031215611dc157600080fd5b5051919050565b808202811582820484141761150c5761150c611d86565b634e487b7160e01b600052601260045260246000fd5b600082611e0457611e04611ddf565b500490565b8181038181111561150c5761150c611d86565b600060208284031215611e2e57600080fd5b81518015158114611d3d57600080fd5b60006040828403128015611e5157600080fd5b506040805190810167ffffffffffffffff81118282101715611e8357634e487b7160e01b600052604160045260246000fd5b6040528235611e9181611c05565b81526020928301359281019290925250919050565b600082611eb557611eb5611ddf565b50069056fe8ad64a0ac7700dd8425ab0499f107cb6e2cd1581d803c5b8c1c79dcb8190b1afa26469706673582212208139772988db1fd28bb14b14bac99199f492d9361052c91afb241d36e7fcaa2864736f6c634300081a0033",
  "devdoc": {
    "details": "This contract manages a trading pair in the DEX, handling liquidity, trading, and fee mechanisms.",
    "errors": {
      "ErrorSafePriceCurrentIndex(uint256,uint256)": [
        {
          "params": {
            "currentIndex": "the current index",
            "maxIndex": "the maximum possible index"
          }
        }
      ]
    },
    "kind": "dev",
    "methods": {
      "addLiquidity((address,uint256),address)": {
        "params": {
          "from": "Address from which liquidity is added.",
          "wholePayment": "Details of the payment for adding liquidity."
        },
        "returns": {
          "liqAdded": "Amount of liquidity added."
        }
      },
      "completeSell(address,uint256)": {
        "params": {
          "amount": "Amount to be transferred.",
          "to": "Address to which the amount is transferred."
        }
      },
      "constructor": {
        "details": "Constructor for initializing the Pair contract.",
        "params": {
          "basePairAddr": "Address of the base pair.",
          "tradeToken_": "Address of the trade token."
        }
      },
      "owner()": {
        "details": "Returns the address of the current owner."
      },
      "renounceOwnership()": {
        "details": "Leaves the contract without owner. It will not be possible to call `onlyOwner` functions anymore. Can only be called by the current owner. NOTE: Renouncing ownership will leave the contract without an owner, thereby removing any functionality that is only available to the owner."
      },
      "reserve()": {
        "returns": {
          "_0": "The reserve amount."
        }
      },
      "sell(address,address,(address,uint256),address,uint256,uint256)": {
        "params": {
          "caller": "Address of the caller.",
          "inPayment": "Details of the payment for the sell order.",
          "outPair": "Address of the pair to sell to.",
          "referrerOfCaller": "Address of the referrer of the caller.",
          "slippage": "Maximum slippage allowed.",
          "totalFeePercent": "Total fee percentage."
        }
      },
      "takeFees(address,uint256,uint256)": {
        "details": "This must be called on the out pair side",
        "params": {
          "amount": "amount to compute and deduct fee from",
          "referrer": "the user address to receive part of fee",
          "totalFeePercent": "the fee percentage"
        }
      },
      "transferOwnership(address)": {
        "details": "Transfers ownership of the contract to a new account (`newOwner`). Can only be called by the current owner."
      }
    },
    "title": "Pair",
    "version": 1
  },
  "userdoc": {
    "errors": {
      "ErrorKInvariantFailed()": [
        {
          "notice": "K invariant failed"
        }
      ],
      "ErrorSafePriceCurrentIndex(uint256,uint256)": [
        {
          "notice": "The current safe price index of `currentIndex` is greater than the maximum number of observations `maxIndex`"
        }
      ],
      "IndexOutOfRangeErrMsg()": [
        {
          "notice": "index out of range"
        }
      ]
    },
    "kind": "user",
    "methods": {
      "addLiquidity((address,uint256),address)": {
        "notice": "Adds liquidity to the pair."
      },
      "completeSell(address,uint256)": {
        "notice": "Completes a sell order on the outPair side."
      },
      "reserve()": {
        "notice": "Returns the total amount of tradeToken that can be bought from this Pair."
      },
      "sell(address,address,(address,uint256),address,uint256,uint256)": {
        "notice": "Executes a sell order."
      },
      "takeFees(address,uint256,uint256)": {
        "notice": "Takes fee and update balances of beneficiaries"
      }
    },
    "version": 1
  },
  "storageLayout": {
    "storage": [
      {
        "astId": 7,
        "contract": "contracts/pair/Pair.sol:Pair",
        "label": "_owner",
        "offset": 0,
        "slot": "0",
        "type": "t_address"
      },
      {
        "astId": 2871,
        "contract": "contracts/pair/Pair.sol:Pair",
        "label": "deposits",
        "offset": 0,
        "slot": "1",
        "type": "t_uint256"
      },
      {
        "astId": 2873,
        "contract": "contracts/pair/Pair.sol:Pair",
        "label": "sales",
        "offset": 0,
        "slot": "2",
        "type": "t_uint256"
      },
      {
        "astId": 2875,
        "contract": "contracts/pair/Pair.sol:Pair",
        "label": "rewards",
        "offset": 0,
        "slot": "3",
        "type": "t_uint256"
      },
      {
        "astId": 2877,
        "contract": "contracts/pair/Pair.sol:Pair",
        "label": "lpSupply",
        "offset": 0,
        "slot": "4",
        "type": "t_uint256"
      },
      {
        "astId": 2885,
        "contract": "contracts/pair/Pair.sol:Pair",
        "label": "safePrices",
        "offset": 0,
        "slot": "5",
        "type": "t_mapping(t_address,t_struct(SafePriceData)3937_storage)"
      }
    ],
    "types": {
      "t_address": {
        "encoding": "inplace",
        "label": "address",
        "numberOfBytes": "20"
      },
      "t_array(t_uint256)dyn_storage": {
        "base": "t_uint256",
        "encoding": "dynamic_array",
        "label": "uint256[]",
        "numberOfBytes": "32"
      },
      "t_mapping(t_address,t_struct(SafePriceData)3937_storage)": {
        "encoding": "mapping",
        "key": "t_address",
        "label": "mapping(address => struct SafePriceData)",
        "numberOfBytes": "32",
        "value": "t_struct(SafePriceData)3937_storage"
      },
      "t_mapping(t_uint256,t_struct(IndexValue)3782_storage)": {
        "encoding": "mapping",
        "key": "t_uint256",
        "label": "mapping(uint256 => struct IndexValue)",
        "numberOfBytes": "32",
        "value": "t_struct(IndexValue)3782_storage"
      },
      "t_struct(IndexValue)3782_storage": {
        "encoding": "inplace",
        "label": "struct IndexValue",
        "members": [
          {
            "astId": 3778,
            "contract": "contracts/pair/Pair.sol:Pair",
            "label": "keyIndex",
            "offset": 0,
            "slot": "0",
            "type": "t_uint256"
          },
          {
            "astId": 3781,
            "contract": "contracts/pair/Pair.sol:Pair",
            "label": "value",
            "offset": 0,
            "slot": "1",
            "type": "t_struct(PriceObservation)3776_storage"
          }
        ],
        "numberOfBytes": "160"
      },
      "t_struct(PriceObservation)3776_storage": {
        "encoding": "inplace",
        "label": "struct PriceObservation",
        "members": [
          {
            "astId": 3769,
            "contract": "contracts/pair/Pair.sol:Pair",
            "label": "firstTokenReserveAccumulated",
            "offset": 0,
            "slot": "0",
            "type": "t_uint256"
          },
          {
            "astId": 3771,
            "contract": "contracts/pair/Pair.sol:Pair",
            "label": "secondTokenReserveAccumulated",
            "offset": 0,
            "slot": "1",
            "type": "t_uint256"
          },
          {
            "astId": 3773,
            "contract": "contracts/pair/Pair.sol:Pair",
            "label": "weightAccumulated",
            "offset": 0,
            "slot": "2",
            "type": "t_uint256"
          },
          {
            "astId": 3775,
            "contract": "contracts/pair/Pair.sol:Pair",
            "label": "recordingRound",
            "offset": 0,
            "slot": "3",
            "type": "t_uint256"
          }
        ],
        "numberOfBytes": "128"
      },
      "t_struct(SafePriceData)3937_storage": {
        "encoding": "inplace",
        "label": "struct SafePriceData",
        "members": [
          {
            "astId": 3933,
            "contract": "contracts/pair/Pair.sol:Pair",
            "label": "safePriceCurrentIndex",
            "offset": 0,
            "slot": "0",
            "type": "t_uint256"
          },
          {
            "astId": 3936,
            "contract": "contracts/pair/Pair.sol:Pair",
            "label": "priceObservations",
            "offset": 0,
            "slot": "1",
            "type": "t_struct(priceObsvec)3793_storage"
          }
        ],
        "numberOfBytes": "128"
      },
      "t_struct(priceObsvec)3793_storage": {
        "encoding": "inplace",
        "label": "struct priceObsvec",
        "members": [
          {
            "astId": 3787,
            "contract": "contracts/pair/Pair.sol:Pair",
            "label": "data",
            "offset": 0,
            "slot": "0",
            "type": "t_mapping(t_uint256,t_struct(IndexValue)3782_storage)"
          },
          {
            "astId": 3790,
            "contract": "contracts/pair/Pair.sol:Pair",
            "label": "keys",
            "offset": 0,
            "slot": "1",
            "type": "t_array(t_uint256)dyn_storage"
          },
          {
            "astId": 3792,
            "contract": "contracts/pair/Pair.sol:Pair",
            "label": "length",
            "offset": 0,
            "slot": "2",
            "type": "t_uint256"
          }
        ],
        "numberOfBytes": "96"
      },
      "t_uint256": {
        "encoding": "inplace",
        "label": "uint256",
        "numberOfBytes": "32"
      }
    }
  }
}