{
  "address": "0xDB2F57a2F86EB603C86f19BbD80ecEa15b67a98E",
  "abi": [
    {
      "inputs": [
        {
          "internalType": "address",
          "name": "firstToken_",
          "type": "address"
        },
        {
          "internalType": "address",
          "name": "secondToken_",
          "type": "address"
        },
        {
          "internalType": "address",
          "name": "routerAddress_",
          "type": "address"
        },
        {
          "internalType": "address",
          "name": "routerOwnerAddress",
          "type": "address"
        },
        {
          "internalType": "uint256",
          "name": "totalFeePercent_",
          "type": "uint256"
        },
        {
          "internalType": "uint256",
          "name": "specialFeePercent_",
          "type": "uint256"
        },
        {
          "internalType": "address",
          "name": "initialLiquidityAdder_",
          "type": "address"
        }
      ],
      "stateMutability": "nonpayable",
      "type": "constructor"
    },
    {
      "inputs": [],
      "name": "ErrorBadPaymentTokens",
      "type": "error"
    },
    {
      "inputs": [],
      "name": "ErrorBadPercents",
      "type": "error"
    },
    {
      "inputs": [],
      "name": "ErrorFirstLiquidity",
      "type": "error"
    },
    {
      "inputs": [],
      "name": "ErrorInitialLiquidityNotAdded",
      "type": "error"
    },
    {
      "inputs": [],
      "name": "ErrorInsufficientFirstToken",
      "type": "error"
    },
    {
      "inputs": [],
      "name": "ErrorInsufficientLiquidity",
      "type": "error"
    },
    {
      "inputs": [],
      "name": "ErrorInsufficientSecondToken",
      "type": "error"
    },
    {
      "inputs": [],
      "name": "ErrorInvalidArgs",
      "type": "error"
    },
    {
      "inputs": [],
      "name": "ErrorKInvariantFailed",
      "type": "error"
    },
    {
      "inputs": [],
      "name": "ErrorNotActive",
      "type": "error"
    },
    {
      "inputs": [],
      "name": "ErrorOptimalGreaterThanPaid",
      "type": "error"
    },
    {
      "inputs": [],
      "name": "ErrorPermissionDenied",
      "type": "error"
    },
    {
      "inputs": [
        {
          "internalType": "uint256",
          "name": "currentIndex",
          "type": "uint256"
        },
        {
          "internalType": "uint256",
          "name": "maxIndex",
          "type": "uint256"
        }
      ],
      "name": "ErrorSafePriceCurrentIndex",
      "type": "error"
    },
    {
      "inputs": [],
      "name": "ErrorSameTokens",
      "type": "error"
    },
    {
      "inputs": [],
      "name": "IndexOutOfRangeErrMsg",
      "type": "error"
    },
    {
      "inputs": [],
      "name": "InvalidTokenAddress",
      "type": "error"
    },
    {
      "anonymous": false,
      "inputs": [
        {
          "indexed": true,
          "internalType": "address",
          "name": "firstToken",
          "type": "address"
        },
        {
          "indexed": true,
          "internalType": "address",
          "name": "secondToken",
          "type": "address"
        },
        {
          "indexed": true,
          "internalType": "address",
          "name": "caller",
          "type": "address"
        },
        {
          "components": [
            {
              "internalType": "address",
              "name": "caller",
              "type": "address"
            },
            {
              "internalType": "address",
              "name": "firstTokenId",
              "type": "address"
            },
            {
              "internalType": "uint256",
              "name": "firstTokenAmount",
              "type": "uint256"
            },
            {
              "internalType": "address",
              "name": "secondTokenId",
              "type": "address"
            },
            {
              "internalType": "uint256",
              "name": "secondTokenAmount",
              "type": "uint256"
            },
            {
              "internalType": "address",
              "name": "lpTokenId",
              "type": "address"
            },
            {
              "internalType": "uint256",
              "name": "lpTokenAmount",
              "type": "uint256"
            },
            {
              "internalType": "uint256",
              "name": "lpSupply",
              "type": "uint256"
            },
            {
              "internalType": "uint256",
              "name": "firstTokenReserves",
              "type": "uint256"
            },
            {
              "internalType": "uint256",
              "name": "secondTokenReserves",
              "type": "uint256"
            },
            {
              "internalType": "uint256",
              "name": "block",
              "type": "uint256"
            },
            {
              "internalType": "uint256",
              "name": "timestamp",
              "type": "uint256"
            }
          ],
          "indexed": false,
          "internalType": "struct AddLiquidityModule.AddLiquidityEvent",
          "name": "addLiquidityEvent",
          "type": "tuple"
        }
      ],
      "name": "AddLiquidity",
      "type": "event"
    },
    {
      "anonymous": false,
      "inputs": [
        {
          "indexed": true,
          "internalType": "address",
          "name": "owner",
          "type": "address"
        },
        {
          "indexed": true,
          "internalType": "address",
          "name": "spender",
          "type": "address"
        },
        {
          "indexed": false,
          "internalType": "uint256",
          "name": "value",
          "type": "uint256"
        }
      ],
      "name": "Approval",
      "type": "event"
    },
    {
      "anonymous": false,
      "inputs": [
        {
          "indexed": true,
          "internalType": "bytes32",
          "name": "role",
          "type": "bytes32"
        },
        {
          "indexed": true,
          "internalType": "bytes32",
          "name": "previousAdminRole",
          "type": "bytes32"
        },
        {
          "indexed": true,
          "internalType": "bytes32",
          "name": "newAdminRole",
          "type": "bytes32"
        }
      ],
      "name": "RoleAdminChanged",
      "type": "event"
    },
    {
      "anonymous": false,
      "inputs": [
        {
          "indexed": true,
          "internalType": "bytes32",
          "name": "role",
          "type": "bytes32"
        },
        {
          "indexed": true,
          "internalType": "address",
          "name": "account",
          "type": "address"
        },
        {
          "indexed": true,
          "internalType": "address",
          "name": "sender",
          "type": "address"
        }
      ],
      "name": "RoleGranted",
      "type": "event"
    },
    {
      "anonymous": false,
      "inputs": [
        {
          "indexed": true,
          "internalType": "bytes32",
          "name": "role",
          "type": "bytes32"
        },
        {
          "indexed": true,
          "internalType": "address",
          "name": "account",
          "type": "address"
        },
        {
          "indexed": true,
          "internalType": "address",
          "name": "sender",
          "type": "address"
        }
      ],
      "name": "RoleRevoked",
      "type": "event"
    },
    {
      "anonymous": false,
      "inputs": [
        {
          "indexed": true,
          "internalType": "address",
          "name": "from",
          "type": "address"
        },
        {
          "indexed": true,
          "internalType": "address",
          "name": "to",
          "type": "address"
        },
        {
          "indexed": false,
          "internalType": "uint256",
          "name": "value",
          "type": "uint256"
        }
      ],
      "name": "Transfer",
      "type": "event"
    },
    {
      "inputs": [],
      "name": "DEFAULT_ADMIN_ROLE",
      "outputs": [
        {
          "internalType": "bytes32",
          "name": "",
          "type": "bytes32"
        }
      ],
      "stateMutability": "view",
      "type": "function"
    },
    {
      "inputs": [
        {
          "internalType": "uint256",
          "name": "firstTokenAmountMin",
          "type": "uint256"
        },
        {
          "internalType": "uint256",
          "name": "secondTokenAmountMin",
          "type": "uint256"
        },
        {
          "components": [
            {
              "internalType": "address",
              "name": "tokenAddress",
              "type": "address"
            },
            {
              "internalType": "uint256",
              "name": "amount",
              "type": "uint256"
            }
          ],
          "internalType": "struct ERC20TokenPayment",
          "name": "firstPayment",
          "type": "tuple"
        },
        {
          "components": [
            {
              "internalType": "address",
              "name": "tokenAddress",
              "type": "address"
            },
            {
              "internalType": "uint256",
              "name": "amount",
              "type": "uint256"
            }
          ],
          "internalType": "struct ERC20TokenPayment",
          "name": "secondPayment",
          "type": "tuple"
        }
      ],
      "name": "addLiquidity",
      "outputs": [
        {
          "components": [
            {
              "components": [
                {
                  "internalType": "address",
                  "name": "tokenAddress",
                  "type": "address"
                },
                {
                  "internalType": "uint256",
                  "name": "amount",
                  "type": "uint256"
                }
              ],
              "internalType": "struct ERC20TokenPayment",
              "name": "lpPayment",
              "type": "tuple"
            },
            {
              "components": [
                {
                  "internalType": "address",
                  "name": "tokenAddress",
                  "type": "address"
                },
                {
                  "internalType": "uint256",
                  "name": "amount",
                  "type": "uint256"
                }
              ],
              "internalType": "struct ERC20TokenPayment",
              "name": "firstTokenPayment",
              "type": "tuple"
            },
            {
              "components": [
                {
                  "internalType": "address",
                  "name": "tokenAddress",
                  "type": "address"
                },
                {
                  "internalType": "uint256",
                  "name": "amount",
                  "type": "uint256"
                }
              ],
              "internalType": "struct ERC20TokenPayment",
              "name": "secondTokenPayment",
              "type": "tuple"
            }
          ],
          "internalType": "struct AddLiquidityResultType",
          "name": "output",
          "type": "tuple"
        }
      ],
      "stateMutability": "nonpayable",
      "type": "function"
    },
    {
      "inputs": [
        {
          "internalType": "address",
          "name": "owner",
          "type": "address"
        },
        {
          "internalType": "address",
          "name": "spender",
          "type": "address"
        }
      ],
      "name": "allowance",
      "outputs": [
        {
          "internalType": "uint256",
          "name": "",
          "type": "uint256"
        }
      ],
      "stateMutability": "view",
      "type": "function"
    },
    {
      "inputs": [
        {
          "internalType": "address",
          "name": "spender",
          "type": "address"
        },
        {
          "internalType": "uint256",
          "name": "amount",
          "type": "uint256"
        }
      ],
      "name": "approve",
      "outputs": [
        {
          "internalType": "bool",
          "name": "",
          "type": "bool"
        }
      ],
      "stateMutability": "nonpayable",
      "type": "function"
    },
    {
      "inputs": [
        {
          "internalType": "address",
          "name": "account",
          "type": "address"
        }
      ],
      "name": "balanceOf",
      "outputs": [
        {
          "internalType": "uint256",
          "name": "",
          "type": "uint256"
        }
      ],
      "stateMutability": "view",
      "type": "function"
    },
    {
      "inputs": [],
      "name": "decimals",
      "outputs": [
        {
          "internalType": "uint8",
          "name": "",
          "type": "uint8"
        }
      ],
      "stateMutability": "view",
      "type": "function"
    },
    {
      "inputs": [
        {
          "internalType": "address",
          "name": "spender",
          "type": "address"
        },
        {
          "internalType": "uint256",
          "name": "subtractedValue",
          "type": "uint256"
        }
      ],
      "name": "decreaseAllowance",
      "outputs": [
        {
          "internalType": "bool",
          "name": "",
          "type": "bool"
        }
      ],
      "stateMutability": "nonpayable",
      "type": "function"
    },
    {
      "inputs": [],
      "name": "firstToken",
      "outputs": [
        {
          "internalType": "address",
          "name": "",
          "type": "address"
        }
      ],
      "stateMutability": "view",
      "type": "function"
    },
    {
      "inputs": [
        {
          "internalType": "bytes32",
          "name": "role",
          "type": "bytes32"
        }
      ],
      "name": "getRoleAdmin",
      "outputs": [
        {
          "internalType": "bytes32",
          "name": "",
          "type": "bytes32"
        }
      ],
      "stateMutability": "view",
      "type": "function"
    },
    {
      "inputs": [
        {
          "internalType": "bytes32",
          "name": "role",
          "type": "bytes32"
        },
        {
          "internalType": "address",
          "name": "account",
          "type": "address"
        }
      ],
      "name": "grantRole",
      "outputs": [],
      "stateMutability": "nonpayable",
      "type": "function"
    },
    {
      "inputs": [
        {
          "internalType": "bytes32",
          "name": "role",
          "type": "bytes32"
        },
        {
          "internalType": "address",
          "name": "account",
          "type": "address"
        }
      ],
      "name": "hasRole",
      "outputs": [
        {
          "internalType": "bool",
          "name": "",
          "type": "bool"
        }
      ],
      "stateMutability": "view",
      "type": "function"
    },
    {
      "inputs": [
        {
          "internalType": "address",
          "name": "spender",
          "type": "address"
        },
        {
          "internalType": "uint256",
          "name": "addedValue",
          "type": "uint256"
        }
      ],
      "name": "increaseAllowance",
      "outputs": [
        {
          "internalType": "bool",
          "name": "",
          "type": "bool"
        }
      ],
      "stateMutability": "nonpayable",
      "type": "function"
    },
    {
      "inputs": [],
      "name": "name",
      "outputs": [
        {
          "internalType": "string",
          "name": "",
          "type": "string"
        }
      ],
      "stateMutability": "view",
      "type": "function"
    },
    {
      "inputs": [
        {
          "internalType": "bytes32",
          "name": "role",
          "type": "bytes32"
        },
        {
          "internalType": "address",
          "name": "account",
          "type": "address"
        }
      ],
      "name": "renounceRole",
      "outputs": [],
      "stateMutability": "nonpayable",
      "type": "function"
    },
    {
      "inputs": [],
      "name": "resume",
      "outputs": [],
      "stateMutability": "nonpayable",
      "type": "function"
    },
    {
      "inputs": [
        {
          "internalType": "bytes32",
          "name": "role",
          "type": "bytes32"
        },
        {
          "internalType": "address",
          "name": "account",
          "type": "address"
        }
      ],
      "name": "revokeRole",
      "outputs": [],
      "stateMutability": "nonpayable",
      "type": "function"
    },
    {
      "inputs": [],
      "name": "secondToken",
      "outputs": [
        {
          "internalType": "address",
          "name": "",
          "type": "address"
        }
      ],
      "stateMutability": "view",
      "type": "function"
    },
    {
      "inputs": [],
      "name": "state",
      "outputs": [
        {
          "internalType": "enum State",
          "name": "",
          "type": "uint8"
        }
      ],
      "stateMutability": "view",
      "type": "function"
    },
    {
      "inputs": [
        {
          "internalType": "bytes4",
          "name": "interfaceId",
          "type": "bytes4"
        }
      ],
      "name": "supportsInterface",
      "outputs": [
        {
          "internalType": "bool",
          "name": "",
          "type": "bool"
        }
      ],
      "stateMutability": "view",
      "type": "function"
    },
    {
      "inputs": [],
      "name": "symbol",
      "outputs": [
        {
          "internalType": "string",
          "name": "",
          "type": "string"
        }
      ],
      "stateMutability": "view",
      "type": "function"
    },
    {
      "inputs": [],
      "name": "totalSupply",
      "outputs": [
        {
          "internalType": "uint256",
          "name": "",
          "type": "uint256"
        }
      ],
      "stateMutability": "view",
      "type": "function"
    },
    {
      "inputs": [
        {
          "internalType": "address",
          "name": "to",
          "type": "address"
        },
        {
          "internalType": "uint256",
          "name": "amount",
          "type": "uint256"
        }
      ],
      "name": "transfer",
      "outputs": [
        {
          "internalType": "bool",
          "name": "",
          "type": "bool"
        }
      ],
      "stateMutability": "nonpayable",
      "type": "function"
    },
    {
      "inputs": [
        {
          "internalType": "address",
          "name": "from",
          "type": "address"
        },
        {
          "internalType": "address",
          "name": "to",
          "type": "address"
        },
        {
          "internalType": "uint256",
          "name": "amount",
          "type": "uint256"
        }
      ],
      "name": "transferFrom",
      "outputs": [
        {
          "internalType": "bool",
          "name": "",
          "type": "bool"
        }
      ],
      "stateMutability": "nonpayable",
      "type": "function"
    }
  ],
  "transactionHash": "0x510ba0a59ce15209726f1365d8acae5b4f11961f9d183bd2f98aef6a325527e7",
  "args": [
    "0x203fF00c274B2190314DfF2C366B1ff2F2Ab81Db",
    "0x0a80fd491b72d3170c3163420B73E6A2d3835B5e",
    "0x5345B2a60D92b9f02D578Fcf11bB39827aa29856",
    "0x8D0739d9D0d49aFCF8d101416cD2759Bf8922013",
    300,
    50,
    "0x0000000000000000000000000000000000000000"
  ],
  "numDeployments": 7,
  "solcInputHash": "f478984b6974a286bb609b133203a46d",
  "bytecode": "0x608060405234801561001057600080fd5b50604051612c20380380612c2083398101604081905261002f91610655565b604051806040016040528060078152602001660506169722d4c560cc1b815250604051806040016040528060038152602001620504c560ec1b815250816019908161007a919061076c565b50601a610087828261076c565b5050506001600160a01b0387166100b157604051630f58058360e11b815260040160405180910390fd5b6001600160a01b0386166100d857604051630f58058360e11b815260040160405180910390fd5b856001600160a01b0316876001600160a01b03160361010a5760405163cda1897360e01b815260040160405180910390fd5b61011483836102b4565b600a805460ff19169055600480546001600160a01b038781166001600160a01b031992831617909255600080548a8416908316178155600180548a851690841617905560088054831630179055600580549385169390921692909217905561017c90336102f3565b60408051600380825260808201909252600091602082016060803683370190505090507f6270edb7c868f86fda4adedba75108201087268ea345934db8bad688e1feb91b816000815181106101d3576101d361082a565b6020026020010181815250507fdf8b4c520ffe197c5343c6f5aec59570151ef9a492f2c624fd45ddde6135ec42816001815181106102135761021361082a565b6020026020010181815250507ffcb9fcbfa83b897fb2d5cf4b58962164105c1e71489a37ef3ae0db3fdce576f6816002815181106102535761025361082a565b60209081029190910101526004546102759082906001600160a01b0316610301565b61027f8186610301565b6102a7306001600160a01b03166000908152600b60205260409020805460ff19166001179055565b5050505050505050610963565b60035460025410806102ca5750620186a0600254115b156102e8576040516308eaef6360e41b815260040160405180910390fd5b600291909155600355565b6102fd8282610346565b5050565b60005b825181101561033e576103368382815181106103225761032261082a565b6020026020010151836103cc60201b60201c565b600101610304565b505050565b50565b61035082826103f1565b6102fd5760008281526009602090815260408083206001600160a01b03851684529091529020805460ff191660011790556103883390565b6001600160a01b0316816001600160a01b0316837f2f8788117e7eff1d82e926ec794901d17c78024a50270940304540a733656f0d60405160405180910390a45050565b6000828152600960205260409020600101546103e78161041e565b61033e8383610346565b60008281526009602090815260408083206001600160a01b038516845290915290205460ff165b92915050565b610343813361042d82826103f1565b6102fd5761043a81610485565b610445836020610497565b604051602001610456929190610864565b60408051601f198184030181529082905262461bcd60e51b825261047c916004016108d9565b60405180910390fd5b60606104186001600160a01b03831660145b606060006104a6836002610922565b6104b1906002610939565b6001600160401b038111156104c8576104c86106ce565b6040519080825280601f01601f1916602001820160405280156104f2576020820181803683370190505b509050600360fc1b8160008151811061050d5761050d61082a565b60200101906001600160f81b031916908160001a905350600f60fb1b8160018151811061053c5761053c61082a565b60200101906001600160f81b031916908160001a9053506000610560846002610922565b61056b906001610939565b90505b60018111156105e3576f181899199a1a9b1b9c1cb0b131b232b360811b85600f166010811061059f5761059f61082a565b1a60f81b8282815181106105b5576105b561082a565b60200101906001600160f81b031916908160001a90535060049490941c936105dc8161094c565b905061056e565b5083156106325760405162461bcd60e51b815260206004820181905260248201527f537472696e67733a20686578206c656e67746820696e73756666696369656e74604482015260640161047c565b9392505050565b80516001600160a01b038116811461065057600080fd5b919050565b600080600080600080600060e0888a03121561067057600080fd5b61067988610639565b965061068760208901610639565b955061069560408901610639565b94506106a360608901610639565b608089015160a08a0151919550935091506106c060c08901610639565b905092959891949750929550565b634e487b7160e01b600052604160045260246000fd5b600181811c908216806106f857607f821691505b60208210810361071857634e487b7160e01b600052602260045260246000fd5b50919050565b601f82111561033e57806000526020600020601f840160051c810160208510156107455750805b601f840160051c820191505b818110156107655760008155600101610751565b5050505050565b81516001600160401b03811115610785576107856106ce565b6107998161079384546106e4565b8461071e565b6020601f8211600181146107cd57600083156107b55750848201515b600019600385901b1c1916600184901b178455610765565b600084815260208120601f198516915b828110156107fd57878501518255602094850194600190920191016107dd565b508482101561081b5786840151600019600387901b60f8161c191681555b50505050600190811b01905550565b634e487b7160e01b600052603260045260246000fd5b60005b8381101561085b578181015183820152602001610843565b50506000910152565b7f416363657373436f6e74726f6c3a206163636f756e742000000000000000000081526000835161089c816017850160208801610840565b7001034b99036b4b9b9b4b733903937b6329607d1b60179184019182015283516108cd816028840160208801610840565b01602801949350505050565b60208152600082518060208401526108f8816040850160208701610840565b601f01601f19169190910160400192915050565b634e487b7160e01b600052601160045260246000fd5b80820281158282048414176104185761041861090c565b808201808211156104185761041861090c565b60008161095b5761095b61090c565b506000190190565b6122ae806109726000396000f3fe608060405234801561001057600080fd5b506004361061014d5760003560e01c806339509351116100c3578063a217fddf1161007c578063a217fddf14610323578063a457c2d71461032b578063a9059cbb1461033e578063c19d93fb14610351578063d547741f1461036b578063dd62ed3e1461037e57600080fd5b8063395093511461028e5780633bfd49da146102a15780636bb0e77b146102cc57806370a08231146102df57806391d148541461030857806395d89b411461031b57600080fd5b806318160ddd1161011557806318160ddd1461021157806323b872dd14610223578063248a9ca3146102365780632f2ff15d14610259578063313ce5671461026c57806336568abe1461027b57600080fd5b806301ffc9a714610152578063046f7da21461017a57806306fdde0314610184578063095ea7b31461019957806312c3890f146101ac575b600080fd5b610165610160366004611d83565b610391565b60405190151581526020015b60405180910390f35b6101826103c8565b005b61018c6103df565b6040516101719190611dd1565b6101656101a7366004611e20565b610471565b6101bf6101ba366004611ec5565b610489565b60408051825180516001600160a01b03908116835260209182015182840152818501518051821684860152820151606084015293909201518051909316608082015291015160a082015260c001610171565b6018545b604051908152602001610171565b610165610231366004611f0d565b6107bb565b610215610244366004611f4a565b60009081526009602052604090206001015490565b610182610267366004611f63565b6107df565b60405160128152602001610171565b610182610289366004611f63565b610809565b61016561029c366004611e20565b61088c565b6001546102b4906001600160a01b031681565b6040516001600160a01b039091168152602001610171565b6000546102b4906001600160a01b031681565b6102156102ed366004611f8f565b6001600160a01b031660009081526016602052604090205490565b610165610316366004611f63565b6108ae565b61018c6108d9565b610215600081565b610165610339366004611e20565b6108e8565b61016561034c366004611e20565b610963565b600a5461035e9060ff1681565b6040516101719190611fc0565b610182610379366004611f63565b610971565b61021561038c366004611fe8565b610996565b60006001600160e01b03198216637965db0b60e01b14806103c257506301ffc9a760e01b6001600160e01b03198316145b92915050565b6103d06109c1565b600a805460ff19166001179055565b6060601980546103ee90612012565b80601f016020809104026020016040519081016040528092919081815260200182805461041a90612012565b80156104675780601f1061043c57610100808354040283529160200191610467565b820191906000526020600020905b81548152906001019060200180831161044a57829003601f168201915b5050505050905090565b60003361047f8185856109ec565b5060019392505050565b610491611cba565b600a546010805460ff9092169160ff191660018360028111156104b6576104b6611faa565b021790555060085460108054610100600160a81b0319166101006001600160a01b039384160217905560008054601180549184166001600160a01b0319928316811790915560015460128054919095169216821790935591815260066020526040808220546013559181522054601455600754601555841580610537575083155b15610555576040516309b5751960e01b815260040160405180910390fd5b3360008061056530848888610b10565b60115491935091506105819083906001600160a01b0316610c4c565b6012546105989082906001600160a01b0316610c4c565b6010546105a79060ff16610c91565b6105c457604051636416bf0f60e11b815260040160405180910390fd5b6005546001600160a01b031615806105dd575060155415155b6105fa5760405163c6d3cbc160e01b815260040160405180910390fd5b60135460145461060a9190610cc9565b60135460145460009161061c91610dd2565b9050600061063661062f89898d8d610de5565b6010610e1a565b6015549091501561065a5761065581608001518260a001516010610f26565b61066e565b61066e81608001518260a001516010610ff3565b60c082015260135460145460009161068591610dd2565b9050808311156106a857604051631d9ab40760e31b815260040160405180910390fd5b6106b6308360c00151611081565b604080518082019091526010805461010090046001600160a01b0316825260c084015160208301526000906106eb9085611142565b90508181600183516106fd919061205c565b8151811061070d5761070d61206f565b6020026020010181905250610722888261124b565b61072d60108561129e565b985061073a601085611325565b505060138054600080546001600160a01b03908116825260066020526040808320939093556014805460015490921683529282205560158054600755601080546001600160a81b0319169055601180546001600160a01b03199081169091556012805490911690559281905590819055905550949998505050505050505050565b6000336107c9858285611400565b6107d485858561147a565b506001949350505050565b6000828152600960205260409020600101546107fa81611625565b6108048383611632565b505050565b6001600160a01b038116331461087e5760405162461bcd60e51b815260206004820152602f60248201527f416363657373436f6e74726f6c3a2063616e206f6e6c792072656e6f756e636560448201526e103937b632b9903337b91039b2b63360891b60648201526084015b60405180910390fd5b61088882826116b8565b5050565b60003361047f81858561089f8383610996565b6108a99190612085565b6109ec565b60009182526009602090815260408084206001600160a01b0393909316845291905290205460ff1690565b6060601a80546103ee90612012565b600033816108f68286610996565b9050838110156109565760405162461bcd60e51b815260206004820152602560248201527f45524332303a2064656372656173656420616c6c6f77616e63652062656c6f77604482015264207a65726f60d81b6064820152608401610875565b6107d482868684036109ec565b60003361047f81858561147a565b60008281526009602052604090206001015461098c81611625565b61080483836116b8565b6001600160a01b03918216600090815260176020908152604080832093909416825291909152205490565b6109ea7ffcb9fcbfa83b897fb2d5cf4b58962164105c1e71489a37ef3ae0db3fdce576f661171f565b565b6001600160a01b038316610a4e5760405162461bcd60e51b8152602060048201526024808201527f45524332303a20617070726f76652066726f6d20746865207a65726f206164646044820152637265737360e01b6064820152608401610875565b6001600160a01b038216610aaf5760405162461bcd60e51b815260206004820152602260248201527f45524332303a20617070726f766520746f20746865207a65726f206164647265604482015261737360f01b6064820152608401610875565b6001600160a01b0383811660008181526017602090815260408083209487168084529482529182902085905590518481527f8c5be1e5ebec7d5bd14f71427d1e84f3dd0314c0f7b2291e5b200ac8c7c3b925910160405180910390a3505050565b60408051808201909152600080825260208201526040805180820190915260008082526020820152835160208501516040516323b872dd60e01b81526001600160a01b038881166004830152898116602483015260448201929092529116906323b872dd906064016020604051808303816000875af1158015610b97573d6000803e3d6000fd5b505050506040513d601f19601f82011682018060405250810190610bbb9190612098565b50825160208401516040516323b872dd60e01b81526001600160a01b038881166004830152898116602483015260448201929092529116906323b872dd906064016020604051808303816000875af1158015610c1b573d6000803e3d6000fd5b505050506040513d601f19601f82011682018060405250810190610c3f9190612098565b5092959194509092505050565b806001600160a01b031682600001516001600160a01b0316141580610c7357506020820151155b15610888576040516306215bb160e41b815260040160405180910390fd5b60006001826002811115610ca757610ca7611faa565b14806103c257506002826002811115610cc257610cc2611faa565b1492915050565b811580610cd4575080155b15610cdd575050565b600c544390620100001015610d1557600c5460405163e3bb1f6360e01b81526004810191909152620100006024820152604401610875565b610d406040518060800160405280600081526020016000815260200160008152602001600081525090565b600f5460019015610d7b57600c54610d5a90600d90611746565b915062010000600c54610d6d91906120d0565b610d78906001612085565b90505b82826060015103610d8d575050505050565b6000610d9b848787866117da565b600f5490915061ffff1901610dbb57610db6600d8383611891565b610dc8565b610dc6600d826118eb565b505b50600c5550505050565b6000610dde82846120e4565b9392505050565b610ded611d1b565b93845260208401929092526040830152606082015260006080820181905260a0820181905260c082015290565b610e22611d1b565b825160209081015181850151909101516005840154158015610e535750608085019190915260a084015250816103c2565b6000610e688487600301548860040154611955565b9050828111610e84576080870184905260a08701819052610ec9565b6000610e998488600401548960030154611955565b905084811115610ebc5760405163eeaff21160e01b815260040160405180910390fd5b608088015260a087018390525b866040015187608001511015610ef257604051633e742e3960e11b815260040160405180910390fd5b86606001518760a001511015610f1b57604051634197d92760e11b815260040160405180910390fd5b509495945050505050565b6000808260030154836005015486610f3e91906120e4565b610f4891906120fb565b905060008360040154846005015486610f6191906120e4565b610f6b91906120fb565b9050610f77828261196c565b925060008311610f9a5760405163b268a92160e01b815260040160405180910390fd5b82846005016000828254610fae9190612085565b9250508190555085846003016000828254610fc99190612085565b9250508190555084846004016000828254610fe49190612085565b90915550929695505050505050565b6000610fff848461196c565b90506103e881116110235760405163faa643bf60e01b815260040160405180910390fd5b61102f306103e8611081565b8082600501819055508382600301600082825461104c9190612085565b92505081905550828260040160008282546110679190612085565b9091555061107990506103e88261205c565b949350505050565b6001600160a01b0382166110d75760405162461bcd60e51b815260206004820152601f60248201527f45524332303a206d696e7420746f20746865207a65726f2061646472657373006044820152606401610875565b80601860008282546110e99190612085565b90915550506001600160a01b0382166000818152601660209081526040808320805486019055518481527fddf252ad1be2c89b69c2b068fc378daa952ba7f163c4a11628f55a4df523b3ef910160405180910390a35050565b60408051600380825260808201909252606091816020015b604080518082019091526000808252602082015281526020019060019003908161115a5750506040805180820190915260018501546001600160a01b03168152608084015184516020908101519394509192918301916111ba919061205c565b815250816000815181106111d0576111d061206f565b602002602001018190525060405180604001604052808460020160009054906101000a90046001600160a01b03166001600160a01b031681526020018360a00151846020015160200151611224919061205c565b8152508160018151811061123a5761123a61206f565b602002602001018190525092915050565b60005b815181101561080457600082828151811061126b5761126b61206f565b60200260200101519050600081602001511115611295576112958160000151858360200151611982565b5060010161124e565b6112a6611cba565b506040805160a08082018352845461010090046001600160a01b039081166060840190815260c08601516080808601919091529084528451808601865260018801548316815290860151602080830191909152808501919091528451808601865260029097015490911686529301519284019290925281019190915290565b600282015460018301546040805161018081018252338082526001600160a01b0393841660208301819052608080880151848601529585166060840181905260a080890151978501979097528854610100908190049096169684019690965260c08088015190840152600588015460e084015260038801549483019490945260048701546101208301524361014083015242610160830152915191938493909290917f8253ffe2e69456e5365611ba821ba32a1a574e4af4bdc6e18892a1e2f4db928a916113f3919061210f565b60405180910390a4505050565b600061140c8484610996565b9050600019811461147457818110156114675760405162461bcd60e51b815260206004820152601d60248201527f45524332303a20696e73756666696369656e7420616c6c6f77616e63650000006044820152606401610875565b61147484848484036109ec565b50505050565b6001600160a01b0383166114de5760405162461bcd60e51b815260206004820152602560248201527f45524332303a207472616e736665722066726f6d20746865207a65726f206164604482015264647265737360d81b6064820152608401610875565b6001600160a01b0382166115405760405162461bcd60e51b815260206004820152602360248201527f45524332303a207472616e7366657220746f20746865207a65726f206164647260448201526265737360e81b6064820152608401610875565b6001600160a01b038316600090815260166020526040902054818110156115b85760405162461bcd60e51b815260206004820152602660248201527f45524332303a207472616e7366657220616d6f756e7420657863656564732062604482015265616c616e636560d01b6064820152608401610875565b6001600160a01b0380851660008181526016602052604080822086860390559286168082529083902080548601905591517fddf252ad1be2c89b69c2b068fc378daa952ba7f163c4a11628f55a4df523b3ef906116189086815260200190565b60405180910390a3611474565b61162f8133611ab3565b50565b61163c82826108ae565b6108885760008281526009602090815260408083206001600160a01b03851684529091529020805460ff191660011790556116743390565b6001600160a01b0316816001600160a01b0316837f2f8788117e7eff1d82e926ec794901d17c78024a50270940304540a733656f0d60405160405180910390a45050565b6116c282826108ae565b156108885760008281526009602090815260408083206001600160a01b0385168085529252808320805460ff1916905551339285917ff6391f5c32d9c69d2a47ea670b442974b53935d1edc7fd64eb21e047a839171b9190a45050565b61172981336108ae565b61162f5760405163255ae6ed60e01b815260040160405180910390fd5b6117716040518060800160405280600081526020016000815260200160008152602001600081525090565b82600201548211156117965760405163038f948b60e21b815260040160405180910390fd5b506000908152602091825260409081902081516080810183526001820154815260028201549381019390935260038101549183019190915260040154606082015290565b6118056040518060800160405280600081526020016000815260200160008152602001600081525090565b60008260600151600014611827576060830151611822908761205c565b61182a565b60015b839250905061183985826120e4565b82518390611848908390612085565b90525061185584826120e4565b826020018181516118669190612085565b90525060408201805182919061187d908390612085565b905250506060810194909452509192915050565b82600201548211156118b65760405163038f948b60e21b815260040160405180910390fd5b600082815260209384526040908190208251600182015593820151600285015581015160038401556060015160048301559055565b600060018360020160008282546119029190612085565b909155505050600280830180546000908152602085815260408083208651600182015591860151948201949094558385015160038201556060850151600490910155905480825291902081905592915050565b60008261196283866120e4565b61107991906120fb565b600081831161197c5750816103c2565b50919050565b604080516001600160a01b038481166024830152604480830185905283518084039091018152606490920183526020820180516001600160e01b031663a9059cbb60e01b17905291516000928392908716916119de91906121d0565b6000604051808303816000865af19150503d8060008114611a1b576040519150601f19603f3d011682016040523d82523d6000602084013e611a20565b606091505b5091509150818015611a4a575080511580611a4a575080806020019051810190611a4a9190612098565b611aac5760405162461bcd60e51b815260206004820152602d60248201527f5472616e7366657248656c7065723a3a736166655472616e736665723a20747260448201526c185b9cd9995c8819985a5b1959609a1b6064820152608401610875565b5050505050565b611abd82826108ae565b61088857611aca81611b0c565b611ad5836020611b1e565b604051602001611ae69291906121ec565b60408051601f198184030181529082905262461bcd60e51b825261087591600401611dd1565b60606103c26001600160a01b03831660145b60606000611b2d8360026120e4565b611b38906002612085565b67ffffffffffffffff811115611b5057611b50611e4a565b6040519080825280601f01601f191660200182016040528015611b7a576020820181803683370190505b509050600360fc1b81600081518110611b9557611b9561206f565b60200101906001600160f81b031916908160001a905350600f60fb1b81600181518110611bc457611bc461206f565b60200101906001600160f81b031916908160001a9053506000611be88460026120e4565b611bf3906001612085565b90505b6001811115611c6b576f181899199a1a9b1b9c1cb0b131b232b360811b85600f1660108110611c2757611c2761206f565b1a60f81b828281518110611c3d57611c3d61206f565b60200101906001600160f81b031916908160001a90535060049490941c93611c6481612261565b9050611bf6565b508315610dde5760405162461bcd60e51b815260206004820181905260248201527f537472696e67733a20686578206c656e67746820696e73756666696369656e746044820152606401610875565b6040805160a08101909152600060608201818152608083019190915281908152602001611cf7604080518082019091526000808252602082015290565b8152602001611d16604080518082019091526000808252602082015290565b905290565b604080516101208101909152600060e0820181815261010083019190915281908152602001611d5a604080518082019091526000808252602082015290565b815260200160008152602001600081526020016000815260200160008152602001600081525090565b600060208284031215611d9557600080fd5b81356001600160e01b031981168114610dde57600080fd5b60005b83811015611dc8578181015183820152602001611db0565b50506000910152565b6020815260008251806020840152611df0816040850160208701611dad565b601f01601f19169190910160400192915050565b80356001600160a01b0381168114611e1b57600080fd5b919050565b60008060408385031215611e3357600080fd5b611e3c83611e04565b946020939093013593505050565b634e487b7160e01b600052604160045260246000fd5b600060408284031215611e7257600080fd5b6040516040810181811067ffffffffffffffff82111715611ea357634e487b7160e01b600052604160045260246000fd5b604052905080611eb283611e04565b8152602092830135920191909152919050565b60008060008060c08587031215611edb57600080fd5b8435935060208501359250611ef38660408701611e60565b9150611f028660808701611e60565b905092959194509250565b600080600060608486031215611f2257600080fd5b611f2b84611e04565b9250611f3960208501611e04565b929592945050506040919091013590565b600060208284031215611f5c57600080fd5b5035919050565b60008060408385031215611f7657600080fd5b82359150611f8660208401611e04565b90509250929050565b600060208284031215611fa157600080fd5b610dde82611e04565b634e487b7160e01b600052602160045260246000fd5b6020810160038310611fe257634e487b7160e01b600052602160045260246000fd5b91905290565b60008060408385031215611ffb57600080fd5b61200483611e04565b9150611f8660208401611e04565b600181811c9082168061202657607f821691505b60208210810361197c57634e487b7160e01b600052602260045260246000fd5b634e487b7160e01b600052601160045260246000fd5b818103818111156103c2576103c2612046565b634e487b7160e01b600052603260045260246000fd5b808201808211156103c2576103c2612046565b6000602082840312156120aa57600080fd5b81518015158114610dde57600080fd5b634e487b7160e01b600052601260045260246000fd5b6000826120df576120df6120ba565b500690565b80820281158282048414176103c2576103c2612046565b60008261210a5761210a6120ba565b500490565b81516001600160a01b031681526101808101602083015161213b60208401826001600160a01b03169052565b5060408301516040830152606083015161216060608401826001600160a01b03169052565b506080830151608083015260a083015161218560a08401826001600160a01b03169052565b5060c083015160c083015260e083015160e083015261010083015161010083015261012083015161012083015261014083015161014083015261016083015161016083015292915050565b600082516121e2818460208701611dad565b9190910192915050565b7f416363657373436f6e74726f6c3a206163636f756e7420000000000000000000815260008351612224816017850160208801611dad565b7001034b99036b4b9b9b4b733903937b6329607d1b6017918401918201528351612255816028840160208801611dad565b01602801949350505050565b60008161227057612270612046565b50600019019056fea264697066735822122016c649778a4d4b5852319fe5a1df100ced6765466cd13e3a1e5a58ace300d64f64736f6c634300081a0033",
  "devdoc": {
    "errors": {
      "ErrorSafePriceCurrentIndex(uint256,uint256)": [
        {
          "params": {
            "currentIndex": "the current index",
            "maxIndex": "the maximum possible index"
          }
        }
      ]
    },
    "events": {
      "Approval(address,address,uint256)": {
        "details": "Emitted when the allowance of a `spender` for an `owner` is set by a call to {approve}. `value` is the new allowance."
      },
      "RoleAdminChanged(bytes32,bytes32,bytes32)": {
        "details": "Emitted when `newAdminRole` is set as ``role``'s admin role, replacing `previousAdminRole` `DEFAULT_ADMIN_ROLE` is the starting admin for all roles, despite {RoleAdminChanged} not being emitted signaling this. _Available since v3.1._"
      },
      "RoleGranted(bytes32,address,address)": {
        "details": "Emitted when `account` is granted `role`. `sender` is the account that originated the contract call, an admin role bearer except when using {AccessControl-_setupRole}."
      },
      "RoleRevoked(bytes32,address,address)": {
        "details": "Emitted when `account` is revoked `role`. `sender` is the account that originated the contract call:   - if using `revokeRole`, it is the admin role bearer   - if using `renounceRole`, it is the role bearer (i.e. `account`)"
      },
      "Transfer(address,address,uint256)": {
        "details": "Emitted when `value` tokens are moved from one account (`from`) to another (`to`). Note that `value` may be zero."
      }
    },
    "kind": "dev",
    "methods": {
      "allowance(address,address)": {
        "details": "See {IERC20-allowance}."
      },
      "approve(address,uint256)": {
        "details": "See {IERC20-approve}. NOTE: If `amount` is the maximum `uint256`, the allowance is not updated on `transferFrom`. This is semantically equivalent to an infinite approval. Requirements: - `spender` cannot be the zero address."
      },
      "balanceOf(address)": {
        "details": "See {IERC20-balanceOf}."
      },
      "decimals()": {
        "details": "Returns the number of decimals used to get its user representation. For example, if `decimals` equals `2`, a balance of `505` tokens should be displayed to a user as `5.05` (`505 / 10 ** 2`). Tokens usually opt for a value of 18, imitating the relationship between Ether and Wei. This is the value {ERC20} uses, unless this function is overridden; NOTE: This information is only used for _display_ purposes: it in no way affects any of the arithmetic of the contract, including {IERC20-balanceOf} and {IERC20-transfer}."
      },
      "decreaseAllowance(address,uint256)": {
        "details": "Atomically decreases the allowance granted to `spender` by the caller. This is an alternative to {approve} that can be used as a mitigation for problems described in {IERC20-approve}. Emits an {Approval} event indicating the updated allowance. Requirements: - `spender` cannot be the zero address. - `spender` must have allowance for the caller of at least `subtractedValue`."
      },
      "getRoleAdmin(bytes32)": {
        "details": "Returns the admin role that controls `role`. See {grantRole} and {revokeRole}. To change a role's admin, use {_setRoleAdmin}."
      },
      "grantRole(bytes32,address)": {
        "details": "Grants `role` to `account`. If `account` had not been already granted `role`, emits a {RoleGranted} event. Requirements: - the caller must have ``role``'s admin role. May emit a {RoleGranted} event."
      },
      "hasRole(bytes32,address)": {
        "details": "Returns `true` if `account` has been granted `role`."
      },
      "increaseAllowance(address,uint256)": {
        "details": "Atomically increases the allowance granted to `spender` by the caller. This is an alternative to {approve} that can be used as a mitigation for problems described in {IERC20-approve}. Emits an {Approval} event indicating the updated allowance. Requirements: - `spender` cannot be the zero address."
      },
      "name()": {
        "details": "Returns the name of the token."
      },
      "renounceRole(bytes32,address)": {
        "details": "Revokes `role` from the calling account. Roles are often managed via {grantRole} and {revokeRole}: this function's purpose is to provide a mechanism for accounts to lose their privileges if they are compromised (such as when a trusted device is misplaced). If the calling account had been revoked `role`, emits a {RoleRevoked} event. Requirements: - the caller must be `account`. May emit a {RoleRevoked} event."
      },
      "revokeRole(bytes32,address)": {
        "details": "Revokes `role` from `account`. If `account` had been granted `role`, emits a {RoleRevoked} event. Requirements: - the caller must have ``role``'s admin role. May emit a {RoleRevoked} event."
      },
      "supportsInterface(bytes4)": {
        "details": "See {IERC165-supportsInterface}."
      },
      "symbol()": {
        "details": "Returns the symbol of the token, usually a shorter version of the name."
      },
      "totalSupply()": {
        "details": "See {IERC20-totalSupply}."
      },
      "transfer(address,uint256)": {
        "details": "See {IERC20-transfer}. Requirements: - `to` cannot be the zero address. - the caller must have a balance of at least `amount`."
      },
      "transferFrom(address,address,uint256)": {
        "details": "See {IERC20-transferFrom}. Emits an {Approval} event indicating the updated allowance. This is not required by the EIP. See the note at the beginning of {ERC20}. NOTE: Does not update the allowance if the current allowance is the maximum `uint256`. Requirements: - `from` and `to` cannot be the zero address. - `from` must have a balance of at least `amount`. - the caller must have allowance for ``from``'s tokens of at least `amount`."
      }
    },
    "version": 1
  },
  "userdoc": {
    "errors": {
      "ErrorFirstLiquidity()": [
        {
          "notice": "First tokens needs to be greater than minimum liquidity"
        }
      ],
      "ErrorInitialLiquidityNotAdded()": [
        {
          "notice": "Initial liquidity was not added"
        }
      ],
      "ErrorInsufficientFirstToken()": [
        {
          "notice": "Insufficient first token computed amount"
        }
      ],
      "ErrorInsufficientLiquidity()": [
        {
          "notice": "Insufficient liquidity minted"
        }
      ],
      "ErrorInsufficientSecondToken()": [
        {
          "notice": "Insufficient second token computed amount"
        }
      ],
      "ErrorKInvariantFailed()": [
        {
          "notice": "K invariant failed"
        }
      ],
      "ErrorOptimalGreaterThanPaid()": [
        {
          "notice": "Optimal amount greater than desired amount"
        }
      ],
      "ErrorPermissionDenied()": [
        {
          "notice": "Permission denied"
        }
      ],
      "ErrorSafePriceCurrentIndex(uint256,uint256)": [
        {
          "notice": "The current safe price index of `currentIndex` is greater than the maximum number of observations `maxIndex`"
        }
      ],
      "IndexOutOfRangeErrMsg()": [
        {
          "notice": "index out of range"
        }
      ]
    },
    "kind": "user",
    "methods": {},
    "version": 1
  },
  "storageLayout": {
    "storage": [
      {
        "astId": 2682,
        "contract": "contracts/pair/Pair.sol:Pair",
        "label": "firstToken",
        "offset": 0,
        "slot": "0",
        "type": "t_address"
      },
      {
        "astId": 2684,
        "contract": "contracts/pair/Pair.sol:Pair",
        "label": "secondToken",
        "offset": 0,
        "slot": "1",
        "type": "t_address"
      },
      {
        "astId": 2686,
        "contract": "contracts/pair/Pair.sol:Pair",
        "label": "totalFeePercent",
        "offset": 0,
        "slot": "2",
        "type": "t_uint256"
      },
      {
        "astId": 2688,
        "contract": "contracts/pair/Pair.sol:Pair",
        "label": "specialFeePercent",
        "offset": 0,
        "slot": "3",
        "type": "t_uint256"
      },
      {
        "astId": 2690,
        "contract": "contracts/pair/Pair.sol:Pair",
        "label": "routerAddress",
        "offset": 0,
        "slot": "4",
        "type": "t_address"
      },
      {
        "astId": 2692,
        "contract": "contracts/pair/Pair.sol:Pair",
        "label": "initialLiquidityAdder",
        "offset": 0,
        "slot": "5",
        "type": "t_address"
      },
      {
        "astId": 2696,
        "contract": "contracts/pair/Pair.sol:Pair",
        "label": "pairReserve",
        "offset": 0,
        "slot": "6",
        "type": "t_mapping(t_address,t_uint256)"
      },
      {
        "astId": 2698,
        "contract": "contracts/pair/Pair.sol:Pair",
        "label": "lpTokenSupply",
        "offset": 0,
        "slot": "7",
        "type": "t_uint256"
      },
      {
        "astId": 2700,
        "contract": "contracts/pair/Pair.sol:Pair",
        "label": "lpTokenIdentifier",
        "offset": 0,
        "slot": "8",
        "type": "t_address"
      },
      {
        "astId": 24,
        "contract": "contracts/pair/Pair.sol:Pair",
        "label": "_roles",
        "offset": 0,
        "slot": "9",
        "type": "t_mapping(t_bytes32,t_struct(RoleData)19_storage)"
      },
      {
        "astId": 2535,
        "contract": "contracts/pair/Pair.sol:Pair",
        "label": "state",
        "offset": 0,
        "slot": "10",
        "type": "t_enum(State)2530"
      },
      {
        "astId": 2506,
        "contract": "contracts/pair/Pair.sol:Pair",
        "label": "bannedAddresses",
        "offset": 0,
        "slot": "11",
        "type": "t_struct(whitelist)2482_storage"
      },
      {
        "astId": 3369,
        "contract": "contracts/pair/Pair.sol:Pair",
        "label": "safePriceCurrentIndex",
        "offset": 0,
        "slot": "12",
        "type": "t_uint256"
      },
      {
        "astId": 3372,
        "contract": "contracts/pair/Pair.sol:Pair",
        "label": "priceObservations",
        "offset": 0,
        "slot": "13",
        "type": "t_struct(priceObsvec)3229_storage"
      },
      {
        "astId": 3650,
        "contract": "contracts/pair/Pair.sol:Pair",
        "label": "storageCache",
        "offset": 0,
        "slot": "16",
        "type": "t_struct(storagecache)3643_storage"
      },
      {
        "astId": 407,
        "contract": "contracts/pair/Pair.sol:Pair",
        "label": "_balances",
        "offset": 0,
        "slot": "22",
        "type": "t_mapping(t_address,t_uint256)"
      },
      {
        "astId": 413,
        "contract": "contracts/pair/Pair.sol:Pair",
        "label": "_allowances",
        "offset": 0,
        "slot": "23",
        "type": "t_mapping(t_address,t_mapping(t_address,t_uint256))"
      },
      {
        "astId": 415,
        "contract": "contracts/pair/Pair.sol:Pair",
        "label": "_totalSupply",
        "offset": 0,
        "slot": "24",
        "type": "t_uint256"
      },
      {
        "astId": 417,
        "contract": "contracts/pair/Pair.sol:Pair",
        "label": "_name",
        "offset": 0,
        "slot": "25",
        "type": "t_string_storage"
      },
      {
        "astId": 419,
        "contract": "contracts/pair/Pair.sol:Pair",
        "label": "_symbol",
        "offset": 0,
        "slot": "26",
        "type": "t_string_storage"
      }
    ],
    "types": {
      "t_address": {
        "encoding": "inplace",
        "label": "address",
        "numberOfBytes": "20"
      },
      "t_array(t_uint256)dyn_storage": {
        "base": "t_uint256",
        "encoding": "dynamic_array",
        "label": "uint256[]",
        "numberOfBytes": "32"
      },
      "t_bool": {
        "encoding": "inplace",
        "label": "bool",
        "numberOfBytes": "1"
      },
      "t_bytes32": {
        "encoding": "inplace",
        "label": "bytes32",
        "numberOfBytes": "32"
      },
      "t_enum(State)2530": {
        "encoding": "inplace",
        "label": "enum State",
        "numberOfBytes": "1"
      },
      "t_mapping(t_address,t_bool)": {
        "encoding": "mapping",
        "key": "t_address",
        "label": "mapping(address => bool)",
        "numberOfBytes": "32",
        "value": "t_bool"
      },
      "t_mapping(t_address,t_mapping(t_address,t_uint256))": {
        "encoding": "mapping",
        "key": "t_address",
        "label": "mapping(address => mapping(address => uint256))",
        "numberOfBytes": "32",
        "value": "t_mapping(t_address,t_uint256)"
      },
      "t_mapping(t_address,t_uint256)": {
        "encoding": "mapping",
        "key": "t_address",
        "label": "mapping(address => uint256)",
        "numberOfBytes": "32",
        "value": "t_uint256"
      },
      "t_mapping(t_bytes32,t_struct(RoleData)19_storage)": {
        "encoding": "mapping",
        "key": "t_bytes32",
        "label": "mapping(bytes32 => struct AccessControl.RoleData)",
        "numberOfBytes": "32",
        "value": "t_struct(RoleData)19_storage"
      },
      "t_mapping(t_uint256,t_struct(IndexValue)3218_storage)": {
        "encoding": "mapping",
        "key": "t_uint256",
        "label": "mapping(uint256 => struct IndexValue)",
        "numberOfBytes": "32",
        "value": "t_struct(IndexValue)3218_storage"
      },
      "t_string_storage": {
        "encoding": "bytes",
        "label": "string",
        "numberOfBytes": "32"
      },
      "t_struct(IndexValue)3218_storage": {
        "encoding": "inplace",
        "label": "struct IndexValue",
        "members": [
          {
            "astId": 3214,
            "contract": "contracts/pair/Pair.sol:Pair",
            "label": "keyIndex",
            "offset": 0,
            "slot": "0",
            "type": "t_uint256"
          },
          {
            "astId": 3217,
            "contract": "contracts/pair/Pair.sol:Pair",
            "label": "value",
            "offset": 0,
            "slot": "1",
            "type": "t_struct(PriceObservation)3212_storage"
          }
        ],
        "numberOfBytes": "160"
      },
      "t_struct(PriceObservation)3212_storage": {
        "encoding": "inplace",
        "label": "struct PriceObservation",
        "members": [
          {
            "astId": 3205,
            "contract": "contracts/pair/Pair.sol:Pair",
            "label": "firstTokenReserveAccumulated",
            "offset": 0,
            "slot": "0",
            "type": "t_uint256"
          },
          {
            "astId": 3207,
            "contract": "contracts/pair/Pair.sol:Pair",
            "label": "secondTokenReserveAccumulated",
            "offset": 0,
            "slot": "1",
            "type": "t_uint256"
          },
          {
            "astId": 3209,
            "contract": "contracts/pair/Pair.sol:Pair",
            "label": "weightAccumulated",
            "offset": 0,
            "slot": "2",
            "type": "t_uint256"
          },
          {
            "astId": 3211,
            "contract": "contracts/pair/Pair.sol:Pair",
            "label": "recordingRound",
            "offset": 0,
            "slot": "3",
            "type": "t_uint256"
          }
        ],
        "numberOfBytes": "128"
      },
      "t_struct(RoleData)19_storage": {
        "encoding": "inplace",
        "label": "struct AccessControl.RoleData",
        "members": [
          {
            "astId": 16,
            "contract": "contracts/pair/Pair.sol:Pair",
            "label": "members",
            "offset": 0,
            "slot": "0",
            "type": "t_mapping(t_address,t_bool)"
          },
          {
            "astId": 18,
            "contract": "contracts/pair/Pair.sol:Pair",
            "label": "adminRole",
            "offset": 0,
            "slot": "1",
            "type": "t_bytes32"
          }
        ],
        "numberOfBytes": "64"
      },
      "t_struct(priceObsvec)3229_storage": {
        "encoding": "inplace",
        "label": "struct priceObsvec",
        "members": [
          {
            "astId": 3223,
            "contract": "contracts/pair/Pair.sol:Pair",
            "label": "data",
            "offset": 0,
            "slot": "0",
            "type": "t_mapping(t_uint256,t_struct(IndexValue)3218_storage)"
          },
          {
            "astId": 3226,
            "contract": "contracts/pair/Pair.sol:Pair",
            "label": "keys",
            "offset": 0,
            "slot": "1",
            "type": "t_array(t_uint256)dyn_storage"
          },
          {
            "astId": 3228,
            "contract": "contracts/pair/Pair.sol:Pair",
            "label": "length",
            "offset": 0,
            "slot": "2",
            "type": "t_uint256"
          }
        ],
        "numberOfBytes": "96"
      },
      "t_struct(storagecache)3643_storage": {
        "encoding": "inplace",
        "label": "struct storagecache",
        "members": [
          {
            "astId": 3630,
            "contract": "contracts/pair/Pair.sol:Pair",
            "label": "contractState",
            "offset": 0,
            "slot": "0",
            "type": "t_enum(State)2530"
          },
          {
            "astId": 3632,
            "contract": "contracts/pair/Pair.sol:Pair",
            "label": "lpTokenId",
            "offset": 1,
            "slot": "0",
            "type": "t_address"
          },
          {
            "astId": 3634,
            "contract": "contracts/pair/Pair.sol:Pair",
            "label": "firstTokenId",
            "offset": 0,
            "slot": "1",
            "type": "t_address"
          },
          {
            "astId": 3636,
            "contract": "contracts/pair/Pair.sol:Pair",
            "label": "secondTokenId",
            "offset": 0,
            "slot": "2",
            "type": "t_address"
          },
          {
            "astId": 3638,
            "contract": "contracts/pair/Pair.sol:Pair",
            "label": "firstTokenReserve",
            "offset": 0,
            "slot": "3",
            "type": "t_uint256"
          },
          {
            "astId": 3640,
            "contract": "contracts/pair/Pair.sol:Pair",
            "label": "secondTokenReserve",
            "offset": 0,
            "slot": "4",
            "type": "t_uint256"
          },
          {
            "astId": 3642,
            "contract": "contracts/pair/Pair.sol:Pair",
            "label": "lpTokenSupply",
            "offset": 0,
            "slot": "5",
            "type": "t_uint256"
          }
        ],
        "numberOfBytes": "192"
      },
      "t_struct(whitelist)2482_storage": {
        "encoding": "inplace",
        "label": "struct whitelist",
        "members": [
          {
            "astId": 2481,
            "contract": "contracts/pair/Pair.sol:Pair",
            "label": "whitelist",
            "offset": 0,
            "slot": "0",
            "type": "t_mapping(t_address,t_bool)"
          }
        ],
        "numberOfBytes": "32"
      },
      "t_uint256": {
        "encoding": "inplace",
        "label": "uint256",
        "numberOfBytes": "32"
      }
    }
  }
}