{
  "address": "0x11cC66cD66b72b147F62155921FaCf111fB6042D",
  "abi": [
    {
      "anonymous": false,
      "inputs": [
        {
          "indexed": true,
          "internalType": "address",
          "name": "previousOwner",
          "type": "address"
        },
        {
          "indexed": true,
          "internalType": "address",
          "name": "newOwner",
          "type": "address"
        }
      ],
      "name": "OwnershipTransferred",
      "type": "event"
    },
    {
      "anonymous": false,
      "inputs": [
        {
          "indexed": false,
          "internalType": "uint256",
          "name": "referrerId",
          "type": "uint256"
        },
        {
          "indexed": false,
          "internalType": "uint256",
          "name": "referralId",
          "type": "uint256"
        }
      ],
      "name": "ReferralAdded",
      "type": "event"
    },
    {
      "anonymous": false,
      "inputs": [
        {
          "indexed": false,
          "internalType": "uint256",
          "name": "userId",
          "type": "uint256"
        },
        {
          "indexed": false,
          "internalType": "address",
          "name": "userAddress",
          "type": "address"
        },
        {
          "indexed": false,
          "internalType": "uint256",
          "name": "referrerId",
          "type": "uint256"
        }
      ],
      "name": "UserRegistered",
      "type": "event"
    },
    {
      "inputs": [
        {
          "components": [
            {
              "internalType": "contract IERC20",
              "name": "token",
              "type": "address"
            },
            {
              "internalType": "uint256",
              "name": "amount",
              "type": "uint256"
            }
          ],
          "internalType": "struct ERC20TokenPayment",
          "name": "wholePayment",
          "type": "tuple"
        }
      ],
      "name": "addLiquidity",
      "outputs": [],
      "stateMutability": "nonpayable",
      "type": "function"
    },
    {
      "inputs": [],
      "name": "basePairAddr",
      "outputs": [
        {
          "internalType": "address",
          "name": "",
          "type": "address"
        }
      ],
      "stateMutability": "view",
      "type": "function"
    },
    {
      "inputs": [
        {
          "internalType": "address",
          "name": "pairAddress",
          "type": "address"
        },
        {
          "internalType": "uint256",
          "name": "inAmount",
          "type": "uint256"
        }
      ],
      "name": "computeFeePercent",
      "outputs": [
        {
          "internalType": "uint256",
          "name": "feePercent",
          "type": "uint256"
        }
      ],
      "stateMutability": "view",
      "type": "function"
    },
    {
      "inputs": [
        {
          "internalType": "address",
          "name": "tradeToken",
          "type": "address"
        }
      ],
      "name": "createPair",
      "outputs": [
        {
          "internalType": "contract Pair",
          "name": "pair",
          "type": "address"
        }
      ],
      "stateMutability": "nonpayable",
      "type": "function"
    },
    {
      "inputs": [
        {
          "internalType": "address",
          "name": "inPair",
          "type": "address"
        },
        {
          "internalType": "address",
          "name": "outPair",
          "type": "address"
        },
        {
          "internalType": "uint256",
          "name": "inAmount",
          "type": "uint256"
        },
        {
          "internalType": "uint256",
          "name": "slippage",
          "type": "uint256"
        }
      ],
      "name": "estimateOutAmount",
      "outputs": [
        {
          "internalType": "uint256",
          "name": "amountOut",
          "type": "uint256"
        }
      ],
      "stateMutability": "view",
      "type": "function"
    },
    {
      "inputs": [],
      "name": "getAllPairs",
      "outputs": [
        {
          "internalType": "address[]",
          "name": "",
          "type": "address[]"
        }
      ],
      "stateMutability": "view",
      "type": "function"
    },
    {
      "inputs": [
        {
          "internalType": "address",
          "name": "userAddress",
          "type": "address"
        }
      ],
      "name": "getReferrer",
      "outputs": [
        {
          "internalType": "uint256",
          "name": "referrerId",
          "type": "uint256"
        },
        {
          "internalType": "address",
          "name": "referrerAddress",
          "type": "address"
        }
      ],
      "stateMutability": "view",
      "type": "function"
    },
    {
      "inputs": [
        {
          "internalType": "address",
          "name": "userAddress",
          "type": "address"
        }
      ],
      "name": "getUserId",
      "outputs": [
        {
          "internalType": "uint256",
          "name": "userId",
          "type": "uint256"
        }
      ],
      "stateMutability": "view",
      "type": "function"
    },
    {
      "inputs": [
        {
          "internalType": "uint256",
          "name": "amount",
          "type": "uint256"
        }
      ],
      "name": "mintInitialSupply",
      "outputs": [],
      "stateMutability": "nonpayable",
      "type": "function"
    },
    {
      "inputs": [],
      "name": "owner",
      "outputs": [
        {
          "internalType": "address",
          "name": "",
          "type": "address"
        }
      ],
      "stateMutability": "view",
      "type": "function"
    },
    {
      "inputs": [
        {
          "internalType": "address",
          "name": "",
          "type": "address"
        }
      ],
      "name": "pairData",
      "outputs": [
        {
          "internalType": "uint256",
          "name": "rewardsAgainst",
          "type": "uint256"
        },
        {
          "internalType": "uint256",
          "name": "rewardsFor",
          "type": "uint256"
        },
        {
          "internalType": "uint256",
          "name": "totalLiq",
          "type": "uint256"
        }
      ],
      "stateMutability": "view",
      "type": "function"
    },
    {
      "inputs": [],
      "name": "pairsCount",
      "outputs": [
        {
          "internalType": "uint64",
          "name": "",
          "type": "uint64"
        }
      ],
      "stateMutability": "view",
      "type": "function"
    },
    {
      "inputs": [
        {
          "internalType": "uint256",
          "name": "referrerId",
          "type": "uint256"
        },
        {
          "components": [
            {
              "internalType": "contract IERC20",
              "name": "token",
              "type": "address"
            },
            {
              "internalType": "uint256",
              "name": "amount",
              "type": "uint256"
            }
          ],
          "internalType": "struct ERC20TokenPayment",
          "name": "inPayment",
          "type": "tuple"
        },
        {
          "internalType": "address",
          "name": "outPairAddr",
          "type": "address"
        },
        {
          "internalType": "uint256",
          "name": "slippage",
          "type": "uint256"
        }
      ],
      "name": "registerAndSwap",
      "outputs": [],
      "stateMutability": "nonpayable",
      "type": "function"
    },
    {
      "inputs": [],
      "name": "renounceOwnership",
      "outputs": [],
      "stateMutability": "nonpayable",
      "type": "function"
    },
    {
      "inputs": [
        {
          "components": [
            {
              "internalType": "contract IERC20",
              "name": "token",
              "type": "address"
            },
            {
              "internalType": "uint256",
              "name": "amount",
              "type": "uint256"
            }
          ],
          "internalType": "struct ERC20TokenPayment",
          "name": "inPayment",
          "type": "tuple"
        },
        {
          "internalType": "address",
          "name": "outPairAddr",
          "type": "address"
        },
        {
          "internalType": "uint256",
          "name": "slippage",
          "type": "uint256"
        }
      ],
      "name": "swap",
      "outputs": [],
      "stateMutability": "nonpayable",
      "type": "function"
    },
    {
      "inputs": [
        {
          "internalType": "address",
          "name": "",
          "type": "address"
        }
      ],
      "name": "tokensPairAddress",
      "outputs": [
        {
          "internalType": "address",
          "name": "",
          "type": "address"
        }
      ],
      "stateMutability": "view",
      "type": "function"
    },
    {
      "inputs": [],
      "name": "tradeableTokens",
      "outputs": [
        {
          "internalType": "address[]",
          "name": "",
          "type": "address[]"
        }
      ],
      "stateMutability": "view",
      "type": "function"
    },
    {
      "inputs": [
        {
          "internalType": "address",
          "name": "newOwner",
          "type": "address"
        }
      ],
      "name": "transferOwnership",
      "outputs": [],
      "stateMutability": "nonpayable",
      "type": "function"
    },
    {
      "inputs": [],
      "name": "userCount",
      "outputs": [
        {
          "internalType": "uint256",
          "name": "",
          "type": "uint256"
        }
      ],
      "stateMutability": "view",
      "type": "function"
    },
    {
      "inputs": [
        {
          "internalType": "uint256",
          "name": "",
          "type": "uint256"
        }
      ],
      "name": "userIdToAddress",
      "outputs": [
        {
          "internalType": "address",
          "name": "",
          "type": "address"
        }
      ],
      "stateMutability": "view",
      "type": "function"
    },
    {
      "inputs": [
        {
          "internalType": "address",
          "name": "",
          "type": "address"
        }
      ],
      "name": "users",
      "outputs": [
        {
          "internalType": "uint256",
          "name": "id",
          "type": "uint256"
        },
        {
          "internalType": "address",
          "name": "addr",
          "type": "address"
        },
        {
          "internalType": "uint256",
          "name": "referrerId",
          "type": "uint256"
        }
      ],
      "stateMutability": "view",
      "type": "function"
    }
  ],
  "transactionHash": "0xe919a352016e7e3d9ef6142909cb8103052c9b8f77d72f4bd938ae14aab67db9",
  "args": [],
  "numDeployments": 2,
  "solcInputHash": "c1d9408b7c80247d8d3f8c7cfcd2ce01",
  "bytecode": "0x6080604052348015600f57600080fd5b50601733601b565b606b565b600080546001600160a01b038381166001600160a01b0319831681178455604051919092169283917f8be0079c531659141344cd1fd0a4f28419497f9722a3daafe3b4186f6b6457e09190a35050565b611c8f8061007a6000396000f3fe608060405234801561001057600080fd5b50600436106101375760003560e01c8063a87430ba116100b8578063e9f162bb1161007c578063e9f162bb14610389578063eea187b71461039e578063f01cb648146103b1578063f2fde38b146103c4578063f800ece9146103d7578063fce8d390146103df57600080fd5b8063a87430ba146102bd578063b16952011461031a578063b60efbb714610343578063b81b2b7114610356578063d3d12a461461037657600080fd5b8063715018a6116100ff578063715018a61461023b57806382cfd1b814610245578063848c9296146102865780638da5cb5b146102995780639ccb0744146102aa57600080fd5b806307973ccf1461013c57806320c97b4e146101585780632b956ff7146101a25780634a9fefc7146101cb57806369ee60d114610228575b600080fd5b61014560015481565b6040519081526020015b60405180910390f35b610187610166366004611869565b60096020526000908152604090208054600182015460029092015490919083565b6040805193845260208401929092529082015260600161014f565b6101456101b0366004611869565b6001600160a01b031660009081526002602052604090205490565b61020b6101d9366004611869565b6001600160a01b0390811660009081526002602081815260408084209092015480845260039091529120549092911690565b604080519283526001600160a01b0390911660208301520161014f565b610145610236366004611886565b6103e7565b61024361056b565b005b61026e610253366004611869565b6008602052600090815260409020546001600160a01b031681565b6040516001600160a01b03909116815260200161014f565b6102436102943660046118ca565b61057f565b6000546001600160a01b031661026e565b61026e6102b8366004611869565b6106c1565b6102f76102cb366004611869565b60026020819052600091825260409091208054600182015491909201546001600160a01b039091169083565b604080519384526001600160a01b0390921660208401529082015260600161014f565b61026e6103283660046118e6565b6003602052600090815260409020546001600160a01b031681565b6102436103513660046118ff565b6108f8565b61035e610c3c565b6040516001600160401b03909116815260200161014f565b61024361038436600461193f565b610c4d565b610391610c69565b60405161014f9190611986565b6102436103ac3660046118e6565b610c75565b6101456103bf3660046119d2565b610d10565b6102436103d2366004611869565b610eef565b610391610f68565b61026e610f74565b6000806104be83856001600160a01b031663cd3293de6040518163ffffffff1660e01b8152600401602060405180830381865afa15801561042c573d6000803e3d6000fd5b505050506040513d601f19601f820116820180604052508101906104509190611a18565b610458610f74565b6001600160a01b031663cd3293de6040518163ffffffff1660e01b8152600401602060405180830381865afa158015610495573d6000803e3d6000fd5b505050506040513d601f19601f820116820180604052508101906104b99190611a18565b610f81565b6001600160a01b038516600090815260096020526040812054919250906104e6908390611a47565b6001600160a01b03861660009081526009602052604081206001015491925081831161051357600061051d565b61051d8284611a5a565b6001600160a01b038816600090815260096020526040812060020154600a54929350909161054b9190611a5a565b905061055f828261055a610c3c565b610fa2565b98975050505050505050565b61057361101a565b61057d6000611074565b565b600061058e6020830183611869565b6001600160a01b0380821660009081526008602052604090205491925016806105fe5760405162461bcd60e51b815260206004820152601c60248201527f526f757465723a20496e76616c6964207061697220616464726573730000000060448201526064015b60405180910390fd5b604051637080addb60e11b81526000906001600160a01b0383169063e1015bb69061062f9087903390600401611a8e565b6020604051808303816000875af115801561064e573d6000803e3d6000fd5b505050506040513d601f19601f820116820180604052508101906106729190611a18565b905080600a60008282546106869190611a47565b90915550506001600160a01b038316600090815260096020526040812060020180548392906106b6908490611a47565b909155505050505050565b60006106cb61101a565b6001600160a01b0382811660009081526008602052604090205416156107295760405162461bcd60e51b8152602060048201526013602482015272151bdad95b88185b1c9958591e481859191959606a1b60448201526064016105f5565b610731610c3c565b6001600160401b0316600003610819577331CE1D8f0FcDbfD3F3dD6D76900c659374cBe30963bb3007786040518163ffffffff1660e01b8152600401602060405180830381865af415801561078a573d6000803e3d6000fd5b505050506040513d601f19601f820116820180604052508101906107ae9190611ab4565b9050806001600160a01b031663d83678ac6040518163ffffffff1660e01b8152600401602060405180830381865afa1580156107ee573d6000803e3d6000fd5b505050506040513d601f19601f820116820180604052508101906108129190611ab4565b91506108ae565b7331CE1D8f0FcDbfD3F3dD6D76900c659374cBe30963b3af16d38361083c610f74565b6040516001600160e01b031960e085901b1681526001600160a01b03928316600482015291166024820152604401602060405180830381865af4158015610887573d6000803e3d6000fd5b505050506040513d601f19601f820116820180604052508101906108ab9190611ab4565b90505b6108b96004826110c4565b506108c56006836110c4565b506001600160a01b03918216600090815260086020526040902080546001600160a01b0319169282169290921790915590565b600060088161090a6020870187611869565b6001600160a01b0390811682526020820192909252604001600020541690506109346004826110e2565b6109805760405162461bcd60e51b815260206004820152601c60248201527f526f757465723a20496e7075742070616972206e6f7420666f756e640000000060448201526064016105f5565b61098b6004846110e2565b6109d75760405162461bcd60e51b815260206004820152601d60248201527f526f757465723a204f75747075742070616972206e6f7420666f756e6400000060448201526064016105f5565b60008390506000816001600160a01b0316639ec5a8946040518163ffffffff1660e01b8152600401602060405180830381865afa158015610a1c573d6000803e3d6000fd5b505050506040513d601f19601f82011682018060405250810190610a409190611a18565b3360009081526002602081815260408084209092015480845260039091529082205492935090916001600160a01b0316915050836001600160a01b0316635541955f33838a878a610a958b8f602001356103e7565b6040518763ffffffff1660e01b8152600401610ab696959493929190611ad1565b600060405180830381600087803b158015610ad057600080fd5b505af1158015610ae4573d6000803e3d6000fd5b505050506000836001600160a01b0316639ec5a8946040518163ffffffff1660e01b8152600401602060405180830381865afa158015610b28573d6000803e3d6000fd5b505050506040513d601f19601f82011682018060405250810190610b4c9190611a18565b90506000610b5a8483611a5a565b905060008111610bbb5760405162461bcd60e51b815260206004820152602660248201527f526f757465723a206e6f2072657761726473206769616e656420666f72206f756044820152653a103830b4b960d11b60648201526084016105f5565b6001600160a01b03861660009081526009602052604081208054839290610be3908490611a47565b90915550506001600160a01b03881660009081526009602052604081206001018054839290610c13908490611a47565b9250508190555080600b6000828254610c2c9190611a47565b9091555050505050505050505050565b6000610c486004611104565b905090565b610c57338561110e565b50610c638383836108f8565b50505050565b6060610c48600661134d565b610c7d61101a565b6000610c87610f74565b9050806001600160a01b038116630996bc9684610cac6000546001600160a01b031690565b6040516001600160e01b031960e085901b16815260048101929092526001600160a01b03166024820152604401600060405180830381600087803b158015610cf357600080fd5b505af1158015610d07573d6000803e3d6000fd5b50505050505050565b6000610d1d6004866110e2565b610d695760405162461bcd60e51b815260206004820152601c60248201527f526f757465723a20496e7075742070616972206e6f7420666f756e640000000060448201526064016105f5565b610d746004856110e2565b610dc05760405162461bcd60e51b815260206004820152601d60248201527f526f757465723a204f75747075742070616972206e6f7420666f756e6400000060448201526064016105f5565b600085905060008590506000826001600160a01b031663cd3293de6040518163ffffffff1660e01b8152600401602060405180830381865afa158015610e0a573d6000803e3d6000fd5b505050506040513d601f19601f82011682018060405250810190610e2e9190611a18565b90506000826001600160a01b031663cd3293de6040518163ffffffff1660e01b8152600401602060405180830381865afa158015610e70573d6000803e3d6000fd5b505050506040513d601f19601f82011682018060405250810190610e949190611a18565b90506000610ea28a896103e7565b90506000610eb0898961135a565b9050610ebd81858561137c565b9650612710610ecc8389611b1c565b610ed69190611b49565b610ee09088611a5a565b9b9a5050505050505050505050565b610ef761101a565b6001600160a01b038116610f5c5760405162461bcd60e51b815260206004820152602660248201527f4f776e61626c653a206e6577206f776e657220697320746865207a65726f206160448201526564647265737360d01b60648201526084016105f5565b610f6581611074565b50565b6060610c48600461134d565b6000610c486004826113ad565b600082610f8e8386611b1c565b610f989190611b49565b90505b9392505050565b600080610fb08585856113b9565b9050600080600080610fcb856001600160401b0316886113fd565b935093509350935061100d846001600160401b0316846001600160401b0316876001600160401b0316856001600160401b0316856001600160401b0316611512565b9998505050505050505050565b6000546001600160a01b0316331461057d5760405162461bcd60e51b815260206004820181905260248201527f4f776e61626c653a2063616c6c6572206973206e6f7420746865206f776e657260448201526064016105f5565b600080546001600160a01b038381166001600160a01b0319831681178455604051919092169283917f8be0079c531659141344cd1fd0a4f28419497f9722a3daafe3b4186f6b6457e09190a35050565b60006110d9836001600160a01b0384166115d2565b90505b92915050565b6001600160a01b038116600090815260018301602052604081205415156110d9565b60006110dc825490565b6001600160a01b0382166000908152600260205260408120541561114b57506001600160a01b0382166000908152600260205260409020546110dc565b6001805490600061115b83611b5d565b919050555060405180608001604052806001548152602001846001600160a01b0316815260200183815260200160016001600160401b038111156111a1576111a1611b76565b6040519080825280602002602001820160405280156111ca578160200160208202803683370190505b5090526001600160a01b0384811660009081526002602081815260409283902085518155858201516001820180546001600160a01b031916919096161790945591840151908301556060830151805161122992600385019201906117f4565b5050600154600090815260036020526040902080546001600160a01b0319166001600160a01b03861617905550811580159061127b57506000828152600360205260409020546001600160a01b031615155b156112f8576000828152600360208181526040808420546001600160a01b0316845260028252808420600180549190940180548086018255908652948390209094019390935590548251858152918201527fa8b1f3acfefae9dbf6c7ffd8c16eda5db6950c383b34ca999d98f9998721c50c910160405180910390a15b600154604080519182526001600160a01b038516602083015281018390527fb58d46e66658e855773af8232237e606476d7f0ad98813c081b540e6f435ea3e9060600160405180910390a15060015492915050565b60606000610f9b83611621565b60006127106113688361167d565b6113729085611b1c565b6110d99190611b49565b6000806113898386611b1c565b905060006113978686611a47565b90506113a38183611b49565b9695505050505050565b60006110d983836116e1565b6000806113c6848461170b565b6113d26103e887611b1c565b6113dc9190611b49565b90506113f460016113ec8561178a565b839190611798565b95945050505050565b60016103e8600a601e60006114118661178a565b905060005b846001600160401b031688111561150757611432856001611b8c565b955061143f836001611b8c565b9350806001600160401b03166000036114695761145d600583611bab565b945061012c92506114f5565b806001600160401b03166001036114875781945061271092506114f5565b60405162461bcd60e51b815260206004820152603c60248201527f4665652e5f676574496e74657256616c7565733a206d61782063616c6c20646560448201527f70746820666f7220696e746572706f6c6174696f6e2076616c7565730000000060648201526084016105f5565b806114ff81611bd9565b915050611416565b505092959194509250565b60008584108061152157508484115b1561157f5760405162461bcd60e51b815260206004820152602860248201527f4d6174682e6c696e656172496e746572706f6c6174696f6e3a20496e76616c69604482015267642076616c75657360c01b60648201526084016105f5565b600061158b8587611a5a565b6115959085611b1c565b905060006115a38887611a5a565b6115ad9085611b1c565b905060006115bb8989611a5a565b9050806115c88385611a47565b61100d9190611b49565b6000818152600183016020526040812054611619575081546001818101845560008481526020808220909301849055845484825282860190935260409020919091556110dc565b5060006110dc565b60608160000180548060200260200160405190810160405280929190818152602001828054801561167157602002820191906000526020600020905b81548152602001906001019080831161165d575b50505050509050919050565b6000600182108061168f575061271082115b156116d55760405162461bcd60e51b8152602060048201526016602482015275496e76616c696420736c6970706167652076616c756560501b60448201526064016105f5565b6110dc82612710611a5a565b60008260000182815481106116f8576116f8611c04565b9060005260206000200154905092915050565b600080826001600160401b0316116117655760405162461bcd60e51b815260206004820152601b60248201527f4665655574696c3a206e6f20617661696c61626c65207061697273000000000060448201526064016105f5565b6117786001600160401b03831684611b49565b9050600181116110dc575060016110dc565b60006110dc6103e883611c1a565b6000816001600160401b0316836001600160401b031611156117bc576117bc611c43565b826001600160401b03168410156117d4575081610f9b565b816001600160401b03168411156117ec575080610f9b565b509192915050565b82805482825590600052602060002090810192821561182f579160200282015b8281111561182f578251825591602001919060010190611814565b5061183b92915061183f565b5090565b5b8082111561183b5760008155600101611840565b6001600160a01b0381168114610f6557600080fd5b60006020828403121561187b57600080fd5b8135610f9b81611854565b6000806040838503121561189957600080fd5b82356118a481611854565b946020939093013593505050565b6000604082840312156118c457600080fd5b50919050565b6000604082840312156118dc57600080fd5b6110d983836118b2565b6000602082840312156118f857600080fd5b5035919050565b60008060006080848603121561191457600080fd5b61191e85856118b2565b9250604084013561192e81611854565b929592945050506060919091013590565b60008060008060a0858703121561195557600080fd5b8435935061196686602087016118b2565b9250606085013561197681611854565b9396929550929360800135925050565b602080825282518282018190526000918401906040840190835b818110156119c75783516001600160a01b03168352602093840193909201916001016119a0565b509095945050505050565b600080600080608085870312156119e857600080fd5b84356119f381611854565b93506020850135611a0381611854565b93969395505050506040820135916060013590565b600060208284031215611a2a57600080fd5b5051919050565b634e487b7160e01b600052601160045260246000fd5b808201808211156110dc576110dc611a31565b818103818111156110dc576110dc611a31565b8035611a7881611854565b6001600160a01b03168252602090810135910152565b60608101611a9c8285611a6d565b6001600160a01b039290921660409190910152919050565b600060208284031215611ac657600080fd5b8151610f9b81611854565b6001600160a01b0387811682528616602082015260e08101611af66040830187611a6d565b6001600160a01b0394909416608082015260a081019290925260c0909101529392505050565b80820281158282048414176110dc576110dc611a31565b634e487b7160e01b600052601260045260246000fd5b600082611b5857611b58611b33565b500490565b600060018201611b6f57611b6f611a31565b5060010190565b634e487b7160e01b600052604160045260246000fd5b6001600160401b0381811683821601908111156110dc576110dc611a31565b60006001600160401b03831680611bc457611bc4611b33565b806001600160401b0384160491505092915050565b60006001600160401b0382166001600160401b038103611bfb57611bfb611a31565b60010192915050565b634e487b7160e01b600052603260045260246000fd5b6001600160401b038181168382160290811690818114611c3c57611c3c611a31565b5092915050565b634e487b7160e01b600052600160045260246000fdfea26469706673582212203685a0a065734e01d7dc711ad0478e93cc277788419e32f3e1a2ad2b6cb5345664736f6c634300081a0033",
  "deployedBytecode": "0x608060405234801561001057600080fd5b50600436106101375760003560e01c8063a87430ba116100b8578063e9f162bb1161007c578063e9f162bb14610389578063eea187b71461039e578063f01cb648146103b1578063f2fde38b146103c4578063f800ece9146103d7578063fce8d390146103df57600080fd5b8063a87430ba146102bd578063b16952011461031a578063b60efbb714610343578063b81b2b7114610356578063d3d12a461461037657600080fd5b8063715018a6116100ff578063715018a61461023b57806382cfd1b814610245578063848c9296146102865780638da5cb5b146102995780639ccb0744146102aa57600080fd5b806307973ccf1461013c57806320c97b4e146101585780632b956ff7146101a25780634a9fefc7146101cb57806369ee60d114610228575b600080fd5b61014560015481565b6040519081526020015b60405180910390f35b610187610166366004611869565b60096020526000908152604090208054600182015460029092015490919083565b6040805193845260208401929092529082015260600161014f565b6101456101b0366004611869565b6001600160a01b031660009081526002602052604090205490565b61020b6101d9366004611869565b6001600160a01b0390811660009081526002602081815260408084209092015480845260039091529120549092911690565b604080519283526001600160a01b0390911660208301520161014f565b610145610236366004611886565b6103e7565b61024361056b565b005b61026e610253366004611869565b6008602052600090815260409020546001600160a01b031681565b6040516001600160a01b03909116815260200161014f565b6102436102943660046118ca565b61057f565b6000546001600160a01b031661026e565b61026e6102b8366004611869565b6106c1565b6102f76102cb366004611869565b60026020819052600091825260409091208054600182015491909201546001600160a01b039091169083565b604080519384526001600160a01b0390921660208401529082015260600161014f565b61026e6103283660046118e6565b6003602052600090815260409020546001600160a01b031681565b6102436103513660046118ff565b6108f8565b61035e610c3c565b6040516001600160401b03909116815260200161014f565b61024361038436600461193f565b610c4d565b610391610c69565b60405161014f9190611986565b6102436103ac3660046118e6565b610c75565b6101456103bf3660046119d2565b610d10565b6102436103d2366004611869565b610eef565b610391610f68565b61026e610f74565b6000806104be83856001600160a01b031663cd3293de6040518163ffffffff1660e01b8152600401602060405180830381865afa15801561042c573d6000803e3d6000fd5b505050506040513d601f19601f820116820180604052508101906104509190611a18565b610458610f74565b6001600160a01b031663cd3293de6040518163ffffffff1660e01b8152600401602060405180830381865afa158015610495573d6000803e3d6000fd5b505050506040513d601f19601f820116820180604052508101906104b99190611a18565b610f81565b6001600160a01b038516600090815260096020526040812054919250906104e6908390611a47565b6001600160a01b03861660009081526009602052604081206001015491925081831161051357600061051d565b61051d8284611a5a565b6001600160a01b038816600090815260096020526040812060020154600a54929350909161054b9190611a5a565b905061055f828261055a610c3c565b610fa2565b98975050505050505050565b61057361101a565b61057d6000611074565b565b600061058e6020830183611869565b6001600160a01b0380821660009081526008602052604090205491925016806105fe5760405162461bcd60e51b815260206004820152601c60248201527f526f757465723a20496e76616c6964207061697220616464726573730000000060448201526064015b60405180910390fd5b604051637080addb60e11b81526000906001600160a01b0383169063e1015bb69061062f9087903390600401611a8e565b6020604051808303816000875af115801561064e573d6000803e3d6000fd5b505050506040513d601f19601f820116820180604052508101906106729190611a18565b905080600a60008282546106869190611a47565b90915550506001600160a01b038316600090815260096020526040812060020180548392906106b6908490611a47565b909155505050505050565b60006106cb61101a565b6001600160a01b0382811660009081526008602052604090205416156107295760405162461bcd60e51b8152602060048201526013602482015272151bdad95b88185b1c9958591e481859191959606a1b60448201526064016105f5565b610731610c3c565b6001600160401b03166000036108195773__$31f9933428425b78452ca9943e0856c2ea$__63bb3007786040518163ffffffff1660e01b8152600401602060405180830381865af415801561078a573d6000803e3d6000fd5b505050506040513d601f19601f820116820180604052508101906107ae9190611ab4565b9050806001600160a01b031663d83678ac6040518163ffffffff1660e01b8152600401602060405180830381865afa1580156107ee573d6000803e3d6000fd5b505050506040513d601f19601f820116820180604052508101906108129190611ab4565b91506108ae565b73__$31f9933428425b78452ca9943e0856c2ea$__63b3af16d38361083c610f74565b6040516001600160e01b031960e085901b1681526001600160a01b03928316600482015291166024820152604401602060405180830381865af4158015610887573d6000803e3d6000fd5b505050506040513d601f19601f820116820180604052508101906108ab9190611ab4565b90505b6108b96004826110c4565b506108c56006836110c4565b506001600160a01b03918216600090815260086020526040902080546001600160a01b0319169282169290921790915590565b600060088161090a6020870187611869565b6001600160a01b0390811682526020820192909252604001600020541690506109346004826110e2565b6109805760405162461bcd60e51b815260206004820152601c60248201527f526f757465723a20496e7075742070616972206e6f7420666f756e640000000060448201526064016105f5565b61098b6004846110e2565b6109d75760405162461bcd60e51b815260206004820152601d60248201527f526f757465723a204f75747075742070616972206e6f7420666f756e6400000060448201526064016105f5565b60008390506000816001600160a01b0316639ec5a8946040518163ffffffff1660e01b8152600401602060405180830381865afa158015610a1c573d6000803e3d6000fd5b505050506040513d601f19601f82011682018060405250810190610a409190611a18565b3360009081526002602081815260408084209092015480845260039091529082205492935090916001600160a01b0316915050836001600160a01b0316635541955f33838a878a610a958b8f602001356103e7565b6040518763ffffffff1660e01b8152600401610ab696959493929190611ad1565b600060405180830381600087803b158015610ad057600080fd5b505af1158015610ae4573d6000803e3d6000fd5b505050506000836001600160a01b0316639ec5a8946040518163ffffffff1660e01b8152600401602060405180830381865afa158015610b28573d6000803e3d6000fd5b505050506040513d601f19601f82011682018060405250810190610b4c9190611a18565b90506000610b5a8483611a5a565b905060008111610bbb5760405162461bcd60e51b815260206004820152602660248201527f526f757465723a206e6f2072657761726473206769616e656420666f72206f756044820152653a103830b4b960d11b60648201526084016105f5565b6001600160a01b03861660009081526009602052604081208054839290610be3908490611a47565b90915550506001600160a01b03881660009081526009602052604081206001018054839290610c13908490611a47565b9250508190555080600b6000828254610c2c9190611a47565b9091555050505050505050505050565b6000610c486004611104565b905090565b610c57338561110e565b50610c638383836108f8565b50505050565b6060610c48600661134d565b610c7d61101a565b6000610c87610f74565b9050806001600160a01b038116630996bc9684610cac6000546001600160a01b031690565b6040516001600160e01b031960e085901b16815260048101929092526001600160a01b03166024820152604401600060405180830381600087803b158015610cf357600080fd5b505af1158015610d07573d6000803e3d6000fd5b50505050505050565b6000610d1d6004866110e2565b610d695760405162461bcd60e51b815260206004820152601c60248201527f526f757465723a20496e7075742070616972206e6f7420666f756e640000000060448201526064016105f5565b610d746004856110e2565b610dc05760405162461bcd60e51b815260206004820152601d60248201527f526f757465723a204f75747075742070616972206e6f7420666f756e6400000060448201526064016105f5565b600085905060008590506000826001600160a01b031663cd3293de6040518163ffffffff1660e01b8152600401602060405180830381865afa158015610e0a573d6000803e3d6000fd5b505050506040513d601f19601f82011682018060405250810190610e2e9190611a18565b90506000826001600160a01b031663cd3293de6040518163ffffffff1660e01b8152600401602060405180830381865afa158015610e70573d6000803e3d6000fd5b505050506040513d601f19601f82011682018060405250810190610e949190611a18565b90506000610ea28a896103e7565b90506000610eb0898961135a565b9050610ebd81858561137c565b9650612710610ecc8389611b1c565b610ed69190611b49565b610ee09088611a5a565b9b9a5050505050505050505050565b610ef761101a565b6001600160a01b038116610f5c5760405162461bcd60e51b815260206004820152602660248201527f4f776e61626c653a206e6577206f776e657220697320746865207a65726f206160448201526564647265737360d01b60648201526084016105f5565b610f6581611074565b50565b6060610c48600461134d565b6000610c486004826113ad565b600082610f8e8386611b1c565b610f989190611b49565b90505b9392505050565b600080610fb08585856113b9565b9050600080600080610fcb856001600160401b0316886113fd565b935093509350935061100d846001600160401b0316846001600160401b0316876001600160401b0316856001600160401b0316856001600160401b0316611512565b9998505050505050505050565b6000546001600160a01b0316331461057d5760405162461bcd60e51b815260206004820181905260248201527f4f776e61626c653a2063616c6c6572206973206e6f7420746865206f776e657260448201526064016105f5565b600080546001600160a01b038381166001600160a01b0319831681178455604051919092169283917f8be0079c531659141344cd1fd0a4f28419497f9722a3daafe3b4186f6b6457e09190a35050565b60006110d9836001600160a01b0384166115d2565b90505b92915050565b6001600160a01b038116600090815260018301602052604081205415156110d9565b60006110dc825490565b6001600160a01b0382166000908152600260205260408120541561114b57506001600160a01b0382166000908152600260205260409020546110dc565b6001805490600061115b83611b5d565b919050555060405180608001604052806001548152602001846001600160a01b0316815260200183815260200160016001600160401b038111156111a1576111a1611b76565b6040519080825280602002602001820160405280156111ca578160200160208202803683370190505b5090526001600160a01b0384811660009081526002602081815260409283902085518155858201516001820180546001600160a01b031916919096161790945591840151908301556060830151805161122992600385019201906117f4565b5050600154600090815260036020526040902080546001600160a01b0319166001600160a01b03861617905550811580159061127b57506000828152600360205260409020546001600160a01b031615155b156112f8576000828152600360208181526040808420546001600160a01b0316845260028252808420600180549190940180548086018255908652948390209094019390935590548251858152918201527fa8b1f3acfefae9dbf6c7ffd8c16eda5db6950c383b34ca999d98f9998721c50c910160405180910390a15b600154604080519182526001600160a01b038516602083015281018390527fb58d46e66658e855773af8232237e606476d7f0ad98813c081b540e6f435ea3e9060600160405180910390a15060015492915050565b60606000610f9b83611621565b60006127106113688361167d565b6113729085611b1c565b6110d99190611b49565b6000806113898386611b1c565b905060006113978686611a47565b90506113a38183611b49565b9695505050505050565b60006110d983836116e1565b6000806113c6848461170b565b6113d26103e887611b1c565b6113dc9190611b49565b90506113f460016113ec8561178a565b839190611798565b95945050505050565b60016103e8600a601e60006114118661178a565b905060005b846001600160401b031688111561150757611432856001611b8c565b955061143f836001611b8c565b9350806001600160401b03166000036114695761145d600583611bab565b945061012c92506114f5565b806001600160401b03166001036114875781945061271092506114f5565b60405162461bcd60e51b815260206004820152603c60248201527f4665652e5f676574496e74657256616c7565733a206d61782063616c6c20646560448201527f70746820666f7220696e746572706f6c6174696f6e2076616c7565730000000060648201526084016105f5565b806114ff81611bd9565b915050611416565b505092959194509250565b60008584108061152157508484115b1561157f5760405162461bcd60e51b815260206004820152602860248201527f4d6174682e6c696e656172496e746572706f6c6174696f6e3a20496e76616c69604482015267642076616c75657360c01b60648201526084016105f5565b600061158b8587611a5a565b6115959085611b1c565b905060006115a38887611a5a565b6115ad9085611b1c565b905060006115bb8989611a5a565b9050806115c88385611a47565b61100d9190611b49565b6000818152600183016020526040812054611619575081546001818101845560008481526020808220909301849055845484825282860190935260409020919091556110dc565b5060006110dc565b60608160000180548060200260200160405190810160405280929190818152602001828054801561167157602002820191906000526020600020905b81548152602001906001019080831161165d575b50505050509050919050565b6000600182108061168f575061271082115b156116d55760405162461bcd60e51b8152602060048201526016602482015275496e76616c696420736c6970706167652076616c756560501b60448201526064016105f5565b6110dc82612710611a5a565b60008260000182815481106116f8576116f8611c04565b9060005260206000200154905092915050565b600080826001600160401b0316116117655760405162461bcd60e51b815260206004820152601b60248201527f4665655574696c3a206e6f20617661696c61626c65207061697273000000000060448201526064016105f5565b6117786001600160401b03831684611b49565b9050600181116110dc575060016110dc565b60006110dc6103e883611c1a565b6000816001600160401b0316836001600160401b031611156117bc576117bc611c43565b826001600160401b03168410156117d4575081610f9b565b816001600160401b03168411156117ec575080610f9b565b509192915050565b82805482825590600052602060002090810192821561182f579160200282015b8281111561182f578251825591602001919060010190611814565b5061183b92915061183f565b5090565b5b8082111561183b5760008155600101611840565b6001600160a01b0381168114610f6557600080fd5b60006020828403121561187b57600080fd5b8135610f9b81611854565b6000806040838503121561189957600080fd5b82356118a481611854565b946020939093013593505050565b6000604082840312156118c457600080fd5b50919050565b6000604082840312156118dc57600080fd5b6110d983836118b2565b6000602082840312156118f857600080fd5b5035919050565b60008060006080848603121561191457600080fd5b61191e85856118b2565b9250604084013561192e81611854565b929592945050506060919091013590565b60008060008060a0858703121561195557600080fd5b8435935061196686602087016118b2565b9250606085013561197681611854565b9396929550929360800135925050565b602080825282518282018190526000918401906040840190835b818110156119c75783516001600160a01b03168352602093840193909201916001016119a0565b509095945050505050565b600080600080608085870312156119e857600080fd5b84356119f381611854565b93506020850135611a0381611854565b93969395505050506040820135916060013590565b600060208284031215611a2a57600080fd5b5051919050565b634e487b7160e01b600052601160045260246000fd5b808201808211156110dc576110dc611a31565b818103818111156110dc576110dc611a31565b8035611a7881611854565b6001600160a01b03168252602090810135910152565b60608101611a9c8285611a6d565b6001600160a01b039290921660409190910152919050565b600060208284031215611ac657600080fd5b8151610f9b81611854565b6001600160a01b0387811682528616602082015260e08101611af66040830187611a6d565b6001600160a01b0394909416608082015260a081019290925260c0909101529392505050565b80820281158282048414176110dc576110dc611a31565b634e487b7160e01b600052601260045260246000fd5b600082611b5857611b58611b33565b500490565b600060018201611b6f57611b6f611a31565b5060010190565b634e487b7160e01b600052604160045260246000fd5b6001600160401b0381811683821601908111156110dc576110dc611a31565b60006001600160401b03831680611bc457611bc4611b33565b806001600160401b0384160491505092915050565b60006001600160401b0382166001600160401b038103611bfb57611bfb611a31565b60010192915050565b634e487b7160e01b600052603260045260246000fd5b6001600160401b038181168382160290811690818114611c3c57611c3c611a31565b5092915050565b634e487b7160e01b600052600160045260246000fdfea26469706673582212203685a0a065734e01d7dc711ad0478e93cc277788419e32f3e1a2ad2b6cb5345664736f6c634300081a0033",
  "libraries": {
    "PairFactory": "0x31CE1D8f0FcDbfD3F3dD6D76900c659374cBe309"
  },
  "devdoc": {
    "kind": "dev",
    "methods": {
      "addLiquidity((address,uint256))": {
        "params": {
          "wholePayment": "Payment details for adding liquidity."
        }
      },
      "basePairAddr()": {
        "returns": {
          "_0": "Returns the basePair address."
        }
      },
      "computeFeePercent(address,uint256)": {
        "details": "The more a pair is sold, the higher the feePercent. This is computed based on the pair's sales relative to the provided liquidity in other pairs.",
        "params": {
          "inAmount": "The input amount for which the feePercent is being computed.",
          "pairAddress": "The address of the pair for which the feePercent is being computed."
        },
        "returns": {
          "feePercent": "The computed feePercent based on the input amount and the pair's sales."
        }
      },
      "createPair(address)": {
        "details": "The first pair becomes the base pair -- For now, called by only owner..when DAO is implemented, DAO can call this",
        "params": {
          "tradeToken": "Address of the trade token for the pair."
        },
        "returns": {
          "pair": "Address of the newly created pair."
        }
      },
      "estimateOutAmount(address,address,uint256,uint256)": {
        "details": "The function calculates the amount of output tokens after applying the dynamic fee and slippage.",
        "params": {
          "inAmount": "The amount of input tokens.",
          "inPair": "The address of the input pair.",
          "outPair": "The address of the output pair.",
          "slippage": "The maximum allowable slippage percentage (e.g., 50 for 0.5%)."
        },
        "returns": {
          "amountOut": "The estimated amount of output tokens."
        }
      },
      "getAllPairs()": {
        "returns": {
          "_0": "Array of pair addresses."
        }
      },
      "getReferrer(address)": {
        "params": {
          "userAddress": "The address of the user."
        },
        "returns": {
          "referrerAddress": "The address of the referrer, address(0) if none.",
          "referrerId": "The ID of the referrer, 0 if none."
        }
      },
      "mintInitialSupply(uint256)": {
        "details": "This function can only be called by the owner of the contract.      It passes the owner of the Router contract as the recipient of the minted tokens.      The base trade token is assumed to be the first token in the `pairs` set.",
        "params": {
          "amount": "The amount of tokens to mint as the initial supply."
        }
      },
      "owner()": {
        "details": "Returns the address of the current owner."
      },
      "pairsCount()": {
        "returns": {
          "_0": "count the total count of listed pairs."
        }
      },
      "registerAndSwap(uint256,(address,uint256),address,uint256)": {
        "details": "Becareful with parameter ordering for `ERC20TokenPayment`"
      },
      "renounceOwnership()": {
        "details": "Leaves the contract without owner. It will not be possible to call `onlyOwner` functions anymore. Can only be called by the current owner. NOTE: Renouncing ownership will leave the contract without an owner, thereby removing any functionality that is only available to the owner."
      },
      "swap((address,uint256),address,uint256)": {
        "params": {
          "inPayment": "Payment details for the trade.",
          "outPairAddr": "Address of the output pair.",
          "slippage": "Maximum slippage allowed."
        }
      },
      "tradeableTokens()": {
        "returns": {
          "_0": "Array of pair addresses."
        }
      },
      "transferOwnership(address)": {
        "details": "Transfers ownership of the contract to a new account (`newOwner`). Can only be called by the current owner."
      }
    },
    "version": 1
  },
  "userdoc": {
    "kind": "user",
    "methods": {
      "addLiquidity((address,uint256))": {
        "notice": "Adds liquidity to a pair."
      },
      "computeFeePercent(address,uint256)": {
        "notice": "Computes the feePercent based on the pair's sales against the liquidity provided in other pairs."
      },
      "createPair(address)": {
        "notice": "Creates a new pair."
      },
      "estimateOutAmount(address,address,uint256,uint256)": {
        "notice": "Estimates the amount of output tokens to receive for a given input amount, considering slippage."
      },
      "getAllPairs()": {
        "notice": "Returns the list of all pairs."
      },
      "getReferrer(address)": {
        "notice": "Gets the referrer and referrer ID of a user."
      },
      "mintInitialSupply(uint256)": {
        "notice": "Calls the BasePair contract to mint the initial supply of the base trade token."
      },
      "swap((address,uint256),address,uint256)": {
        "notice": "Executes a trade between two pairs."
      },
      "tradeableTokens()": {
        "notice": "Returns the list of all trade token addreses."
      }
    },
    "version": 1
  },
  "storageLayout": {
    "storage": [
      {
        "astId": 7,
        "contract": "contracts/router/Router.sol:Router",
        "label": "_owner",
        "offset": 0,
        "slot": "0",
        "type": "t_address"
      },
      {
        "astId": 4772,
        "contract": "contracts/router/Router.sol:Router",
        "label": "userCount",
        "offset": 0,
        "slot": "1",
        "type": "t_uint256"
      },
      {
        "astId": 4777,
        "contract": "contracts/router/Router.sol:Router",
        "label": "users",
        "offset": 0,
        "slot": "2",
        "type": "t_mapping(t_address,t_struct(User)4770_storage)"
      },
      {
        "astId": 4781,
        "contract": "contracts/router/Router.sol:Router",
        "label": "userIdToAddress",
        "offset": 0,
        "slot": "3",
        "type": "t_mapping(t_uint256,t_address)"
      },
      {
        "astId": 4225,
        "contract": "contracts/router/Router.sol:Router",
        "label": "pairs",
        "offset": 0,
        "slot": "4",
        "type": "t_struct(AddressSet)1527_storage"
      },
      {
        "astId": 4228,
        "contract": "contracts/router/Router.sol:Router",
        "label": "tradeTokens",
        "offset": 0,
        "slot": "6",
        "type": "t_struct(AddressSet)1527_storage"
      },
      {
        "astId": 4232,
        "contract": "contracts/router/Router.sol:Router",
        "label": "tokensPairAddress",
        "offset": 0,
        "slot": "8",
        "type": "t_mapping(t_address,t_address)"
      },
      {
        "astId": 4237,
        "contract": "contracts/router/Router.sol:Router",
        "label": "pairData",
        "offset": 0,
        "slot": "9",
        "type": "t_mapping(t_address,t_struct(PairData)4222_storage)"
      },
      {
        "astId": 4239,
        "contract": "contracts/router/Router.sol:Router",
        "label": "totalLiq",
        "offset": 0,
        "slot": "10",
        "type": "t_uint256"
      },
      {
        "astId": 4241,
        "contract": "contracts/router/Router.sol:Router",
        "label": "totalRewards",
        "offset": 0,
        "slot": "11",
        "type": "t_uint256"
      }
    ],
    "types": {
      "t_address": {
        "encoding": "inplace",
        "label": "address",
        "numberOfBytes": "20"
      },
      "t_array(t_bytes32)dyn_storage": {
        "base": "t_bytes32",
        "encoding": "dynamic_array",
        "label": "bytes32[]",
        "numberOfBytes": "32"
      },
      "t_array(t_uint256)dyn_storage": {
        "base": "t_uint256",
        "encoding": "dynamic_array",
        "label": "uint256[]",
        "numberOfBytes": "32"
      },
      "t_bytes32": {
        "encoding": "inplace",
        "label": "bytes32",
        "numberOfBytes": "32"
      },
      "t_mapping(t_address,t_address)": {
        "encoding": "mapping",
        "key": "t_address",
        "label": "mapping(address => address)",
        "numberOfBytes": "32",
        "value": "t_address"
      },
      "t_mapping(t_address,t_struct(PairData)4222_storage)": {
        "encoding": "mapping",
        "key": "t_address",
        "label": "mapping(address => struct Router.PairData)",
        "numberOfBytes": "32",
        "value": "t_struct(PairData)4222_storage"
      },
      "t_mapping(t_address,t_struct(User)4770_storage)": {
        "encoding": "mapping",
        "key": "t_address",
        "label": "mapping(address => struct UserModule.User)",
        "numberOfBytes": "32",
        "value": "t_struct(User)4770_storage"
      },
      "t_mapping(t_bytes32,t_uint256)": {
        "encoding": "mapping",
        "key": "t_bytes32",
        "label": "mapping(bytes32 => uint256)",
        "numberOfBytes": "32",
        "value": "t_uint256"
      },
      "t_mapping(t_uint256,t_address)": {
        "encoding": "mapping",
        "key": "t_uint256",
        "label": "mapping(uint256 => address)",
        "numberOfBytes": "32",
        "value": "t_address"
      },
      "t_struct(AddressSet)1527_storage": {
        "encoding": "inplace",
        "label": "struct EnumerableSet.AddressSet",
        "members": [
          {
            "astId": 1526,
            "contract": "contracts/router/Router.sol:Router",
            "label": "_inner",
            "offset": 0,
            "slot": "0",
            "type": "t_struct(Set)1212_storage"
          }
        ],
        "numberOfBytes": "64"
      },
      "t_struct(PairData)4222_storage": {
        "encoding": "inplace",
        "label": "struct Router.PairData",
        "members": [
          {
            "astId": 4217,
            "contract": "contracts/router/Router.sol:Router",
            "label": "rewardsAgainst",
            "offset": 0,
            "slot": "0",
            "type": "t_uint256"
          },
          {
            "astId": 4219,
            "contract": "contracts/router/Router.sol:Router",
            "label": "rewardsFor",
            "offset": 0,
            "slot": "1",
            "type": "t_uint256"
          },
          {
            "astId": 4221,
            "contract": "contracts/router/Router.sol:Router",
            "label": "totalLiq",
            "offset": 0,
            "slot": "2",
            "type": "t_uint256"
          }
        ],
        "numberOfBytes": "96"
      },
      "t_struct(Set)1212_storage": {
        "encoding": "inplace",
        "label": "struct EnumerableSet.Set",
        "members": [
          {
            "astId": 1207,
            "contract": "contracts/router/Router.sol:Router",
            "label": "_values",
            "offset": 0,
            "slot": "0",
            "type": "t_array(t_bytes32)dyn_storage"
          },
          {
            "astId": 1211,
            "contract": "contracts/router/Router.sol:Router",
            "label": "_indexes",
            "offset": 0,
            "slot": "1",
            "type": "t_mapping(t_bytes32,t_uint256)"
          }
        ],
        "numberOfBytes": "64"
      },
      "t_struct(User)4770_storage": {
        "encoding": "inplace",
        "label": "struct UserModule.User",
        "members": [
          {
            "astId": 4762,
            "contract": "contracts/router/Router.sol:Router",
            "label": "id",
            "offset": 0,
            "slot": "0",
            "type": "t_uint256"
          },
          {
            "astId": 4764,
            "contract": "contracts/router/Router.sol:Router",
            "label": "addr",
            "offset": 0,
            "slot": "1",
            "type": "t_address"
          },
          {
            "astId": 4766,
            "contract": "contracts/router/Router.sol:Router",
            "label": "referrerId",
            "offset": 0,
            "slot": "2",
            "type": "t_uint256"
          },
          {
            "astId": 4769,
            "contract": "contracts/router/Router.sol:Router",
            "label": "referrals",
            "offset": 0,
            "slot": "3",
            "type": "t_array(t_uint256)dyn_storage"
          }
        ],
        "numberOfBytes": "128"
      },
      "t_uint256": {
        "encoding": "inplace",
        "label": "uint256",
        "numberOfBytes": "32"
      }
    }
  }
}