{
  "address": "0xE450d810f6Ee1ac1D1DC1c50c42d8F15f6544091",
  "abi": [
    {
      "inputs": [],
      "stateMutability": "nonpayable",
      "type": "constructor"
    },
    {
      "inputs": [
        {
          "internalType": "int256",
          "name": "x",
          "type": "int256"
        }
      ],
      "name": "PRBMathSD59x18__Exp2InputTooBig",
      "type": "error"
    },
    {
      "inputs": [
        {
          "internalType": "int256",
          "name": "x",
          "type": "int256"
        }
      ],
      "name": "PRBMathSD59x18__LogInputTooSmall",
      "type": "error"
    },
    {
      "inputs": [],
      "name": "PRBMathSD59x18__MulInputTooSmall",
      "type": "error"
    },
    {
      "inputs": [
        {
          "internalType": "uint256",
          "name": "rAbs",
          "type": "uint256"
        }
      ],
      "name": "PRBMathSD59x18__MulOverflow",
      "type": "error"
    },
    {
      "inputs": [
        {
          "internalType": "uint256",
          "name": "prod1",
          "type": "uint256"
        }
      ],
      "name": "PRBMath__MulDivFixedPointOverflow",
      "type": "error"
    },
    {
      "inputs": [
        {
          "internalType": "uint256",
          "name": "number",
          "type": "uint256"
        }
      ],
      "name": "ToInt256CastOverflow",
      "type": "error"
    },
    {
      "inputs": [
        {
          "internalType": "int256",
          "name": "number",
          "type": "int256"
        }
      ],
      "name": "ToUint256CastOverflow",
      "type": "error"
    },
    {
      "anonymous": false,
      "inputs": [
        {
          "indexed": true,
          "internalType": "address",
          "name": "user",
          "type": "address"
        },
        {
          "indexed": true,
          "internalType": "address",
          "name": "pair",
          "type": "address"
        },
        {
          "indexed": false,
          "internalType": "uint256",
          "name": "liquidityRemoved",
          "type": "uint256"
        },
        {
          "indexed": false,
          "internalType": "uint256",
          "name": "tradeTokenAmount",
          "type": "uint256"
        },
        {
          "indexed": false,
          "internalType": "uint256",
          "name": "baseTokenAmount",
          "type": "uint256"
        }
      ],
      "name": "LiquidityRemoved",
      "type": "event"
    },
    {
      "anonymous": false,
      "inputs": [
        {
          "indexed": true,
          "internalType": "address",
          "name": "previousOwner",
          "type": "address"
        },
        {
          "indexed": true,
          "internalType": "address",
          "name": "newOwner",
          "type": "address"
        }
      ],
      "name": "OwnershipTransferred",
      "type": "event"
    },
    {
      "anonymous": false,
      "inputs": [
        {
          "indexed": false,
          "internalType": "uint256",
          "name": "referrerId",
          "type": "uint256"
        },
        {
          "indexed": false,
          "internalType": "uint256",
          "name": "referralId",
          "type": "uint256"
        }
      ],
      "name": "ReferralAdded",
      "type": "event"
    },
    {
      "anonymous": false,
      "inputs": [
        {
          "indexed": false,
          "internalType": "uint256",
          "name": "userId",
          "type": "uint256"
        },
        {
          "indexed": false,
          "internalType": "address",
          "name": "userAddress",
          "type": "address"
        },
        {
          "indexed": false,
          "internalType": "uint256",
          "name": "referrerId",
          "type": "uint256"
        }
      ],
      "name": "UserRegistered",
      "type": "event"
    },
    {
      "inputs": [
        {
          "components": [
            {
              "internalType": "address",
              "name": "token",
              "type": "address"
            },
            {
              "internalType": "uint256",
              "name": "amount",
              "type": "uint256"
            },
            {
              "internalType": "uint256",
              "name": "nonce",
              "type": "uint256"
            }
          ],
          "internalType": "struct TokenPayment",
          "name": "wholePayment",
          "type": "tuple"
        }
      ],
      "name": "addLiquidity",
      "outputs": [
        {
          "internalType": "uint256",
          "name": "",
          "type": "uint256"
        }
      ],
      "stateMutability": "payable",
      "type": "function"
    },
    {
      "inputs": [],
      "name": "basePairAddr",
      "outputs": [
        {
          "internalType": "address",
          "name": "",
          "type": "address"
        }
      ],
      "stateMutability": "view",
      "type": "function"
    },
    {
      "inputs": [
        {
          "internalType": "uint256[]",
          "name": "nonces",
          "type": "uint256[]"
        }
      ],
      "name": "claimRewards",
      "outputs": [
        {
          "internalType": "uint256",
          "name": "totalClaimed",
          "type": "uint256"
        },
        {
          "internalType": "uint256[]",
          "name": "newNonces",
          "type": "uint256[]"
        }
      ],
      "stateMutability": "nonpayable",
      "type": "function"
    },
    {
      "inputs": [
        {
          "internalType": "address",
          "name": "pairAddress",
          "type": "address"
        },
        {
          "internalType": "uint256",
          "name": "inAmount",
          "type": "uint256"
        }
      ],
      "name": "computeFeePercent",
      "outputs": [
        {
          "internalType": "uint256",
          "name": "feePercent",
          "type": "uint256"
        }
      ],
      "stateMutability": "view",
      "type": "function"
    },
    {
      "inputs": [
        {
          "components": [
            {
              "internalType": "address",
              "name": "token",
              "type": "address"
            },
            {
              "internalType": "uint256",
              "name": "amount",
              "type": "uint256"
            },
            {
              "internalType": "uint256",
              "name": "nonce",
              "type": "uint256"
            }
          ],
          "internalType": "struct TokenPayment",
          "name": "payment",
          "type": "tuple"
        }
      ],
      "name": "createPair",
      "outputs": [
        {
          "internalType": "address",
          "name": "pairAddress",
          "type": "address"
        },
        {
          "components": [
            {
              "internalType": "address",
              "name": "token",
              "type": "address"
            },
            {
              "internalType": "uint256",
              "name": "amount",
              "type": "uint256"
            },
            {
              "internalType": "uint256",
              "name": "nonce",
              "type": "uint256"
            }
          ],
          "internalType": "struct TokenPayment",
          "name": "lpPayment",
          "type": "tuple"
        }
      ],
      "stateMutability": "payable",
      "type": "function"
    },
    {
      "inputs": [
        {
          "internalType": "address",
          "name": "inPair",
          "type": "address"
        },
        {
          "internalType": "address",
          "name": "outPair",
          "type": "address"
        },
        {
          "internalType": "uint256",
          "name": "inAmount",
          "type": "uint256"
        },
        {
          "internalType": "uint256",
          "name": "slippage",
          "type": "uint256"
        }
      ],
      "name": "estimateOutAmount",
      "outputs": [
        {
          "internalType": "uint256",
          "name": "amountOut",
          "type": "uint256"
        }
      ],
      "stateMutability": "view",
      "type": "function"
    },
    {
      "inputs": [],
      "name": "getAllPairs",
      "outputs": [
        {
          "internalType": "address[]",
          "name": "",
          "type": "address[]"
        }
      ],
      "stateMutability": "view",
      "type": "function"
    },
    {
      "inputs": [
        {
          "internalType": "address",
          "name": "user",
          "type": "address"
        }
      ],
      "name": "getClaimableRewards",
      "outputs": [
        {
          "internalType": "uint256",
          "name": "totalClaimable",
          "type": "uint256"
        }
      ],
      "stateMutability": "view",
      "type": "function"
    },
    {
      "inputs": [
        {
          "internalType": "address",
          "name": "user",
          "type": "address"
        },
        {
          "internalType": "uint256",
          "name": "nonce",
          "type": "uint256"
        }
      ],
      "name": "getClaimableRewardsAt",
      "outputs": [
        {
          "internalType": "uint256",
          "name": "claimable",
          "type": "uint256"
        }
      ],
      "stateMutability": "view",
      "type": "function"
    },
    {
      "inputs": [
        {
          "internalType": "uint256[]",
          "name": "nonces",
          "type": "uint256[]"
        }
      ],
      "name": "getClaimableRewardsByNonces",
      "outputs": [
        {
          "internalType": "uint256",
          "name": "totalClaimable",
          "type": "uint256"
        }
      ],
      "stateMutability": "view",
      "type": "function"
    },
    {
      "inputs": [
        {
          "internalType": "address",
          "name": "userAddress",
          "type": "address"
        }
      ],
      "name": "getReferrals",
      "outputs": [
        {
          "components": [
            {
              "internalType": "uint256",
              "name": "id",
              "type": "uint256"
            },
            {
              "internalType": "address",
              "name": "referralAddress",
              "type": "address"
            }
          ],
          "internalType": "struct UserModule.ReferralInfo[]",
          "name": "",
          "type": "tuple[]"
        }
      ],
      "stateMutability": "view",
      "type": "function"
    },
    {
      "inputs": [
        {
          "internalType": "address",
          "name": "userAddress",
          "type": "address"
        }
      ],
      "name": "getReferrer",
      "outputs": [
        {
          "internalType": "uint256",
          "name": "referrerId",
          "type": "uint256"
        },
        {
          "internalType": "address",
          "name": "referrerAddress",
          "type": "address"
        }
      ],
      "stateMutability": "view",
      "type": "function"
    },
    {
      "inputs": [
        {
          "internalType": "address",
          "name": "userAddress",
          "type": "address"
        }
      ],
      "name": "getUserId",
      "outputs": [
        {
          "internalType": "uint256",
          "name": "userId",
          "type": "uint256"
        }
      ],
      "stateMutability": "view",
      "type": "function"
    },
    {
      "inputs": [],
      "name": "getWEDU",
      "outputs": [
        {
          "internalType": "address",
          "name": "",
          "type": "address"
        }
      ],
      "stateMutability": "view",
      "type": "function"
    },
    {
      "inputs": [],
      "name": "globalData",
      "outputs": [
        {
          "internalType": "uint256",
          "name": "rewardsReserve",
          "type": "uint256"
        },
        {
          "internalType": "uint256",
          "name": "taxRewards",
          "type": "uint256"
        },
        {
          "internalType": "uint256",
          "name": "rewardsPerShare",
          "type": "uint256"
        },
        {
          "internalType": "uint256",
          "name": "totalTradeVolume",
          "type": "uint256"
        },
        {
          "internalType": "uint256",
          "name": "lastTimestamp",
          "type": "uint256"
        },
        {
          "internalType": "uint256",
          "name": "totalLiq",
          "type": "uint256"
        }
      ],
      "stateMutability": "view",
      "type": "function"
    },
    {
      "inputs": [],
      "name": "governance",
      "outputs": [
        {
          "internalType": "contract Governance",
          "name": "",
          "type": "address"
        }
      ],
      "stateMutability": "view",
      "type": "function"
    },
    {
      "inputs": [],
      "name": "lpToken",
      "outputs": [
        {
          "internalType": "contract LpToken",
          "name": "",
          "type": "address"
        }
      ],
      "stateMutability": "view",
      "type": "function"
    },
    {
      "inputs": [
        {
          "internalType": "address",
          "name": "",
          "type": "address"
        },
        {
          "internalType": "address",
          "name": "",
          "type": "address"
        },
        {
          "internalType": "uint256[]",
          "name": "",
          "type": "uint256[]"
        },
        {
          "internalType": "uint256[]",
          "name": "",
          "type": "uint256[]"
        },
        {
          "internalType": "bytes",
          "name": "",
          "type": "bytes"
        }
      ],
      "name": "onERC1155BatchReceived",
      "outputs": [
        {
          "internalType": "bytes4",
          "name": "",
          "type": "bytes4"
        }
      ],
      "stateMutability": "nonpayable",
      "type": "function"
    },
    {
      "inputs": [
        {
          "internalType": "address",
          "name": "",
          "type": "address"
        },
        {
          "internalType": "address",
          "name": "",
          "type": "address"
        },
        {
          "internalType": "uint256",
          "name": "",
          "type": "uint256"
        },
        {
          "internalType": "uint256",
          "name": "",
          "type": "uint256"
        },
        {
          "internalType": "bytes",
          "name": "",
          "type": "bytes"
        }
      ],
      "name": "onERC1155Received",
      "outputs": [
        {
          "internalType": "bytes4",
          "name": "",
          "type": "bytes4"
        }
      ],
      "stateMutability": "nonpayable",
      "type": "function"
    },
    {
      "inputs": [],
      "name": "owner",
      "outputs": [
        {
          "internalType": "address",
          "name": "",
          "type": "address"
        }
      ],
      "stateMutability": "view",
      "type": "function"
    },
    {
      "inputs": [],
      "name": "pairsCount",
      "outputs": [
        {
          "internalType": "uint64",
          "name": "",
          "type": "uint64"
        }
      ],
      "stateMutability": "view",
      "type": "function"
    },
    {
      "inputs": [
        {
          "internalType": "address",
          "name": "",
          "type": "address"
        }
      ],
      "name": "pairsData",
      "outputs": [
        {
          "internalType": "uint256",
          "name": "sellVolume",
          "type": "uint256"
        },
        {
          "internalType": "uint256",
          "name": "buyVolume",
          "type": "uint256"
        },
        {
          "internalType": "uint256",
          "name": "lpRewardsPershare",
          "type": "uint256"
        },
        {
          "internalType": "uint256",
          "name": "tradeRewardsPershare",
          "type": "uint256"
        },
        {
          "internalType": "uint256",
          "name": "totalLiq",
          "type": "uint256"
        },
        {
          "internalType": "uint256",
          "name": "rewardsReserve",
          "type": "uint256"
        }
      ],
      "stateMutability": "view",
      "type": "function"
    },
    {
      "inputs": [
        {
          "internalType": "uint256",
          "name": "referrerId",
          "type": "uint256"
        },
        {
          "components": [
            {
              "internalType": "address",
              "name": "token",
              "type": "address"
            },
            {
              "internalType": "uint256",
              "name": "amount",
              "type": "uint256"
            },
            {
              "internalType": "uint256",
              "name": "nonce",
              "type": "uint256"
            }
          ],
          "internalType": "struct TokenPayment",
          "name": "inPayment",
          "type": "tuple"
        },
        {
          "internalType": "address",
          "name": "outPairAddr",
          "type": "address"
        },
        {
          "internalType": "uint256",
          "name": "slippage",
          "type": "uint256"
        }
      ],
      "name": "registerAndSwap",
      "outputs": [],
      "stateMutability": "payable",
      "type": "function"
    },
    {
      "inputs": [
        {
          "internalType": "uint256",
          "name": "nonce",
          "type": "uint256"
        },
        {
          "internalType": "uint256",
          "name": "liqRemoval",
          "type": "uint256"
        }
      ],
      "name": "removeLiquidity",
      "outputs": [],
      "stateMutability": "nonpayable",
      "type": "function"
    },
    {
      "inputs": [],
      "name": "renounceOwnership",
      "outputs": [],
      "stateMutability": "nonpayable",
      "type": "function"
    },
    {
      "inputs": [
        {
          "internalType": "bytes4",
          "name": "interfaceId",
          "type": "bytes4"
        }
      ],
      "name": "supportsInterface",
      "outputs": [
        {
          "internalType": "bool",
          "name": "",
          "type": "bool"
        }
      ],
      "stateMutability": "view",
      "type": "function"
    },
    {
      "inputs": [
        {
          "components": [
            {
              "internalType": "address",
              "name": "token",
              "type": "address"
            },
            {
              "internalType": "uint256",
              "name": "amount",
              "type": "uint256"
            },
            {
              "internalType": "uint256",
              "name": "nonce",
              "type": "uint256"
            }
          ],
          "internalType": "struct TokenPayment",
          "name": "inPayment",
          "type": "tuple"
        },
        {
          "internalType": "address",
          "name": "outPairAddr",
          "type": "address"
        },
        {
          "internalType": "uint256",
          "name": "slippage",
          "type": "uint256"
        }
      ],
      "name": "swap",
      "outputs": [],
      "stateMutability": "payable",
      "type": "function"
    },
    {
      "inputs": [
        {
          "internalType": "address",
          "name": "tokenAddress",
          "type": "address"
        }
      ],
      "name": "tokenIsListed",
      "outputs": [
        {
          "internalType": "bool",
          "name": "",
          "type": "bool"
        }
      ],
      "stateMutability": "view",
      "type": "function"
    },
    {
      "inputs": [
        {
          "internalType": "address",
          "name": "",
          "type": "address"
        }
      ],
      "name": "tokensPairAddress",
      "outputs": [
        {
          "internalType": "address",
          "name": "",
          "type": "address"
        }
      ],
      "stateMutability": "view",
      "type": "function"
    },
    {
      "inputs": [],
      "name": "tradeableTokens",
      "outputs": [
        {
          "internalType": "address[]",
          "name": "",
          "type": "address[]"
        }
      ],
      "stateMutability": "view",
      "type": "function"
    },
    {
      "inputs": [
        {
          "internalType": "address",
          "name": "newOwner",
          "type": "address"
        }
      ],
      "name": "transferOwnership",
      "outputs": [],
      "stateMutability": "nonpayable",
      "type": "function"
    },
    {
      "inputs": [],
      "name": "userCount",
      "outputs": [
        {
          "internalType": "uint256",
          "name": "",
          "type": "uint256"
        }
      ],
      "stateMutability": "view",
      "type": "function"
    },
    {
      "inputs": [
        {
          "internalType": "uint256",
          "name": "",
          "type": "uint256"
        }
      ],
      "name": "userIdToAddress",
      "outputs": [
        {
          "internalType": "address",
          "name": "",
          "type": "address"
        }
      ],
      "stateMutability": "view",
      "type": "function"
    },
    {
      "inputs": [
        {
          "internalType": "address",
          "name": "",
          "type": "address"
        }
      ],
      "name": "users",
      "outputs": [
        {
          "internalType": "uint256",
          "name": "id",
          "type": "uint256"
        },
        {
          "internalType": "address",
          "name": "addr",
          "type": "address"
        },
        {
          "internalType": "uint256",
          "name": "referrerId",
          "type": "uint256"
        }
      ],
      "stateMutability": "view",
      "type": "function"
    }
  ],
  "transactionHash": "0x0c79fd679cbfc2c288435e44f30ff6bceee9b8ea1792fdee6ad843e071144ed9",
  "args": [],
  "numDeployments": 7,
  "solcInputHash": "d0ad182a94de4c7dfe99085134d37c53",
  "bytecode": "0x60a06040523480156200001157600080fd5b506200001d336200007d565b6200003b620151806004620000cd60201b620026381790919060201c565b60405162000049906200012d565b604051809103906000f08015801562000066573d6000803e3d6000fd5b506001600160a01b0316608052426011556200013b565b600080546001600160a01b038381166001600160a01b0319831681178455604051919092169283917f8be0079c531659141344cd1fd0a4f28419497f9722a3daafe3b4186f6b6457e09190a35050565b4282556001820181905580620001295760405162461bcd60e51b815260206004820152601460248201527f496e76616c69642045706f6368206c656e677468000000000000000000000000604482015260640160405180910390fd5b5050565b612b2d8062005c5c83390190565b608051615abf6200019d600039600081816103c4015281816108220152818161091001528181610bce01528181610d990152818161139c01528181611d1201528181611e860152818161203e015281816124f30152612e460152615abf6000f3fe6080604052600436106101f95760003560e01c80638aa495831161010d578063bc197c81116100a0578063f23a6e611161006f578063f23a6e6114610707578063f2445f1e14610733578063f2fde38b14610753578063f800ece914610773578063fce8d3901461078857600080fd5b8063bc197c811461066b578063e58c555e146106b0578063e9f162bb146106c5578063f01cb648146106e757600080fd5b8063a87430ba116100dc578063a87430ba1461054e578063b1695201146105b8578063b2a5b4a2146105ee578063b81b2b711461063e57600080fd5b80638aa49583146104dd5780638da5cb5b146104f05780639027cae11461050e5780639d7de6b31461052e57600080fd5b80635aa6e6751161019057806369ee60d11161015f57806369ee60d11461043e5780637076806b1461045e578063715018a61461047f57806375bb16c01461049457806382cfd1b8146104a757600080fd5b80635aa6e6751461034c5780635eac6239146103845780635fcbd285146103b2578063613ce410146103e657600080fd5b8063308e401e116101cc578063308e401e146102a25780633dab9a86146102c257806341a0894d146102e25780634a9fefc71461030f57600080fd5b806301ffc9a7146101fe578063020e78b51461023357806307973ccf146102485780632b956ff71461026c575b600080fd5b34801561020a57600080fd5b5061021e610219366004614ce6565b61079d565b60405190151581526020015b60405180910390f35b610246610241366004614d25565b6107d4565b005b34801561025457600080fd5b5061025e60015481565b60405190815260200161022a565b34801561027857600080fd5b5061025e610287366004614d77565b6001600160a01b031660009081526002602052604090205490565b3480156102ae57600080fd5b5061025e6102bd366004614d77565b6107fe565b3480156102ce57600080fd5b5061025e6102dd366004614d94565b610900565b3480156102ee57600080fd5b506103026102fd366004614d77565b610a00565b60405161022a9190614e08565b34801561031b57600080fd5b5061032f61032a366004614d77565b610b62565b604080519283526001600160a01b0390911660208301520161022a565b34801561035857600080fd5b5060135461036c906001600160a01b031681565b6040516001600160a01b03909116815260200161022a565b34801561039057600080fd5b506103a461039f366004614f5c565b610b94565b60405161022a929190614f90565b3480156103be57600080fd5b5061036c7f000000000000000000000000000000000000000000000000000000000000000081565b3480156103f257600080fd5b50600d54600e54600f5460105460115460125461041195949392919086565b604080519687526020870195909552938501929092526060840152608083015260a082015260c00161022a565b34801561044a57600080fd5b5061025e610459366004614fde565b610f79565b61047161046c36600461504f565b611082565b60405161022a92919061508d565b34801561048b57600080fd5b50610246611754565b6102466104a23660046150aa565b611768565b3480156104b357600080fd5b5061036c6104c2366004614d77565b600b602052600090815260409020546001600160a01b031681565b61025e6104eb36600461504f565b611ab8565b3480156104fc57600080fd5b506000546001600160a01b031661036c565b34801561051a57600080fd5b5061021e610529366004614d77565b611d9c565b34801561053a57600080fd5b506102466105493660046150ea565b611e0b565b34801561055a57600080fd5b50610595610569366004614d77565b60026020819052600091825260409091208054600182015491909201546001600160a01b039091169083565b604080519384526001600160a01b0390921660208401529082015260600161022a565b3480156105c457600080fd5b5061036c6105d336600461510c565b6003602052600090815260409020546001600160a01b031681565b3480156105fa57600080fd5b50610411610609366004614d77565b600c60205260009081526040902080546001820154600283015460038401546004850154600590950154939492939192909186565b34801561064a57600080fd5b50610653612269565b6040516001600160401b03909116815260200161022a565b34801561067757600080fd5b50610697610686366004615194565b63bc197c8160e01b95945050505050565b6040516001600160e01b0319909116815260200161022a565b3480156106bc57600080fd5b5061036c61227a565b3480156106d157600080fd5b506106da6122e5565b60405161022a9190615241565b3480156106f357600080fd5b5061025e61070236600461528e565b6122f1565b34801561071357600080fd5b506106976107223660046152d4565b63f23a6e6160e01b95945050505050565b34801561073f57600080fd5b5061025e61074e366004614fde565b6124ee565b34801561075f57600080fd5b5061024661076e366004614d77565b6125a6565b34801561077f57600080fd5b506106da61261f565b34801561079457600080fd5b5061036c61262b565b60006001600160e01b03198216630271189760e51b14806107ce57506301ffc9a760e01b6001600160e01b03198316145b92915050565b6107de338561268a565b506107f86107f13685900385018561504f565b8383611768565b50505050565b604051632711999760e21b81526001600160a01b03828116600483015260009182917f00000000000000000000000000000000000000000000000000000000000000001690639c46665c9060240160006040518083038186803b15801561086457600080fd5b505afa158015610878573d6000803e3d6000fd5b505050506040513d6000823e601f3d908101601f191682016040526108a091908101906153e1565b905060005b81518110156108f95760006108d28383815181106108c5576108c561547a565b60200260200101516128ab565b505050905080846108e391906154a6565b93505080806108f1906154be565b9150506108a5565b5050919050565b6000805b828110156109f95760007f00000000000000000000000000000000000000000000000000000000000000006001600160a01b03166326ca8adb338787868181106109505761095061547a565b905060200201356040518363ffffffff1660e01b81526004016109749291906154d9565b60c06040518083038186803b15801561098c57600080fd5b505afa1580156109a0573d6000803e3d6000fd5b505050506040513d601f19601f820116820180604052508101906109c491906154f2565b905060006109d1826128ab565b505050905080846109e291906154a6565b9350505080806109f1906154be565b915050610904565b5092915050565b6001600160a01b0381166000908152600260209081526040808320600301805482518185028101850190935280835260609493830182828015610a6257602002820191906000526020600020905b815481526020019060010190808311610a4e575b50505050509050600081516001600160401b03811115610a8457610a84614e60565b604051908082528060200260200182016040528015610ac957816020015b6040805180820190915260008082526020820152815260200190600190039081610aa25790505b50905060005b8251811015610b5a576000838281518110610aec57610aec61547a565b6020908102919091018101516000818152600383526040908190205481518083019092528282526001600160a01b0316928101839052855191935090859085908110610b3a57610b3a61547a565b602002602001018190525050508080610b52906154be565b915050610acf565b509392505050565b6001600160a01b0390811660009081526002602081815260408084209092015480845260039091529120549092911690565b60008133610ba8610ba361295e565b612aea565b6000600a855110610bba57600a610bbd565b84515b905060005b81811015610e9d5760007f00000000000000000000000000000000000000000000000000000000000000006001600160a01b03166326ca8adb85898581518110610c0e57610c0e61547a565b60200260200101516040518363ffffffff1660e01b8152600401610c339291906154d9565b60c06040518083038186803b158015610c4b57600080fd5b505afa158015610c5f573d6000803e3d6000fd5b505050506040513d601f19601f82011682018060405250810190610c8391906154f2565b90506000600c60008360400151604001516001600160a01b03166001600160a01b0316815260200190815260200160002090506000610d51826040518060c00160405290816000820154815260200160018201548152602001600282015481526020016003820154815260200160048201548152602001600582015481525050600d6040518060c00160405290816000820154815260200160018201548152602001600282015481526020016003820154815260200160048201548152602001600582015481525050612b1f565b9050600080610d608386612c03565b6040850151600287015560a085015160058701556060850151600387015590925090508115610e8557610d93828b6154a6565b995060007f00000000000000000000000000000000000000000000000000000000000000006001600160a01b031663d8938f268a8860000151896020015186604051602001610de29190615540565b6040516020818303038152906040526040518563ffffffff1660e01b8152600401610e10949392919061557a565b602060405180830381600087803b158015610e2a57600080fd5b505af1158015610e3e573d6000803e3d6000fd5b505050506040513d601f19601f82011682018060405250810190610e6291906155ca565b9050808a8881518110610e7757610e7761547a565b602002602001018181525050505b50505050508080610e95906154be565b915050610bc2565b508315610f725760145460405163a9059cbb60e01b81526001600160a01b039091169063a9059cbb90610ed690859088906004016154d9565b602060405180830381600087803b158015610ef057600080fd5b505af1158015610f04573d6000803e3d6000fd5b505050506040513d601f19601f82011682018060405250810190610f2891906155e3565b610f725760405162461bcd60e51b815260206004820152601660248201527514995dd85c99081d1c985b9cd9995c8819985a5b195960521b60448201526064015b60405180910390fd5b5050915091565b60008061106e83856001600160a01b031663cd3293de6040518163ffffffff1660e01b815260040160206040518083038186803b158015610fb957600080fd5b505afa158015610fcd573d6000803e3d6000fd5b505050506040513d601f19601f82011682018060405250810190610ff191906155ca565b610ff961262b565b6001600160a01b031663cd3293de6040518163ffffffff1660e01b815260040160206040518083038186803b15801561103157600080fd5b505afa158015611045573d6000803e3d6000fd5b505050506040513d601f19601f8201168201806040525081019061106991906155ca565b612c7a565b905061107a8482612c9b565b949350505050565b600061108c614bf0565b6000546001600160a01b03163314806110af57506013546001600160a01b031633145b6111055760405162461bcd60e51b815260206004820152602160248201527f526f757465723a204e6f7420616c6c6f77656420746f206c69737420746f6b656044820152603760f91b6064820152608401610f69565b82516001600160a01b038082166000908152600b602052604090205416156111655760405162461bcd60e51b8152602060048201526013602482015272151bdad95b88185b1c9958591e481859191959606a1b6044820152606401610f69565b600061116f612269565b6001600160401b03166114a857735A6f2C725291A4554630a157A6CAFC602eFB947663bb3007786040518163ffffffff1660e01b815260040160206040518083038186803b1580156111c057600080fd5b505af41580156111d4573d6000803e3d6000fd5b505050506040513d601f19601f820116820180604052508101906111f89190615605565b9050806001600160a01b031663d83678ac6040518163ffffffff1660e01b815260040160206040518083038186803b15801561123357600080fd5b505afa158015611247573d6000803e3d6000fd5b505050506040513d601f19601f8201168201806040525081019061126b9190615605565b601480546001600160a01b0383166001600160a01b0319909116811790915590925063a9059cbb6112a46000546001600160a01b031690565b6112b06012600a615706565b6112bd90620f4240615712565b6112c96012600a615706565b6112d69062d04850615712565b6112e7906607fd10d7c82f0b6154a6565b6112f36012600a615706565b611301906301406f40615712565b61130b9190615731565b6113159190615731565b6040518363ffffffff1660e01b81526004016113329291906154d9565b602060405180830381600087803b15801561134c57600080fd5b505af1158015611360573d6000803e3d6000fd5b505050506040513d601f19601f8201168201806040525081019061138491906155e3565b50604051630415fa8f60e01b81526001600160a01b037f0000000000000000000000000000000000000000000000000000000000000000811660048084019190915290841660248301525460448201526005546064820152736519E11cBF0D48bbF29BB2f4Fb553e28AE44850F90630415fa8f9060840160206040518083038186803b15801561141357600080fd5b505af4158015611427573d6000803e3d6000fd5b505050506040513d601f19601f8201168201806040525081019061144b9190615605565b601380546001600160a01b0319166001600160a01b03928316179055604080516060810190915260145490911681526020810161148a6012600a615706565b61149790620f4240615712565b8152602001600081525094506116f8565b34156115e657732d3F3C7632622aB64e6010d369e1beAf1f524852637af9dc786114d061262b565b6040516001600160e01b031960e084901b1681526001600160a01b03909116600482015260240160206040518083038186803b15801561150f57600080fd5b505af4158015611523573d6000803e3d6000fd5b505050506040513d601f19601f820116820180604052508101906115479190615605565b9050806001600160a01b031663d83678ac6040518163ffffffff1660e01b815260040160206040518083038186803b15801561158257600080fd5b505afa158015611596573d6000803e3d6000fd5b505050506040513d601f19601f820116820180604052508101906115ba9190615605565b600a80546001600160a01b0319166001600160a01b03831617905591506115df612d61565b94506116f8565b600085602001511161164b5760405162461bcd60e51b815260206004820152602860248201527f526f757465723a20496e76616c696420696e697469616c206c697175696469746044820152671e48185b5bdd5b9d60c21b6064820152608401610f69565b61165485612d8e565b735A765566fCA9d6380F505549B797FE3E6Dd6B68763b3af16d38361167761262b565b6040516001600160e01b031960e085901b1681526001600160a01b0392831660048201529116602482015260440160206040518083038186803b1580156116bd57600080fd5b505af41580156116d1573d6000803e3d6000fd5b505050506040513d601f19601f820116820180604052508101906116f59190615605565b90505b925082611706600682612d98565b50611712600883612d98565b506001600160a01b038281166000908152600b6020526040902080546001600160a01b03191691861691909117905561174b8486612dad565b92505050915091565b61175c612eef565b6117666000612f49565b565b341561177957611776612f99565b92505b82516001600160a01b039081166000908152600b6020526040902054166117a160068261302b565b6117ed5760405162461bcd60e51b815260206004820152601c60248201527f526f757465723a20496e7075742070616972206e6f7420666f756e64000000006044820152606401610f69565b6117f860068461302b565b6118445760405162461bcd60e51b815260206004820152601d60248201527f526f757465723a204f75747075742070616972206e6f7420666f756e640000006044820152606401610f69565b8281600061185061262b565b905060008190506000836001600160a01b031663cd3293de6040518163ffffffff1660e01b815260040160206040518083038186803b15801561189257600080fd5b505afa1580156118a6573d6000803e3d6000fd5b505050506040513d601f19601f820116820180604052508101906118ca91906155ca565b90506000856001600160a01b031663cd3293de6040518163ffffffff1660e01b815260040160206040518083038186803b15801561190757600080fd5b505afa15801561191b573d6000803e3d6000fd5b505050506040513d601f19601f8201168201806040525081019061193f91906155ca565b90506000836001600160a01b031663cd3293de6040518163ffffffff1660e01b815260040160206040518083038186803b15801561197c57600080fd5b505afa158015611990573d6000803e3d6000fd5b505050506040513d601f19601f820116820180604052508101906119b491906155ca565b905060006119c78c602001518584612c7a565b905060006119d9338e8c8c8f8761304d565b905060006119e8828686612c7a565b90506119f48184615731565b6001600160a01b038c166000908152600c6020526040812080549295508592909190611a219084906154a6565b90915550506001600160a01b038d166000908152600c602052604081206001018054859290611a519084906154a6565b90915550506001600160a01b0388166000908152600c602052604081206001018054839290611a819084906154a6565b90915550611a91905081846154a6565b60108054600090611aa39084906154a6565b90915550505050505050505050505050505050565b6000333415611acc57611ac9612f99565b92505b82516001600160a01b038082166000908152600b60205260409020541680611b365760405162461bcd60e51b815260206004820152601c60248201527f526f757465723a20496e76616c696420706169722061646472657373000000006044820152606401610f69565b6000856020015111611b945760405162461bcd60e51b815260206004820152602160248201527f526f757465723a20496e76616c6964206c6971756964697479207061796d656e6044820152601d60fa1b6064820152608401610f69565b6001600160a01b0381166000908152600c60209081526040808320815160c081018352815481526001820154938101939093526002810154918301919091526003810154606083015260048101546080830152600581015460a083015291908190611bfe906130ed565b91509150611c0d838383613118565b600080856001600160a01b03166327a3d4008b8a6040518363ffffffff1660e01b8152600401611c3e929190615748565b6040805180830381600087803b158015611c5757600080fd5b505af1158015611c6b573d6000803e3d6000fd5b505050506040513d601f19601f82011682018060405250810190611c8f919061576e565b9150915081600d6005016000828254611ca891906154a6565b9250508190555081856004016000828254611cc391906154a6565b909155505060028501546040516337e52e1960e21b81526004810191909152602481018390526001600160a01b0387811660448301528881166064830152898116608483015260a482018390527f0000000000000000000000000000000000000000000000000000000000000000169063df94b8649060c401602060405180830381600087803b158015611d5657600080fd5b505af1158015611d6a573d6000803e3d6000fd5b505050506040513d601f19601f82011682018060405250810190611d8e91906155ca565b9a9950505050505050505050565b60006001600160a01b038216611e005760405162461bcd60e51b815260206004820152602360248201527f526f757465723a20496e76616c696420747261646520746f6b656e206164647260448201526265737360e81b6064820152608401610f69565b6107ce60088361302b565b60008111611e6c5760405162461bcd60e51b815260206004820152602860248201527f526f757465723a20416d6f756e74206d7573742062652067726561746572207460448201526768616e207a65726f60c01b6064820152608401610f69565b6040516326ca8adb60e01b81526000906001600160a01b037f000000000000000000000000000000000000000000000000000000000000000016906326ca8adb90611ebd90339087906004016154d9565b60c06040518083038186803b158015611ed557600080fd5b505afa158015611ee9573d6000803e3d6000fd5b505050506040513d601f19601f82011682018060405250810190611f0d91906154f2565b90508181602001511015611f635760405162461bcd60e51b815260206004820152601f60248201527f526f757465723a20496e73756666696369656e74204c502062616c616e6365006044820152606401610f69565b6040808201518101516001600160a01b0381166000908152600c6020529182209091808080611f91876128ab565b9350935093509350808760400181905250611fad858484613118565b6040516301a5e7dd60e71b815286906000906001600160a01b0383169063d2f3ee8090611fe2908c908e903390600401615792565b60e060405180830381600087803b158015611ffc57600080fd5b505af1158015612010573d6000803e3d6000fd5b505050506040513d601f19601f8201168201806040525081019061203491906157db565b809250819a5050507f00000000000000000000000000000000000000000000000000000000000000006001600160a01b031663d8938f26338b600001518c602001518d6040015160405160200161208b9190615540565b6040516020818303038152906040526040518563ffffffff1660e01b81526004016120b9949392919061557a565b602060405180830381600087803b1580156120d357600080fd5b505af11580156120e7573d6000803e3d6000fd5b505050506040513d601f19601f8201168201806040525081019061210b91906155ca565b50898760040160008282546121209190615731565b9091555050601280548b919060009061213a908490615731565b9091555050851561220e5760145460405163a9059cbb60e01b81526001600160a01b039091169063a9059cbb906121779033908a906004016154d9565b602060405180830381600087803b15801561219157600080fd5b505af11580156121a5573d6000803e3d6000fd5b505050506040513d601f19601f820116820180604052508101906121c991906155e3565b61220e5760405162461bcd60e51b815260206004820152601660248201527514995dd85c99081d1c985b9cd9995c8819985a5b195960521b6044820152606401610f69565b604080518b8152602081018390529081018790526001600160a01b0389169033907fbc7d19d505c7ec4db83f3b51f19fb98c4c8a99922e7839d1ee608dfbee29501b9060600160405180910390a35050505050505050505050565b60006122756006613144565b905090565b600a546000906001600160a01b03166122d55760405162461bcd60e51b815260206004820181905260248201527f526f757465723a2045445550616972206e6f7420796574206465706c6f7965646044820152606401610f69565b50600a546001600160a01b031690565b6060612275600861314e565b60006122fe60068661302b565b61234a5760405162461bcd60e51b815260206004820152601c60248201527f526f757465723a20496e7075742070616972206e6f7420666f756e64000000006044820152606401610f69565b61235560068561302b565b6123a15760405162461bcd60e51b815260206004820152601d60248201527f526f757465723a204f75747075742070616972206e6f7420666f756e640000006044820152606401610f69565b600085905060008590506000826001600160a01b031663cd3293de6040518163ffffffff1660e01b815260040160206040518083038186803b1580156123e657600080fd5b505afa1580156123fa573d6000803e3d6000fd5b505050506040513d601f19601f8201168201806040525081019061241e91906155ca565b90506000826001600160a01b031663cd3293de6040518163ffffffff1660e01b815260040160206040518083038186803b15801561245b57600080fd5b505afa15801561246f573d6000803e3d6000fd5b505050506040513d601f19601f8201168201806040525081019061249391906155ca565b905060006124a18a89610f79565b905060006124af898961315b565b90506124bc81858561317d565b96506127106124cb8389615712565b6124d5919061581e565b6124df9088615731565b9b9a5050505050505050505050565b6000807f00000000000000000000000000000000000000000000000000000000000000006001600160a01b03166326ca8adb85856040518363ffffffff1660e01b815260040161253f9291906154d9565b60c06040518083038186803b15801561255757600080fd5b505afa15801561256b573d6000803e3d6000fd5b505050506040513d601f19601f8201168201806040525081019061258f91906154f2565b905061259a816128ab565b50919695505050505050565b6125ae612eef565b6001600160a01b0381166126135760405162461bcd60e51b815260206004820152602660248201527f4f776e61626c653a206e6577206f776e657220697320746865207a65726f206160448201526564647265737360d01b6064820152608401610f69565b61261c81612f49565b50565b6060612275600661314e565b6000612275600682613193565b42825560018201819055806126865760405162461bcd60e51b8152602060048201526014602482015273092dcecc2d8d2c8408ae0dec6d040d8cadccee8d60631b6044820152606401610f69565b5050565b6001600160a01b03821660009081526002602052604081208054156126b1575490506107ce565b600180549060006126c1836154be565b90915550506040805160808101825260015481526001600160a01b0386166020820152908101849052606081016000604051908082528060200260200182016040528015612719578160200160208202803683370190505b5090526001600160a01b0385811660009081526002602081815260409283902085518155858201516001820180546001600160a01b03191691909616179094559184015190830155606083015180516127789260038501920190614c1a565b5050600154600090815260036020526040902080546001600160a01b0319166001600160a01b0387161790555082158015906127b657506001548314155b80156127d857506000838152600360205260409020546001600160a01b031615155b15612855576000838152600360208181526040808420546001600160a01b0316845260028252808420600180549190940180548086018255908652948390209094019390935590548251868152918201527fa8b1f3acfefae9dbf6c7ffd8c16eda5db6950c383b34ca999d98f9998721c50c910160405180910390a15b600154604080519182526001600160a01b038616602083015281018490527fb58d46e66658e855773af8232237e606476d7f0ad98813c081b540e6f435ea3e9060600160405180910390a1505060015492915050565b60006128b5614c61565b6128bd614c61565b6128c5614c97565b612941600c60008760400151604001516001600160a01b03166001600160a01b031681526020019081526020016000206040518060c001604052908160008201548152602001600182015481526020016002820154815260200160038201548152602001600482015481526020016005820154815250506130ed565b90935091506129508386612c03565b909693955091935090919050565b612966614c61565b506040805160c081018252600d548152600e546020820152600f549181019190915260105460608201526011546080820181905260125460a0830152429081811080156129b4575060105415155b15612ae55760006129c660048361319f565b905060006129d5828486613290565b905060006129e36004613384565b905082811115612a4957600060016129fb8584615731565b612a059190615731565b90506001811115612a3057612a2384612a1e83826154a6565b613390565b612a2d90846154a6565b92505b612a3b828688613290565b612a4590846154a6565b9250505b6000612a6d6103e8612a5c85604b615712565b612a66919061581e565b849061344b565b6010549194509150600090612a8a670de0b6b3a764000086615712565b612a94919061581e565b608089018890526040890180519192508291612ab19083906154a6565b905250875184908990612ac59083906154a6565b905250602088018051839190612adc9083906154a6565b90525050505050505b505090565b8051600d556020810151600e556040810151600f556060810151601055608081015160115560a081015160125561261c6134a9565b612b27614c61565b8290508160400151816060015110156107ce57602081015115612bf3576000670de0b6b3a7640000826020015183606001518560400151612b689190615731565b612b729190615712565b612b7c919061581e565b90508083600001818151612b909190615731565b90525060a082018051829190612ba79083906154a6565b905250608082015115612bf1576080820151600090612bce670de0b6b3a764000084615712565b612bd8919061581e565b90508083604001818151612bec91906154a6565b905250505b505b6040820151606082015292915050565b6000612c0d614c97565b506040808301519084015181511015612c7357602083015181516040860151670de0b6b3a76400009291612c4091615731565b612c4a9190615712565b612c54919061581e565b9150818460a001818151612c689190615731565b905250604084015181525b9250929050565b600082612c878386615712565b612c91919061581e565b90505b9392505050565b6001600160a01b0382166000908152600c60209081526040808320815160c081018352815480825260018301549482019490945260028201549281019290925260038101546060830152600481015460808301526005015460a0820152908290612d069085906154a6565b60208301519091506000818311612d1e576000612d28565b612d288284615731565b905060008460800151600d60050154612d419190615731565b9050612d558282612d50612269565b6135c3565b98975050505050505050565b612d69614bf0565b612d7161227a565b6001600160a01b03168152346020820152612d8b81612d8e565b90565b61261c813361363b565b6000612c94836001600160a01b038416613879565b612db5614bf0565b612dbf82846138c8565b604051638aa4958360e01b81523090638aa4958390612de2908590600401615832565b602060405180830381600087803b158015612dfc57600080fd5b505af1158015612e10573d6000803e3d6000fd5b505050506040513d601f19601f82011682018060405250810190612e3491906155ca565b60408083018290526001600160a01b037f00000000000000000000000000000000000000000000000000000000000000001680845290516326ca8adb60e01b815290916326ca8adb91612e8b9130916004016154d9565b60c06040518083038186803b158015612ea357600080fd5b505afa158015612eb7573d6000803e3d6000fd5b505050506040513d601f19601f82011682018060405250810190612edb91906154f2565b602090810151908201526107ce813361393e565b6000546001600160a01b031633146117665760405162461bcd60e51b815260206004820181905260248201527f4f776e61626c653a2063616c6c6572206973206e6f7420746865206f776e65726044820152606401610f69565b600080546001600160a01b038381166001600160a01b0319831681178455604051919092169283917f8be0079c531659141344cd1fd0a4f28419497f9722a3daafe3b4186f6b6457e09190a35050565b612fa1614bf0565b612fa961227a565b6001600160a01b039081168083523460208085018290526000838152600b90915260409081902054905163f1adc25160e01b815233600482015293166024840152909163f1adc25191906044016000604051808303818588803b15801561300f57600080fd5b505af1158015613023573d6000803e3d6000fd5b505050505090565b6001600160a01b03811660009081526001830160205260408120541515612c94565b60008061305988610b62565b915050856001600160a01b031663c398ae4d89838a898961307a8d8b612c9b565b6040518763ffffffff1660e01b815260040161309b96959493929190615840565b602060405180830381600087803b1580156130b557600080fd5b505af11580156130c9573d6000803e3d6000fd5b505050506040513d601f19601f82011682018060405250810190612d5591906155ca565b6130f5614c61565b6130fd614c61565b61310561295e565b90506131118382612b1f565b9150915091565b6040820151600284015560a082015160058401556060820151600384015561313f81612aea565b505050565b60006107ce825490565b60606000612c9483613b9a565b600061271061316983613bf6565b6131739085615712565b612c94919061581e565b6000612c918461318d81866154a6565b84612c7a565b6000612c948383613c5a565b81546000906131f05760405162461bcd60e51b815260206004820152601960248201527f496e76616c69642067656e657369732074696d657374616d70000000000000006044820152606401610f69565b600082116132345760405162461bcd60e51b81526020600482015260116024820152700496e76616c69642074696d657374616d7607c1b6044820152606401610f69565b600083600101541161327f5760405162461bcd60e51b8152602060048201526014602482015273092dcecc2d8d2c8408ae0dec6d040d8cadccee8d60631b6044820152606401610f69565b600183015483546131739084615731565b6040805180820190915260045481526005546020820152600090819081906132b89087613c84565b915091506000808584111580156132cf5750828611155b156132de57508490508261336e565b8684111580156132ee5750828711155b1561330d57828611156133015782613303565b855b915086905061336e565b60405162461bcd60e51b815260206004820152603060248201527f526f757465722e5f636f6d7075746545646765456d697373696f6e733a20496e60448201526f76616c69642074696d657374616d707360801b6064820152608401610f69565b612d558861337c8385615731565b600554613cca565b60006107ce824261319f565b60008282116133d75760405162461bcd60e51b8152602060048201526013602482015272496e76616c69642065706f63682072616e676560681b6044820152606401610f69565b60006133e284613ce1565b905060006133ef84613ce1565b90506000613404670de000cd866f8000613d0f565b61340e8385615886565b613421906893fa92954c28c89b946158c5565b61342b919061594a565b905061344161343c826000196158c5565b613d41565b9695505050505050565b600080838311156134945760405162461bcd60e51b8152602060048201526013602482015272125b9d985b1a59081d185ad948185b5bdd5b9d606a1b6044820152606401610f69565b50816134a08185615731565b91509250929050565b600e54801561261c576000600e5560145460135460405163095ea7b360e01b81526001600160a01b039283169263095ea7b3926134ed9291169085906004016154d9565b602060405180830381600087803b15801561350757600080fd5b505af115801561351b573d6000803e3d6000fd5b505050506040513d601f19601f8201168201806040525081019061353f91906155e3565b50601354604080516060810182526014546001600160a01b039081168252602082018590526000828401529151630b0bf5df60e31b8152919092169163585faef89161358e9190600401615832565b600060405180830381600087803b1580156135a857600080fd5b505af11580156135bc573d6000803e3d6000fd5b5050505050565b6000806135d1858585613d6b565b90506000806000806135ec856001600160401b031688613daf565b935093509350935061362e846001600160401b0316846001600160401b0316876001600160401b0316856001600160401b0316856001600160401b0316613ec4565b9998505050505050505050565b341561376d573482602001511461369f5760405162461bcd60e51b815260206004820152602260248201527f546f6b656e5061796d656e74733a2045544820616d6f756e74206d69736d61746044820152610c6d60f31b6064820152608401610f69565b6001600160a01b03811633146137115760405162461bcd60e51b815260206004820152603160248201527f546f6b656e5061796d656e74733a204e6174697665207061796d656e74206d7560448201527039ba10313290333937b69031b0b63632b960791b6064820152608401610f69565b81600001516001600160a01b031663d0e30db0346040518263ffffffff1660e01b81526004016000604051808303818588803b15801561375057600080fd5b505af1158015613764573d6000803e3d6000fd5b50505050505050565b604082015161380757815160208301516040516323b872dd60e01b81526001600160a01b03848116600483015230602483015260448201929092529116906323b872dd906064015b602060405180830381600087803b1580156137cf57600080fd5b505af11580156137e3573d6000803e3d6000fd5b505050506040513d601f19601f8201168201806040525081019061313f91906155e3565b815160408084015160208501519151637921219560e11b81526001600160a01b039093169263f242432a92613843928692309290600401615978565b600060405180830381600087803b15801561385d57600080fd5b505af1158015613871573d6000803e3d6000fd5b505050505050565b60008181526001830160205260408120546138c0575081546001818101845560008481526020808220909301849055845484825282860190935260409020919091556107ce565b5060006107ce565b6040820151613906578151602083015160405163095ea7b360e01b81526001600160a01b039092169163095ea7b3916137b5918591906004016154d9565b815160405163a22cb46560e01b81526001600160a01b038381166004830152600160248301529091169063a22cb46590604401613843565b6040820151613b205760006001600160a01b0382163b613a5a578251602084015160405147926001600160a01b03169161397e9160240190815260200190565b60408051601f198184030181529181526020820180516001600160e01b0316632e1a7d4d60e01b179052516139b391906159b0565b6000604051808303816000865af19150503d80600081146139f0576040519150601f19603f3d011682016040523d82523d6000602084013e6139f5565b606091505b50909250508115613a585747846020015182613a1191906154a6565b14613a585760405162461bcd60e51b81526020600482015260176024820152764661696c656420746f207769746864726177205745445560481b6044820152606401610f69565b505b8015613a995760208301516040516001600160a01b0384169180156108fc02916000818181858888f193505050501580156107f8573d6000803e3d6000fd5b8251602084015160405163a9059cbb60e01b81526001600160a01b039092169163a9059cbb91613ace918691906004016154d9565b602060405180830381600087803b158015613ae857600080fd5b505af1158015613afc573d6000803e3d6000fd5b505050506040513d601f19601f820116820180604052508101906107f891906155e3565b6040820151613b5e578151602083015160405163a9059cbb60e01b81526001600160a01b039092169163a9059cbb916137b5918591906004016154d9565b815160408084015160208501519151637921219560e11b81526001600160a01b039093169263f242432a92613843923092879290600401615978565b606081600001805480602002602001604051908101604052809291908181526020018280548015613bea57602002820191906000526020600020905b815481526020019060010190808311613bd6575b50505050509050919050565b60006001821080613c08575061271082115b15613c4e5760405162461bcd60e51b8152602060048201526016602482015275496e76616c696420736c6970706167652076616c756560501b6044820152606401610f69565b6107ce82612710615731565b6000826000018281548110613c7157613c7161547a565b9060005260206000200154905092915050565b600080836020015183613c979190615712565b8451613ca391906154a6565b91506001846020015183613cb791906154a6565b613cc19190615731565b90509250929050565b60008183613cd786613f84565b612c879190615712565b60006107ce670de000cd866f8000613cf884613fc7565b613d0a90670de0b6b3a76400006158c5565b613ff4565b60006714057b7ef767814f670de0b6b3a7640000613d2c84614033565b0281613d3a57613d3a615808565b0592915050565b600080821215613d6757604051635afb78ad60e11b815260048101839052602401610f69565b5090565b600080613d788484614112565b613d846103e887615712565b613d8e919061581e565b9050613da66001613d9e85614191565b83919061419f565b95945050505050565b60016103e8600a601e6000613dc386614191565b905060005b846001600160401b0316881115613eb957613de48560016159cc565b9550613df18360016159cc565b93506001600160401b038116613e1857613e0c6002836159f7565b94506103849250613ea7565b806001600160401b031660011415613e37578194506127109250613ea7565b6040805162461bcd60e51b81526020600482015260248101919091527f4665655574696c2e5f676574496e74657256616c7565733a206d61782063616c60448201527f6c20646570746820666f7220696e746572706f6c6174696f6e2076616c7565736064820152608401610f69565b80613eb181615a1d565b915050613dc8565b505092959194509250565b600085841080613ed357508484115b15613f315760405162461bcd60e51b815260206004820152602860248201527f4d6174682e6c696e656172496e746572706f6c6174696f6e3a20496e76616c69604482015267642076616c75657360c01b6064820152608401610f69565b6000613f3d8587615731565b613f479085615712565b90506000613f558887615731565b613f5f9085615712565b90506000613f6d8989615731565b905080613f7a83856154a6565b61362e919061581e565b600080613f9c670de000cd866f8000613d0a85613fc7565b9050612c94670de0b6b3a7640000613fbd836893fa92954c28c89b946158c5565b61343c919061594a565b60006001600160ff1b03821115613d675760405163322efb3360e21b815260048101839052602401610f69565b600082614019578115614008576000614012565b670de0b6b3a76400005b90506107ce565b612c9461402e61402885614033565b846141fb565b6142bd565b60008082136140585760405163309fa7dd60e11b815260048101839052602401610f69565b6000670de0b6b3a764000083126140715750600161408b565b6000199050826ec097ce7bc90715b34b9f10000000000492505b60006140a0670de0b6b3a76400008505614353565b670de0b6b3a7640000808202945090915084821d908114156140c457505002919050565b6706f05b59d3b200005b600081131561410957670de0b6b3a7640000828002059150671bc16d674ec800008212614101579384019360019190911d905b60011d6140ce565b50505002919050565b600080826001600160401b03161161416c5760405162461bcd60e51b815260206004820152601b60248201527f4665655574696c3a206e6f20617661696c61626c6520706169727300000000006044820152606401610f69565b61417f6001600160401b0383168461581e565b9050600181116107ce575060016107ce565b60006107ce6103e883615a44565b6000816001600160401b0316836001600160401b031611156141c3576141c3615a73565b826001600160401b03168410156141db575081612c94565b816001600160401b03168411156141f3575080612c94565b509192915050565b6000600160ff1b8314806142125750600160ff1b82145b1561423057604051630d01a11b60e21b815260040160405180910390fd5b600080600085126142415784614246565b846000035b915060008412614256578361425b565b836000035b905060006142698383614432565b90506001600160ff1b038111156142965760405163bf79e8d960e01b815260048101829052602401610f69565b6000198087139086138082186001146142af5782612d55565b505060000395945050505050565b60008082121561430a5768033dd1780914b97114198212156142e157506000919050565b6142ed826000036142bd565b6ec097ce7bc90715b34b9f100000000081613d3a57613d3a615808565b680a688906bd8b00000082126143365760405163e69458f960e01b815260048101839052602401610f69565b670de0b6b3a7640000604083901b04612c94816144f4565b919050565b6000600160801b821061437357608091821c9161437090826154a6565b90505b600160401b821061439157604091821c9161438e90826154a6565b90505b64010000000082106143b057602091821c916143ad90826154a6565b90505b6201000082106143cd57601091821c916143ca90826154a6565b90505b61010082106143e957600891821c916143e690826154a6565b90505b6010821061440457600491821c9161440190826154a6565b90505b6004821061441f57600291821c9161441c90826154a6565b90505b6002821061434e576107ce6001826154a6565b60008080600019848609848602925082811083820303915050670de0b6b3a764000081106144765760405163698d9a0160e11b815260048101829052602401610f69565b600080670de0b6b3a76400008688099150506706f05b59d3b1ffff8111826144b05780670de0b6b3a76400008504019450505050506107ce565b620400008285030493909111909103600160ee1b02919091177faccb18165bd6fe31ae1cf318dc5b51eee0e1ba569b88cd74c1773b91fac106690201905092915050565b600160bf1b6780000000000000008216156145185768016a09e667f3bcc9090260401c5b674000000000000000821615614537576801306fe0a31b7152df0260401c5b672000000000000000821615614556576801172b83c7d517adce0260401c5b6710000000000000008216156145755768010b5586cf9890f62a0260401c5b670800000000000000821615614594576801059b0d31585743ae0260401c5b6704000000000000008216156145b357680102c9a3e778060ee70260401c5b6702000000000000008216156145d25768010163da9fb33356d80260401c5b6701000000000000008216156145f157680100b1afa5abcbed610260401c5b668000000000000082161561460f5768010058c86da1c09ea20260401c5b664000000000000082161561462d576801002c605e2e8cec500260401c5b662000000000000082161561464b57680100162f3904051fa10260401c5b6610000000000000821615614669576801000b175effdc76ba0260401c5b660800000000000082161561468757680100058ba01fb9f96d0260401c5b66040000000000008216156146a55768010002c5cc37da94920260401c5b66020000000000008216156146c3576801000162e525ee05470260401c5b66010000000000008216156146e15768010000b17255775c040260401c5b658000000000008216156146fe576801000058b91b5bc9ae0260401c5b6540000000000082161561471b57680100002c5c89d5ec6d0260401c5b652000000000008216156147385768010000162e43f4f8310260401c5b6510000000000082161561475557680100000b1721bcfc9a0260401c5b650800000000008216156147725768010000058b90cf1e6e0260401c5b6504000000000082161561478f576801000002c5c863b73f0260401c5b650200000000008216156147ac57680100000162e430e5a20260401c5b650100000000008216156147c9576801000000b1721835510260401c5b6480000000008216156147e557680100000058b90c0b490260401c5b6440000000008216156148015768010000002c5c8601cc0260401c5b64200000000082161561481d576801000000162e42fff00260401c5b6410000000008216156148395768010000000b17217fbb0260401c5b640800000000821615614855576801000000058b90bfce0260401c5b64040000000082161561487157680100000002c5c85fe30260401c5b64020000000082161561488d5768010000000162e42ff10260401c5b6401000000008216156148a957680100000000b17217f80260401c5b63800000008216156148c45768010000000058b90bfc0260401c5b63400000008216156148df576801000000002c5c85fe0260401c5b63200000008216156148fa57680100000000162e42ff0260401c5b6310000000821615614915576801000000000b17217f0260401c5b630800000082161561493057680100000000058b90c00260401c5b630400000082161561494b5768010000000002c5c8600260401c5b6302000000821615614966576801000000000162e4300260401c5b63010000008216156149815768010000000000b172180260401c5b6280000082161561499b576801000000000058b90c0260401c5b624000008216156149b557680100000000002c5c860260401c5b622000008216156149cf5768010000000000162e430260401c5b621000008216156149e957680100000000000b17210260401c5b62080000821615614a035768010000000000058b910260401c5b62040000821615614a1d576801000000000002c5c80260401c5b62020000821615614a3757680100000000000162e40260401c5b62010000821615614a51576801000000000000b1720260401c5b618000821615614a6a57680100000000000058b90260401c5b614000821615614a835768010000000000002c5d0260401c5b612000821615614a9c576801000000000000162e0260401c5b611000821615614ab55768010000000000000b170260401c5b610800821615614ace576801000000000000058c0260401c5b610400821615614ae757680100000000000002c60260401c5b610200821615614b0057680100000000000001630260401c5b610100821615614b1957680100000000000000b10260401c5b6080821615614b3157680100000000000000590260401c5b6040821615614b49576801000000000000002c0260401c5b6020821615614b6157680100000000000000160260401c5b6010821615614b79576801000000000000000b0260401c5b6008821615614b9157680100000000000000060260401c5b6004821615614ba957680100000000000000030260401c5b6002821615614bc157680100000000000000010260401c5b6001821615614bd957680100000000000000010260401c5b670de0b6b3a76400000260409190911c60bf031c90565b604051806060016040528060006001600160a01b0316815260200160008152602001600081525090565b828054828255906000526020600020908101928215614c55579160200282015b82811115614c55578251825591602001919060010190614c3a565b50613d67929150614cd1565b6040518060c001604052806000815260200160008152602001600081526020016000815260200160008152602001600081525090565b6040518060800160405280600081526020016000815260200160006001600160a01b0316815260200160006001600160a01b031681525090565b5b80821115613d675760008155600101614cd2565b600060208284031215614cf857600080fd5b81356001600160e01b031981168114612c9457600080fd5b6001600160a01b038116811461261c57600080fd5b60008060008084860360c0811215614d3c57600080fd5b853594506060601f1982011215614d5257600080fd5b506020850192506080850135614d6781614d10565b9396929550929360a00135925050565b600060208284031215614d8957600080fd5b8135612c9481614d10565b60008060208385031215614da757600080fd5b82356001600160401b0380821115614dbe57600080fd5b818501915085601f830112614dd257600080fd5b813581811115614de157600080fd5b8660208260051b8501011115614df657600080fd5b60209290920196919550909350505050565b602080825282518282018190526000919060409081850190868401855b82811015614e53578151805185528601516001600160a01b0316868501529284019290850190600101614e25565b5091979650505050505050565b634e487b7160e01b600052604160045260246000fd5b604051606081016001600160401b0381118282101715614e9857614e98614e60565b60405290565b604051601f8201601f191681016001600160401b0381118282101715614ec657614ec6614e60565b604052919050565b60006001600160401b03821115614ee757614ee7614e60565b5060051b60200190565b600082601f830112614f0257600080fd5b81356020614f17614f1283614ece565b614e9e565b82815260059290921b84018101918181019086841115614f3657600080fd5b8286015b84811015614f515780358352918301918301614f3a565b509695505050505050565b600060208284031215614f6e57600080fd5b81356001600160401b03811115614f8457600080fd5b61107a84828501614ef1565b6000604082018483526020604081850152818551808452606086019150828701935060005b81811015614fd157845183529383019391830191600101614fb5565b5090979650505050505050565b60008060408385031215614ff157600080fd5b8235614ffc81614d10565b946020939093013593505050565b60006060828403121561501c57600080fd5b615024614e76565b9050813561503181614d10565b80825250602082013560208201526040820135604082015292915050565b60006060828403121561506157600080fd5b612c94838361500a565b80516001600160a01b0316825260208082015190830152604090810151910152565b6001600160a01b038316815260808101612c94602083018461506b565b600080600060a084860312156150bf57600080fd5b6150c9858561500a565b925060608401356150d981614d10565b929592945050506080919091013590565b600080604083850312156150fd57600080fd5b50508035926020909101359150565b60006020828403121561511e57600080fd5b5035919050565b600082601f83011261513657600080fd5b81356001600160401b0381111561514f5761514f614e60565b615162601f8201601f1916602001614e9e565b81815284602083860101111561517757600080fd5b816020850160208301376000918101602001919091529392505050565b600080600080600060a086880312156151ac57600080fd5b85356151b781614d10565b945060208601356151c781614d10565b935060408601356001600160401b03808211156151e357600080fd5b6151ef89838a01614ef1565b9450606088013591508082111561520557600080fd5b61521189838a01614ef1565b9350608088013591508082111561522757600080fd5b5061523488828901615125565b9150509295509295909350565b6020808252825182820181905260009190848201906040850190845b818110156152825783516001600160a01b03168352928401929184019160010161525d565b50909695505050505050565b600080600080608085870312156152a457600080fd5b84356152af81614d10565b935060208501356152bf81614d10565b93969395505050506040820135916060013590565b600080600080600060a086880312156152ec57600080fd5b85356152f781614d10565b9450602086013561530781614d10565b9350604086013592506060860135915060808601356001600160401b0381111561533057600080fd5b61523488828901615125565b600081830360c081121561534f57600080fd5b615357614e76565b915082518252602083015160208301526080603f198201121561537957600080fd5b50604051608081018181106001600160401b038211171561539c5761539c614e60565b604090815283015181526060830151602082015260808301516153be81614d10565b604082015260a08301516153d181614d10565b6060820152604082015292915050565b600060208083850312156153f457600080fd5b82516001600160401b0381111561540a57600080fd5b8301601f8101851361541b57600080fd5b8051615429614f1282614ece565b81815260c0918202830184019184820191908884111561544857600080fd5b938501935b8385101561546e5761545f898661533c565b8352938401939185019161544d565b50979650505050505050565b634e487b7160e01b600052603260045260246000fd5b634e487b7160e01b600052601160045260246000fd5b600082198211156154b9576154b9615490565b500190565b60006000198214156154d2576154d2615490565b5060010190565b6001600160a01b03929092168252602082015260400190565b600060c0828403121561550457600080fd5b612c94838361533c565b80518252602080820151908301526040808201516001600160a01b039081169184019190915260609182015116910152565b608081016107ce828461550e565b60005b83811015615569578181015183820152602001615551565b838111156107f85750506000910152565b60018060a01b038516815283602082015282604082015260806060820152600082518060808401526155b38160a085016020870161554e565b601f01601f19169190910160a00195945050505050565b6000602082840312156155dc57600080fd5b5051919050565b6000602082840312156155f557600080fd5b81518015158114612c9457600080fd5b60006020828403121561561757600080fd5b8151612c9481614d10565b600181815b8085111561565d57816000190482111561564357615643615490565b8085161561565057918102915b93841c9390800290615627565b509250929050565b600082615674575060016107ce565b81615681575060006107ce565b816001811461569757600281146156a1576156bd565b60019150506107ce565b60ff8411156156b2576156b2615490565b50506001821b6107ce565b5060208310610133831016604e8410600b84101617156156e0575081810a6107ce565b6156ea8383615622565b80600019048211156156fe576156fe615490565b029392505050565b6000612c948383615665565b600081600019048311821515161561572c5761572c615490565b500290565b60008282101561574357615743615490565b500390565b60808101615756828561506b565b6001600160a01b039290921660609190910152919050565b6000806040838503121561578157600080fd5b505080516020909101519092909150565b600061010082019050845182526020850151602083015260408501516157bb604084018261550e565b5060c08201939093526001600160a01b039190911660e090910152919050565b60008060e083850312156157ee57600080fd5b6157f8848461533c565b915060c083015190509250929050565b634e487b7160e01b600052601260045260246000fd5b60008261582d5761582d615808565b500490565b606081016107ce828461506b565b6001600160a01b0387811682528681166020830152610100820190615868604084018861506b565b9490941660a082015260c081019290925260e0909101529392505050565b60008083128015600160ff1b8501841216156158a4576158a4615490565b6001600160ff1b03840183138116156158bf576158bf615490565b50500390565b60006001600160ff1b03818413828413808216868404861116156158eb576158eb615490565b600160ff1b600087128281168783058912161561590a5761590a615490565b6000871292508782058712848416161561592657615926615490565b8785058712818416161561593c5761593c615490565b505050929093029392505050565b60008261595957615959615808565b600160ff1b82146000198414161561597357615973615490565b500590565b6001600160a01b0394851681529290931660208301526040820152606081019190915260a06080820181905260009082015260c00190565b600082516159c281846020870161554e565b9190910192915050565b60006001600160401b038083168185168083038211156159ee576159ee615490565b01949350505050565b60006001600160401b0380841680615a1157615a11615808565b92169190910492915050565b60006001600160401b0380831681811415615a3a57615a3a615490565b6001019392505050565b60006001600160401b0380831681851681830481118215151615615a6a57615a6a615490565b02949350505050565b634e487b7160e01b600052600160045260246000fdfea2646970667358221220a948cb7aa10a43fb328385f6d8792d46dc7d31dbbc82ab6d461ea01081f5294b64736f6c6343000809003360806040523480156200001157600080fd5b506040518060400160405280601481526020017f41636164656d792d444558204c5020546f6b656e00000000000000000000000081525060405180604001604052806006815260200165098a082888ab60d31b815250604051806020016040528060008152506200008881620000c860201b60201c565b506200009433620000e1565b8151620000a990600590602085019062000133565b508051620000bf90600690602084019062000133565b50505062000216565b8051620000dd90600290602084019062000133565b5050565b600380546001600160a01b038381166001600160a01b0319831681179093556040519116919082907f8be0079c531659141344cd1fd0a4f28419497f9722a3daafe3b4186f6b6457e090600090a35050565b8280546200014190620001d9565b90600052602060002090601f016020900481019282620001655760008555620001b0565b82601f106200018057805160ff1916838001178555620001b0565b82800160010185558215620001b0579182015b82811115620001b057825182559160200191906001019062000193565b50620001be929150620001c2565b5090565b5b80821115620001be5760008155600101620001c3565b600181811c90821680620001ee57607f821691505b602082108114156200021057634e487b7160e01b600052602260045260246000fd5b50919050565b61290780620002266000396000f3fe608060405234801561001057600080fd5b50600436106101365760003560e01c80636addb663116100b8578063a22cb4651161007c578063a22cb4651461029b578063d8938f26146102ae578063df94b864146102c1578063e985e9c5146102d4578063f242432a14610310578063f2fde38b1461032357600080fd5b80636addb6631461023a578063715018a6146102505780638da5cb5b1461025857806395d89b41146102735780639c46665c1461027b57600080fd5b806326ca8adb116100ff57806326ca8adb146101cc5780632eb2c2d6146101ec5780634e1273f4146102015780634fa3d25d146102145780635124ae951461022757600080fd5b8062fdd58e1461013b57806301049ed01461016157806301ffc9a71461018157806306fdde03146101a45780630e89341c146101b9575b600080fd5b61014e610149366004611da7565b610336565b6040519081526020015b60405180910390f35b61017461016f366004611e1e565b6103cf565b6040516101589190611ed2565b61019461018f366004611efb565b61060a565b6040519015158152602001610158565b6101ac61065a565b6040516101589190611f65565b6101ac6101c7366004611f78565b6106ec565b6101df6101da366004611da7565b610780565b6040516101589190611fe8565b6101ff6101fa36600461213f565b610831565b005b61017461020f3660046121ec565b61087d565b610194610222366004611da7565b6109a6565b6101746102353660046122b8565b6109cf565b6102426109f3565b6040516101589291906122d5565b6101ff610b1a565b6003546040516001600160a01b039091168152602001610158565b6101ac610b2e565b61028e6102893660046122b8565b610b3d565b60405161015891906122fa565b6101ff6102a9366004612348565b610c38565b61014e6102bc366004612386565b610c47565b61014e6102cf3660046123e8565b610c7f565b6101946102e236600461244f565b6001600160a01b03918216600090815260016020908152604080832093909416825291909152205460ff1690565b6101ff61031e36600461247d565b610d58565b6101ff6103313660046122b8565b610d9d565b60006001600160a01b0383166103a65760405162461bcd60e51b815260206004820152602a60248201527f455243313135353a2061646472657373207a65726f206973206e6f742061207660448201526930b634b21037bbb732b960b11b60648201526084015b60405180910390fd5b506000818152602081815260408083206001600160a01b03861684529091529020545b92915050565b6060600184116104215760405162461bcd60e51b815260206004820152601c60248201527f4c70546f6b656e3a2061646472657373657320746f6f2073686f727400000000604482015260640161039d565b83821461047e5760405162461bcd60e51b815260206004820152602560248201527f4c70546f6b656e3a20506f7274696f6e7320616464726573736573206d6973736044820152640dac2e8c6d60db1b606482015260840161039d565b33600061048b8289610780565b905061049c82898360200151610e16565b6000866001600160401b038111156104b6576104b6611ff6565b6040519080825280602002602001820160405280156104df578160200160208202803683370190505b509350600082604001516040516020016104f991906124e5565b604051602081830303815290604052905060005b888110156105a95760008a8a83818110610529576105296124f3565b905060200201602081019061053e91906122b8565b90506000898984818110610554576105546124f3565b9050602002013590508085610569919061251f565b9450610576828286610fab565b888481518110610588576105886124f3565b602002602001018181525050505080806105a190612537565b91505061050d565b50826020015182146105fd5760405162461bcd60e51b815260206004820152601960248201527f4c70546f6b656e3a20496e76616c696420506f7274696f6e7300000000000000604482015260640161039d565b5050505095945050505050565b60006001600160e01b03198216636cdb3d1360e11b148061063b57506001600160e01b031982166303a24d0760e21b145b806103c957506301ffc9a760e01b6001600160e01b03198316146103c9565b60606005805461066990612552565b80601f016020809104026020016040519081016040528092919081815260200182805461069590612552565b80156106e25780601f106106b7576101008083540402835291602001916106e2565b820191906000526020600020905b8154815290600101906020018083116106c557829003601f168201915b5050505050905090565b6060600280546106fb90612552565b80601f016020809104026020016040519081016040528092919081815260200182805461072790612552565b80156107745780601f1061074957610100808354040283529160200191610774565b820191906000526020600020905b81548152906001019060200180831161075757829003601f168201915b50505050509050919050565b610788611c9e565b61079283836109a6565b6107ec5760405162461bcd60e51b815260206004820152602560248201527f4e6f204c702062616c616e636520666f756e64206174206e6f6e636520666f72604482015264103ab9b2b960d91b606482015260840161039d565b60405180606001604052808381526020016108078585610336565b81526020016108158461101c565b806020019051810190610828919061258d565b90529392505050565b6001600160a01b03851633148061084d575061084d85336102e2565b6108695760405162461bcd60e51b815260040161039d90612601565b6108768585858585611039565b5050505050565b606081518351146108e25760405162461bcd60e51b815260206004820152602960248201527f455243313135353a206163636f756e747320616e6420696473206c656e677468604482015268040dad2e6dac2e8c6d60bb1b606482015260840161039d565b600083516001600160401b038111156108fd576108fd611ff6565b604051908082528060200260200182016040528015610926578160200160208202803683370190505b50905060005b845181101561099e5761097185828151811061094a5761094a6124f3565b6020026020010151858381518110610964576109646124f3565b6020026020010151610336565b828281518110610983576109836124f3565b602090810291909101015261099781612537565b905061092c565b509392505050565b6001600160a01b03821660009081526008602052604081206109c89083611224565b9392505050565b6001600160a01b03811660009081526008602052604090206060906103c99061123c565b60608060056006818054610a0690612552565b80601f0160208091040260200160405190810160405280929190818152602001828054610a3290612552565b8015610a7f5780601f10610a5457610100808354040283529160200191610a7f565b820191906000526020600020905b815481529060010190602001808311610a6257829003601f168201915b50505050509150808054610a9290612552565b80601f0160208091040260200160405190810160405280929190818152602001828054610abe90612552565b8015610b0b5780601f10610ae057610100808354040283529160200191610b0b565b820191906000526020600020905b815481529060010190602001808311610aee57829003601f168201915b50505050509050915091509091565b610b22611249565b610b2c60006112a3565b565b60606006805461066990612552565b60606000610b4a836112f5565b9050600081516001600160401b03811115610b6757610b67611ff6565b604051908082528060200260200182016040528015610ba057816020015b610b8d611c9e565b815260200190600190039081610b855790505b50905060005b825181101561099e576000838281518110610bc357610bc36124f3565b60200260200101519050604051806060016040528082600001518152602001826020015181526020018260400151806020019051810190610c04919061258d565b815250838381518110610c1957610c196124f3565b6020026020010181905250508080610c3090612537565b915050610ba6565b610c4333838361149d565b5050565b6000610c51611249565b610c5c858585610e16565b60008311610c6b576000610c76565b610c76858484610fab565b95945050505050565b6000610c89611249565b60008611610ceb5760405162461bcd60e51b815260206004820152602960248201527f4c70546f6b656e3a204c5020416d6f756e74206d75737420626520677265617460448201526806572207468616e20360bc1b606482015260840161039d565b60006040518060800160405280898152602001848152602001876001600160a01b03168152602001866001600160a01b0316815250604051602001610d3091906124e5565b6040516020818303038152906040529050610d4c848883610fab565b98975050505050505050565b6001600160a01b038516331480610d745750610d7485336102e2565b610d905760405162461bcd60e51b815260040161039d90612601565b610876858585858561157e565b610da5611249565b6001600160a01b038116610e0a5760405162461bcd60e51b815260206004820152602660248201527f4f776e61626c653a206e6577206f776e657220697320746865207a65726f206160448201526564647265737360d01b606482015260840161039d565b610e13816112a3565b50565b6001600160a01b038316610e785760405162461bcd60e51b815260206004820152602360248201527f455243313135353a206275726e2066726f6d20746865207a65726f206164647260448201526265737360e81b606482015260840161039d565b336000610e84846116b6565b90506000610e91846116b6565b9050610eb183876000858560405180602001604052806000815250611701565b6000858152602081815260408083206001600160a01b038a16845290915290205484811015610f2e5760405162461bcd60e51b8152602060048201526024808201527f455243313135353a206275726e20616d6f756e7420657863656564732062616c604482015263616e636560e01b606482015260840161039d565b6000868152602081815260408083206001600160a01b038b81168086529184528285208a8703905582518b81529384018a90529092908816917fc3d58168c5ae7397731d063d5bbf3d657854427343f4c083240f7aacaa2d0f62910160405180910390a46040805160208101909152600090525b50505050505050565b6000610fbb600480546001019055565b5060045460008181526007602090815260409091208351610fde92850190611cf9565b50610ffa8482856040518060200160405280600081525061179a565b6001600160a01b038416600090815260086020526040902061099e90826118b4565b60008181526007602052604090208054606091906106fb90612552565b815183511461109b5760405162461bcd60e51b815260206004820152602860248201527f455243313135353a2069647320616e6420616d6f756e7473206c656e677468206044820152670dad2e6dac2e8c6d60c31b606482015260840161039d565b6001600160a01b0384166110c15760405162461bcd60e51b815260040161039d9061264f565b336110d0818787878787611701565b60005b84518110156111b65760008582815181106110f0576110f06124f3565b60200260200101519050600085838151811061110e5761110e6124f3565b602090810291909101810151600084815280835260408082206001600160a01b038e16835290935291909120549091508181101561115e5760405162461bcd60e51b815260040161039d90612694565b6000838152602081815260408083206001600160a01b038e8116855292528083208585039055908b1682528120805484929061119b90849061251f565b92505081905550505050806111af90612537565b90506110d3565b50846001600160a01b0316866001600160a01b0316826001600160a01b03167f4a39dc06d4c0dbc64b70af90fd698a233a518aa5d07e595d983b8c0526c8f7fb87876040516112069291906126de565b60405180910390a461121c8187878787876118c0565b505050505050565b600081815260018301602052604081205415156109c8565b606060006109c883611a2b565b6003546001600160a01b03163314610b2c5760405162461bcd60e51b815260206004820181905260248201527f4f776e61626c653a2063616c6c6572206973206e6f7420746865206f776e6572604482015260640161039d565b600380546001600160a01b038381166001600160a01b0319831681179093556040519116919082907f8be0079c531659141344cd1fd0a4f28419497f9722a3daafe3b4186f6b6457e090600090a35050565b60606000611302836109cf565b9050600081516001600160401b0381111561131f5761131f611ff6565b60405190808252806020026020018201604052801561137457816020015b61136160405180606001604052806000815260200160008152602001606081525090565b81526020019060019003908161133d5790505b50905060005b825181101561099e576000838281518110611397576113976124f3565b6020026020010151905060006007600083815260200190815260200160002080546113c190612552565b80601f01602080910402602001604051908101604052809291908181526020018280546113ed90612552565b801561143a5780601f1061140f5761010080835404028352916020019161143a565b820191906000526020600020905b81548152906001019060200180831161141d57829003601f168201915b50505050509050600061144d8884610336565b905060405180606001604052808481526020018281526020018381525085858151811061147c5761147c6124f3565b6020026020010181905250505050808061149590612537565b91505061137a565b816001600160a01b0316836001600160a01b031614156115115760405162461bcd60e51b815260206004820152602960248201527f455243313135353a2073657474696e6720617070726f76616c20737461747573604482015268103337b91039b2b63360b91b606482015260840161039d565b6001600160a01b03838116600081815260016020908152604080832094871680845294825291829020805460ff191686151590811790915591519182527f17307eab39ab6107e8899845ad3d59bd9653f200f220920489ca2b5937696c31910160405180910390a3505050565b6001600160a01b0384166115a45760405162461bcd60e51b815260040161039d9061264f565b3360006115b0856116b6565b905060006115bd856116b6565b90506115cd838989858589611701565b6000868152602081815260408083206001600160a01b038c1684529091529020548581101561160e5760405162461bcd60e51b815260040161039d90612694565b6000878152602081815260408083206001600160a01b038d8116855292528083208985039055908a1682528120805488929061164b90849061251f565b909155505060408051888152602081018890526001600160a01b03808b16928c821692918816917fc3d58168c5ae7397731d063d5bbf3d657854427343f4c083240f7aacaa2d0f62910160405180910390a46116ab848a8a8a8a8a611a86565b505050505050505050565b604080516001808252818301909252606091600091906020808301908036833701905050905082816000815181106116f0576116f06124f3565b602090810291909101015292915050565b60005b8351811015610fa2576000848281518110611721576117216124f3565b6020026020010151905061176281600860008a6001600160a01b03166001600160a01b03168152602001908152602001600020611b5090919063ffffffff16565b506001600160a01b038616600090815260086020526040902061178590826118b4565b5050808061179290612537565b915050611704565b6001600160a01b0384166117fa5760405162461bcd60e51b815260206004820152602160248201527f455243313135353a206d696e7420746f20746865207a65726f206164647265736044820152607360f81b606482015260840161039d565b336000611806856116b6565b90506000611813856116b6565b905061182483600089858589611701565b6000868152602081815260408083206001600160a01b038b1684529091528120805487929061185490849061251f565b909155505060408051878152602081018790526001600160a01b03808a1692600092918716917fc3d58168c5ae7397731d063d5bbf3d657854427343f4c083240f7aacaa2d0f62910160405180910390a4610fa283600089898989611a86565b60006109c88383611b5c565b6001600160a01b0384163b1561121c5760405163bc197c8160e01b81526001600160a01b0385169063bc197c81906119049089908990889088908890600401612703565b602060405180830381600087803b15801561191e57600080fd5b505af192505050801561194e575060408051601f3d908101601f1916820190925261194b91810190612755565b60015b6119fb5761195a612772565b806308c379a01415611994575061196f61278e565b8061197a5750611996565b8060405162461bcd60e51b815260040161039d9190611f65565b505b60405162461bcd60e51b815260206004820152603460248201527f455243313135353a207472616e7366657220746f206e6f6e2d455243313135356044820152732932b1b2b4bb32b91034b6b83632b6b2b73a32b960611b606482015260840161039d565b6001600160e01b0319811663bc197c8160e01b14610fa25760405162461bcd60e51b815260040161039d90612817565b60608160000180548060200260200160405190810160405280929190818152602001828054801561077457602002820191906000526020600020905b815481526020019060010190808311611a675750505050509050919050565b6001600160a01b0384163b1561121c5760405163f23a6e6160e01b81526001600160a01b0385169063f23a6e6190611aca908990899088908890889060040161285f565b602060405180830381600087803b158015611ae457600080fd5b505af1925050508015611b14575060408051601f3d908101601f19168201909252611b1191810190612755565b60015b611b205761195a612772565b6001600160e01b0319811663f23a6e6160e01b14610fa25760405162461bcd60e51b815260040161039d90612817565b60006109c88383611bab565b6000818152600183016020526040812054611ba3575081546001818101845560008481526020808220909301849055845484825282860190935260409020919091556103c9565b5060006103c9565b60008181526001830160205260408120548015611c94576000611bcf6001836128a4565b8554909150600090611be3906001906128a4565b9050818114611c48576000866000018281548110611c0357611c036124f3565b9060005260206000200154905080876000018481548110611c2657611c266124f3565b6000918252602080832090910192909255918252600188019052604090208390555b8554869080611c5957611c596128bb565b6001900381819060005260206000200160009055905585600101600086815260200190815260200160002060009055600193505050506103c9565b60009150506103c9565b60405180606001604052806000815260200160008152602001611cf46040518060800160405280600081526020016000815260200160006001600160a01b0316815260200160006001600160a01b031681525090565b905290565b828054611d0590612552565b90600052602060002090601f016020900481019282611d275760008555611d6d565b82601f10611d4057805160ff1916838001178555611d6d565b82800160010185558215611d6d579182015b82811115611d6d578251825591602001919060010190611d52565b50611d79929150611d7d565b5090565b5b80821115611d795760008155600101611d7e565b6001600160a01b0381168114610e1357600080fd5b60008060408385031215611dba57600080fd5b8235611dc581611d92565b946020939093013593505050565b60008083601f840112611de557600080fd5b5081356001600160401b03811115611dfc57600080fd5b6020830191508360208260051b8501011115611e1757600080fd5b9250929050565b600080600080600060608688031215611e3657600080fd5b8535945060208601356001600160401b0380821115611e5457600080fd5b611e6089838a01611dd3565b90965094506040880135915080821115611e7957600080fd5b50611e8688828901611dd3565b969995985093965092949392505050565b600081518084526020808501945080840160005b83811015611ec757815187529582019590820190600101611eab565b509495945050505050565b6020815260006109c86020830184611e97565b6001600160e01b031981168114610e1357600080fd5b600060208284031215611f0d57600080fd5b81356109c881611ee5565b6000815180845260005b81811015611f3e57602081850181015186830182015201611f22565b81811115611f50576000602083870101525b50601f01601f19169290920160200192915050565b6020815260006109c86020830184611f18565b600060208284031215611f8a57600080fd5b5035919050565b80518252602080820151908301526040808201516001600160a01b039081169184019190915260609182015116910152565b80518252602081015160208301526040810151611fe36040840182611f91565b505050565b60c081016103c98284611fc3565b634e487b7160e01b600052604160045260246000fd5b601f8201601f191681016001600160401b038111828210171561203157612031611ff6565b6040525050565b60006001600160401b0382111561205157612051611ff6565b5060051b60200190565b600082601f83011261206c57600080fd5b8135602061207982612038565b604051612086828261200c565b83815260059390931b85018201928281019150868411156120a657600080fd5b8286015b848110156120c157803583529183019183016120aa565b509695505050505050565b600082601f8301126120dd57600080fd5b81356001600160401b038111156120f6576120f6611ff6565b60405161210d601f8301601f19166020018261200c565b81815284602083860101111561212257600080fd5b816020850160208301376000918101602001919091529392505050565b600080600080600060a0868803121561215757600080fd5b853561216281611d92565b9450602086013561217281611d92565b935060408601356001600160401b038082111561218e57600080fd5b61219a89838a0161205b565b945060608801359150808211156121b057600080fd5b6121bc89838a0161205b565b935060808801359150808211156121d257600080fd5b506121df888289016120cc565b9150509295509295909350565b600080604083850312156121ff57600080fd5b82356001600160401b038082111561221657600080fd5b818501915085601f83011261222a57600080fd5b8135602061223782612038565b604051612244828261200c565b83815260059390931b850182019282810191508984111561226457600080fd5b948201945b8386101561228b57853561227c81611d92565b82529482019490820190612269565b965050860135925050808211156122a157600080fd5b506122ae8582860161205b565b9150509250929050565b6000602082840312156122ca57600080fd5b81356109c881611d92565b6040815260006122e86040830185611f18565b8281036020840152610c768185611f18565b6020808252825182820181905260009190848201906040850190845b8181101561233c57612329838551611fc3565b9284019260c09290920191600101612316565b50909695505050505050565b6000806040838503121561235b57600080fd5b823561236681611d92565b91506020830135801515811461237b57600080fd5b809150509250929050565b6000806000806080858703121561239c57600080fd5b84356123a781611d92565b9350602085013592506040850135915060608501356001600160401b038111156123d057600080fd5b6123dc878288016120cc565b91505092959194509250565b60008060008060008060c0878903121561240157600080fd5b8635955060208701359450604087013561241a81611d92565b9350606087013561242a81611d92565b9250608087013561243a81611d92565b8092505060a087013590509295509295509295565b6000806040838503121561246257600080fd5b823561246d81611d92565b9150602083013561237b81611d92565b600080600080600060a0868803121561249557600080fd5b85356124a081611d92565b945060208601356124b081611d92565b9350604086013592506060860135915060808601356001600160401b038111156124d957600080fd5b6121df888289016120cc565b608081016103c98284611f91565b634e487b7160e01b600052603260045260246000fd5b634e487b7160e01b600052601160045260246000fd5b6000821982111561253257612532612509565b500190565b600060001982141561254b5761254b612509565b5060010190565b600181811c9082168061256657607f821691505b6020821081141561258757634e487b7160e01b600052602260045260246000fd5b50919050565b60006080828403121561259f57600080fd5b604051608081018181106001600160401b03821117156125c1576125c1611ff6565b8060405250825181526020830151602082015260408301516125e281611d92565b604082015260608301516125f581611d92565b60608201529392505050565b6020808252602e908201527f455243313135353a2063616c6c6572206973206e6f7420746f6b656e206f776e60408201526d195c881bdc88185c1c1c9bdd995960921b606082015260800190565b60208082526025908201527f455243313135353a207472616e7366657220746f20746865207a65726f206164604082015264647265737360d81b606082015260800190565b6020808252602a908201527f455243313135353a20696e73756666696369656e742062616c616e636520666f60408201526939103a3930b739b332b960b11b606082015260800190565b6040815260006126f16040830185611e97565b8281036020840152610c768185611e97565b6001600160a01b0386811682528516602082015260a06040820181905260009061272f90830186611e97565b82810360608401526127418186611e97565b90508281036080840152610d4c8185611f18565b60006020828403121561276757600080fd5b81516109c881611ee5565b600060033d111561278b5760046000803e5060005160e01c5b90565b600060443d101561279c5790565b6040516003193d81016004833e81513d6001600160401b0381602484011181841117156127cb57505050505090565b82850191508151818111156127e35750505050505090565b843d87010160208285010111156127fd5750505050505090565b61280c6020828601018761200c565b509095945050505050565b60208082526028908201527f455243313135353a204552433131353552656365697665722072656a656374656040820152676420746f6b656e7360c01b606082015260800190565b6001600160a01b03868116825285166020820152604081018490526060810183905260a06080820181905260009061289990830184611f18565b979650505050505050565b6000828210156128b6576128b6612509565b500390565b634e487b7160e01b600052603160045260246000fdfea2646970667358221220ff5a228dacdceb1d861ca4fca8d632be322492308d53b11b115f13c34bf6f57664736f6c63430008090033",
  "deployedBytecode": "0x6080604052600436106101f95760003560e01c80638aa495831161010d578063bc197c81116100a0578063f23a6e611161006f578063f23a6e6114610707578063f2445f1e14610733578063f2fde38b14610753578063f800ece914610773578063fce8d3901461078857600080fd5b8063bc197c811461066b578063e58c555e146106b0578063e9f162bb146106c5578063f01cb648146106e757600080fd5b8063a87430ba116100dc578063a87430ba1461054e578063b1695201146105b8578063b2a5b4a2146105ee578063b81b2b711461063e57600080fd5b80638aa49583146104dd5780638da5cb5b146104f05780639027cae11461050e5780639d7de6b31461052e57600080fd5b80635aa6e6751161019057806369ee60d11161015f57806369ee60d11461043e5780637076806b1461045e578063715018a61461047f57806375bb16c01461049457806382cfd1b8146104a757600080fd5b80635aa6e6751461034c5780635eac6239146103845780635fcbd285146103b2578063613ce410146103e657600080fd5b8063308e401e116101cc578063308e401e146102a25780633dab9a86146102c257806341a0894d146102e25780634a9fefc71461030f57600080fd5b806301ffc9a7146101fe578063020e78b51461023357806307973ccf146102485780632b956ff71461026c575b600080fd5b34801561020a57600080fd5b5061021e610219366004614ce6565b61079d565b60405190151581526020015b60405180910390f35b610246610241366004614d25565b6107d4565b005b34801561025457600080fd5b5061025e60015481565b60405190815260200161022a565b34801561027857600080fd5b5061025e610287366004614d77565b6001600160a01b031660009081526002602052604090205490565b3480156102ae57600080fd5b5061025e6102bd366004614d77565b6107fe565b3480156102ce57600080fd5b5061025e6102dd366004614d94565b610900565b3480156102ee57600080fd5b506103026102fd366004614d77565b610a00565b60405161022a9190614e08565b34801561031b57600080fd5b5061032f61032a366004614d77565b610b62565b604080519283526001600160a01b0390911660208301520161022a565b34801561035857600080fd5b5060135461036c906001600160a01b031681565b6040516001600160a01b03909116815260200161022a565b34801561039057600080fd5b506103a461039f366004614f5c565b610b94565b60405161022a929190614f90565b3480156103be57600080fd5b5061036c7f000000000000000000000000000000000000000000000000000000000000000081565b3480156103f257600080fd5b50600d54600e54600f5460105460115460125461041195949392919086565b604080519687526020870195909552938501929092526060840152608083015260a082015260c00161022a565b34801561044a57600080fd5b5061025e610459366004614fde565b610f79565b61047161046c36600461504f565b611082565b60405161022a92919061508d565b34801561048b57600080fd5b50610246611754565b6102466104a23660046150aa565b611768565b3480156104b357600080fd5b5061036c6104c2366004614d77565b600b602052600090815260409020546001600160a01b031681565b61025e6104eb36600461504f565b611ab8565b3480156104fc57600080fd5b506000546001600160a01b031661036c565b34801561051a57600080fd5b5061021e610529366004614d77565b611d9c565b34801561053a57600080fd5b506102466105493660046150ea565b611e0b565b34801561055a57600080fd5b50610595610569366004614d77565b60026020819052600091825260409091208054600182015491909201546001600160a01b039091169083565b604080519384526001600160a01b0390921660208401529082015260600161022a565b3480156105c457600080fd5b5061036c6105d336600461510c565b6003602052600090815260409020546001600160a01b031681565b3480156105fa57600080fd5b50610411610609366004614d77565b600c60205260009081526040902080546001820154600283015460038401546004850154600590950154939492939192909186565b34801561064a57600080fd5b50610653612269565b6040516001600160401b03909116815260200161022a565b34801561067757600080fd5b50610697610686366004615194565b63bc197c8160e01b95945050505050565b6040516001600160e01b0319909116815260200161022a565b3480156106bc57600080fd5b5061036c61227a565b3480156106d157600080fd5b506106da6122e5565b60405161022a9190615241565b3480156106f357600080fd5b5061025e61070236600461528e565b6122f1565b34801561071357600080fd5b506106976107223660046152d4565b63f23a6e6160e01b95945050505050565b34801561073f57600080fd5b5061025e61074e366004614fde565b6124ee565b34801561075f57600080fd5b5061024661076e366004614d77565b6125a6565b34801561077f57600080fd5b506106da61261f565b34801561079457600080fd5b5061036c61262b565b60006001600160e01b03198216630271189760e51b14806107ce57506301ffc9a760e01b6001600160e01b03198316145b92915050565b6107de338561268a565b506107f86107f13685900385018561504f565b8383611768565b50505050565b604051632711999760e21b81526001600160a01b03828116600483015260009182917f00000000000000000000000000000000000000000000000000000000000000001690639c46665c9060240160006040518083038186803b15801561086457600080fd5b505afa158015610878573d6000803e3d6000fd5b505050506040513d6000823e601f3d908101601f191682016040526108a091908101906153e1565b905060005b81518110156108f95760006108d28383815181106108c5576108c561547a565b60200260200101516128ab565b505050905080846108e391906154a6565b93505080806108f1906154be565b9150506108a5565b5050919050565b6000805b828110156109f95760007f00000000000000000000000000000000000000000000000000000000000000006001600160a01b03166326ca8adb338787868181106109505761095061547a565b905060200201356040518363ffffffff1660e01b81526004016109749291906154d9565b60c06040518083038186803b15801561098c57600080fd5b505afa1580156109a0573d6000803e3d6000fd5b505050506040513d601f19601f820116820180604052508101906109c491906154f2565b905060006109d1826128ab565b505050905080846109e291906154a6565b9350505080806109f1906154be565b915050610904565b5092915050565b6001600160a01b0381166000908152600260209081526040808320600301805482518185028101850190935280835260609493830182828015610a6257602002820191906000526020600020905b815481526020019060010190808311610a4e575b50505050509050600081516001600160401b03811115610a8457610a84614e60565b604051908082528060200260200182016040528015610ac957816020015b6040805180820190915260008082526020820152815260200190600190039081610aa25790505b50905060005b8251811015610b5a576000838281518110610aec57610aec61547a565b6020908102919091018101516000818152600383526040908190205481518083019092528282526001600160a01b0316928101839052855191935090859085908110610b3a57610b3a61547a565b602002602001018190525050508080610b52906154be565b915050610acf565b509392505050565b6001600160a01b0390811660009081526002602081815260408084209092015480845260039091529120549092911690565b60008133610ba8610ba361295e565b612aea565b6000600a855110610bba57600a610bbd565b84515b905060005b81811015610e9d5760007f00000000000000000000000000000000000000000000000000000000000000006001600160a01b03166326ca8adb85898581518110610c0e57610c0e61547a565b60200260200101516040518363ffffffff1660e01b8152600401610c339291906154d9565b60c06040518083038186803b158015610c4b57600080fd5b505afa158015610c5f573d6000803e3d6000fd5b505050506040513d601f19601f82011682018060405250810190610c8391906154f2565b90506000600c60008360400151604001516001600160a01b03166001600160a01b0316815260200190815260200160002090506000610d51826040518060c00160405290816000820154815260200160018201548152602001600282015481526020016003820154815260200160048201548152602001600582015481525050600d6040518060c00160405290816000820154815260200160018201548152602001600282015481526020016003820154815260200160048201548152602001600582015481525050612b1f565b9050600080610d608386612c03565b6040850151600287015560a085015160058701556060850151600387015590925090508115610e8557610d93828b6154a6565b995060007f00000000000000000000000000000000000000000000000000000000000000006001600160a01b031663d8938f268a8860000151896020015186604051602001610de29190615540565b6040516020818303038152906040526040518563ffffffff1660e01b8152600401610e10949392919061557a565b602060405180830381600087803b158015610e2a57600080fd5b505af1158015610e3e573d6000803e3d6000fd5b505050506040513d601f19601f82011682018060405250810190610e6291906155ca565b9050808a8881518110610e7757610e7761547a565b602002602001018181525050505b50505050508080610e95906154be565b915050610bc2565b508315610f725760145460405163a9059cbb60e01b81526001600160a01b039091169063a9059cbb90610ed690859088906004016154d9565b602060405180830381600087803b158015610ef057600080fd5b505af1158015610f04573d6000803e3d6000fd5b505050506040513d601f19601f82011682018060405250810190610f2891906155e3565b610f725760405162461bcd60e51b815260206004820152601660248201527514995dd85c99081d1c985b9cd9995c8819985a5b195960521b60448201526064015b60405180910390fd5b5050915091565b60008061106e83856001600160a01b031663cd3293de6040518163ffffffff1660e01b815260040160206040518083038186803b158015610fb957600080fd5b505afa158015610fcd573d6000803e3d6000fd5b505050506040513d601f19601f82011682018060405250810190610ff191906155ca565b610ff961262b565b6001600160a01b031663cd3293de6040518163ffffffff1660e01b815260040160206040518083038186803b15801561103157600080fd5b505afa158015611045573d6000803e3d6000fd5b505050506040513d601f19601f8201168201806040525081019061106991906155ca565b612c7a565b905061107a8482612c9b565b949350505050565b600061108c614bf0565b6000546001600160a01b03163314806110af57506013546001600160a01b031633145b6111055760405162461bcd60e51b815260206004820152602160248201527f526f757465723a204e6f7420616c6c6f77656420746f206c69737420746f6b656044820152603760f91b6064820152608401610f69565b82516001600160a01b038082166000908152600b602052604090205416156111655760405162461bcd60e51b8152602060048201526013602482015272151bdad95b88185b1c9958591e481859191959606a1b6044820152606401610f69565b600061116f612269565b6001600160401b03166114a85773__$89e53cedf04fc26c6e0032f6dee798436c$__63bb3007786040518163ffffffff1660e01b815260040160206040518083038186803b1580156111c057600080fd5b505af41580156111d4573d6000803e3d6000fd5b505050506040513d601f19601f820116820180604052508101906111f89190615605565b9050806001600160a01b031663d83678ac6040518163ffffffff1660e01b815260040160206040518083038186803b15801561123357600080fd5b505afa158015611247573d6000803e3d6000fd5b505050506040513d601f19601f8201168201806040525081019061126b9190615605565b601480546001600160a01b0383166001600160a01b0319909116811790915590925063a9059cbb6112a46000546001600160a01b031690565b6112b06012600a615706565b6112bd90620f4240615712565b6112c96012600a615706565b6112d69062d04850615712565b6112e7906607fd10d7c82f0b6154a6565b6112f36012600a615706565b611301906301406f40615712565b61130b9190615731565b6113159190615731565b6040518363ffffffff1660e01b81526004016113329291906154d9565b602060405180830381600087803b15801561134c57600080fd5b505af1158015611360573d6000803e3d6000fd5b505050506040513d601f19601f8201168201806040525081019061138491906155e3565b50604051630415fa8f60e01b81526001600160a01b037f000000000000000000000000000000000000000000000000000000000000000081166004808401919091529084166024830152546044820152600554606482015273__$dc99186443eb9be47560196c9a92d86c28$__90630415fa8f9060840160206040518083038186803b15801561141357600080fd5b505af4158015611427573d6000803e3d6000fd5b505050506040513d601f19601f8201168201806040525081019061144b9190615605565b601380546001600160a01b0319166001600160a01b03928316179055604080516060810190915260145490911681526020810161148a6012600a615706565b61149790620f4240615712565b8152602001600081525094506116f8565b34156115e65773__$1e1fc3fe468f004a211d81ececa3ca4d54$__637af9dc786114d061262b565b6040516001600160e01b031960e084901b1681526001600160a01b03909116600482015260240160206040518083038186803b15801561150f57600080fd5b505af4158015611523573d6000803e3d6000fd5b505050506040513d601f19601f820116820180604052508101906115479190615605565b9050806001600160a01b031663d83678ac6040518163ffffffff1660e01b815260040160206040518083038186803b15801561158257600080fd5b505afa158015611596573d6000803e3d6000fd5b505050506040513d601f19601f820116820180604052508101906115ba9190615605565b600a80546001600160a01b0319166001600160a01b03831617905591506115df612d61565b94506116f8565b600085602001511161164b5760405162461bcd60e51b815260206004820152602860248201527f526f757465723a20496e76616c696420696e697469616c206c697175696469746044820152671e48185b5bdd5b9d60c21b6064820152608401610f69565b61165485612d8e565b73__$41c3c373709d77f70cc8eef9cd4d91eda7$__63b3af16d38361167761262b565b6040516001600160e01b031960e085901b1681526001600160a01b0392831660048201529116602482015260440160206040518083038186803b1580156116bd57600080fd5b505af41580156116d1573d6000803e3d6000fd5b505050506040513d601f19601f820116820180604052508101906116f59190615605565b90505b925082611706600682612d98565b50611712600883612d98565b506001600160a01b038281166000908152600b6020526040902080546001600160a01b03191691861691909117905561174b8486612dad565b92505050915091565b61175c612eef565b6117666000612f49565b565b341561177957611776612f99565b92505b82516001600160a01b039081166000908152600b6020526040902054166117a160068261302b565b6117ed5760405162461bcd60e51b815260206004820152601c60248201527f526f757465723a20496e7075742070616972206e6f7420666f756e64000000006044820152606401610f69565b6117f860068461302b565b6118445760405162461bcd60e51b815260206004820152601d60248201527f526f757465723a204f75747075742070616972206e6f7420666f756e640000006044820152606401610f69565b8281600061185061262b565b905060008190506000836001600160a01b031663cd3293de6040518163ffffffff1660e01b815260040160206040518083038186803b15801561189257600080fd5b505afa1580156118a6573d6000803e3d6000fd5b505050506040513d601f19601f820116820180604052508101906118ca91906155ca565b90506000856001600160a01b031663cd3293de6040518163ffffffff1660e01b815260040160206040518083038186803b15801561190757600080fd5b505afa15801561191b573d6000803e3d6000fd5b505050506040513d601f19601f8201168201806040525081019061193f91906155ca565b90506000836001600160a01b031663cd3293de6040518163ffffffff1660e01b815260040160206040518083038186803b15801561197c57600080fd5b505afa158015611990573d6000803e3d6000fd5b505050506040513d601f19601f820116820180604052508101906119b491906155ca565b905060006119c78c602001518584612c7a565b905060006119d9338e8c8c8f8761304d565b905060006119e8828686612c7a565b90506119f48184615731565b6001600160a01b038c166000908152600c6020526040812080549295508592909190611a219084906154a6565b90915550506001600160a01b038d166000908152600c602052604081206001018054859290611a519084906154a6565b90915550506001600160a01b0388166000908152600c602052604081206001018054839290611a819084906154a6565b90915550611a91905081846154a6565b60108054600090611aa39084906154a6565b90915550505050505050505050505050505050565b6000333415611acc57611ac9612f99565b92505b82516001600160a01b038082166000908152600b60205260409020541680611b365760405162461bcd60e51b815260206004820152601c60248201527f526f757465723a20496e76616c696420706169722061646472657373000000006044820152606401610f69565b6000856020015111611b945760405162461bcd60e51b815260206004820152602160248201527f526f757465723a20496e76616c6964206c6971756964697479207061796d656e6044820152601d60fa1b6064820152608401610f69565b6001600160a01b0381166000908152600c60209081526040808320815160c081018352815481526001820154938101939093526002810154918301919091526003810154606083015260048101546080830152600581015460a083015291908190611bfe906130ed565b91509150611c0d838383613118565b600080856001600160a01b03166327a3d4008b8a6040518363ffffffff1660e01b8152600401611c3e929190615748565b6040805180830381600087803b158015611c5757600080fd5b505af1158015611c6b573d6000803e3d6000fd5b505050506040513d601f19601f82011682018060405250810190611c8f919061576e565b9150915081600d6005016000828254611ca891906154a6565b9250508190555081856004016000828254611cc391906154a6565b909155505060028501546040516337e52e1960e21b81526004810191909152602481018390526001600160a01b0387811660448301528881166064830152898116608483015260a482018390527f0000000000000000000000000000000000000000000000000000000000000000169063df94b8649060c401602060405180830381600087803b158015611d5657600080fd5b505af1158015611d6a573d6000803e3d6000fd5b505050506040513d601f19601f82011682018060405250810190611d8e91906155ca565b9a9950505050505050505050565b60006001600160a01b038216611e005760405162461bcd60e51b815260206004820152602360248201527f526f757465723a20496e76616c696420747261646520746f6b656e206164647260448201526265737360e81b6064820152608401610f69565b6107ce60088361302b565b60008111611e6c5760405162461bcd60e51b815260206004820152602860248201527f526f757465723a20416d6f756e74206d7573742062652067726561746572207460448201526768616e207a65726f60c01b6064820152608401610f69565b6040516326ca8adb60e01b81526000906001600160a01b037f000000000000000000000000000000000000000000000000000000000000000016906326ca8adb90611ebd90339087906004016154d9565b60c06040518083038186803b158015611ed557600080fd5b505afa158015611ee9573d6000803e3d6000fd5b505050506040513d601f19601f82011682018060405250810190611f0d91906154f2565b90508181602001511015611f635760405162461bcd60e51b815260206004820152601f60248201527f526f757465723a20496e73756666696369656e74204c502062616c616e6365006044820152606401610f69565b6040808201518101516001600160a01b0381166000908152600c6020529182209091808080611f91876128ab565b9350935093509350808760400181905250611fad858484613118565b6040516301a5e7dd60e71b815286906000906001600160a01b0383169063d2f3ee8090611fe2908c908e903390600401615792565b60e060405180830381600087803b158015611ffc57600080fd5b505af1158015612010573d6000803e3d6000fd5b505050506040513d601f19601f8201168201806040525081019061203491906157db565b809250819a5050507f00000000000000000000000000000000000000000000000000000000000000006001600160a01b031663d8938f26338b600001518c602001518d6040015160405160200161208b9190615540565b6040516020818303038152906040526040518563ffffffff1660e01b81526004016120b9949392919061557a565b602060405180830381600087803b1580156120d357600080fd5b505af11580156120e7573d6000803e3d6000fd5b505050506040513d601f19601f8201168201806040525081019061210b91906155ca565b50898760040160008282546121209190615731565b9091555050601280548b919060009061213a908490615731565b9091555050851561220e5760145460405163a9059cbb60e01b81526001600160a01b039091169063a9059cbb906121779033908a906004016154d9565b602060405180830381600087803b15801561219157600080fd5b505af11580156121a5573d6000803e3d6000fd5b505050506040513d601f19601f820116820180604052508101906121c991906155e3565b61220e5760405162461bcd60e51b815260206004820152601660248201527514995dd85c99081d1c985b9cd9995c8819985a5b195960521b6044820152606401610f69565b604080518b8152602081018390529081018790526001600160a01b0389169033907fbc7d19d505c7ec4db83f3b51f19fb98c4c8a99922e7839d1ee608dfbee29501b9060600160405180910390a35050505050505050505050565b60006122756006613144565b905090565b600a546000906001600160a01b03166122d55760405162461bcd60e51b815260206004820181905260248201527f526f757465723a2045445550616972206e6f7420796574206465706c6f7965646044820152606401610f69565b50600a546001600160a01b031690565b6060612275600861314e565b60006122fe60068661302b565b61234a5760405162461bcd60e51b815260206004820152601c60248201527f526f757465723a20496e7075742070616972206e6f7420666f756e64000000006044820152606401610f69565b61235560068561302b565b6123a15760405162461bcd60e51b815260206004820152601d60248201527f526f757465723a204f75747075742070616972206e6f7420666f756e640000006044820152606401610f69565b600085905060008590506000826001600160a01b031663cd3293de6040518163ffffffff1660e01b815260040160206040518083038186803b1580156123e657600080fd5b505afa1580156123fa573d6000803e3d6000fd5b505050506040513d601f19601f8201168201806040525081019061241e91906155ca565b90506000826001600160a01b031663cd3293de6040518163ffffffff1660e01b815260040160206040518083038186803b15801561245b57600080fd5b505afa15801561246f573d6000803e3d6000fd5b505050506040513d601f19601f8201168201806040525081019061249391906155ca565b905060006124a18a89610f79565b905060006124af898961315b565b90506124bc81858561317d565b96506127106124cb8389615712565b6124d5919061581e565b6124df9088615731565b9b9a5050505050505050505050565b6000807f00000000000000000000000000000000000000000000000000000000000000006001600160a01b03166326ca8adb85856040518363ffffffff1660e01b815260040161253f9291906154d9565b60c06040518083038186803b15801561255757600080fd5b505afa15801561256b573d6000803e3d6000fd5b505050506040513d601f19601f8201168201806040525081019061258f91906154f2565b905061259a816128ab565b50919695505050505050565b6125ae612eef565b6001600160a01b0381166126135760405162461bcd60e51b815260206004820152602660248201527f4f776e61626c653a206e6577206f776e657220697320746865207a65726f206160448201526564647265737360d01b6064820152608401610f69565b61261c81612f49565b50565b6060612275600661314e565b6000612275600682613193565b42825560018201819055806126865760405162461bcd60e51b8152602060048201526014602482015273092dcecc2d8d2c8408ae0dec6d040d8cadccee8d60631b6044820152606401610f69565b5050565b6001600160a01b03821660009081526002602052604081208054156126b1575490506107ce565b600180549060006126c1836154be565b90915550506040805160808101825260015481526001600160a01b0386166020820152908101849052606081016000604051908082528060200260200182016040528015612719578160200160208202803683370190505b5090526001600160a01b0385811660009081526002602081815260409283902085518155858201516001820180546001600160a01b03191691909616179094559184015190830155606083015180516127789260038501920190614c1a565b5050600154600090815260036020526040902080546001600160a01b0319166001600160a01b0387161790555082158015906127b657506001548314155b80156127d857506000838152600360205260409020546001600160a01b031615155b15612855576000838152600360208181526040808420546001600160a01b0316845260028252808420600180549190940180548086018255908652948390209094019390935590548251868152918201527fa8b1f3acfefae9dbf6c7ffd8c16eda5db6950c383b34ca999d98f9998721c50c910160405180910390a15b600154604080519182526001600160a01b038616602083015281018490527fb58d46e66658e855773af8232237e606476d7f0ad98813c081b540e6f435ea3e9060600160405180910390a1505060015492915050565b60006128b5614c61565b6128bd614c61565b6128c5614c97565b612941600c60008760400151604001516001600160a01b03166001600160a01b031681526020019081526020016000206040518060c001604052908160008201548152602001600182015481526020016002820154815260200160038201548152602001600482015481526020016005820154815250506130ed565b90935091506129508386612c03565b909693955091935090919050565b612966614c61565b506040805160c081018252600d548152600e546020820152600f549181019190915260105460608201526011546080820181905260125460a0830152429081811080156129b4575060105415155b15612ae55760006129c660048361319f565b905060006129d5828486613290565b905060006129e36004613384565b905082811115612a4957600060016129fb8584615731565b612a059190615731565b90506001811115612a3057612a2384612a1e83826154a6565b613390565b612a2d90846154a6565b92505b612a3b828688613290565b612a4590846154a6565b9250505b6000612a6d6103e8612a5c85604b615712565b612a66919061581e565b849061344b565b6010549194509150600090612a8a670de0b6b3a764000086615712565b612a94919061581e565b608089018890526040890180519192508291612ab19083906154a6565b905250875184908990612ac59083906154a6565b905250602088018051839190612adc9083906154a6565b90525050505050505b505090565b8051600d556020810151600e556040810151600f556060810151601055608081015160115560a081015160125561261c6134a9565b612b27614c61565b8290508160400151816060015110156107ce57602081015115612bf3576000670de0b6b3a7640000826020015183606001518560400151612b689190615731565b612b729190615712565b612b7c919061581e565b90508083600001818151612b909190615731565b90525060a082018051829190612ba79083906154a6565b905250608082015115612bf1576080820151600090612bce670de0b6b3a764000084615712565b612bd8919061581e565b90508083604001818151612bec91906154a6565b905250505b505b6040820151606082015292915050565b6000612c0d614c97565b506040808301519084015181511015612c7357602083015181516040860151670de0b6b3a76400009291612c4091615731565b612c4a9190615712565b612c54919061581e565b9150818460a001818151612c689190615731565b905250604084015181525b9250929050565b600082612c878386615712565b612c91919061581e565b90505b9392505050565b6001600160a01b0382166000908152600c60209081526040808320815160c081018352815480825260018301549482019490945260028201549281019290925260038101546060830152600481015460808301526005015460a0820152908290612d069085906154a6565b60208301519091506000818311612d1e576000612d28565b612d288284615731565b905060008460800151600d60050154612d419190615731565b9050612d558282612d50612269565b6135c3565b98975050505050505050565b612d69614bf0565b612d7161227a565b6001600160a01b03168152346020820152612d8b81612d8e565b90565b61261c813361363b565b6000612c94836001600160a01b038416613879565b612db5614bf0565b612dbf82846138c8565b604051638aa4958360e01b81523090638aa4958390612de2908590600401615832565b602060405180830381600087803b158015612dfc57600080fd5b505af1158015612e10573d6000803e3d6000fd5b505050506040513d601f19601f82011682018060405250810190612e3491906155ca565b60408083018290526001600160a01b037f00000000000000000000000000000000000000000000000000000000000000001680845290516326ca8adb60e01b815290916326ca8adb91612e8b9130916004016154d9565b60c06040518083038186803b158015612ea357600080fd5b505afa158015612eb7573d6000803e3d6000fd5b505050506040513d601f19601f82011682018060405250810190612edb91906154f2565b602090810151908201526107ce813361393e565b6000546001600160a01b031633146117665760405162461bcd60e51b815260206004820181905260248201527f4f776e61626c653a2063616c6c6572206973206e6f7420746865206f776e65726044820152606401610f69565b600080546001600160a01b038381166001600160a01b0319831681178455604051919092169283917f8be0079c531659141344cd1fd0a4f28419497f9722a3daafe3b4186f6b6457e09190a35050565b612fa1614bf0565b612fa961227a565b6001600160a01b039081168083523460208085018290526000838152600b90915260409081902054905163f1adc25160e01b815233600482015293166024840152909163f1adc25191906044016000604051808303818588803b15801561300f57600080fd5b505af1158015613023573d6000803e3d6000fd5b505050505090565b6001600160a01b03811660009081526001830160205260408120541515612c94565b60008061305988610b62565b915050856001600160a01b031663c398ae4d89838a898961307a8d8b612c9b565b6040518763ffffffff1660e01b815260040161309b96959493929190615840565b602060405180830381600087803b1580156130b557600080fd5b505af11580156130c9573d6000803e3d6000fd5b505050506040513d601f19601f82011682018060405250810190612d5591906155ca565b6130f5614c61565b6130fd614c61565b61310561295e565b90506131118382612b1f565b9150915091565b6040820151600284015560a082015160058401556060820151600384015561313f81612aea565b505050565b60006107ce825490565b60606000612c9483613b9a565b600061271061316983613bf6565b6131739085615712565b612c94919061581e565b6000612c918461318d81866154a6565b84612c7a565b6000612c948383613c5a565b81546000906131f05760405162461bcd60e51b815260206004820152601960248201527f496e76616c69642067656e657369732074696d657374616d70000000000000006044820152606401610f69565b600082116132345760405162461bcd60e51b81526020600482015260116024820152700496e76616c69642074696d657374616d7607c1b6044820152606401610f69565b600083600101541161327f5760405162461bcd60e51b8152602060048201526014602482015273092dcecc2d8d2c8408ae0dec6d040d8cadccee8d60631b6044820152606401610f69565b600183015483546131739084615731565b6040805180820190915260045481526005546020820152600090819081906132b89087613c84565b915091506000808584111580156132cf5750828611155b156132de57508490508261336e565b8684111580156132ee5750828711155b1561330d57828611156133015782613303565b855b915086905061336e565b60405162461bcd60e51b815260206004820152603060248201527f526f757465722e5f636f6d7075746545646765456d697373696f6e733a20496e60448201526f76616c69642074696d657374616d707360801b6064820152608401610f69565b612d558861337c8385615731565b600554613cca565b60006107ce824261319f565b60008282116133d75760405162461bcd60e51b8152602060048201526013602482015272496e76616c69642065706f63682072616e676560681b6044820152606401610f69565b60006133e284613ce1565b905060006133ef84613ce1565b90506000613404670de000cd866f8000613d0f565b61340e8385615886565b613421906893fa92954c28c89b946158c5565b61342b919061594a565b905061344161343c826000196158c5565b613d41565b9695505050505050565b600080838311156134945760405162461bcd60e51b8152602060048201526013602482015272125b9d985b1a59081d185ad948185b5bdd5b9d606a1b6044820152606401610f69565b50816134a08185615731565b91509250929050565b600e54801561261c576000600e5560145460135460405163095ea7b360e01b81526001600160a01b039283169263095ea7b3926134ed9291169085906004016154d9565b602060405180830381600087803b15801561350757600080fd5b505af115801561351b573d6000803e3d6000fd5b505050506040513d601f19601f8201168201806040525081019061353f91906155e3565b50601354604080516060810182526014546001600160a01b039081168252602082018590526000828401529151630b0bf5df60e31b8152919092169163585faef89161358e9190600401615832565b600060405180830381600087803b1580156135a857600080fd5b505af11580156135bc573d6000803e3d6000fd5b5050505050565b6000806135d1858585613d6b565b90506000806000806135ec856001600160401b031688613daf565b935093509350935061362e846001600160401b0316846001600160401b0316876001600160401b0316856001600160401b0316856001600160401b0316613ec4565b9998505050505050505050565b341561376d573482602001511461369f5760405162461bcd60e51b815260206004820152602260248201527f546f6b656e5061796d656e74733a2045544820616d6f756e74206d69736d61746044820152610c6d60f31b6064820152608401610f69565b6001600160a01b03811633146137115760405162461bcd60e51b815260206004820152603160248201527f546f6b656e5061796d656e74733a204e6174697665207061796d656e74206d7560448201527039ba10313290333937b69031b0b63632b960791b6064820152608401610f69565b81600001516001600160a01b031663d0e30db0346040518263ffffffff1660e01b81526004016000604051808303818588803b15801561375057600080fd5b505af1158015613764573d6000803e3d6000fd5b50505050505050565b604082015161380757815160208301516040516323b872dd60e01b81526001600160a01b03848116600483015230602483015260448201929092529116906323b872dd906064015b602060405180830381600087803b1580156137cf57600080fd5b505af11580156137e3573d6000803e3d6000fd5b505050506040513d601f19601f8201168201806040525081019061313f91906155e3565b815160408084015160208501519151637921219560e11b81526001600160a01b039093169263f242432a92613843928692309290600401615978565b600060405180830381600087803b15801561385d57600080fd5b505af1158015613871573d6000803e3d6000fd5b505050505050565b60008181526001830160205260408120546138c0575081546001818101845560008481526020808220909301849055845484825282860190935260409020919091556107ce565b5060006107ce565b6040820151613906578151602083015160405163095ea7b360e01b81526001600160a01b039092169163095ea7b3916137b5918591906004016154d9565b815160405163a22cb46560e01b81526001600160a01b038381166004830152600160248301529091169063a22cb46590604401613843565b6040820151613b205760006001600160a01b0382163b613a5a578251602084015160405147926001600160a01b03169161397e9160240190815260200190565b60408051601f198184030181529181526020820180516001600160e01b0316632e1a7d4d60e01b179052516139b391906159b0565b6000604051808303816000865af19150503d80600081146139f0576040519150601f19603f3d011682016040523d82523d6000602084013e6139f5565b606091505b50909250508115613a585747846020015182613a1191906154a6565b14613a585760405162461bcd60e51b81526020600482015260176024820152764661696c656420746f207769746864726177205745445560481b6044820152606401610f69565b505b8015613a995760208301516040516001600160a01b0384169180156108fc02916000818181858888f193505050501580156107f8573d6000803e3d6000fd5b8251602084015160405163a9059cbb60e01b81526001600160a01b039092169163a9059cbb91613ace918691906004016154d9565b602060405180830381600087803b158015613ae857600080fd5b505af1158015613afc573d6000803e3d6000fd5b505050506040513d601f19601f820116820180604052508101906107f891906155e3565b6040820151613b5e578151602083015160405163a9059cbb60e01b81526001600160a01b039092169163a9059cbb916137b5918591906004016154d9565b815160408084015160208501519151637921219560e11b81526001600160a01b039093169263f242432a92613843923092879290600401615978565b606081600001805480602002602001604051908101604052809291908181526020018280548015613bea57602002820191906000526020600020905b815481526020019060010190808311613bd6575b50505050509050919050565b60006001821080613c08575061271082115b15613c4e5760405162461bcd60e51b8152602060048201526016602482015275496e76616c696420736c6970706167652076616c756560501b6044820152606401610f69565b6107ce82612710615731565b6000826000018281548110613c7157613c7161547a565b9060005260206000200154905092915050565b600080836020015183613c979190615712565b8451613ca391906154a6565b91506001846020015183613cb791906154a6565b613cc19190615731565b90509250929050565b60008183613cd786613f84565b612c879190615712565b60006107ce670de000cd866f8000613cf884613fc7565b613d0a90670de0b6b3a76400006158c5565b613ff4565b60006714057b7ef767814f670de0b6b3a7640000613d2c84614033565b0281613d3a57613d3a615808565b0592915050565b600080821215613d6757604051635afb78ad60e11b815260048101839052602401610f69565b5090565b600080613d788484614112565b613d846103e887615712565b613d8e919061581e565b9050613da66001613d9e85614191565b83919061419f565b95945050505050565b60016103e8600a601e6000613dc386614191565b905060005b846001600160401b0316881115613eb957613de48560016159cc565b9550613df18360016159cc565b93506001600160401b038116613e1857613e0c6002836159f7565b94506103849250613ea7565b806001600160401b031660011415613e37578194506127109250613ea7565b6040805162461bcd60e51b81526020600482015260248101919091527f4665655574696c2e5f676574496e74657256616c7565733a206d61782063616c60448201527f6c20646570746820666f7220696e746572706f6c6174696f6e2076616c7565736064820152608401610f69565b80613eb181615a1d565b915050613dc8565b505092959194509250565b600085841080613ed357508484115b15613f315760405162461bcd60e51b815260206004820152602860248201527f4d6174682e6c696e656172496e746572706f6c6174696f6e3a20496e76616c69604482015267642076616c75657360c01b6064820152608401610f69565b6000613f3d8587615731565b613f479085615712565b90506000613f558887615731565b613f5f9085615712565b90506000613f6d8989615731565b905080613f7a83856154a6565b61362e919061581e565b600080613f9c670de000cd866f8000613d0a85613fc7565b9050612c94670de0b6b3a7640000613fbd836893fa92954c28c89b946158c5565b61343c919061594a565b60006001600160ff1b03821115613d675760405163322efb3360e21b815260048101839052602401610f69565b600082614019578115614008576000614012565b670de0b6b3a76400005b90506107ce565b612c9461402e61402885614033565b846141fb565b6142bd565b60008082136140585760405163309fa7dd60e11b815260048101839052602401610f69565b6000670de0b6b3a764000083126140715750600161408b565b6000199050826ec097ce7bc90715b34b9f10000000000492505b60006140a0670de0b6b3a76400008505614353565b670de0b6b3a7640000808202945090915084821d908114156140c457505002919050565b6706f05b59d3b200005b600081131561410957670de0b6b3a7640000828002059150671bc16d674ec800008212614101579384019360019190911d905b60011d6140ce565b50505002919050565b600080826001600160401b03161161416c5760405162461bcd60e51b815260206004820152601b60248201527f4665655574696c3a206e6f20617661696c61626c6520706169727300000000006044820152606401610f69565b61417f6001600160401b0383168461581e565b9050600181116107ce575060016107ce565b60006107ce6103e883615a44565b6000816001600160401b0316836001600160401b031611156141c3576141c3615a73565b826001600160401b03168410156141db575081612c94565b816001600160401b03168411156141f3575080612c94565b509192915050565b6000600160ff1b8314806142125750600160ff1b82145b1561423057604051630d01a11b60e21b815260040160405180910390fd5b600080600085126142415784614246565b846000035b915060008412614256578361425b565b836000035b905060006142698383614432565b90506001600160ff1b038111156142965760405163bf79e8d960e01b815260048101829052602401610f69565b6000198087139086138082186001146142af5782612d55565b505060000395945050505050565b60008082121561430a5768033dd1780914b97114198212156142e157506000919050565b6142ed826000036142bd565b6ec097ce7bc90715b34b9f100000000081613d3a57613d3a615808565b680a688906bd8b00000082126143365760405163e69458f960e01b815260048101839052602401610f69565b670de0b6b3a7640000604083901b04612c94816144f4565b919050565b6000600160801b821061437357608091821c9161437090826154a6565b90505b600160401b821061439157604091821c9161438e90826154a6565b90505b64010000000082106143b057602091821c916143ad90826154a6565b90505b6201000082106143cd57601091821c916143ca90826154a6565b90505b61010082106143e957600891821c916143e690826154a6565b90505b6010821061440457600491821c9161440190826154a6565b90505b6004821061441f57600291821c9161441c90826154a6565b90505b6002821061434e576107ce6001826154a6565b60008080600019848609848602925082811083820303915050670de0b6b3a764000081106144765760405163698d9a0160e11b815260048101829052602401610f69565b600080670de0b6b3a76400008688099150506706f05b59d3b1ffff8111826144b05780670de0b6b3a76400008504019450505050506107ce565b620400008285030493909111909103600160ee1b02919091177faccb18165bd6fe31ae1cf318dc5b51eee0e1ba569b88cd74c1773b91fac106690201905092915050565b600160bf1b6780000000000000008216156145185768016a09e667f3bcc9090260401c5b674000000000000000821615614537576801306fe0a31b7152df0260401c5b672000000000000000821615614556576801172b83c7d517adce0260401c5b6710000000000000008216156145755768010b5586cf9890f62a0260401c5b670800000000000000821615614594576801059b0d31585743ae0260401c5b6704000000000000008216156145b357680102c9a3e778060ee70260401c5b6702000000000000008216156145d25768010163da9fb33356d80260401c5b6701000000000000008216156145f157680100b1afa5abcbed610260401c5b668000000000000082161561460f5768010058c86da1c09ea20260401c5b664000000000000082161561462d576801002c605e2e8cec500260401c5b662000000000000082161561464b57680100162f3904051fa10260401c5b6610000000000000821615614669576801000b175effdc76ba0260401c5b660800000000000082161561468757680100058ba01fb9f96d0260401c5b66040000000000008216156146a55768010002c5cc37da94920260401c5b66020000000000008216156146c3576801000162e525ee05470260401c5b66010000000000008216156146e15768010000b17255775c040260401c5b658000000000008216156146fe576801000058b91b5bc9ae0260401c5b6540000000000082161561471b57680100002c5c89d5ec6d0260401c5b652000000000008216156147385768010000162e43f4f8310260401c5b6510000000000082161561475557680100000b1721bcfc9a0260401c5b650800000000008216156147725768010000058b90cf1e6e0260401c5b6504000000000082161561478f576801000002c5c863b73f0260401c5b650200000000008216156147ac57680100000162e430e5a20260401c5b650100000000008216156147c9576801000000b1721835510260401c5b6480000000008216156147e557680100000058b90c0b490260401c5b6440000000008216156148015768010000002c5c8601cc0260401c5b64200000000082161561481d576801000000162e42fff00260401c5b6410000000008216156148395768010000000b17217fbb0260401c5b640800000000821615614855576801000000058b90bfce0260401c5b64040000000082161561487157680100000002c5c85fe30260401c5b64020000000082161561488d5768010000000162e42ff10260401c5b6401000000008216156148a957680100000000b17217f80260401c5b63800000008216156148c45768010000000058b90bfc0260401c5b63400000008216156148df576801000000002c5c85fe0260401c5b63200000008216156148fa57680100000000162e42ff0260401c5b6310000000821615614915576801000000000b17217f0260401c5b630800000082161561493057680100000000058b90c00260401c5b630400000082161561494b5768010000000002c5c8600260401c5b6302000000821615614966576801000000000162e4300260401c5b63010000008216156149815768010000000000b172180260401c5b6280000082161561499b576801000000000058b90c0260401c5b624000008216156149b557680100000000002c5c860260401c5b622000008216156149cf5768010000000000162e430260401c5b621000008216156149e957680100000000000b17210260401c5b62080000821615614a035768010000000000058b910260401c5b62040000821615614a1d576801000000000002c5c80260401c5b62020000821615614a3757680100000000000162e40260401c5b62010000821615614a51576801000000000000b1720260401c5b618000821615614a6a57680100000000000058b90260401c5b614000821615614a835768010000000000002c5d0260401c5b612000821615614a9c576801000000000000162e0260401c5b611000821615614ab55768010000000000000b170260401c5b610800821615614ace576801000000000000058c0260401c5b610400821615614ae757680100000000000002c60260401c5b610200821615614b0057680100000000000001630260401c5b610100821615614b1957680100000000000000b10260401c5b6080821615614b3157680100000000000000590260401c5b6040821615614b49576801000000000000002c0260401c5b6020821615614b6157680100000000000000160260401c5b6010821615614b79576801000000000000000b0260401c5b6008821615614b9157680100000000000000060260401c5b6004821615614ba957680100000000000000030260401c5b6002821615614bc157680100000000000000010260401c5b6001821615614bd957680100000000000000010260401c5b670de0b6b3a76400000260409190911c60bf031c90565b604051806060016040528060006001600160a01b0316815260200160008152602001600081525090565b828054828255906000526020600020908101928215614c55579160200282015b82811115614c55578251825591602001919060010190614c3a565b50613d67929150614cd1565b6040518060c001604052806000815260200160008152602001600081526020016000815260200160008152602001600081525090565b6040518060800160405280600081526020016000815260200160006001600160a01b0316815260200160006001600160a01b031681525090565b5b80821115613d675760008155600101614cd2565b600060208284031215614cf857600080fd5b81356001600160e01b031981168114612c9457600080fd5b6001600160a01b038116811461261c57600080fd5b60008060008084860360c0811215614d3c57600080fd5b853594506060601f1982011215614d5257600080fd5b506020850192506080850135614d6781614d10565b9396929550929360a00135925050565b600060208284031215614d8957600080fd5b8135612c9481614d10565b60008060208385031215614da757600080fd5b82356001600160401b0380821115614dbe57600080fd5b818501915085601f830112614dd257600080fd5b813581811115614de157600080fd5b8660208260051b8501011115614df657600080fd5b60209290920196919550909350505050565b602080825282518282018190526000919060409081850190868401855b82811015614e53578151805185528601516001600160a01b0316868501529284019290850190600101614e25565b5091979650505050505050565b634e487b7160e01b600052604160045260246000fd5b604051606081016001600160401b0381118282101715614e9857614e98614e60565b60405290565b604051601f8201601f191681016001600160401b0381118282101715614ec657614ec6614e60565b604052919050565b60006001600160401b03821115614ee757614ee7614e60565b5060051b60200190565b600082601f830112614f0257600080fd5b81356020614f17614f1283614ece565b614e9e565b82815260059290921b84018101918181019086841115614f3657600080fd5b8286015b84811015614f515780358352918301918301614f3a565b509695505050505050565b600060208284031215614f6e57600080fd5b81356001600160401b03811115614f8457600080fd5b61107a84828501614ef1565b6000604082018483526020604081850152818551808452606086019150828701935060005b81811015614fd157845183529383019391830191600101614fb5565b5090979650505050505050565b60008060408385031215614ff157600080fd5b8235614ffc81614d10565b946020939093013593505050565b60006060828403121561501c57600080fd5b615024614e76565b9050813561503181614d10565b80825250602082013560208201526040820135604082015292915050565b60006060828403121561506157600080fd5b612c94838361500a565b80516001600160a01b0316825260208082015190830152604090810151910152565b6001600160a01b038316815260808101612c94602083018461506b565b600080600060a084860312156150bf57600080fd5b6150c9858561500a565b925060608401356150d981614d10565b929592945050506080919091013590565b600080604083850312156150fd57600080fd5b50508035926020909101359150565b60006020828403121561511e57600080fd5b5035919050565b600082601f83011261513657600080fd5b81356001600160401b0381111561514f5761514f614e60565b615162601f8201601f1916602001614e9e565b81815284602083860101111561517757600080fd5b816020850160208301376000918101602001919091529392505050565b600080600080600060a086880312156151ac57600080fd5b85356151b781614d10565b945060208601356151c781614d10565b935060408601356001600160401b03808211156151e357600080fd5b6151ef89838a01614ef1565b9450606088013591508082111561520557600080fd5b61521189838a01614ef1565b9350608088013591508082111561522757600080fd5b5061523488828901615125565b9150509295509295909350565b6020808252825182820181905260009190848201906040850190845b818110156152825783516001600160a01b03168352928401929184019160010161525d565b50909695505050505050565b600080600080608085870312156152a457600080fd5b84356152af81614d10565b935060208501356152bf81614d10565b93969395505050506040820135916060013590565b600080600080600060a086880312156152ec57600080fd5b85356152f781614d10565b9450602086013561530781614d10565b9350604086013592506060860135915060808601356001600160401b0381111561533057600080fd5b61523488828901615125565b600081830360c081121561534f57600080fd5b615357614e76565b915082518252602083015160208301526080603f198201121561537957600080fd5b50604051608081018181106001600160401b038211171561539c5761539c614e60565b604090815283015181526060830151602082015260808301516153be81614d10565b604082015260a08301516153d181614d10565b6060820152604082015292915050565b600060208083850312156153f457600080fd5b82516001600160401b0381111561540a57600080fd5b8301601f8101851361541b57600080fd5b8051615429614f1282614ece565b81815260c0918202830184019184820191908884111561544857600080fd5b938501935b8385101561546e5761545f898661533c565b8352938401939185019161544d565b50979650505050505050565b634e487b7160e01b600052603260045260246000fd5b634e487b7160e01b600052601160045260246000fd5b600082198211156154b9576154b9615490565b500190565b60006000198214156154d2576154d2615490565b5060010190565b6001600160a01b03929092168252602082015260400190565b600060c0828403121561550457600080fd5b612c94838361533c565b80518252602080820151908301526040808201516001600160a01b039081169184019190915260609182015116910152565b608081016107ce828461550e565b60005b83811015615569578181015183820152602001615551565b838111156107f85750506000910152565b60018060a01b038516815283602082015282604082015260806060820152600082518060808401526155b38160a085016020870161554e565b601f01601f19169190910160a00195945050505050565b6000602082840312156155dc57600080fd5b5051919050565b6000602082840312156155f557600080fd5b81518015158114612c9457600080fd5b60006020828403121561561757600080fd5b8151612c9481614d10565b600181815b8085111561565d57816000190482111561564357615643615490565b8085161561565057918102915b93841c9390800290615627565b509250929050565b600082615674575060016107ce565b81615681575060006107ce565b816001811461569757600281146156a1576156bd565b60019150506107ce565b60ff8411156156b2576156b2615490565b50506001821b6107ce565b5060208310610133831016604e8410600b84101617156156e0575081810a6107ce565b6156ea8383615622565b80600019048211156156fe576156fe615490565b029392505050565b6000612c948383615665565b600081600019048311821515161561572c5761572c615490565b500290565b60008282101561574357615743615490565b500390565b60808101615756828561506b565b6001600160a01b039290921660609190910152919050565b6000806040838503121561578157600080fd5b505080516020909101519092909150565b600061010082019050845182526020850151602083015260408501516157bb604084018261550e565b5060c08201939093526001600160a01b039190911660e090910152919050565b60008060e083850312156157ee57600080fd5b6157f8848461533c565b915060c083015190509250929050565b634e487b7160e01b600052601260045260246000fd5b60008261582d5761582d615808565b500490565b606081016107ce828461506b565b6001600160a01b0387811682528681166020830152610100820190615868604084018861506b565b9490941660a082015260c081019290925260e0909101529392505050565b60008083128015600160ff1b8501841216156158a4576158a4615490565b6001600160ff1b03840183138116156158bf576158bf615490565b50500390565b60006001600160ff1b03818413828413808216868404861116156158eb576158eb615490565b600160ff1b600087128281168783058912161561590a5761590a615490565b6000871292508782058712848416161561592657615926615490565b8785058712818416161561593c5761593c615490565b505050929093029392505050565b60008261595957615959615808565b600160ff1b82146000198414161561597357615973615490565b500590565b6001600160a01b0394851681529290931660208301526040820152606081019190915260a06080820181905260009082015260c00190565b600082516159c281846020870161554e565b9190910192915050565b60006001600160401b038083168185168083038211156159ee576159ee615490565b01949350505050565b60006001600160401b0380841680615a1157615a11615808565b92169190910492915050565b60006001600160401b0380831681811415615a3a57615a3a615490565b6001019392505050565b60006001600160401b0380831681851681830481118215151615615a6a57615a6a615490565b02949350505050565b634e487b7160e01b600052600160045260246000fdfea2646970667358221220a948cb7aa10a43fb328385f6d8792d46dc7d31dbbc82ab6d461ea01081f5294b64736f6c63430008090033",
  "libraries": {
    "DeployPair": "0x5A765566fCA9d6380F505549B797FE3E6Dd6B687",
    "DeployBasePair": "0x5A6f2C725291A4554630a157A6CAFC602eFB9476",
    "DeployEduPair": "0x2d3F3C7632622aB64e6010d369e1beAf1f524852",
    "DeployGovernance": "0x6519E11cBF0D48bbF29BB2f4Fb553e28AE44850F"
  },
  "devdoc": {
    "kind": "dev",
    "methods": {
      "addLiquidity((address,uint256,uint256))": {
        "params": {
          "wholePayment": "Payment details for adding liquidity."
        }
      },
      "basePairAddr()": {
        "returns": {
          "_0": "Returns the basePair address."
        }
      },
      "claimRewards(uint256[])": {
        "params": {
          "nonces": "The desired SFTs to claim from."
        }
      },
      "computeFeePercent(address,uint256)": {
        "details": "The more a pair is sold, the higher the feePercent. This is computed based on the pair's sales relative to the provided liquidity in other pairs.",
        "params": {
          "inAmount": "The input amount for which the feePercent is being computed.",
          "pairAddress": "The address of the pair for which the feePercent is being computed."
        },
        "returns": {
          "feePercent": "The computed feePercent based on the input amount and the pair's sales."
        }
      },
      "createPair((address,uint256,uint256))": {
        "details": "The first pair becomes the base pair -- For now, called by only owner..when DAO is implemented, DAO can call this",
        "returns": {
          "pairAddress": "Address of the newly created pair."
        }
      },
      "estimateOutAmount(address,address,uint256,uint256)": {
        "details": "The function calculates the amount of output tokens after applying the dynamic fee and slippage.",
        "params": {
          "inAmount": "The amount of input tokens.",
          "inPair": "The address of the input pair.",
          "outPair": "The address of the output pair.",
          "slippage": "The maximum allowable slippage percentage (e.g., 50 for 0.5%)."
        },
        "returns": {
          "amountOut": "The estimated amount of output tokens."
        }
      },
      "getAllPairs()": {
        "returns": {
          "_0": "Array of pair addresses."
        }
      },
      "getClaimableRewardsByNonces(uint256[])": {
        "params": {
          "nonces": "Array of nonces to compute claimable rewards for."
        },
        "returns": {
          "totalClaimable": "Total claimable rewards for all provided nonces."
        }
      },
      "getReferrals(address)": {
        "params": {
          "userAddress": "The address of the user."
        },
        "returns": {
          "_0": "referrals An array of `ReferralInfo` structs representing the user's referrals."
        }
      },
      "getReferrer(address)": {
        "params": {
          "userAddress": "The address of the user."
        },
        "returns": {
          "referrerAddress": "The address of the referrer, address(0) if none.",
          "referrerId": "The ID of the referrer, 0 if none."
        }
      },
      "getUserId(address)": {
        "params": {
          "userAddress": "The address of the user."
        },
        "returns": {
          "userId": "The ID of the user."
        }
      },
      "owner()": {
        "details": "Returns the address of the current owner."
      },
      "pairsCount()": {
        "returns": {
          "_0": "count the total count of listed pairs."
        }
      },
      "removeLiquidity(uint256,uint256)": {
        "params": {
          "liqRemoval": "The amount of LP tokens to burn.",
          "nonce": "The SFT nonce representing the LP tokens to burn."
        }
      },
      "renounceOwnership()": {
        "details": "Leaves the contract without owner. It will not be possible to call `onlyOwner` functions anymore. Can only be called by the current owner. NOTE: Renouncing ownership will leave the contract without an owner, thereby removing any functionality that is only available to the owner."
      },
      "supportsInterface(bytes4)": {
        "details": "See {IERC165-supportsInterface}."
      },
      "swap((address,uint256,uint256),address,uint256)": {
        "params": {
          "inPayment": "Payment details for the trade.",
          "outPairAddr": "Address of the output pair.",
          "slippage": "Maximum slippage allowed."
        }
      },
      "tradeableTokens()": {
        "returns": {
          "_0": "Array of pair addresses."
        }
      },
      "transferOwnership(address)": {
        "details": "Transfers ownership of the contract to a new account (`newOwner`). Can only be called by the current owner."
      }
    },
    "version": 1
  },
  "userdoc": {
    "errors": {
      "PRBMathSD59x18__Exp2InputTooBig(int256)": [
        {
          "notice": "Emitted when the input is greater than 192."
        }
      ],
      "PRBMathSD59x18__LogInputTooSmall(int256)": [
        {
          "notice": "Emitted when the input is less than or equal to zero."
        }
      ],
      "PRBMathSD59x18__MulInputTooSmall()": [
        {
          "notice": "Emitted when one of the inputs is MIN_SD59x18."
        }
      ],
      "PRBMathSD59x18__MulOverflow(uint256)": [
        {
          "notice": "Emitted when the intermediary absolute result overflows SD59x18."
        }
      ],
      "PRBMath__MulDivFixedPointOverflow(uint256)": [
        {
          "notice": "Emitted when the result overflows uint256."
        }
      ],
      "ToInt256CastOverflow(uint256)": [
        {
          "notice": "Emitted when trying to convert a uint256 number that doesn't fit within int256."
        }
      ],
      "ToUint256CastOverflow(int256)": [
        {
          "notice": "Emitted when trying to convert an int256 number that doesn't fit within uint256."
        }
      ]
    },
    "kind": "user",
    "methods": {
      "addLiquidity((address,uint256,uint256))": {
        "notice": "Adds liquidity to a pair."
      },
      "claimRewards(uint256[])": {
        "notice": "Claims rewards for a user across all pairs in which they hold LP tokens."
      },
      "computeFeePercent(address,uint256)": {
        "notice": "Computes the feePercent based on the pair's sales against the liquidity provided in other pairs."
      },
      "createPair((address,uint256,uint256))": {
        "notice": "Creates a new pair."
      },
      "estimateOutAmount(address,address,uint256,uint256)": {
        "notice": "Estimates the amount of output tokens to receive for a given input amount, considering slippage."
      },
      "getAllPairs()": {
        "notice": "Returns the list of all pairs."
      },
      "getClaimableRewardsByNonces(uint256[])": {
        "notice": "Computes claimable rewards for a list of nonces."
      },
      "getReferrals(address)": {
        "notice": "Retrieves the referrals of a user."
      },
      "getReferrer(address)": {
        "notice": "Gets the referrer and referrer ID of a user."
      },
      "getUserId(address)": {
        "notice": "Gets the user ID for a given address."
      },
      "removeLiquidity(uint256,uint256)": {
        "notice": "Removes liquidity from a pair and claims the corresponding rewards."
      },
      "swap((address,uint256,uint256),address,uint256)": {
        "notice": "Executes a trade between two pairs."
      },
      "tradeableTokens()": {
        "notice": "Returns the list of all trade token addreses."
      }
    },
    "version": 1
  },
  "storageLayout": {
    "storage": [
      {
        "astId": 7,
        "contract": "contracts/router/Router.sol:Router",
        "label": "_owner",
        "offset": 0,
        "slot": "0",
        "type": "t_address"
      },
      {
        "astId": 12377,
        "contract": "contracts/router/Router.sol:Router",
        "label": "userCount",
        "offset": 0,
        "slot": "1",
        "type": "t_uint256"
      },
      {
        "astId": 12382,
        "contract": "contracts/router/Router.sol:Router",
        "label": "users",
        "offset": 0,
        "slot": "2",
        "type": "t_mapping(t_address,t_struct(User)12375_storage)"
      },
      {
        "astId": 12386,
        "contract": "contracts/router/Router.sol:Router",
        "label": "userIdToAddress",
        "offset": 0,
        "slot": "3",
        "type": "t_mapping(t_uint256,t_address)"
      },
      {
        "astId": 10405,
        "contract": "contracts/router/Router.sol:Router",
        "label": "epochs",
        "offset": 0,
        "slot": "4",
        "type": "t_struct(Storage)3751_storage"
      },
      {
        "astId": 10408,
        "contract": "contracts/router/Router.sol:Router",
        "label": "pairs",
        "offset": 0,
        "slot": "6",
        "type": "t_struct(AddressSet)3123_storage"
      },
      {
        "astId": 10411,
        "contract": "contracts/router/Router.sol:Router",
        "label": "tradeTokens",
        "offset": 0,
        "slot": "8",
        "type": "t_struct(AddressSet)3123_storage"
      },
      {
        "astId": 10413,
        "contract": "contracts/router/Router.sol:Router",
        "label": "_wEduAddress",
        "offset": 0,
        "slot": "10",
        "type": "t_address"
      },
      {
        "astId": 10417,
        "contract": "contracts/router/Router.sol:Router",
        "label": "tokensPairAddress",
        "offset": 0,
        "slot": "11",
        "type": "t_mapping(t_address,t_address)"
      },
      {
        "astId": 10422,
        "contract": "contracts/router/Router.sol:Router",
        "label": "pairsData",
        "offset": 0,
        "slot": "12",
        "type": "t_mapping(t_address,t_struct(PairData)10389_storage)"
      },
      {
        "astId": 10425,
        "contract": "contracts/router/Router.sol:Router",
        "label": "globalData",
        "offset": 0,
        "slot": "13",
        "type": "t_struct(GlobalData)10402_storage"
      },
      {
        "astId": 10431,
        "contract": "contracts/router/Router.sol:Router",
        "label": "governance",
        "offset": 0,
        "slot": "19",
        "type": "t_contract(Governance)7516"
      },
      {
        "astId": 10433,
        "contract": "contracts/router/Router.sol:Router",
        "label": "adexTokenAddress",
        "offset": 0,
        "slot": "20",
        "type": "t_address"
      }
    ],
    "types": {
      "t_address": {
        "encoding": "inplace",
        "label": "address",
        "numberOfBytes": "20"
      },
      "t_array(t_bytes32)dyn_storage": {
        "base": "t_bytes32",
        "encoding": "dynamic_array",
        "label": "bytes32[]",
        "numberOfBytes": "32"
      },
      "t_array(t_uint256)dyn_storage": {
        "base": "t_uint256",
        "encoding": "dynamic_array",
        "label": "uint256[]",
        "numberOfBytes": "32"
      },
      "t_bytes32": {
        "encoding": "inplace",
        "label": "bytes32",
        "numberOfBytes": "32"
      },
      "t_contract(Governance)7516": {
        "encoding": "inplace",
        "label": "contract Governance",
        "numberOfBytes": "20"
      },
      "t_mapping(t_address,t_address)": {
        "encoding": "mapping",
        "key": "t_address",
        "label": "mapping(address => address)",
        "numberOfBytes": "32",
        "value": "t_address"
      },
      "t_mapping(t_address,t_struct(PairData)10389_storage)": {
        "encoding": "mapping",
        "key": "t_address",
        "label": "mapping(address => struct Router.PairData)",
        "numberOfBytes": "32",
        "value": "t_struct(PairData)10389_storage"
      },
      "t_mapping(t_address,t_struct(User)12375_storage)": {
        "encoding": "mapping",
        "key": "t_address",
        "label": "mapping(address => struct UserModule.User)",
        "numberOfBytes": "32",
        "value": "t_struct(User)12375_storage"
      },
      "t_mapping(t_bytes32,t_uint256)": {
        "encoding": "mapping",
        "key": "t_bytes32",
        "label": "mapping(bytes32 => uint256)",
        "numberOfBytes": "32",
        "value": "t_uint256"
      },
      "t_mapping(t_uint256,t_address)": {
        "encoding": "mapping",
        "key": "t_uint256",
        "label": "mapping(uint256 => address)",
        "numberOfBytes": "32",
        "value": "t_address"
      },
      "t_struct(AddressSet)3123_storage": {
        "encoding": "inplace",
        "label": "struct EnumerableSet.AddressSet",
        "members": [
          {
            "astId": 3122,
            "contract": "contracts/router/Router.sol:Router",
            "label": "_inner",
            "offset": 0,
            "slot": "0",
            "type": "t_struct(Set)2808_storage"
          }
        ],
        "numberOfBytes": "64"
      },
      "t_struct(GlobalData)10402_storage": {
        "encoding": "inplace",
        "label": "struct Router.GlobalData",
        "members": [
          {
            "astId": 10391,
            "contract": "contracts/router/Router.sol:Router",
            "label": "rewardsReserve",
            "offset": 0,
            "slot": "0",
            "type": "t_uint256"
          },
          {
            "astId": 10393,
            "contract": "contracts/router/Router.sol:Router",
            "label": "taxRewards",
            "offset": 0,
            "slot": "1",
            "type": "t_uint256"
          },
          {
            "astId": 10395,
            "contract": "contracts/router/Router.sol:Router",
            "label": "rewardsPerShare",
            "offset": 0,
            "slot": "2",
            "type": "t_uint256"
          },
          {
            "astId": 10397,
            "contract": "contracts/router/Router.sol:Router",
            "label": "totalTradeVolume",
            "offset": 0,
            "slot": "3",
            "type": "t_uint256"
          },
          {
            "astId": 10399,
            "contract": "contracts/router/Router.sol:Router",
            "label": "lastTimestamp",
            "offset": 0,
            "slot": "4",
            "type": "t_uint256"
          },
          {
            "astId": 10401,
            "contract": "contracts/router/Router.sol:Router",
            "label": "totalLiq",
            "offset": 0,
            "slot": "5",
            "type": "t_uint256"
          }
        ],
        "numberOfBytes": "192"
      },
      "t_struct(PairData)10389_storage": {
        "encoding": "inplace",
        "label": "struct Router.PairData",
        "members": [
          {
            "astId": 10378,
            "contract": "contracts/router/Router.sol:Router",
            "label": "sellVolume",
            "offset": 0,
            "slot": "0",
            "type": "t_uint256"
          },
          {
            "astId": 10380,
            "contract": "contracts/router/Router.sol:Router",
            "label": "buyVolume",
            "offset": 0,
            "slot": "1",
            "type": "t_uint256"
          },
          {
            "astId": 10382,
            "contract": "contracts/router/Router.sol:Router",
            "label": "lpRewardsPershare",
            "offset": 0,
            "slot": "2",
            "type": "t_uint256"
          },
          {
            "astId": 10384,
            "contract": "contracts/router/Router.sol:Router",
            "label": "tradeRewardsPershare",
            "offset": 0,
            "slot": "3",
            "type": "t_uint256"
          },
          {
            "astId": 10386,
            "contract": "contracts/router/Router.sol:Router",
            "label": "totalLiq",
            "offset": 0,
            "slot": "4",
            "type": "t_uint256"
          },
          {
            "astId": 10388,
            "contract": "contracts/router/Router.sol:Router",
            "label": "rewardsReserve",
            "offset": 0,
            "slot": "5",
            "type": "t_uint256"
          }
        ],
        "numberOfBytes": "192"
      },
      "t_struct(Set)2808_storage": {
        "encoding": "inplace",
        "label": "struct EnumerableSet.Set",
        "members": [
          {
            "astId": 2803,
            "contract": "contracts/router/Router.sol:Router",
            "label": "_values",
            "offset": 0,
            "slot": "0",
            "type": "t_array(t_bytes32)dyn_storage"
          },
          {
            "astId": 2807,
            "contract": "contracts/router/Router.sol:Router",
            "label": "_indexes",
            "offset": 0,
            "slot": "1",
            "type": "t_mapping(t_bytes32,t_uint256)"
          }
        ],
        "numberOfBytes": "64"
      },
      "t_struct(Storage)3751_storage": {
        "encoding": "inplace",
        "label": "struct Epochs.Storage",
        "members": [
          {
            "astId": 3748,
            "contract": "contracts/router/Router.sol:Router",
            "label": "genesis",
            "offset": 0,
            "slot": "0",
            "type": "t_uint256"
          },
          {
            "astId": 3750,
            "contract": "contracts/router/Router.sol:Router",
            "label": "epochLength",
            "offset": 0,
            "slot": "1",
            "type": "t_uint256"
          }
        ],
        "numberOfBytes": "64"
      },
      "t_struct(User)12375_storage": {
        "encoding": "inplace",
        "label": "struct UserModule.User",
        "members": [
          {
            "astId": 12367,
            "contract": "contracts/router/Router.sol:Router",
            "label": "id",
            "offset": 0,
            "slot": "0",
            "type": "t_uint256"
          },
          {
            "astId": 12369,
            "contract": "contracts/router/Router.sol:Router",
            "label": "addr",
            "offset": 0,
            "slot": "1",
            "type": "t_address"
          },
          {
            "astId": 12371,
            "contract": "contracts/router/Router.sol:Router",
            "label": "referrerId",
            "offset": 0,
            "slot": "2",
            "type": "t_uint256"
          },
          {
            "astId": 12374,
            "contract": "contracts/router/Router.sol:Router",
            "label": "referrals",
            "offset": 0,
            "slot": "3",
            "type": "t_array(t_uint256)dyn_storage"
          }
        ],
        "numberOfBytes": "128"
      },
      "t_uint256": {
        "encoding": "inplace",
        "label": "uint256",
        "numberOfBytes": "32"
      }
    }
  }
}