{
  "address": "0x983DD2F808b583433eAD7ba0953Ca73de253B276",
  "abi": [
    {
      "inputs": [],
      "stateMutability": "nonpayable",
      "type": "constructor"
    },
    {
      "inputs": [
        {
          "internalType": "int256",
          "name": "x",
          "type": "int256"
        }
      ],
      "name": "PRBMathSD59x18__Exp2InputTooBig",
      "type": "error"
    },
    {
      "inputs": [
        {
          "internalType": "int256",
          "name": "x",
          "type": "int256"
        }
      ],
      "name": "PRBMathSD59x18__LogInputTooSmall",
      "type": "error"
    },
    {
      "inputs": [],
      "name": "PRBMathSD59x18__MulInputTooSmall",
      "type": "error"
    },
    {
      "inputs": [
        {
          "internalType": "uint256",
          "name": "rAbs",
          "type": "uint256"
        }
      ],
      "name": "PRBMathSD59x18__MulOverflow",
      "type": "error"
    },
    {
      "inputs": [
        {
          "internalType": "uint256",
          "name": "prod1",
          "type": "uint256"
        }
      ],
      "name": "PRBMath__MulDivFixedPointOverflow",
      "type": "error"
    },
    {
      "inputs": [
        {
          "internalType": "uint256",
          "name": "number",
          "type": "uint256"
        }
      ],
      "name": "ToInt256CastOverflow",
      "type": "error"
    },
    {
      "inputs": [
        {
          "internalType": "int256",
          "name": "number",
          "type": "int256"
        }
      ],
      "name": "ToUint256CastOverflow",
      "type": "error"
    },
    {
      "anonymous": false,
      "inputs": [
        {
          "indexed": true,
          "internalType": "address",
          "name": "user",
          "type": "address"
        },
        {
          "indexed": true,
          "internalType": "address",
          "name": "pair",
          "type": "address"
        },
        {
          "indexed": false,
          "internalType": "uint256",
          "name": "liquidityRemoved",
          "type": "uint256"
        },
        {
          "indexed": false,
          "internalType": "uint256",
          "name": "tradeTokenAmount",
          "type": "uint256"
        },
        {
          "indexed": false,
          "internalType": "uint256",
          "name": "baseTokenAmount",
          "type": "uint256"
        }
      ],
      "name": "LiquidityRemoved",
      "type": "event"
    },
    {
      "anonymous": false,
      "inputs": [
        {
          "indexed": true,
          "internalType": "address",
          "name": "previousOwner",
          "type": "address"
        },
        {
          "indexed": true,
          "internalType": "address",
          "name": "newOwner",
          "type": "address"
        }
      ],
      "name": "OwnershipTransferred",
      "type": "event"
    },
    {
      "anonymous": false,
      "inputs": [
        {
          "indexed": false,
          "internalType": "uint256",
          "name": "referrerId",
          "type": "uint256"
        },
        {
          "indexed": false,
          "internalType": "uint256",
          "name": "referralId",
          "type": "uint256"
        }
      ],
      "name": "ReferralAdded",
      "type": "event"
    },
    {
      "anonymous": false,
      "inputs": [
        {
          "indexed": false,
          "internalType": "uint256",
          "name": "userId",
          "type": "uint256"
        },
        {
          "indexed": false,
          "internalType": "address",
          "name": "userAddress",
          "type": "address"
        },
        {
          "indexed": false,
          "internalType": "uint256",
          "name": "referrerId",
          "type": "uint256"
        }
      ],
      "name": "UserRegistered",
      "type": "event"
    },
    {
      "inputs": [
        {
          "components": [
            {
              "internalType": "address",
              "name": "token",
              "type": "address"
            },
            {
              "internalType": "uint256",
              "name": "amount",
              "type": "uint256"
            },
            {
              "internalType": "uint256",
              "name": "nonce",
              "type": "uint256"
            }
          ],
          "internalType": "struct TokenPayment",
          "name": "wholePayment",
          "type": "tuple"
        }
      ],
      "name": "addLiquidity",
      "outputs": [
        {
          "internalType": "uint256",
          "name": "",
          "type": "uint256"
        }
      ],
      "stateMutability": "payable",
      "type": "function"
    },
    {
      "inputs": [],
      "name": "basePairAddr",
      "outputs": [
        {
          "internalType": "address",
          "name": "",
          "type": "address"
        }
      ],
      "stateMutability": "view",
      "type": "function"
    },
    {
      "inputs": [
        {
          "internalType": "uint256[]",
          "name": "nonces",
          "type": "uint256[]"
        }
      ],
      "name": "claimRewards",
      "outputs": [
        {
          "internalType": "uint256",
          "name": "totalClaimed",
          "type": "uint256"
        },
        {
          "internalType": "uint256[]",
          "name": "newNonces",
          "type": "uint256[]"
        }
      ],
      "stateMutability": "nonpayable",
      "type": "function"
    },
    {
      "inputs": [
        {
          "internalType": "address",
          "name": "pairAddress",
          "type": "address"
        },
        {
          "internalType": "uint256",
          "name": "inAmount",
          "type": "uint256"
        }
      ],
      "name": "computeFeePercent",
      "outputs": [
        {
          "internalType": "uint256",
          "name": "feePercent",
          "type": "uint256"
        }
      ],
      "stateMutability": "view",
      "type": "function"
    },
    {
      "inputs": [
        {
          "components": [
            {
              "internalType": "address",
              "name": "token",
              "type": "address"
            },
            {
              "internalType": "uint256",
              "name": "amount",
              "type": "uint256"
            },
            {
              "internalType": "uint256",
              "name": "nonce",
              "type": "uint256"
            }
          ],
          "internalType": "struct TokenPayment",
          "name": "payment",
          "type": "tuple"
        }
      ],
      "name": "createPair",
      "outputs": [
        {
          "internalType": "address",
          "name": "pairAddress",
          "type": "address"
        },
        {
          "components": [
            {
              "internalType": "address",
              "name": "token",
              "type": "address"
            },
            {
              "internalType": "uint256",
              "name": "amount",
              "type": "uint256"
            },
            {
              "internalType": "uint256",
              "name": "nonce",
              "type": "uint256"
            }
          ],
          "internalType": "struct TokenPayment",
          "name": "lpPayment",
          "type": "tuple"
        }
      ],
      "stateMutability": "payable",
      "type": "function"
    },
    {
      "inputs": [
        {
          "internalType": "address",
          "name": "inPair",
          "type": "address"
        },
        {
          "internalType": "address",
          "name": "outPair",
          "type": "address"
        },
        {
          "internalType": "uint256",
          "name": "inAmount",
          "type": "uint256"
        },
        {
          "internalType": "uint256",
          "name": "slippage",
          "type": "uint256"
        }
      ],
      "name": "estimateOutAmount",
      "outputs": [
        {
          "internalType": "uint256",
          "name": "amountOut",
          "type": "uint256"
        }
      ],
      "stateMutability": "view",
      "type": "function"
    },
    {
      "inputs": [],
      "name": "getAllPairs",
      "outputs": [
        {
          "internalType": "address[]",
          "name": "",
          "type": "address[]"
        }
      ],
      "stateMutability": "view",
      "type": "function"
    },
    {
      "inputs": [
        {
          "internalType": "address",
          "name": "user",
          "type": "address"
        }
      ],
      "name": "getClaimableRewards",
      "outputs": [
        {
          "internalType": "uint256",
          "name": "totalClaimable",
          "type": "uint256"
        }
      ],
      "stateMutability": "view",
      "type": "function"
    },
    {
      "inputs": [
        {
          "internalType": "address",
          "name": "user",
          "type": "address"
        },
        {
          "internalType": "uint256",
          "name": "nonce",
          "type": "uint256"
        }
      ],
      "name": "getClaimableRewardsAt",
      "outputs": [
        {
          "internalType": "uint256",
          "name": "claimable",
          "type": "uint256"
        }
      ],
      "stateMutability": "view",
      "type": "function"
    },
    {
      "inputs": [
        {
          "internalType": "uint256[]",
          "name": "nonces",
          "type": "uint256[]"
        }
      ],
      "name": "getClaimableRewardsByNonces",
      "outputs": [
        {
          "internalType": "uint256",
          "name": "totalClaimable",
          "type": "uint256"
        }
      ],
      "stateMutability": "view",
      "type": "function"
    },
    {
      "inputs": [
        {
          "internalType": "address",
          "name": "userAddress",
          "type": "address"
        }
      ],
      "name": "getReferrer",
      "outputs": [
        {
          "internalType": "uint256",
          "name": "referrerId",
          "type": "uint256"
        },
        {
          "internalType": "address",
          "name": "referrerAddress",
          "type": "address"
        }
      ],
      "stateMutability": "view",
      "type": "function"
    },
    {
      "inputs": [
        {
          "internalType": "address",
          "name": "userAddress",
          "type": "address"
        }
      ],
      "name": "getUserId",
      "outputs": [
        {
          "internalType": "uint256",
          "name": "userId",
          "type": "uint256"
        }
      ],
      "stateMutability": "view",
      "type": "function"
    },
    {
      "inputs": [],
      "name": "getWEDU",
      "outputs": [
        {
          "internalType": "address",
          "name": "",
          "type": "address"
        }
      ],
      "stateMutability": "view",
      "type": "function"
    },
    {
      "inputs": [],
      "name": "globalData",
      "outputs": [
        {
          "internalType": "uint256",
          "name": "rewardsReserve",
          "type": "uint256"
        },
        {
          "internalType": "uint256",
          "name": "taxRewards",
          "type": "uint256"
        },
        {
          "internalType": "uint256",
          "name": "rewardsPerShare",
          "type": "uint256"
        },
        {
          "internalType": "uint256",
          "name": "totalTradeVolume",
          "type": "uint256"
        },
        {
          "internalType": "uint256",
          "name": "lastTimestamp",
          "type": "uint256"
        },
        {
          "internalType": "uint256",
          "name": "totalLiq",
          "type": "uint256"
        }
      ],
      "stateMutability": "view",
      "type": "function"
    },
    {
      "inputs": [],
      "name": "governance",
      "outputs": [
        {
          "internalType": "contract Governance",
          "name": "",
          "type": "address"
        }
      ],
      "stateMutability": "view",
      "type": "function"
    },
    {
      "inputs": [],
      "name": "lpToken",
      "outputs": [
        {
          "internalType": "contract LpToken",
          "name": "",
          "type": "address"
        }
      ],
      "stateMutability": "view",
      "type": "function"
    },
    {
      "inputs": [
        {
          "internalType": "address",
          "name": "",
          "type": "address"
        },
        {
          "internalType": "address",
          "name": "",
          "type": "address"
        },
        {
          "internalType": "uint256[]",
          "name": "",
          "type": "uint256[]"
        },
        {
          "internalType": "uint256[]",
          "name": "",
          "type": "uint256[]"
        },
        {
          "internalType": "bytes",
          "name": "",
          "type": "bytes"
        }
      ],
      "name": "onERC1155BatchReceived",
      "outputs": [
        {
          "internalType": "bytes4",
          "name": "",
          "type": "bytes4"
        }
      ],
      "stateMutability": "nonpayable",
      "type": "function"
    },
    {
      "inputs": [
        {
          "internalType": "address",
          "name": "",
          "type": "address"
        },
        {
          "internalType": "address",
          "name": "",
          "type": "address"
        },
        {
          "internalType": "uint256",
          "name": "",
          "type": "uint256"
        },
        {
          "internalType": "uint256",
          "name": "",
          "type": "uint256"
        },
        {
          "internalType": "bytes",
          "name": "",
          "type": "bytes"
        }
      ],
      "name": "onERC1155Received",
      "outputs": [
        {
          "internalType": "bytes4",
          "name": "",
          "type": "bytes4"
        }
      ],
      "stateMutability": "nonpayable",
      "type": "function"
    },
    {
      "inputs": [],
      "name": "owner",
      "outputs": [
        {
          "internalType": "address",
          "name": "",
          "type": "address"
        }
      ],
      "stateMutability": "view",
      "type": "function"
    },
    {
      "inputs": [],
      "name": "pairsCount",
      "outputs": [
        {
          "internalType": "uint64",
          "name": "",
          "type": "uint64"
        }
      ],
      "stateMutability": "view",
      "type": "function"
    },
    {
      "inputs": [
        {
          "internalType": "address",
          "name": "",
          "type": "address"
        }
      ],
      "name": "pairsData",
      "outputs": [
        {
          "internalType": "uint256",
          "name": "sellVolume",
          "type": "uint256"
        },
        {
          "internalType": "uint256",
          "name": "buyVolume",
          "type": "uint256"
        },
        {
          "internalType": "uint256",
          "name": "lpRewardsPershare",
          "type": "uint256"
        },
        {
          "internalType": "uint256",
          "name": "tradeRewardsPershare",
          "type": "uint256"
        },
        {
          "internalType": "uint256",
          "name": "totalLiq",
          "type": "uint256"
        },
        {
          "internalType": "uint256",
          "name": "rewardsReserve",
          "type": "uint256"
        }
      ],
      "stateMutability": "view",
      "type": "function"
    },
    {
      "inputs": [
        {
          "internalType": "uint256",
          "name": "referrerId",
          "type": "uint256"
        },
        {
          "components": [
            {
              "internalType": "address",
              "name": "token",
              "type": "address"
            },
            {
              "internalType": "uint256",
              "name": "amount",
              "type": "uint256"
            },
            {
              "internalType": "uint256",
              "name": "nonce",
              "type": "uint256"
            }
          ],
          "internalType": "struct TokenPayment",
          "name": "inPayment",
          "type": "tuple"
        },
        {
          "internalType": "address",
          "name": "outPairAddr",
          "type": "address"
        },
        {
          "internalType": "uint256",
          "name": "slippage",
          "type": "uint256"
        }
      ],
      "name": "registerAndSwap",
      "outputs": [],
      "stateMutability": "payable",
      "type": "function"
    },
    {
      "inputs": [
        {
          "internalType": "uint256",
          "name": "nonce",
          "type": "uint256"
        },
        {
          "internalType": "uint256",
          "name": "liqRemoval",
          "type": "uint256"
        }
      ],
      "name": "removeLiquidity",
      "outputs": [],
      "stateMutability": "nonpayable",
      "type": "function"
    },
    {
      "inputs": [],
      "name": "renounceOwnership",
      "outputs": [],
      "stateMutability": "nonpayable",
      "type": "function"
    },
    {
      "inputs": [
        {
          "internalType": "bytes4",
          "name": "interfaceId",
          "type": "bytes4"
        }
      ],
      "name": "supportsInterface",
      "outputs": [
        {
          "internalType": "bool",
          "name": "",
          "type": "bool"
        }
      ],
      "stateMutability": "view",
      "type": "function"
    },
    {
      "inputs": [
        {
          "components": [
            {
              "internalType": "address",
              "name": "token",
              "type": "address"
            },
            {
              "internalType": "uint256",
              "name": "amount",
              "type": "uint256"
            },
            {
              "internalType": "uint256",
              "name": "nonce",
              "type": "uint256"
            }
          ],
          "internalType": "struct TokenPayment",
          "name": "inPayment",
          "type": "tuple"
        },
        {
          "internalType": "address",
          "name": "outPairAddr",
          "type": "address"
        },
        {
          "internalType": "uint256",
          "name": "slippage",
          "type": "uint256"
        }
      ],
      "name": "swap",
      "outputs": [],
      "stateMutability": "payable",
      "type": "function"
    },
    {
      "inputs": [
        {
          "internalType": "address",
          "name": "tokenAddress",
          "type": "address"
        }
      ],
      "name": "tokenIsListed",
      "outputs": [
        {
          "internalType": "bool",
          "name": "",
          "type": "bool"
        }
      ],
      "stateMutability": "view",
      "type": "function"
    },
    {
      "inputs": [
        {
          "internalType": "address",
          "name": "",
          "type": "address"
        }
      ],
      "name": "tokensPairAddress",
      "outputs": [
        {
          "internalType": "address",
          "name": "",
          "type": "address"
        }
      ],
      "stateMutability": "view",
      "type": "function"
    },
    {
      "inputs": [],
      "name": "tradeableTokens",
      "outputs": [
        {
          "internalType": "address[]",
          "name": "",
          "type": "address[]"
        }
      ],
      "stateMutability": "view",
      "type": "function"
    },
    {
      "inputs": [
        {
          "internalType": "address",
          "name": "newOwner",
          "type": "address"
        }
      ],
      "name": "transferOwnership",
      "outputs": [],
      "stateMutability": "nonpayable",
      "type": "function"
    },
    {
      "inputs": [],
      "name": "userCount",
      "outputs": [
        {
          "internalType": "uint256",
          "name": "",
          "type": "uint256"
        }
      ],
      "stateMutability": "view",
      "type": "function"
    },
    {
      "inputs": [
        {
          "internalType": "uint256",
          "name": "",
          "type": "uint256"
        }
      ],
      "name": "userIdToAddress",
      "outputs": [
        {
          "internalType": "address",
          "name": "",
          "type": "address"
        }
      ],
      "stateMutability": "view",
      "type": "function"
    },
    {
      "inputs": [
        {
          "internalType": "address",
          "name": "",
          "type": "address"
        }
      ],
      "name": "users",
      "outputs": [
        {
          "internalType": "uint256",
          "name": "id",
          "type": "uint256"
        },
        {
          "internalType": "address",
          "name": "addr",
          "type": "address"
        },
        {
          "internalType": "uint256",
          "name": "referrerId",
          "type": "uint256"
        }
      ],
      "stateMutability": "view",
      "type": "function"
    }
  ],
  "transactionHash": "0x8d837c0aca03d0633b3bf9d1e78295fc5b1d12b1b555135783c1c5481aad04df",
  "args": [],
  "numDeployments": 5,
  "solcInputHash": "a6fcc9a791278cbba6b985878983ee32",
  "bytecode": "0x60a06040523480156200001157600080fd5b506200001d336200007d565b6200003b620151806004620000cd60201b620024731790919060201c565b60405162000049906200012d565b604051809103906000f08015801562000066573d6000803e3d6000fd5b506001600160a01b0316608052426011556200013b565b600080546001600160a01b038381166001600160a01b0319831681178455604051919092169283917f8be0079c531659141344cd1fd0a4f28419497f9722a3daafe3b4186f6b6457e09190a35050565b4282556001820181905580620001295760405162461bcd60e51b815260206004820152601460248201527f496e76616c69642045706f6368206c656e677468000000000000000000000000604482015260640160405180910390fd5b5050565b612b2d806200594083390190565b6080516157a36200019d6000396000818161038c015281816107ea015281816108d801528181610a0d01528181610af40152818161116a01528181611b4d01528181611cc101528181611e790152818161232e0152612b5a01526157a36000f3fe6080604052600436106101ee5760003560e01c80638aa495831161010d578063bc197c81116100a0578063f23a6e611161006f578063f23a6e61146106cf578063f2445f1e146106fb578063f2fde38b1461071b578063f800ece91461073b578063fce8d3901461075057600080fd5b8063bc197c8114610633578063e58c555e14610678578063e9f162bb1461068d578063f01cb648146106af57600080fd5b8063a87430ba116100dc578063a87430ba14610516578063b169520114610580578063b2a5b4a2146105b6578063b81b2b711461060657600080fd5b80638aa49583146104a55780638da5cb5b146104b85780639027cae1146104d65780639d7de6b3146104f657600080fd5b80635eac6239116101855780637076806b116101545780637076806b14610426578063715018a61461044757806375bb16c01461045c57806382cfd1b81461046f57600080fd5b80635eac62391461034c5780635fcbd2851461037a578063613ce410146103ae57806369ee60d11461040657600080fd5b8063308e401e116101c1578063308e401e146102975780633dab9a86146102b75780634a9fefc7146102d75780635aa6e6751461031457600080fd5b806301ffc9a7146101f3578063020e78b51461022857806307973ccf1461023d5780632b956ff714610261575b600080fd5b3480156101ff57600080fd5b5061021361020e366004614a22565b610765565b60405190151581526020015b60405180910390f35b61023b610236366004614a61565b61079c565b005b34801561024957600080fd5b5061025360015481565b60405190815260200161021f565b34801561026d57600080fd5b5061025361027c366004614ab3565b6001600160a01b031660009081526002602052604090205490565b3480156102a357600080fd5b506102536102b2366004614ab3565b6107c6565b3480156102c357600080fd5b506102536102d2366004614ad0565b6108c8565b3480156102e357600080fd5b506102f76102f2366004614ab3565b6109c8565b604080519283526001600160a01b0390911660208301520161021f565b34801561032057600080fd5b50601354610334906001600160a01b031681565b6040516001600160a01b03909116815260200161021f565b34801561035857600080fd5b5061036c610367366004614c40565b6109fa565b60405161021f929190614c74565b34801561038657600080fd5b506103347f000000000000000000000000000000000000000000000000000000000000000081565b3480156103ba57600080fd5b50600d54600e54600f546010546011546012546103d995949392919086565b604080519687526020870195909552938501929092526060840152608083015260a082015260c00161021f565b34801561041257600080fd5b50610253610421366004614cc2565b610d47565b610439610434366004614d33565b610e50565b60405161021f929190614d71565b34801561045357600080fd5b5061023b611522565b61023b61046a366004614d8e565b611536565b34801561047b57600080fd5b5061033461048a366004614ab3565b600b602052600090815260409020546001600160a01b031681565b6102536104b3366004614d33565b6118f5565b3480156104c457600080fd5b506000546001600160a01b0316610334565b3480156104e257600080fd5b506102136104f1366004614ab3565b611bd7565b34801561050257600080fd5b5061023b610511366004614dce565b611c46565b34801561052257600080fd5b5061055d610531366004614ab3565b60026020819052600091825260409091208054600182015491909201546001600160a01b039091169083565b604080519384526001600160a01b0390921660208401529082015260600161021f565b34801561058c57600080fd5b5061033461059b366004614df0565b6003602052600090815260409020546001600160a01b031681565b3480156105c257600080fd5b506103d96105d1366004614ab3565b600c60205260009081526040902080546001820154600283015460038401546004850154600590950154939492939192909186565b34801561061257600080fd5b5061061b6120a4565b6040516001600160401b03909116815260200161021f565b34801561063f57600080fd5b5061065f61064e366004614e78565b63bc197c8160e01b95945050505050565b6040516001600160e01b0319909116815260200161021f565b34801561068457600080fd5b506103346120b5565b34801561069957600080fd5b506106a2612120565b60405161021f9190614f25565b3480156106bb57600080fd5b506102536106ca366004614f72565b61212c565b3480156106db57600080fd5b5061065f6106ea366004614fb8565b63f23a6e6160e01b95945050505050565b34801561070757600080fd5b50610253610716366004614cc2565b612329565b34801561072757600080fd5b5061023b610736366004614ab3565b6123e1565b34801561074757600080fd5b506106a261245a565b34801561075c57600080fd5b50610334612466565b60006001600160e01b03198216630271189760e51b148061079657506301ffc9a760e01b6001600160e01b03198316145b92915050565b6107a633856124c5565b506107c06107b936859003850185614d33565b8383611536565b50505050565b604051632711999760e21b81526001600160a01b03828116600483015260009182917f00000000000000000000000000000000000000000000000000000000000000001690639c46665c9060240160006040518083038186803b15801561082c57600080fd5b505afa158015610840573d6000803e3d6000fd5b505050506040513d6000823e601f3d908101601f1916820160405261086891908101906150c5565b905060005b81518110156108c157600061089a83838151811061088d5761088d61515e565b6020026020010151612704565b505050905080846108ab919061518a565b93505080806108b9906151a2565b91505061086d565b5050919050565b6000805b828110156109c15760007f00000000000000000000000000000000000000000000000000000000000000006001600160a01b03166326ca8adb338787868181106109185761091861515e565b905060200201356040518363ffffffff1660e01b815260040161093c9291906151bd565b60c06040518083038186803b15801561095457600080fd5b505afa158015610968573d6000803e3d6000fd5b505050506040513d601f19601f8201168201806040525081019061098c91906151d6565b9050600061099982612704565b505050905080846109aa919061518a565b9350505080806109b9906151a2565b9150506108cc565b5092915050565b6001600160a01b0390811660009081526002602081815260408084209092015480845260039091529120549092911690565b60008133825b8451811015610c225760007f00000000000000000000000000000000000000000000000000000000000000006001600160a01b03166326ca8adb84888581518110610a4d57610a4d61515e565b60200260200101516040518363ffffffff1660e01b8152600401610a729291906151bd565b60c06040518083038186803b158015610a8a57600080fd5b505afa158015610a9e573d6000803e3d6000fd5b505050506040513d601f19601f82011682018060405250810190610ac291906151d6565b9050600080600080610ad385612704565b93509350935093506000841115610c0a57610aee848a61518a565b985060007f00000000000000000000000000000000000000000000000000000000000000006001600160a01b031663d8938f26898860000151896020015186604051602001610b3d9190615224565b6040516020818303038152906040526040518563ffffffff1660e01b8152600401610b6b949392919061525e565b602060405180830381600087803b158015610b8557600080fd5b505af1158015610b99573d6000803e3d6000fd5b505050506040513d601f19601f82011682018060405250810190610bbd91906152ae565b905080898881518110610bd257610bd261515e565b6020908102919091018101919091526040808401516001600160a01b03166000908152600c9092529020610c07818686612829565b50505b50505050508080610c1a906151a2565b915050610a00565b5060008311610c785760405162461bcd60e51b815260206004820152601d60248201527f4e6f207265776172647320617661696c61626c6520746f20636c61696d00000060448201526064015b60405180910390fd5b60145460405163a9059cbb60e01b81526001600160a01b039091169063a9059cbb90610caa90849087906004016151bd565b602060405180830381600087803b158015610cc457600080fd5b505af1158015610cd8573d6000803e3d6000fd5b505050506040513d601f19601f82011682018060405250810190610cfc91906152c7565b610d415760405162461bcd60e51b815260206004820152601660248201527514995dd85c99081d1c985b9cd9995c8819985a5b195960521b6044820152606401610c6f565b50915091565b600080610e3c83856001600160a01b031663cd3293de6040518163ffffffff1660e01b815260040160206040518083038186803b158015610d8757600080fd5b505afa158015610d9b573d6000803e3d6000fd5b505050506040513d601f19601f82011682018060405250810190610dbf91906152ae565b610dc7612466565b6001600160a01b031663cd3293de6040518163ffffffff1660e01b815260040160206040518083038186803b158015610dff57600080fd5b505afa158015610e13573d6000803e3d6000fd5b505050506040513d601f19601f82011682018060405250810190610e3791906152ae565b61298e565b9050610e4884826129af565b949350505050565b6000610e5a614966565b6000546001600160a01b0316331480610e7d57506013546001600160a01b031633145b610ed35760405162461bcd60e51b815260206004820152602160248201527f526f757465723a204e6f7420616c6c6f77656420746f206c69737420746f6b656044820152603760f91b6064820152608401610c6f565b82516001600160a01b038082166000908152600b60205260409020541615610f335760405162461bcd60e51b8152602060048201526013602482015272151bdad95b88185b1c9958591e481859191959606a1b6044820152606401610c6f565b6000610f3d6120a4565b6001600160401b03166112765773c78e661324B870Ba4e0fAC0d64A054Fa593D297a63bb3007786040518163ffffffff1660e01b815260040160206040518083038186803b158015610f8e57600080fd5b505af4158015610fa2573d6000803e3d6000fd5b505050506040513d601f19601f82011682018060405250810190610fc691906152e9565b9050806001600160a01b031663d83678ac6040518163ffffffff1660e01b815260040160206040518083038186803b15801561100157600080fd5b505afa158015611015573d6000803e3d6000fd5b505050506040513d601f19601f8201168201806040525081019061103991906152e9565b601480546001600160a01b0383166001600160a01b0319909116811790915590925063a9059cbb6110726000546001600160a01b031690565b61107e6012600a6153ea565b61108b90620f42406153f6565b6110976012600a6153ea565b6110a49062d048506153f6565b6110b5906607fd10d7c82f0b61518a565b6110c16012600a6153ea565b6110cf906301406f406153f6565b6110d99190615415565b6110e39190615415565b6040518363ffffffff1660e01b81526004016111009291906151bd565b602060405180830381600087803b15801561111a57600080fd5b505af115801561112e573d6000803e3d6000fd5b505050506040513d601f19601f8201168201806040525081019061115291906152c7565b50604051630415fa8f60e01b81526001600160a01b037f000000000000000000000000000000000000000000000000000000000000000081166004808401919091529084166024830152546044820152600554606482015273208016c3D94C34c3FBC987D984DbA1A061717B5790630415fa8f9060840160206040518083038186803b1580156111e157600080fd5b505af41580156111f5573d6000803e3d6000fd5b505050506040513d601f19601f8201168201806040525081019061121991906152e9565b601380546001600160a01b0319166001600160a01b0392831617905560408051606081019091526014549091168152602081016112586012600a6153ea565b61126590620f42406153f6565b8152602001600081525094506114c6565b34156113b45773F2Dc2050Fefab5132C49c0D7727abFa56719db18637af9dc7861129e612466565b6040516001600160e01b031960e084901b1681526001600160a01b03909116600482015260240160206040518083038186803b1580156112dd57600080fd5b505af41580156112f1573d6000803e3d6000fd5b505050506040513d601f19601f8201168201806040525081019061131591906152e9565b9050806001600160a01b031663d83678ac6040518163ffffffff1660e01b815260040160206040518083038186803b15801561135057600080fd5b505afa158015611364573d6000803e3d6000fd5b505050506040513d601f19601f8201168201806040525081019061138891906152e9565b600a80546001600160a01b0319166001600160a01b03831617905591506113ad612a75565b94506114c6565b60008560200151116114195760405162461bcd60e51b815260206004820152602860248201527f526f757465723a20496e76616c696420696e697469616c206c697175696469746044820152671e48185b5bdd5b9d60c21b6064820152608401610c6f565b61142285612aa2565b73600700b9e5c161A159dbbDbfCB5e13747eDDDd4563b3af16d383611445612466565b6040516001600160e01b031960e085901b1681526001600160a01b0392831660048201529116602482015260440160206040518083038186803b15801561148b57600080fd5b505af415801561149f573d6000803e3d6000fd5b505050506040513d601f19601f820116820180604052508101906114c391906152e9565b90505b9250826114d4600682612aac565b506114e0600883612aac565b506001600160a01b038281166000908152600b6020526040902080546001600160a01b0319169186169190911790556115198486612ac1565b92505050915091565b61152a612c03565b6115346000612c5d565b565b341561154757611544612cad565b92505b82516001600160a01b039081166000908152600b60205260409020541661156f600682612d3f565b6115bb5760405162461bcd60e51b815260206004820152601c60248201527f526f757465723a20496e7075742070616972206e6f7420666f756e64000000006044820152606401610c6f565b6115c6600684612d3f565b6116125760405162461bcd60e51b815260206004820152601d60248201527f526f757465723a204f75747075742070616972206e6f7420666f756e640000006044820152606401610c6f565b8281600061161e612466565b9050600081905060006116d98960200151856001600160a01b031663cd3293de6040518163ffffffff1660e01b815260040160206040518083038186803b15801561166857600080fd5b505afa15801561167c573d6000803e3d6000fd5b505050506040513d601f19601f820116820180604052508101906116a091906152ae565b846001600160a01b031663cd3293de6040518163ffffffff1660e01b815260040160206040518083038186803b158015610dff57600080fd5b905060006116e6336109c8565b9150506000876001600160a01b031663c398ae4d33848e8b8e6117098f8b6129af565b6040518763ffffffff1660e01b815260040161172a9695949392919061542c565b602060405180830381600087803b15801561174457600080fd5b505af1158015611758573d6000803e3d6000fd5b505050506040513d601f19601f8201168201806040525081019061177c91906152ae565b6001600160a01b0389166000908152600c60205260408120805492935085929091906117a990849061518a565b90915550506001600160a01b038a166000908152600c6020526040812060010180548592906117d990849061518a565b92505081905550600061189082896001600160a01b031663cd3293de6040518163ffffffff1660e01b815260040160206040518083038186803b15801561181f57600080fd5b505afa158015611833573d6000803e3d6000fd5b505050506040513d601f19601f8201168201806040525081019061185791906152ae565b876001600160a01b031663cd3293de6040518163ffffffff1660e01b815260040160206040518083038186803b158015610dff57600080fd5b6001600160a01b0387166000908152600c60205260408120600101805492935083929091906118c090849061518a565b909155506118d09050818561518a565b601080546000906118e290849061518a565b9091555050505050505050505050505050565b600033341561190957611906612cad565b92505b82516001600160a01b038082166000908152600b602052604090205416806119735760405162461bcd60e51b815260206004820152601c60248201527f526f757465723a20496e76616c696420706169722061646472657373000000006044820152606401610c6f565b60008560200151116119d15760405162461bcd60e51b815260206004820152602160248201527f526f757465723a20496e76616c6964206c6971756964697479207061796d656e6044820152601d60fa1b6064820152608401610c6f565b600080826001600160a01b03166327a3d40088876040518363ffffffff1660e01b8152600401611a02929190615472565b6040805180830381600087803b158015611a1b57600080fd5b505af1158015611a2f573d6000803e3d6000fd5b505050506040513d601f19601f82011682018060405250810190611a539190615498565b9150915081600d6005016000828254611a6c919061518a565b90915550506001600160a01b0383166000908152600c60209081526040808320815160c081018352815481526001820154938101939093526002810154918301919091526003810154606083015260048101546080830152600581015460a083015291908190611adb90612d61565b91509150611aea838383612829565b84836004016000828254611afe919061518a565b909155505060028301546040516337e52e1960e21b81526004810191909152602481018690526001600160a01b0387811660448301528881166064830152898116608483015260a482018690527f0000000000000000000000000000000000000000000000000000000000000000169063df94b8649060c401602060405180830381600087803b158015611b9157600080fd5b505af1158015611ba5573d6000803e3d6000fd5b505050506040513d601f19601f82011682018060405250810190611bc991906152ae565b9a9950505050505050505050565b60006001600160a01b038216611c3b5760405162461bcd60e51b815260206004820152602360248201527f526f757465723a20496e76616c696420747261646520746f6b656e206164647260448201526265737360e81b6064820152608401610c6f565b610796600883612d3f565b60008111611ca75760405162461bcd60e51b815260206004820152602860248201527f526f757465723a20416d6f756e74206d7573742062652067726561746572207460448201526768616e207a65726f60c01b6064820152608401610c6f565b6040516326ca8adb60e01b81526000906001600160a01b037f000000000000000000000000000000000000000000000000000000000000000016906326ca8adb90611cf890339087906004016151bd565b60c06040518083038186803b158015611d1057600080fd5b505afa158015611d24573d6000803e3d6000fd5b505050506040513d601f19601f82011682018060405250810190611d4891906151d6565b90508181602001511015611d9e5760405162461bcd60e51b815260206004820152601f60248201527f526f757465723a20496e73756666696369656e74204c502062616c616e6365006044820152606401610c6f565b6040808201518101516001600160a01b0381166000908152600c6020529182209091808080611dcc87612704565b9350935093509350808760400181905250611de8858484612829565b6040516301a5e7dd60e71b815286906000906001600160a01b0383169063d2f3ee8090611e1d908c908e9033906004016154bc565b60e060405180830381600087803b158015611e3757600080fd5b505af1158015611e4b573d6000803e3d6000fd5b505050506040513d601f19601f82011682018060405250810190611e6f9190615505565b809250819a5050507f00000000000000000000000000000000000000000000000000000000000000006001600160a01b031663d8938f26338b600001518c602001518d60400151604051602001611ec69190615224565b6040516020818303038152906040526040518563ffffffff1660e01b8152600401611ef4949392919061525e565b602060405180830381600087803b158015611f0e57600080fd5b505af1158015611f22573d6000803e3d6000fd5b505050506040513d601f19601f82011682018060405250810190611f4691906152ae565b5089876004016000828254611f5b9190615415565b9091555050601280548b9190600090611f75908490615415565b909155505085156120495760145460405163a9059cbb60e01b81526001600160a01b039091169063a9059cbb90611fb29033908a906004016151bd565b602060405180830381600087803b158015611fcc57600080fd5b505af1158015611fe0573d6000803e3d6000fd5b505050506040513d601f19601f8201168201806040525081019061200491906152c7565b6120495760405162461bcd60e51b815260206004820152601660248201527514995dd85c99081d1c985b9cd9995c8819985a5b195960521b6044820152606401610c6f565b604080518b8152602081018390529081018790526001600160a01b0389169033907fbc7d19d505c7ec4db83f3b51f19fb98c4c8a99922e7839d1ee608dfbee29501b9060600160405180910390a35050505050505050505050565b60006120b06006612fcf565b905090565b600a546000906001600160a01b03166121105760405162461bcd60e51b815260206004820181905260248201527f526f757465723a2045445550616972206e6f7420796574206465706c6f7965646044820152606401610c6f565b50600a546001600160a01b031690565b60606120b06008612fd9565b6000612139600686612d3f565b6121855760405162461bcd60e51b815260206004820152601c60248201527f526f757465723a20496e7075742070616972206e6f7420666f756e64000000006044820152606401610c6f565b612190600685612d3f565b6121dc5760405162461bcd60e51b815260206004820152601d60248201527f526f757465723a204f75747075742070616972206e6f7420666f756e640000006044820152606401610c6f565b600085905060008590506000826001600160a01b031663cd3293de6040518163ffffffff1660e01b815260040160206040518083038186803b15801561222157600080fd5b505afa158015612235573d6000803e3d6000fd5b505050506040513d601f19601f8201168201806040525081019061225991906152ae565b90506000826001600160a01b031663cd3293de6040518163ffffffff1660e01b815260040160206040518083038186803b15801561229657600080fd5b505afa1580156122aa573d6000803e3d6000fd5b505050506040513d601f19601f820116820180604052508101906122ce91906152ae565b905060006122dc8a89610d47565b905060006122ea8989612fe6565b90506122f7818585613008565b965061271061230683896153f6565b6123109190615548565b61231a9088615415565b9b9a5050505050505050505050565b6000807f00000000000000000000000000000000000000000000000000000000000000006001600160a01b03166326ca8adb85856040518363ffffffff1660e01b815260040161237a9291906151bd565b60c06040518083038186803b15801561239257600080fd5b505afa1580156123a6573d6000803e3d6000fd5b505050506040513d601f19601f820116820180604052508101906123ca91906151d6565b90506123d581612704565b50919695505050505050565b6123e9612c03565b6001600160a01b03811661244e5760405162461bcd60e51b815260206004820152602660248201527f4f776e61626c653a206e6577206f776e657220697320746865207a65726f206160448201526564647265737360d01b6064820152608401610c6f565b61245781612c5d565b50565b60606120b06006612fd9565b60006120b060068261301e565b42825560018201819055806124c15760405162461bcd60e51b8152602060048201526014602482015273092dcecc2d8d2c8408ae0dec6d040d8cadccee8d60631b6044820152606401610c6f565b5050565b6001600160a01b0382166000908152600260205260408120541561250257506001600160a01b038216600090815260026020526040902054610796565b60018054906000612512836151a2565b919050555060405180608001604052806001548152602001846001600160a01b0316815260200183815260200160016001600160401b0381111561255857612558614b44565b604051908082528060200260200182016040528015612581578160200160208202803683370190505b5090526001600160a01b0384811660009081526002602081815260409283902085518155858201516001820180546001600160a01b03191691909616179094559184015190830155606083015180516125e09260038501920190614990565b5050600154600090815260036020526040902080546001600160a01b0319166001600160a01b03861617905550811580159061263257506000828152600360205260409020546001600160a01b031615155b156126af576000828152600360208181526040808420546001600160a01b0316845260028252808420600180549190940180548086018255908652948390209094019390935590548251858152918201527fa8b1f3acfefae9dbf6c7ffd8c16eda5db6950c383b34ca999d98f9998721c50c910160405180910390a15b600154604080519182526001600160a01b038516602083015281018390527fb58d46e66658e855773af8232237e606476d7f0ad98813c081b540e6f435ea3e9060600160405180910390a15060015492915050565b600061270e6149d7565b6127166149d7565b60408051608081018252600080825260208201819052918101829052606081019190915284604001519050600c600082604001516001600160a01b03166001600160a01b031681526020019081526020016000206040518060c0016040529081600082015481526020016001820154815260200160028201548152602001600382015481526020016004820154815260200160058201548152505092506127bc83612d61565b60408201518351929550909350111561282257602085015181516040850151670de0b6b3a764000092916127ef91615415565b6127f991906153f6565b6128039190615548565b9350838360a0018181516128179190615415565b905250604083015181525b9193509193565b604080830151600285015560a080840151600586015560608085015160038701558351600d556020840151600e81905592840151600f55830151601055608083015160115582015160125580156107c0576000600e5560145460135460405163095ea7b360e01b81526001600160a01b039283169263095ea7b3926128b59291169085906004016151bd565b602060405180830381600087803b1580156128cf57600080fd5b505af11580156128e3573d6000803e3d6000fd5b505050506040513d601f19601f8201168201806040525081019061290791906152c7565b50601354604080516060810182526014546001600160a01b039081168252602082018590526000828401529151630b0bf5df60e31b8152919092169163585faef891612956919060040161555c565b600060405180830381600087803b15801561297057600080fd5b505af1158015612984573d6000803e3d6000fd5b5050505050505050565b60008261299b83866153f6565b6129a59190615548565b90505b9392505050565b6001600160a01b0382166000908152600c60209081526040808320815160c081018352815480825260018301549482019490945260028201549281019290925260038101546060830152600481015460808301526005015460a0820152908290612a1a90859061518a565b60208301519091506000818311612a32576000612a3c565b612a3c8284615415565b905060008460800151600d60050154612a559190615415565b9050612a698282612a646120a4565b61302a565b98975050505050505050565b612a7d614966565b612a856120b5565b6001600160a01b03168152346020820152612a9f81612aa2565b90565b61245781336130a2565b60006129a8836001600160a01b0384166132e5565b612ac9614966565b612ad38284613334565b604051638aa4958360e01b81523090638aa4958390612af690859060040161555c565b602060405180830381600087803b158015612b1057600080fd5b505af1158015612b24573d6000803e3d6000fd5b505050506040513d601f19601f82011682018060405250810190612b4891906152ae565b60408083018290526001600160a01b037f00000000000000000000000000000000000000000000000000000000000000001680845290516326ca8adb60e01b815290916326ca8adb91612b9f9130916004016151bd565b60c06040518083038186803b158015612bb757600080fd5b505afa158015612bcb573d6000803e3d6000fd5b505050506040513d601f19601f82011682018060405250810190612bef91906151d6565b6020908101519082015261079681336133aa565b6000546001600160a01b031633146115345760405162461bcd60e51b815260206004820181905260248201527f4f776e61626c653a2063616c6c6572206973206e6f7420746865206f776e65726044820152606401610c6f565b600080546001600160a01b038381166001600160a01b0319831681178455604051919092169283917f8be0079c531659141344cd1fd0a4f28419497f9722a3daafe3b4186f6b6457e09190a35050565b612cb5614966565b612cbd6120b5565b6001600160a01b039081168083523460208085018290526000838152600b90915260409081902054905163f1adc25160e01b815233600482015293166024840152909163f1adc25191906044016000604051808303818588803b158015612d2357600080fd5b505af1158015612d37573d6000803e3d6000fd5b505050505090565b6001600160a01b038116600090815260018301602052604081205415156129a8565b612d696149d7565b612d716149d7565b50506040805160c081018252600d548152600e546020820152600f549181019190915260105460608201526011546080820181905260125460a083015282919042908181108015612dc3575060105415155b15612ef4576000612dd5600483613606565b90506000612de48284866136f7565b90506000612df260046137eb565b905082811115612e585760006001612e0a8584615415565b612e149190615415565b90506001811115612e3f57612e3284612e2d838261518a565b6137f7565b612e3c908461518a565b92505b612e4a8286886136f7565b612e54908461518a565b9250505b6000612e7c6103e8612e6b85604b6153f6565b612e759190615548565b84906138b2565b6010549194509150600090612e99670de0b6b3a7640000866153f6565b612ea39190615548565b608089018890526040890180519192508291612ec090839061518a565b905250875184908990612ed490839061518a565b905250602088018051839190612eeb90839061518a565b90525050505050505b826040015184606001511015612fc857602084015115612fbd576000670de0b6b3a7640000856020015186606001518660400151612f329190615415565b612f3c91906153f6565b612f469190615548565b90508084600001818151612f5a9190615415565b90525060a085018051829190612f7190839061518a565b905250608085015115612fbb576080850151600090612f98670de0b6b3a7640000846153f6565b612fa29190615548565b90508086604001818151612fb6919061518a565b905250505b505b604083015160608501525b5050915091565b6000610796825490565b606060006129a883613910565b6000612710612ff48361396c565b612ffe90856153f6565b6129a89190615548565b60006129a584613018818661518a565b8461298e565b60006129a883836139d0565b6000806130388585856139fa565b9050600080600080613053856001600160401b031688613a3e565b9350935093509350613095846001600160401b0316846001600160401b0316876001600160401b0316856001600160401b0316856001600160401b0316613b53565b9998505050505050505050565b34156131d457348260200151146131065760405162461bcd60e51b815260206004820152602260248201527f546f6b656e5061796d656e74733a2045544820616d6f756e74206d69736d61746044820152610c6d60f31b6064820152608401610c6f565b6001600160a01b03811633146131785760405162461bcd60e51b815260206004820152603160248201527f546f6b656e5061796d656e74733a204e6174697665207061796d656e74206d7560448201527039ba10313290333937b69031b0b63632b960791b6064820152608401610c6f565b81600001516001600160a01b031663d0e30db0346040518263ffffffff1660e01b81526004016000604051808303818588803b1580156131b757600080fd5b505af11580156131cb573d6000803e3d6000fd5b50505050505050565b604082015161327357815160208301516040516323b872dd60e01b81526001600160a01b03848116600483015230602483015260448201929092529116906323b872dd906064015b602060405180830381600087803b15801561323657600080fd5b505af115801561324a573d6000803e3d6000fd5b505050506040513d601f19601f8201168201806040525081019061326e91906152c7565b505050565b815160408084015160208501519151637921219560e11b81526001600160a01b039093169263f242432a926132af92869230929060040161556a565b600060405180830381600087803b1580156132c957600080fd5b505af11580156132dd573d6000803e3d6000fd5b505050505050565b600081815260018301602052604081205461332c57508154600181810184556000848152602080822090930184905584548482528286019093526040902091909155610796565b506000610796565b6040820151613372578151602083015160405163095ea7b360e01b81526001600160a01b039092169163095ea7b39161321c918591906004016151bd565b815160405163a22cb46560e01b81526001600160a01b038381166004830152600160248301529091169063a22cb465906044016132af565b604082015161358c5760006001600160a01b0382163b6134c6578251602084015160405147926001600160a01b0316916133ea9160240190815260200190565b60408051601f198184030181529181526020820180516001600160e01b0316632e1a7d4d60e01b1790525161341f91906155a2565b6000604051808303816000865af19150503d806000811461345c576040519150601f19603f3d011682016040523d82523d6000602084013e613461565b606091505b509092505081156134c4574784602001518261347d919061518a565b146134c45760405162461bcd60e51b81526020600482015260176024820152764661696c656420746f207769746864726177205745445560481b6044820152606401610c6f565b505b80156135055760208301516040516001600160a01b0384169180156108fc02916000818181858888f193505050501580156107c0573d6000803e3d6000fd5b8251602084015160405163a9059cbb60e01b81526001600160a01b039092169163a9059cbb9161353a918691906004016151bd565b602060405180830381600087803b15801561355457600080fd5b505af1158015613568573d6000803e3d6000fd5b505050506040513d601f19601f820116820180604052508101906107c091906152c7565b60408201516135ca578151602083015160405163a9059cbb60e01b81526001600160a01b039092169163a9059cbb9161321c918591906004016151bd565b815160408084015160208501519151637921219560e11b81526001600160a01b039093169263f242432a926132af92309287929060040161556a565b81546000906136575760405162461bcd60e51b815260206004820152601960248201527f496e76616c69642067656e657369732074696d657374616d70000000000000006044820152606401610c6f565b6000821161369b5760405162461bcd60e51b81526020600482015260116024820152700496e76616c69642074696d657374616d7607c1b6044820152606401610c6f565b60008360010154116136e65760405162461bcd60e51b8152602060048201526014602482015273092dcecc2d8d2c8408ae0dec6d040d8cadccee8d60631b6044820152606401610c6f565b60018301548354612ffe9084615415565b60408051808201909152600454815260055460208201526000908190819061371f9087613c13565b915091506000808584111580156137365750828611155b156137455750849050826137d5565b8684111580156137555750828711155b156137745782861115613768578261376a565b855b91508690506137d5565b60405162461bcd60e51b815260206004820152603060248201527f526f757465722e5f636f6d7075746545646765456d697373696f6e733a20496e60448201526f76616c69642074696d657374616d707360801b6064820152608401610c6f565b612a69886137e38385615415565b600554613c59565b60006107968242613606565b600082821161383e5760405162461bcd60e51b8152602060048201526013602482015272496e76616c69642065706f63682072616e676560681b6044820152606401610c6f565b600061384984613c70565b9050600061385684613c70565b9050600061386b670de000cd866f8000613c9e565b61387583856155be565b613888906893fa92954c28c89b946155fd565b6138929190615682565b90506138a86138a3826000196155fd565b613cd0565b9695505050505050565b600080838311156138fb5760405162461bcd60e51b8152602060048201526013602482015272125b9d985b1a59081d185ad948185b5bdd5b9d606a1b6044820152606401610c6f565b50816139078185615415565b91509250929050565b60608160000180548060200260200160405190810160405280929190818152602001828054801561396057602002820191906000526020600020905b81548152602001906001019080831161394c575b50505050509050919050565b6000600182108061397e575061271082115b156139c45760405162461bcd60e51b8152602060048201526016602482015275496e76616c696420736c6970706167652076616c756560501b6044820152606401610c6f565b61079682612710615415565b60008260000182815481106139e7576139e761515e565b9060005260206000200154905092915050565b600080613a078484613cfa565b613a136103e8876153f6565b613a1d9190615548565b9050613a356001613a2d85613d79565b839190613d87565b95945050505050565b60016103e8600a601e6000613a5286613d79565b905060005b846001600160401b0316881115613b4857613a738560016156b0565b9550613a808360016156b0565b93506001600160401b038116613aa757613a9b6005836156db565b945061012c9250613b36565b806001600160401b031660011415613ac6578194506127109250613b36565b6040805162461bcd60e51b81526020600482015260248101919091527f4665655574696c2e5f676574496e74657256616c7565733a206d61782063616c60448201527f6c20646570746820666f7220696e746572706f6c6174696f6e2076616c7565736064820152608401610c6f565b80613b4081615701565b915050613a57565b505092959194509250565b600085841080613b6257508484115b15613bc05760405162461bcd60e51b815260206004820152602860248201527f4d6174682e6c696e656172496e746572706f6c6174696f6e3a20496e76616c69604482015267642076616c75657360c01b6064820152608401610c6f565b6000613bcc8587615415565b613bd690856153f6565b90506000613be48887615415565b613bee90856153f6565b90506000613bfc8989615415565b905080613c09838561518a565b6130959190615548565b600080836020015183613c2691906153f6565b8451613c32919061518a565b91506001846020015183613c46919061518a565b613c509190615415565b90509250929050565b60008183613c6686613de3565b61299b91906153f6565b6000610796670de000cd866f8000613c8784613e26565b613c9990670de0b6b3a76400006155fd565b613e53565b60006714057b7ef767814f670de0b6b3a7640000613cbb84613e92565b0281613cc957613cc9615532565b0592915050565b600080821215613cf657604051635afb78ad60e11b815260048101839052602401610c6f565b5090565b600080826001600160401b031611613d545760405162461bcd60e51b815260206004820152601b60248201527f4665655574696c3a206e6f20617661696c61626c6520706169727300000000006044820152606401610c6f565b613d676001600160401b03831684615548565b90506001811161079657506001610796565b60006107966103e883615728565b6000816001600160401b0316836001600160401b03161115613dab57613dab615757565b826001600160401b0316841015613dc35750816129a8565b816001600160401b0316841115613ddb5750806129a8565b509192915050565b600080613dfb670de000cd866f8000613c9985613e26565b90506129a8670de0b6b3a7640000613e1c836893fa92954c28c89b946155fd565b6138a39190615682565b60006001600160ff1b03821115613cf65760405163322efb3360e21b815260048101839052602401610c6f565b600082613e78578115613e67576000613e71565b670de0b6b3a76400005b9050610796565b6129a8613e8d613e8785613e92565b84613f71565b614033565b6000808213613eb75760405163309fa7dd60e11b815260048101839052602401610c6f565b6000670de0b6b3a76400008312613ed057506001613eea565b6000199050826ec097ce7bc90715b34b9f10000000000492505b6000613eff670de0b6b3a764000085056140c9565b670de0b6b3a7640000808202945090915084821d90811415613f2357505002919050565b6706f05b59d3b200005b6000811315613f6857670de0b6b3a7640000828002059150671bc16d674ec800008212613f60579384019360019190911d905b60011d613f2d565b50505002919050565b6000600160ff1b831480613f885750600160ff1b82145b15613fa657604051630d01a11b60e21b815260040160405180910390fd5b60008060008512613fb75784613fbc565b846000035b915060008412613fcc5783613fd1565b836000035b90506000613fdf83836141a8565b90506001600160ff1b0381111561400c5760405163bf79e8d960e01b815260048101829052602401610c6f565b6000198087139086138082186001146140255782612a69565b505060000395945050505050565b6000808212156140805768033dd1780914b971141982121561405757506000919050565b61406382600003614033565b6ec097ce7bc90715b34b9f100000000081613cc957613cc9615532565b680a688906bd8b00000082126140ac5760405163e69458f960e01b815260048101839052602401610c6f565b670de0b6b3a7640000604083901b046129a88161426a565b919050565b6000600160801b82106140e957608091821c916140e6908261518a565b90505b600160401b821061410757604091821c91614104908261518a565b90505b640100000000821061412657602091821c91614123908261518a565b90505b62010000821061414357601091821c91614140908261518a565b90505b610100821061415f57600891821c9161415c908261518a565b90505b6010821061417a57600491821c91614177908261518a565b90505b6004821061419557600291821c91614192908261518a565b90505b600282106140c45761079660018261518a565b60008080600019848609848602925082811083820303915050670de0b6b3a764000081106141ec5760405163698d9a0160e11b815260048101829052602401610c6f565b600080670de0b6b3a76400008688099150506706f05b59d3b1ffff8111826142265780670de0b6b3a7640000850401945050505050610796565b620400008285030493909111909103600160ee1b02919091177faccb18165bd6fe31ae1cf318dc5b51eee0e1ba569b88cd74c1773b91fac106690201905092915050565b600160bf1b67800000000000000082161561428e5768016a09e667f3bcc9090260401c5b6740000000000000008216156142ad576801306fe0a31b7152df0260401c5b6720000000000000008216156142cc576801172b83c7d517adce0260401c5b6710000000000000008216156142eb5768010b5586cf9890f62a0260401c5b67080000000000000082161561430a576801059b0d31585743ae0260401c5b67040000000000000082161561432957680102c9a3e778060ee70260401c5b6702000000000000008216156143485768010163da9fb33356d80260401c5b67010000000000000082161561436757680100b1afa5abcbed610260401c5b66800000000000008216156143855768010058c86da1c09ea20260401c5b66400000000000008216156143a3576801002c605e2e8cec500260401c5b66200000000000008216156143c157680100162f3904051fa10260401c5b66100000000000008216156143df576801000b175effdc76ba0260401c5b66080000000000008216156143fd57680100058ba01fb9f96d0260401c5b660400000000000082161561441b5768010002c5cc37da94920260401c5b6602000000000000821615614439576801000162e525ee05470260401c5b66010000000000008216156144575768010000b17255775c040260401c5b65800000000000821615614474576801000058b91b5bc9ae0260401c5b6540000000000082161561449157680100002c5c89d5ec6d0260401c5b652000000000008216156144ae5768010000162e43f4f8310260401c5b651000000000008216156144cb57680100000b1721bcfc9a0260401c5b650800000000008216156144e85768010000058b90cf1e6e0260401c5b65040000000000821615614505576801000002c5c863b73f0260401c5b6502000000000082161561452257680100000162e430e5a20260401c5b6501000000000082161561453f576801000000b1721835510260401c5b64800000000082161561455b57680100000058b90c0b490260401c5b6440000000008216156145775768010000002c5c8601cc0260401c5b642000000000821615614593576801000000162e42fff00260401c5b6410000000008216156145af5768010000000b17217fbb0260401c5b6408000000008216156145cb576801000000058b90bfce0260401c5b6404000000008216156145e757680100000002c5c85fe30260401c5b6402000000008216156146035768010000000162e42ff10260401c5b64010000000082161561461f57680100000000b17217f80260401c5b638000000082161561463a5768010000000058b90bfc0260401c5b6340000000821615614655576801000000002c5c85fe0260401c5b632000000082161561467057680100000000162e42ff0260401c5b631000000082161561468b576801000000000b17217f0260401c5b63080000008216156146a657680100000000058b90c00260401c5b63040000008216156146c15768010000000002c5c8600260401c5b63020000008216156146dc576801000000000162e4300260401c5b63010000008216156146f75768010000000000b172180260401c5b62800000821615614711576801000000000058b90c0260401c5b6240000082161561472b57680100000000002c5c860260401c5b622000008216156147455768010000000000162e430260401c5b6210000082161561475f57680100000000000b17210260401c5b620800008216156147795768010000000000058b910260401c5b62040000821615614793576801000000000002c5c80260401c5b620200008216156147ad57680100000000000162e40260401c5b620100008216156147c7576801000000000000b1720260401c5b6180008216156147e057680100000000000058b90260401c5b6140008216156147f95768010000000000002c5d0260401c5b612000821615614812576801000000000000162e0260401c5b61100082161561482b5768010000000000000b170260401c5b610800821615614844576801000000000000058c0260401c5b61040082161561485d57680100000000000002c60260401c5b61020082161561487657680100000000000001630260401c5b61010082161561488f57680100000000000000b10260401c5b60808216156148a757680100000000000000590260401c5b60408216156148bf576801000000000000002c0260401c5b60208216156148d757680100000000000000160260401c5b60108216156148ef576801000000000000000b0260401c5b600882161561490757680100000000000000060260401c5b600482161561491f57680100000000000000030260401c5b600282161561493757680100000000000000010260401c5b600182161561494f57680100000000000000010260401c5b670de0b6b3a76400000260409190911c60bf031c90565b604051806060016040528060006001600160a01b0316815260200160008152602001600081525090565b8280548282559060005260206000209081019282156149cb579160200282015b828111156149cb5782518255916020019190600101906149b0565b50613cf6929150614a0d565b6040518060c001604052806000815260200160008152602001600081526020016000815260200160008152602001600081525090565b5b80821115613cf65760008155600101614a0e565b600060208284031215614a3457600080fd5b81356001600160e01b0319811681146129a857600080fd5b6001600160a01b038116811461245757600080fd5b60008060008084860360c0811215614a7857600080fd5b853594506060601f1982011215614a8e57600080fd5b506020850192506080850135614aa381614a4c565b9396929550929360a00135925050565b600060208284031215614ac557600080fd5b81356129a881614a4c565b60008060208385031215614ae357600080fd5b82356001600160401b0380821115614afa57600080fd5b818501915085601f830112614b0e57600080fd5b813581811115614b1d57600080fd5b8660208260051b8501011115614b3257600080fd5b60209290920196919550909350505050565b634e487b7160e01b600052604160045260246000fd5b604051606081016001600160401b0381118282101715614b7c57614b7c614b44565b60405290565b604051601f8201601f191681016001600160401b0381118282101715614baa57614baa614b44565b604052919050565b60006001600160401b03821115614bcb57614bcb614b44565b5060051b60200190565b600082601f830112614be657600080fd5b81356020614bfb614bf683614bb2565b614b82565b82815260059290921b84018101918181019086841115614c1a57600080fd5b8286015b84811015614c355780358352918301918301614c1e565b509695505050505050565b600060208284031215614c5257600080fd5b81356001600160401b03811115614c6857600080fd5b610e4884828501614bd5565b6000604082018483526020604081850152818551808452606086019150828701935060005b81811015614cb557845183529383019391830191600101614c99565b5090979650505050505050565b60008060408385031215614cd557600080fd5b8235614ce081614a4c565b946020939093013593505050565b600060608284031215614d0057600080fd5b614d08614b5a565b90508135614d1581614a4c565b80825250602082013560208201526040820135604082015292915050565b600060608284031215614d4557600080fd5b6129a88383614cee565b80516001600160a01b0316825260208082015190830152604090810151910152565b6001600160a01b0383168152608081016129a86020830184614d4f565b600080600060a08486031215614da357600080fd5b614dad8585614cee565b92506060840135614dbd81614a4c565b929592945050506080919091013590565b60008060408385031215614de157600080fd5b50508035926020909101359150565b600060208284031215614e0257600080fd5b5035919050565b600082601f830112614e1a57600080fd5b81356001600160401b03811115614e3357614e33614b44565b614e46601f8201601f1916602001614b82565b818152846020838601011115614e5b57600080fd5b816020850160208301376000918101602001919091529392505050565b600080600080600060a08688031215614e9057600080fd5b8535614e9b81614a4c565b94506020860135614eab81614a4c565b935060408601356001600160401b0380821115614ec757600080fd5b614ed389838a01614bd5565b94506060880135915080821115614ee957600080fd5b614ef589838a01614bd5565b93506080880135915080821115614f0b57600080fd5b50614f1888828901614e09565b9150509295509295909350565b6020808252825182820181905260009190848201906040850190845b81811015614f665783516001600160a01b031683529284019291840191600101614f41565b50909695505050505050565b60008060008060808587031215614f8857600080fd5b8435614f9381614a4c565b93506020850135614fa381614a4c565b93969395505050506040820135916060013590565b600080600080600060a08688031215614fd057600080fd5b8535614fdb81614a4c565b94506020860135614feb81614a4c565b9350604086013592506060860135915060808601356001600160401b0381111561501457600080fd5b614f1888828901614e09565b600081830360c081121561503357600080fd5b61503b614b5a565b915082518252602083015160208301526080603f198201121561505d57600080fd5b50604051608081018181106001600160401b038211171561508057615080614b44565b604090815283015181526060830151602082015260808301516150a281614a4c565b604082015260a08301516150b581614a4c565b6060820152604082015292915050565b600060208083850312156150d857600080fd5b82516001600160401b038111156150ee57600080fd5b8301601f810185136150ff57600080fd5b805161510d614bf682614bb2565b81815260c0918202830184019184820191908884111561512c57600080fd5b938501935b83851015615152576151438986615020565b83529384019391850191615131565b50979650505050505050565b634e487b7160e01b600052603260045260246000fd5b634e487b7160e01b600052601160045260246000fd5b6000821982111561519d5761519d615174565b500190565b60006000198214156151b6576151b6615174565b5060010190565b6001600160a01b03929092168252602082015260400190565b600060c082840312156151e857600080fd5b6129a88383615020565b80518252602080820151908301526040808201516001600160a01b039081169184019190915260609182015116910152565b6080810161079682846151f2565b60005b8381101561524d578181015183820152602001615235565b838111156107c05750506000910152565b60018060a01b038516815283602082015282604082015260806060820152600082518060808401526152978160a0850160208701615232565b601f01601f19169190910160a00195945050505050565b6000602082840312156152c057600080fd5b5051919050565b6000602082840312156152d957600080fd5b815180151581146129a857600080fd5b6000602082840312156152fb57600080fd5b81516129a881614a4c565b600181815b8085111561534157816000190482111561532757615327615174565b8085161561533457918102915b93841c939080029061530b565b509250929050565b60008261535857506001610796565b8161536557506000610796565b816001811461537b5760028114615385576153a1565b6001915050610796565b60ff84111561539657615396615174565b50506001821b610796565b5060208310610133831016604e8410600b84101617156153c4575081810a610796565b6153ce8383615306565b80600019048211156153e2576153e2615174565b029392505050565b60006129a88383615349565b600081600019048311821515161561541057615410615174565b500290565b60008282101561542757615427615174565b500390565b6001600160a01b03878116825286811660208301526101008201906154546040840188614d4f565b9490941660a082015260c081019290925260e0909101529392505050565b608081016154808285614d4f565b6001600160a01b039290921660609190910152919050565b600080604083850312156154ab57600080fd5b505080516020909101519092909150565b600061010082019050845182526020850151602083015260408501516154e560408401826151f2565b5060c08201939093526001600160a01b039190911660e090910152919050565b60008060e0838503121561551857600080fd5b6155228484615020565b915060c083015190509250929050565b634e487b7160e01b600052601260045260246000fd5b60008261555757615557615532565b500490565b606081016107968284614d4f565b6001600160a01b0394851681529290931660208301526040820152606081019190915260a06080820181905260009082015260c00190565b600082516155b4818460208701615232565b9190910192915050565b60008083128015600160ff1b8501841216156155dc576155dc615174565b6001600160ff1b03840183138116156155f7576155f7615174565b50500390565b60006001600160ff1b038184138284138082168684048611161561562357615623615174565b600160ff1b600087128281168783058912161561564257615642615174565b6000871292508782058712848416161561565e5761565e615174565b8785058712818416161561567457615674615174565b505050929093029392505050565b60008261569157615691615532565b600160ff1b8214600019841416156156ab576156ab615174565b500590565b60006001600160401b038083168185168083038211156156d2576156d2615174565b01949350505050565b60006001600160401b03808416806156f5576156f5615532565b92169190910492915050565b60006001600160401b038083168181141561571e5761571e615174565b6001019392505050565b60006001600160401b038083168185168183048111821515161561574e5761574e615174565b02949350505050565b634e487b7160e01b600052600160045260246000fdfea264697066735822122012cdcb99f37abad8ce97b3c5ccf74330619e61d3c790f32af9555961d12d9c2564736f6c6343000809003360806040523480156200001157600080fd5b506040518060400160405280601481526020017f41636164656d792d444558204c5020546f6b656e00000000000000000000000081525060405180604001604052806006815260200165098a082888ab60d31b815250604051806020016040528060008152506200008881620000c860201b60201c565b506200009433620000e1565b8151620000a990600590602085019062000133565b508051620000bf90600690602084019062000133565b50505062000216565b8051620000dd90600290602084019062000133565b5050565b600380546001600160a01b038381166001600160a01b0319831681179093556040519116919082907f8be0079c531659141344cd1fd0a4f28419497f9722a3daafe3b4186f6b6457e090600090a35050565b8280546200014190620001d9565b90600052602060002090601f016020900481019282620001655760008555620001b0565b82601f106200018057805160ff1916838001178555620001b0565b82800160010185558215620001b0579182015b82811115620001b057825182559160200191906001019062000193565b50620001be929150620001c2565b5090565b5b80821115620001be5760008155600101620001c3565b600181811c90821680620001ee57607f821691505b602082108114156200021057634e487b7160e01b600052602260045260246000fd5b50919050565b61290780620002266000396000f3fe608060405234801561001057600080fd5b50600436106101365760003560e01c80636addb663116100b8578063a22cb4651161007c578063a22cb4651461029b578063d8938f26146102ae578063df94b864146102c1578063e985e9c5146102d4578063f242432a14610310578063f2fde38b1461032357600080fd5b80636addb6631461023a578063715018a6146102505780638da5cb5b1461025857806395d89b41146102735780639c46665c1461027b57600080fd5b806326ca8adb116100ff57806326ca8adb146101cc5780632eb2c2d6146101ec5780634e1273f4146102015780634fa3d25d146102145780635124ae951461022757600080fd5b8062fdd58e1461013b57806301049ed01461016157806301ffc9a71461018157806306fdde03146101a45780630e89341c146101b9575b600080fd5b61014e610149366004611da7565b610336565b6040519081526020015b60405180910390f35b61017461016f366004611e1e565b6103cf565b6040516101589190611ed2565b61019461018f366004611efb565b61060a565b6040519015158152602001610158565b6101ac61065a565b6040516101589190611f65565b6101ac6101c7366004611f78565b6106ec565b6101df6101da366004611da7565b610780565b6040516101589190611fe8565b6101ff6101fa36600461213f565b610831565b005b61017461020f3660046121ec565b61087d565b610194610222366004611da7565b6109a6565b6101746102353660046122b8565b6109cf565b6102426109f3565b6040516101589291906122d5565b6101ff610b1a565b6003546040516001600160a01b039091168152602001610158565b6101ac610b2e565b61028e6102893660046122b8565b610b3d565b60405161015891906122fa565b6101ff6102a9366004612348565b610c38565b61014e6102bc366004612386565b610c47565b61014e6102cf3660046123e8565b610c7f565b6101946102e236600461244f565b6001600160a01b03918216600090815260016020908152604080832093909416825291909152205460ff1690565b6101ff61031e36600461247d565b610d58565b6101ff6103313660046122b8565b610d9d565b60006001600160a01b0383166103a65760405162461bcd60e51b815260206004820152602a60248201527f455243313135353a2061646472657373207a65726f206973206e6f742061207660448201526930b634b21037bbb732b960b11b60648201526084015b60405180910390fd5b506000818152602081815260408083206001600160a01b03861684529091529020545b92915050565b6060600184116104215760405162461bcd60e51b815260206004820152601c60248201527f4c70546f6b656e3a2061646472657373657320746f6f2073686f727400000000604482015260640161039d565b83821461047e5760405162461bcd60e51b815260206004820152602560248201527f4c70546f6b656e3a20506f7274696f6e7320616464726573736573206d6973736044820152640dac2e8c6d60db1b606482015260840161039d565b33600061048b8289610780565b905061049c82898360200151610e16565b6000866001600160401b038111156104b6576104b6611ff6565b6040519080825280602002602001820160405280156104df578160200160208202803683370190505b509350600082604001516040516020016104f991906124e5565b604051602081830303815290604052905060005b888110156105a95760008a8a83818110610529576105296124f3565b905060200201602081019061053e91906122b8565b90506000898984818110610554576105546124f3565b9050602002013590508085610569919061251f565b9450610576828286610fab565b888481518110610588576105886124f3565b602002602001018181525050505080806105a190612537565b91505061050d565b50826020015182146105fd5760405162461bcd60e51b815260206004820152601960248201527f4c70546f6b656e3a20496e76616c696420506f7274696f6e7300000000000000604482015260640161039d565b5050505095945050505050565b60006001600160e01b03198216636cdb3d1360e11b148061063b57506001600160e01b031982166303a24d0760e21b145b806103c957506301ffc9a760e01b6001600160e01b03198316146103c9565b60606005805461066990612552565b80601f016020809104026020016040519081016040528092919081815260200182805461069590612552565b80156106e25780601f106106b7576101008083540402835291602001916106e2565b820191906000526020600020905b8154815290600101906020018083116106c557829003601f168201915b5050505050905090565b6060600280546106fb90612552565b80601f016020809104026020016040519081016040528092919081815260200182805461072790612552565b80156107745780601f1061074957610100808354040283529160200191610774565b820191906000526020600020905b81548152906001019060200180831161075757829003601f168201915b50505050509050919050565b610788611c9e565b61079283836109a6565b6107ec5760405162461bcd60e51b815260206004820152602560248201527f4e6f204c702062616c616e636520666f756e64206174206e6f6e636520666f72604482015264103ab9b2b960d91b606482015260840161039d565b60405180606001604052808381526020016108078585610336565b81526020016108158461101c565b806020019051810190610828919061258d565b90529392505050565b6001600160a01b03851633148061084d575061084d85336102e2565b6108695760405162461bcd60e51b815260040161039d90612601565b6108768585858585611039565b5050505050565b606081518351146108e25760405162461bcd60e51b815260206004820152602960248201527f455243313135353a206163636f756e747320616e6420696473206c656e677468604482015268040dad2e6dac2e8c6d60bb1b606482015260840161039d565b600083516001600160401b038111156108fd576108fd611ff6565b604051908082528060200260200182016040528015610926578160200160208202803683370190505b50905060005b845181101561099e5761097185828151811061094a5761094a6124f3565b6020026020010151858381518110610964576109646124f3565b6020026020010151610336565b828281518110610983576109836124f3565b602090810291909101015261099781612537565b905061092c565b509392505050565b6001600160a01b03821660009081526008602052604081206109c89083611224565b9392505050565b6001600160a01b03811660009081526008602052604090206060906103c99061123c565b60608060056006818054610a0690612552565b80601f0160208091040260200160405190810160405280929190818152602001828054610a3290612552565b8015610a7f5780601f10610a5457610100808354040283529160200191610a7f565b820191906000526020600020905b815481529060010190602001808311610a6257829003601f168201915b50505050509150808054610a9290612552565b80601f0160208091040260200160405190810160405280929190818152602001828054610abe90612552565b8015610b0b5780601f10610ae057610100808354040283529160200191610b0b565b820191906000526020600020905b815481529060010190602001808311610aee57829003601f168201915b50505050509050915091509091565b610b22611249565b610b2c60006112a3565b565b60606006805461066990612552565b60606000610b4a836112f5565b9050600081516001600160401b03811115610b6757610b67611ff6565b604051908082528060200260200182016040528015610ba057816020015b610b8d611c9e565b815260200190600190039081610b855790505b50905060005b825181101561099e576000838281518110610bc357610bc36124f3565b60200260200101519050604051806060016040528082600001518152602001826020015181526020018260400151806020019051810190610c04919061258d565b815250838381518110610c1957610c196124f3565b6020026020010181905250508080610c3090612537565b915050610ba6565b610c4333838361149d565b5050565b6000610c51611249565b610c5c858585610e16565b60008311610c6b576000610c76565b610c76858484610fab565b95945050505050565b6000610c89611249565b60008611610ceb5760405162461bcd60e51b815260206004820152602960248201527f4c70546f6b656e3a204c5020416d6f756e74206d75737420626520677265617460448201526806572207468616e20360bc1b606482015260840161039d565b60006040518060800160405280898152602001848152602001876001600160a01b03168152602001866001600160a01b0316815250604051602001610d3091906124e5565b6040516020818303038152906040529050610d4c848883610fab565b98975050505050505050565b6001600160a01b038516331480610d745750610d7485336102e2565b610d905760405162461bcd60e51b815260040161039d90612601565b610876858585858561157e565b610da5611249565b6001600160a01b038116610e0a5760405162461bcd60e51b815260206004820152602660248201527f4f776e61626c653a206e6577206f776e657220697320746865207a65726f206160448201526564647265737360d01b606482015260840161039d565b610e13816112a3565b50565b6001600160a01b038316610e785760405162461bcd60e51b815260206004820152602360248201527f455243313135353a206275726e2066726f6d20746865207a65726f206164647260448201526265737360e81b606482015260840161039d565b336000610e84846116b6565b90506000610e91846116b6565b9050610eb183876000858560405180602001604052806000815250611701565b6000858152602081815260408083206001600160a01b038a16845290915290205484811015610f2e5760405162461bcd60e51b8152602060048201526024808201527f455243313135353a206275726e20616d6f756e7420657863656564732062616c604482015263616e636560e01b606482015260840161039d565b6000868152602081815260408083206001600160a01b038b81168086529184528285208a8703905582518b81529384018a90529092908816917fc3d58168c5ae7397731d063d5bbf3d657854427343f4c083240f7aacaa2d0f62910160405180910390a46040805160208101909152600090525b50505050505050565b6000610fbb600480546001019055565b5060045460008181526007602090815260409091208351610fde92850190611cf9565b50610ffa8482856040518060200160405280600081525061179a565b6001600160a01b038416600090815260086020526040902061099e90826118b4565b60008181526007602052604090208054606091906106fb90612552565b815183511461109b5760405162461bcd60e51b815260206004820152602860248201527f455243313135353a2069647320616e6420616d6f756e7473206c656e677468206044820152670dad2e6dac2e8c6d60c31b606482015260840161039d565b6001600160a01b0384166110c15760405162461bcd60e51b815260040161039d9061264f565b336110d0818787878787611701565b60005b84518110156111b65760008582815181106110f0576110f06124f3565b60200260200101519050600085838151811061110e5761110e6124f3565b602090810291909101810151600084815280835260408082206001600160a01b038e16835290935291909120549091508181101561115e5760405162461bcd60e51b815260040161039d90612694565b6000838152602081815260408083206001600160a01b038e8116855292528083208585039055908b1682528120805484929061119b90849061251f565b92505081905550505050806111af90612537565b90506110d3565b50846001600160a01b0316866001600160a01b0316826001600160a01b03167f4a39dc06d4c0dbc64b70af90fd698a233a518aa5d07e595d983b8c0526c8f7fb87876040516112069291906126de565b60405180910390a461121c8187878787876118c0565b505050505050565b600081815260018301602052604081205415156109c8565b606060006109c883611a2b565b6003546001600160a01b03163314610b2c5760405162461bcd60e51b815260206004820181905260248201527f4f776e61626c653a2063616c6c6572206973206e6f7420746865206f776e6572604482015260640161039d565b600380546001600160a01b038381166001600160a01b0319831681179093556040519116919082907f8be0079c531659141344cd1fd0a4f28419497f9722a3daafe3b4186f6b6457e090600090a35050565b60606000611302836109cf565b9050600081516001600160401b0381111561131f5761131f611ff6565b60405190808252806020026020018201604052801561137457816020015b61136160405180606001604052806000815260200160008152602001606081525090565b81526020019060019003908161133d5790505b50905060005b825181101561099e576000838281518110611397576113976124f3565b6020026020010151905060006007600083815260200190815260200160002080546113c190612552565b80601f01602080910402602001604051908101604052809291908181526020018280546113ed90612552565b801561143a5780601f1061140f5761010080835404028352916020019161143a565b820191906000526020600020905b81548152906001019060200180831161141d57829003601f168201915b50505050509050600061144d8884610336565b905060405180606001604052808481526020018281526020018381525085858151811061147c5761147c6124f3565b6020026020010181905250505050808061149590612537565b91505061137a565b816001600160a01b0316836001600160a01b031614156115115760405162461bcd60e51b815260206004820152602960248201527f455243313135353a2073657474696e6720617070726f76616c20737461747573604482015268103337b91039b2b63360b91b606482015260840161039d565b6001600160a01b03838116600081815260016020908152604080832094871680845294825291829020805460ff191686151590811790915591519182527f17307eab39ab6107e8899845ad3d59bd9653f200f220920489ca2b5937696c31910160405180910390a3505050565b6001600160a01b0384166115a45760405162461bcd60e51b815260040161039d9061264f565b3360006115b0856116b6565b905060006115bd856116b6565b90506115cd838989858589611701565b6000868152602081815260408083206001600160a01b038c1684529091529020548581101561160e5760405162461bcd60e51b815260040161039d90612694565b6000878152602081815260408083206001600160a01b038d8116855292528083208985039055908a1682528120805488929061164b90849061251f565b909155505060408051888152602081018890526001600160a01b03808b16928c821692918816917fc3d58168c5ae7397731d063d5bbf3d657854427343f4c083240f7aacaa2d0f62910160405180910390a46116ab848a8a8a8a8a611a86565b505050505050505050565b604080516001808252818301909252606091600091906020808301908036833701905050905082816000815181106116f0576116f06124f3565b602090810291909101015292915050565b60005b8351811015610fa2576000848281518110611721576117216124f3565b6020026020010151905061176281600860008a6001600160a01b03166001600160a01b03168152602001908152602001600020611b5090919063ffffffff16565b506001600160a01b038616600090815260086020526040902061178590826118b4565b5050808061179290612537565b915050611704565b6001600160a01b0384166117fa5760405162461bcd60e51b815260206004820152602160248201527f455243313135353a206d696e7420746f20746865207a65726f206164647265736044820152607360f81b606482015260840161039d565b336000611806856116b6565b90506000611813856116b6565b905061182483600089858589611701565b6000868152602081815260408083206001600160a01b038b1684529091528120805487929061185490849061251f565b909155505060408051878152602081018790526001600160a01b03808a1692600092918716917fc3d58168c5ae7397731d063d5bbf3d657854427343f4c083240f7aacaa2d0f62910160405180910390a4610fa283600089898989611a86565b60006109c88383611b5c565b6001600160a01b0384163b1561121c5760405163bc197c8160e01b81526001600160a01b0385169063bc197c81906119049089908990889088908890600401612703565b602060405180830381600087803b15801561191e57600080fd5b505af192505050801561194e575060408051601f3d908101601f1916820190925261194b91810190612755565b60015b6119fb5761195a612772565b806308c379a01415611994575061196f61278e565b8061197a5750611996565b8060405162461bcd60e51b815260040161039d9190611f65565b505b60405162461bcd60e51b815260206004820152603460248201527f455243313135353a207472616e7366657220746f206e6f6e2d455243313135356044820152732932b1b2b4bb32b91034b6b83632b6b2b73a32b960611b606482015260840161039d565b6001600160e01b0319811663bc197c8160e01b14610fa25760405162461bcd60e51b815260040161039d90612817565b60608160000180548060200260200160405190810160405280929190818152602001828054801561077457602002820191906000526020600020905b815481526020019060010190808311611a675750505050509050919050565b6001600160a01b0384163b1561121c5760405163f23a6e6160e01b81526001600160a01b0385169063f23a6e6190611aca908990899088908890889060040161285f565b602060405180830381600087803b158015611ae457600080fd5b505af1925050508015611b14575060408051601f3d908101601f19168201909252611b1191810190612755565b60015b611b205761195a612772565b6001600160e01b0319811663f23a6e6160e01b14610fa25760405162461bcd60e51b815260040161039d90612817565b60006109c88383611bab565b6000818152600183016020526040812054611ba3575081546001818101845560008481526020808220909301849055845484825282860190935260409020919091556103c9565b5060006103c9565b60008181526001830160205260408120548015611c94576000611bcf6001836128a4565b8554909150600090611be3906001906128a4565b9050818114611c48576000866000018281548110611c0357611c036124f3565b9060005260206000200154905080876000018481548110611c2657611c266124f3565b6000918252602080832090910192909255918252600188019052604090208390555b8554869080611c5957611c596128bb565b6001900381819060005260206000200160009055905585600101600086815260200190815260200160002060009055600193505050506103c9565b60009150506103c9565b60405180606001604052806000815260200160008152602001611cf46040518060800160405280600081526020016000815260200160006001600160a01b0316815260200160006001600160a01b031681525090565b905290565b828054611d0590612552565b90600052602060002090601f016020900481019282611d275760008555611d6d565b82601f10611d4057805160ff1916838001178555611d6d565b82800160010185558215611d6d579182015b82811115611d6d578251825591602001919060010190611d52565b50611d79929150611d7d565b5090565b5b80821115611d795760008155600101611d7e565b6001600160a01b0381168114610e1357600080fd5b60008060408385031215611dba57600080fd5b8235611dc581611d92565b946020939093013593505050565b60008083601f840112611de557600080fd5b5081356001600160401b03811115611dfc57600080fd5b6020830191508360208260051b8501011115611e1757600080fd5b9250929050565b600080600080600060608688031215611e3657600080fd5b8535945060208601356001600160401b0380821115611e5457600080fd5b611e6089838a01611dd3565b90965094506040880135915080821115611e7957600080fd5b50611e8688828901611dd3565b969995985093965092949392505050565b600081518084526020808501945080840160005b83811015611ec757815187529582019590820190600101611eab565b509495945050505050565b6020815260006109c86020830184611e97565b6001600160e01b031981168114610e1357600080fd5b600060208284031215611f0d57600080fd5b81356109c881611ee5565b6000815180845260005b81811015611f3e57602081850181015186830182015201611f22565b81811115611f50576000602083870101525b50601f01601f19169290920160200192915050565b6020815260006109c86020830184611f18565b600060208284031215611f8a57600080fd5b5035919050565b80518252602080820151908301526040808201516001600160a01b039081169184019190915260609182015116910152565b80518252602081015160208301526040810151611fe36040840182611f91565b505050565b60c081016103c98284611fc3565b634e487b7160e01b600052604160045260246000fd5b601f8201601f191681016001600160401b038111828210171561203157612031611ff6565b6040525050565b60006001600160401b0382111561205157612051611ff6565b5060051b60200190565b600082601f83011261206c57600080fd5b8135602061207982612038565b604051612086828261200c565b83815260059390931b85018201928281019150868411156120a657600080fd5b8286015b848110156120c157803583529183019183016120aa565b509695505050505050565b600082601f8301126120dd57600080fd5b81356001600160401b038111156120f6576120f6611ff6565b60405161210d601f8301601f19166020018261200c565b81815284602083860101111561212257600080fd5b816020850160208301376000918101602001919091529392505050565b600080600080600060a0868803121561215757600080fd5b853561216281611d92565b9450602086013561217281611d92565b935060408601356001600160401b038082111561218e57600080fd5b61219a89838a0161205b565b945060608801359150808211156121b057600080fd5b6121bc89838a0161205b565b935060808801359150808211156121d257600080fd5b506121df888289016120cc565b9150509295509295909350565b600080604083850312156121ff57600080fd5b82356001600160401b038082111561221657600080fd5b818501915085601f83011261222a57600080fd5b8135602061223782612038565b604051612244828261200c565b83815260059390931b850182019282810191508984111561226457600080fd5b948201945b8386101561228b57853561227c81611d92565b82529482019490820190612269565b965050860135925050808211156122a157600080fd5b506122ae8582860161205b565b9150509250929050565b6000602082840312156122ca57600080fd5b81356109c881611d92565b6040815260006122e86040830185611f18565b8281036020840152610c768185611f18565b6020808252825182820181905260009190848201906040850190845b8181101561233c57612329838551611fc3565b9284019260c09290920191600101612316565b50909695505050505050565b6000806040838503121561235b57600080fd5b823561236681611d92565b91506020830135801515811461237b57600080fd5b809150509250929050565b6000806000806080858703121561239c57600080fd5b84356123a781611d92565b9350602085013592506040850135915060608501356001600160401b038111156123d057600080fd5b6123dc878288016120cc565b91505092959194509250565b60008060008060008060c0878903121561240157600080fd5b8635955060208701359450604087013561241a81611d92565b9350606087013561242a81611d92565b9250608087013561243a81611d92565b8092505060a087013590509295509295509295565b6000806040838503121561246257600080fd5b823561246d81611d92565b9150602083013561237b81611d92565b600080600080600060a0868803121561249557600080fd5b85356124a081611d92565b945060208601356124b081611d92565b9350604086013592506060860135915060808601356001600160401b038111156124d957600080fd5b6121df888289016120cc565b608081016103c98284611f91565b634e487b7160e01b600052603260045260246000fd5b634e487b7160e01b600052601160045260246000fd5b6000821982111561253257612532612509565b500190565b600060001982141561254b5761254b612509565b5060010190565b600181811c9082168061256657607f821691505b6020821081141561258757634e487b7160e01b600052602260045260246000fd5b50919050565b60006080828403121561259f57600080fd5b604051608081018181106001600160401b03821117156125c1576125c1611ff6565b8060405250825181526020830151602082015260408301516125e281611d92565b604082015260608301516125f581611d92565b60608201529392505050565b6020808252602e908201527f455243313135353a2063616c6c6572206973206e6f7420746f6b656e206f776e60408201526d195c881bdc88185c1c1c9bdd995960921b606082015260800190565b60208082526025908201527f455243313135353a207472616e7366657220746f20746865207a65726f206164604082015264647265737360d81b606082015260800190565b6020808252602a908201527f455243313135353a20696e73756666696369656e742062616c616e636520666f60408201526939103a3930b739b332b960b11b606082015260800190565b6040815260006126f16040830185611e97565b8281036020840152610c768185611e97565b6001600160a01b0386811682528516602082015260a06040820181905260009061272f90830186611e97565b82810360608401526127418186611e97565b90508281036080840152610d4c8185611f18565b60006020828403121561276757600080fd5b81516109c881611ee5565b600060033d111561278b5760046000803e5060005160e01c5b90565b600060443d101561279c5790565b6040516003193d81016004833e81513d6001600160401b0381602484011181841117156127cb57505050505090565b82850191508151818111156127e35750505050505090565b843d87010160208285010111156127fd5750505050505090565b61280c6020828601018761200c565b509095945050505050565b60208082526028908201527f455243313135353a204552433131353552656365697665722072656a656374656040820152676420746f6b656e7360c01b606082015260800190565b6001600160a01b03868116825285166020820152604081018490526060810183905260a06080820181905260009061289990830184611f18565b979650505050505050565b6000828210156128b6576128b6612509565b500390565b634e487b7160e01b600052603160045260246000fdfea2646970667358221220ff5a228dacdceb1d861ca4fca8d632be322492308d53b11b115f13c34bf6f57664736f6c63430008090033",
  "deployedBytecode": "0x6080604052600436106101ee5760003560e01c80638aa495831161010d578063bc197c81116100a0578063f23a6e611161006f578063f23a6e61146106cf578063f2445f1e146106fb578063f2fde38b1461071b578063f800ece91461073b578063fce8d3901461075057600080fd5b8063bc197c8114610633578063e58c555e14610678578063e9f162bb1461068d578063f01cb648146106af57600080fd5b8063a87430ba116100dc578063a87430ba14610516578063b169520114610580578063b2a5b4a2146105b6578063b81b2b711461060657600080fd5b80638aa49583146104a55780638da5cb5b146104b85780639027cae1146104d65780639d7de6b3146104f657600080fd5b80635eac6239116101855780637076806b116101545780637076806b14610426578063715018a61461044757806375bb16c01461045c57806382cfd1b81461046f57600080fd5b80635eac62391461034c5780635fcbd2851461037a578063613ce410146103ae57806369ee60d11461040657600080fd5b8063308e401e116101c1578063308e401e146102975780633dab9a86146102b75780634a9fefc7146102d75780635aa6e6751461031457600080fd5b806301ffc9a7146101f3578063020e78b51461022857806307973ccf1461023d5780632b956ff714610261575b600080fd5b3480156101ff57600080fd5b5061021361020e366004614a22565b610765565b60405190151581526020015b60405180910390f35b61023b610236366004614a61565b61079c565b005b34801561024957600080fd5b5061025360015481565b60405190815260200161021f565b34801561026d57600080fd5b5061025361027c366004614ab3565b6001600160a01b031660009081526002602052604090205490565b3480156102a357600080fd5b506102536102b2366004614ab3565b6107c6565b3480156102c357600080fd5b506102536102d2366004614ad0565b6108c8565b3480156102e357600080fd5b506102f76102f2366004614ab3565b6109c8565b604080519283526001600160a01b0390911660208301520161021f565b34801561032057600080fd5b50601354610334906001600160a01b031681565b6040516001600160a01b03909116815260200161021f565b34801561035857600080fd5b5061036c610367366004614c40565b6109fa565b60405161021f929190614c74565b34801561038657600080fd5b506103347f000000000000000000000000000000000000000000000000000000000000000081565b3480156103ba57600080fd5b50600d54600e54600f546010546011546012546103d995949392919086565b604080519687526020870195909552938501929092526060840152608083015260a082015260c00161021f565b34801561041257600080fd5b50610253610421366004614cc2565b610d47565b610439610434366004614d33565b610e50565b60405161021f929190614d71565b34801561045357600080fd5b5061023b611522565b61023b61046a366004614d8e565b611536565b34801561047b57600080fd5b5061033461048a366004614ab3565b600b602052600090815260409020546001600160a01b031681565b6102536104b3366004614d33565b6118f5565b3480156104c457600080fd5b506000546001600160a01b0316610334565b3480156104e257600080fd5b506102136104f1366004614ab3565b611bd7565b34801561050257600080fd5b5061023b610511366004614dce565b611c46565b34801561052257600080fd5b5061055d610531366004614ab3565b60026020819052600091825260409091208054600182015491909201546001600160a01b039091169083565b604080519384526001600160a01b0390921660208401529082015260600161021f565b34801561058c57600080fd5b5061033461059b366004614df0565b6003602052600090815260409020546001600160a01b031681565b3480156105c257600080fd5b506103d96105d1366004614ab3565b600c60205260009081526040902080546001820154600283015460038401546004850154600590950154939492939192909186565b34801561061257600080fd5b5061061b6120a4565b6040516001600160401b03909116815260200161021f565b34801561063f57600080fd5b5061065f61064e366004614e78565b63bc197c8160e01b95945050505050565b6040516001600160e01b0319909116815260200161021f565b34801561068457600080fd5b506103346120b5565b34801561069957600080fd5b506106a2612120565b60405161021f9190614f25565b3480156106bb57600080fd5b506102536106ca366004614f72565b61212c565b3480156106db57600080fd5b5061065f6106ea366004614fb8565b63f23a6e6160e01b95945050505050565b34801561070757600080fd5b50610253610716366004614cc2565b612329565b34801561072757600080fd5b5061023b610736366004614ab3565b6123e1565b34801561074757600080fd5b506106a261245a565b34801561075c57600080fd5b50610334612466565b60006001600160e01b03198216630271189760e51b148061079657506301ffc9a760e01b6001600160e01b03198316145b92915050565b6107a633856124c5565b506107c06107b936859003850185614d33565b8383611536565b50505050565b604051632711999760e21b81526001600160a01b03828116600483015260009182917f00000000000000000000000000000000000000000000000000000000000000001690639c46665c9060240160006040518083038186803b15801561082c57600080fd5b505afa158015610840573d6000803e3d6000fd5b505050506040513d6000823e601f3d908101601f1916820160405261086891908101906150c5565b905060005b81518110156108c157600061089a83838151811061088d5761088d61515e565b6020026020010151612704565b505050905080846108ab919061518a565b93505080806108b9906151a2565b91505061086d565b5050919050565b6000805b828110156109c15760007f00000000000000000000000000000000000000000000000000000000000000006001600160a01b03166326ca8adb338787868181106109185761091861515e565b905060200201356040518363ffffffff1660e01b815260040161093c9291906151bd565b60c06040518083038186803b15801561095457600080fd5b505afa158015610968573d6000803e3d6000fd5b505050506040513d601f19601f8201168201806040525081019061098c91906151d6565b9050600061099982612704565b505050905080846109aa919061518a565b9350505080806109b9906151a2565b9150506108cc565b5092915050565b6001600160a01b0390811660009081526002602081815260408084209092015480845260039091529120549092911690565b60008133825b8451811015610c225760007f00000000000000000000000000000000000000000000000000000000000000006001600160a01b03166326ca8adb84888581518110610a4d57610a4d61515e565b60200260200101516040518363ffffffff1660e01b8152600401610a729291906151bd565b60c06040518083038186803b158015610a8a57600080fd5b505afa158015610a9e573d6000803e3d6000fd5b505050506040513d601f19601f82011682018060405250810190610ac291906151d6565b9050600080600080610ad385612704565b93509350935093506000841115610c0a57610aee848a61518a565b985060007f00000000000000000000000000000000000000000000000000000000000000006001600160a01b031663d8938f26898860000151896020015186604051602001610b3d9190615224565b6040516020818303038152906040526040518563ffffffff1660e01b8152600401610b6b949392919061525e565b602060405180830381600087803b158015610b8557600080fd5b505af1158015610b99573d6000803e3d6000fd5b505050506040513d601f19601f82011682018060405250810190610bbd91906152ae565b905080898881518110610bd257610bd261515e565b6020908102919091018101919091526040808401516001600160a01b03166000908152600c9092529020610c07818686612829565b50505b50505050508080610c1a906151a2565b915050610a00565b5060008311610c785760405162461bcd60e51b815260206004820152601d60248201527f4e6f207265776172647320617661696c61626c6520746f20636c61696d00000060448201526064015b60405180910390fd5b60145460405163a9059cbb60e01b81526001600160a01b039091169063a9059cbb90610caa90849087906004016151bd565b602060405180830381600087803b158015610cc457600080fd5b505af1158015610cd8573d6000803e3d6000fd5b505050506040513d601f19601f82011682018060405250810190610cfc91906152c7565b610d415760405162461bcd60e51b815260206004820152601660248201527514995dd85c99081d1c985b9cd9995c8819985a5b195960521b6044820152606401610c6f565b50915091565b600080610e3c83856001600160a01b031663cd3293de6040518163ffffffff1660e01b815260040160206040518083038186803b158015610d8757600080fd5b505afa158015610d9b573d6000803e3d6000fd5b505050506040513d601f19601f82011682018060405250810190610dbf91906152ae565b610dc7612466565b6001600160a01b031663cd3293de6040518163ffffffff1660e01b815260040160206040518083038186803b158015610dff57600080fd5b505afa158015610e13573d6000803e3d6000fd5b505050506040513d601f19601f82011682018060405250810190610e3791906152ae565b61298e565b9050610e4884826129af565b949350505050565b6000610e5a614966565b6000546001600160a01b0316331480610e7d57506013546001600160a01b031633145b610ed35760405162461bcd60e51b815260206004820152602160248201527f526f757465723a204e6f7420616c6c6f77656420746f206c69737420746f6b656044820152603760f91b6064820152608401610c6f565b82516001600160a01b038082166000908152600b60205260409020541615610f335760405162461bcd60e51b8152602060048201526013602482015272151bdad95b88185b1c9958591e481859191959606a1b6044820152606401610c6f565b6000610f3d6120a4565b6001600160401b03166112765773__$89e53cedf04fc26c6e0032f6dee798436c$__63bb3007786040518163ffffffff1660e01b815260040160206040518083038186803b158015610f8e57600080fd5b505af4158015610fa2573d6000803e3d6000fd5b505050506040513d601f19601f82011682018060405250810190610fc691906152e9565b9050806001600160a01b031663d83678ac6040518163ffffffff1660e01b815260040160206040518083038186803b15801561100157600080fd5b505afa158015611015573d6000803e3d6000fd5b505050506040513d601f19601f8201168201806040525081019061103991906152e9565b601480546001600160a01b0383166001600160a01b0319909116811790915590925063a9059cbb6110726000546001600160a01b031690565b61107e6012600a6153ea565b61108b90620f42406153f6565b6110976012600a6153ea565b6110a49062d048506153f6565b6110b5906607fd10d7c82f0b61518a565b6110c16012600a6153ea565b6110cf906301406f406153f6565b6110d99190615415565b6110e39190615415565b6040518363ffffffff1660e01b81526004016111009291906151bd565b602060405180830381600087803b15801561111a57600080fd5b505af115801561112e573d6000803e3d6000fd5b505050506040513d601f19601f8201168201806040525081019061115291906152c7565b50604051630415fa8f60e01b81526001600160a01b037f000000000000000000000000000000000000000000000000000000000000000081166004808401919091529084166024830152546044820152600554606482015273__$dc99186443eb9be47560196c9a92d86c28$__90630415fa8f9060840160206040518083038186803b1580156111e157600080fd5b505af41580156111f5573d6000803e3d6000fd5b505050506040513d601f19601f8201168201806040525081019061121991906152e9565b601380546001600160a01b0319166001600160a01b0392831617905560408051606081019091526014549091168152602081016112586012600a6153ea565b61126590620f42406153f6565b8152602001600081525094506114c6565b34156113b45773__$1e1fc3fe468f004a211d81ececa3ca4d54$__637af9dc7861129e612466565b6040516001600160e01b031960e084901b1681526001600160a01b03909116600482015260240160206040518083038186803b1580156112dd57600080fd5b505af41580156112f1573d6000803e3d6000fd5b505050506040513d601f19601f8201168201806040525081019061131591906152e9565b9050806001600160a01b031663d83678ac6040518163ffffffff1660e01b815260040160206040518083038186803b15801561135057600080fd5b505afa158015611364573d6000803e3d6000fd5b505050506040513d601f19601f8201168201806040525081019061138891906152e9565b600a80546001600160a01b0319166001600160a01b03831617905591506113ad612a75565b94506114c6565b60008560200151116114195760405162461bcd60e51b815260206004820152602860248201527f526f757465723a20496e76616c696420696e697469616c206c697175696469746044820152671e48185b5bdd5b9d60c21b6064820152608401610c6f565b61142285612aa2565b73__$41c3c373709d77f70cc8eef9cd4d91eda7$__63b3af16d383611445612466565b6040516001600160e01b031960e085901b1681526001600160a01b0392831660048201529116602482015260440160206040518083038186803b15801561148b57600080fd5b505af415801561149f573d6000803e3d6000fd5b505050506040513d601f19601f820116820180604052508101906114c391906152e9565b90505b9250826114d4600682612aac565b506114e0600883612aac565b506001600160a01b038281166000908152600b6020526040902080546001600160a01b0319169186169190911790556115198486612ac1565b92505050915091565b61152a612c03565b6115346000612c5d565b565b341561154757611544612cad565b92505b82516001600160a01b039081166000908152600b60205260409020541661156f600682612d3f565b6115bb5760405162461bcd60e51b815260206004820152601c60248201527f526f757465723a20496e7075742070616972206e6f7420666f756e64000000006044820152606401610c6f565b6115c6600684612d3f565b6116125760405162461bcd60e51b815260206004820152601d60248201527f526f757465723a204f75747075742070616972206e6f7420666f756e640000006044820152606401610c6f565b8281600061161e612466565b9050600081905060006116d98960200151856001600160a01b031663cd3293de6040518163ffffffff1660e01b815260040160206040518083038186803b15801561166857600080fd5b505afa15801561167c573d6000803e3d6000fd5b505050506040513d601f19601f820116820180604052508101906116a091906152ae565b846001600160a01b031663cd3293de6040518163ffffffff1660e01b815260040160206040518083038186803b158015610dff57600080fd5b905060006116e6336109c8565b9150506000876001600160a01b031663c398ae4d33848e8b8e6117098f8b6129af565b6040518763ffffffff1660e01b815260040161172a9695949392919061542c565b602060405180830381600087803b15801561174457600080fd5b505af1158015611758573d6000803e3d6000fd5b505050506040513d601f19601f8201168201806040525081019061177c91906152ae565b6001600160a01b0389166000908152600c60205260408120805492935085929091906117a990849061518a565b90915550506001600160a01b038a166000908152600c6020526040812060010180548592906117d990849061518a565b92505081905550600061189082896001600160a01b031663cd3293de6040518163ffffffff1660e01b815260040160206040518083038186803b15801561181f57600080fd5b505afa158015611833573d6000803e3d6000fd5b505050506040513d601f19601f8201168201806040525081019061185791906152ae565b876001600160a01b031663cd3293de6040518163ffffffff1660e01b815260040160206040518083038186803b158015610dff57600080fd5b6001600160a01b0387166000908152600c60205260408120600101805492935083929091906118c090849061518a565b909155506118d09050818561518a565b601080546000906118e290849061518a565b9091555050505050505050505050505050565b600033341561190957611906612cad565b92505b82516001600160a01b038082166000908152600b602052604090205416806119735760405162461bcd60e51b815260206004820152601c60248201527f526f757465723a20496e76616c696420706169722061646472657373000000006044820152606401610c6f565b60008560200151116119d15760405162461bcd60e51b815260206004820152602160248201527f526f757465723a20496e76616c6964206c6971756964697479207061796d656e6044820152601d60fa1b6064820152608401610c6f565b600080826001600160a01b03166327a3d40088876040518363ffffffff1660e01b8152600401611a02929190615472565b6040805180830381600087803b158015611a1b57600080fd5b505af1158015611a2f573d6000803e3d6000fd5b505050506040513d601f19601f82011682018060405250810190611a539190615498565b9150915081600d6005016000828254611a6c919061518a565b90915550506001600160a01b0383166000908152600c60209081526040808320815160c081018352815481526001820154938101939093526002810154918301919091526003810154606083015260048101546080830152600581015460a083015291908190611adb90612d61565b91509150611aea838383612829565b84836004016000828254611afe919061518a565b909155505060028301546040516337e52e1960e21b81526004810191909152602481018690526001600160a01b0387811660448301528881166064830152898116608483015260a482018690527f0000000000000000000000000000000000000000000000000000000000000000169063df94b8649060c401602060405180830381600087803b158015611b9157600080fd5b505af1158015611ba5573d6000803e3d6000fd5b505050506040513d601f19601f82011682018060405250810190611bc991906152ae565b9a9950505050505050505050565b60006001600160a01b038216611c3b5760405162461bcd60e51b815260206004820152602360248201527f526f757465723a20496e76616c696420747261646520746f6b656e206164647260448201526265737360e81b6064820152608401610c6f565b610796600883612d3f565b60008111611ca75760405162461bcd60e51b815260206004820152602860248201527f526f757465723a20416d6f756e74206d7573742062652067726561746572207460448201526768616e207a65726f60c01b6064820152608401610c6f565b6040516326ca8adb60e01b81526000906001600160a01b037f000000000000000000000000000000000000000000000000000000000000000016906326ca8adb90611cf890339087906004016151bd565b60c06040518083038186803b158015611d1057600080fd5b505afa158015611d24573d6000803e3d6000fd5b505050506040513d601f19601f82011682018060405250810190611d4891906151d6565b90508181602001511015611d9e5760405162461bcd60e51b815260206004820152601f60248201527f526f757465723a20496e73756666696369656e74204c502062616c616e6365006044820152606401610c6f565b6040808201518101516001600160a01b0381166000908152600c6020529182209091808080611dcc87612704565b9350935093509350808760400181905250611de8858484612829565b6040516301a5e7dd60e71b815286906000906001600160a01b0383169063d2f3ee8090611e1d908c908e9033906004016154bc565b60e060405180830381600087803b158015611e3757600080fd5b505af1158015611e4b573d6000803e3d6000fd5b505050506040513d601f19601f82011682018060405250810190611e6f9190615505565b809250819a5050507f00000000000000000000000000000000000000000000000000000000000000006001600160a01b031663d8938f26338b600001518c602001518d60400151604051602001611ec69190615224565b6040516020818303038152906040526040518563ffffffff1660e01b8152600401611ef4949392919061525e565b602060405180830381600087803b158015611f0e57600080fd5b505af1158015611f22573d6000803e3d6000fd5b505050506040513d601f19601f82011682018060405250810190611f4691906152ae565b5089876004016000828254611f5b9190615415565b9091555050601280548b9190600090611f75908490615415565b909155505085156120495760145460405163a9059cbb60e01b81526001600160a01b039091169063a9059cbb90611fb29033908a906004016151bd565b602060405180830381600087803b158015611fcc57600080fd5b505af1158015611fe0573d6000803e3d6000fd5b505050506040513d601f19601f8201168201806040525081019061200491906152c7565b6120495760405162461bcd60e51b815260206004820152601660248201527514995dd85c99081d1c985b9cd9995c8819985a5b195960521b6044820152606401610c6f565b604080518b8152602081018390529081018790526001600160a01b0389169033907fbc7d19d505c7ec4db83f3b51f19fb98c4c8a99922e7839d1ee608dfbee29501b9060600160405180910390a35050505050505050505050565b60006120b06006612fcf565b905090565b600a546000906001600160a01b03166121105760405162461bcd60e51b815260206004820181905260248201527f526f757465723a2045445550616972206e6f7420796574206465706c6f7965646044820152606401610c6f565b50600a546001600160a01b031690565b60606120b06008612fd9565b6000612139600686612d3f565b6121855760405162461bcd60e51b815260206004820152601c60248201527f526f757465723a20496e7075742070616972206e6f7420666f756e64000000006044820152606401610c6f565b612190600685612d3f565b6121dc5760405162461bcd60e51b815260206004820152601d60248201527f526f757465723a204f75747075742070616972206e6f7420666f756e640000006044820152606401610c6f565b600085905060008590506000826001600160a01b031663cd3293de6040518163ffffffff1660e01b815260040160206040518083038186803b15801561222157600080fd5b505afa158015612235573d6000803e3d6000fd5b505050506040513d601f19601f8201168201806040525081019061225991906152ae565b90506000826001600160a01b031663cd3293de6040518163ffffffff1660e01b815260040160206040518083038186803b15801561229657600080fd5b505afa1580156122aa573d6000803e3d6000fd5b505050506040513d601f19601f820116820180604052508101906122ce91906152ae565b905060006122dc8a89610d47565b905060006122ea8989612fe6565b90506122f7818585613008565b965061271061230683896153f6565b6123109190615548565b61231a9088615415565b9b9a5050505050505050505050565b6000807f00000000000000000000000000000000000000000000000000000000000000006001600160a01b03166326ca8adb85856040518363ffffffff1660e01b815260040161237a9291906151bd565b60c06040518083038186803b15801561239257600080fd5b505afa1580156123a6573d6000803e3d6000fd5b505050506040513d601f19601f820116820180604052508101906123ca91906151d6565b90506123d581612704565b50919695505050505050565b6123e9612c03565b6001600160a01b03811661244e5760405162461bcd60e51b815260206004820152602660248201527f4f776e61626c653a206e6577206f776e657220697320746865207a65726f206160448201526564647265737360d01b6064820152608401610c6f565b61245781612c5d565b50565b60606120b06006612fd9565b60006120b060068261301e565b42825560018201819055806124c15760405162461bcd60e51b8152602060048201526014602482015273092dcecc2d8d2c8408ae0dec6d040d8cadccee8d60631b6044820152606401610c6f565b5050565b6001600160a01b0382166000908152600260205260408120541561250257506001600160a01b038216600090815260026020526040902054610796565b60018054906000612512836151a2565b919050555060405180608001604052806001548152602001846001600160a01b0316815260200183815260200160016001600160401b0381111561255857612558614b44565b604051908082528060200260200182016040528015612581578160200160208202803683370190505b5090526001600160a01b0384811660009081526002602081815260409283902085518155858201516001820180546001600160a01b03191691909616179094559184015190830155606083015180516125e09260038501920190614990565b5050600154600090815260036020526040902080546001600160a01b0319166001600160a01b03861617905550811580159061263257506000828152600360205260409020546001600160a01b031615155b156126af576000828152600360208181526040808420546001600160a01b0316845260028252808420600180549190940180548086018255908652948390209094019390935590548251858152918201527fa8b1f3acfefae9dbf6c7ffd8c16eda5db6950c383b34ca999d98f9998721c50c910160405180910390a15b600154604080519182526001600160a01b038516602083015281018390527fb58d46e66658e855773af8232237e606476d7f0ad98813c081b540e6f435ea3e9060600160405180910390a15060015492915050565b600061270e6149d7565b6127166149d7565b60408051608081018252600080825260208201819052918101829052606081019190915284604001519050600c600082604001516001600160a01b03166001600160a01b031681526020019081526020016000206040518060c0016040529081600082015481526020016001820154815260200160028201548152602001600382015481526020016004820154815260200160058201548152505092506127bc83612d61565b60408201518351929550909350111561282257602085015181516040850151670de0b6b3a764000092916127ef91615415565b6127f991906153f6565b6128039190615548565b9350838360a0018181516128179190615415565b905250604083015181525b9193509193565b604080830151600285015560a080840151600586015560608085015160038701558351600d556020840151600e81905592840151600f55830151601055608083015160115582015160125580156107c0576000600e5560145460135460405163095ea7b360e01b81526001600160a01b039283169263095ea7b3926128b59291169085906004016151bd565b602060405180830381600087803b1580156128cf57600080fd5b505af11580156128e3573d6000803e3d6000fd5b505050506040513d601f19601f8201168201806040525081019061290791906152c7565b50601354604080516060810182526014546001600160a01b039081168252602082018590526000828401529151630b0bf5df60e31b8152919092169163585faef891612956919060040161555c565b600060405180830381600087803b15801561297057600080fd5b505af1158015612984573d6000803e3d6000fd5b5050505050505050565b60008261299b83866153f6565b6129a59190615548565b90505b9392505050565b6001600160a01b0382166000908152600c60209081526040808320815160c081018352815480825260018301549482019490945260028201549281019290925260038101546060830152600481015460808301526005015460a0820152908290612a1a90859061518a565b60208301519091506000818311612a32576000612a3c565b612a3c8284615415565b905060008460800151600d60050154612a559190615415565b9050612a698282612a646120a4565b61302a565b98975050505050505050565b612a7d614966565b612a856120b5565b6001600160a01b03168152346020820152612a9f81612aa2565b90565b61245781336130a2565b60006129a8836001600160a01b0384166132e5565b612ac9614966565b612ad38284613334565b604051638aa4958360e01b81523090638aa4958390612af690859060040161555c565b602060405180830381600087803b158015612b1057600080fd5b505af1158015612b24573d6000803e3d6000fd5b505050506040513d601f19601f82011682018060405250810190612b4891906152ae565b60408083018290526001600160a01b037f00000000000000000000000000000000000000000000000000000000000000001680845290516326ca8adb60e01b815290916326ca8adb91612b9f9130916004016151bd565b60c06040518083038186803b158015612bb757600080fd5b505afa158015612bcb573d6000803e3d6000fd5b505050506040513d601f19601f82011682018060405250810190612bef91906151d6565b6020908101519082015261079681336133aa565b6000546001600160a01b031633146115345760405162461bcd60e51b815260206004820181905260248201527f4f776e61626c653a2063616c6c6572206973206e6f7420746865206f776e65726044820152606401610c6f565b600080546001600160a01b038381166001600160a01b0319831681178455604051919092169283917f8be0079c531659141344cd1fd0a4f28419497f9722a3daafe3b4186f6b6457e09190a35050565b612cb5614966565b612cbd6120b5565b6001600160a01b039081168083523460208085018290526000838152600b90915260409081902054905163f1adc25160e01b815233600482015293166024840152909163f1adc25191906044016000604051808303818588803b158015612d2357600080fd5b505af1158015612d37573d6000803e3d6000fd5b505050505090565b6001600160a01b038116600090815260018301602052604081205415156129a8565b612d696149d7565b612d716149d7565b50506040805160c081018252600d548152600e546020820152600f549181019190915260105460608201526011546080820181905260125460a083015282919042908181108015612dc3575060105415155b15612ef4576000612dd5600483613606565b90506000612de48284866136f7565b90506000612df260046137eb565b905082811115612e585760006001612e0a8584615415565b612e149190615415565b90506001811115612e3f57612e3284612e2d838261518a565b6137f7565b612e3c908461518a565b92505b612e4a8286886136f7565b612e54908461518a565b9250505b6000612e7c6103e8612e6b85604b6153f6565b612e759190615548565b84906138b2565b6010549194509150600090612e99670de0b6b3a7640000866153f6565b612ea39190615548565b608089018890526040890180519192508291612ec090839061518a565b905250875184908990612ed490839061518a565b905250602088018051839190612eeb90839061518a565b90525050505050505b826040015184606001511015612fc857602084015115612fbd576000670de0b6b3a7640000856020015186606001518660400151612f329190615415565b612f3c91906153f6565b612f469190615548565b90508084600001818151612f5a9190615415565b90525060a085018051829190612f7190839061518a565b905250608085015115612fbb576080850151600090612f98670de0b6b3a7640000846153f6565b612fa29190615548565b90508086604001818151612fb6919061518a565b905250505b505b604083015160608501525b5050915091565b6000610796825490565b606060006129a883613910565b6000612710612ff48361396c565b612ffe90856153f6565b6129a89190615548565b60006129a584613018818661518a565b8461298e565b60006129a883836139d0565b6000806130388585856139fa565b9050600080600080613053856001600160401b031688613a3e565b9350935093509350613095846001600160401b0316846001600160401b0316876001600160401b0316856001600160401b0316856001600160401b0316613b53565b9998505050505050505050565b34156131d457348260200151146131065760405162461bcd60e51b815260206004820152602260248201527f546f6b656e5061796d656e74733a2045544820616d6f756e74206d69736d61746044820152610c6d60f31b6064820152608401610c6f565b6001600160a01b03811633146131785760405162461bcd60e51b815260206004820152603160248201527f546f6b656e5061796d656e74733a204e6174697665207061796d656e74206d7560448201527039ba10313290333937b69031b0b63632b960791b6064820152608401610c6f565b81600001516001600160a01b031663d0e30db0346040518263ffffffff1660e01b81526004016000604051808303818588803b1580156131b757600080fd5b505af11580156131cb573d6000803e3d6000fd5b50505050505050565b604082015161327357815160208301516040516323b872dd60e01b81526001600160a01b03848116600483015230602483015260448201929092529116906323b872dd906064015b602060405180830381600087803b15801561323657600080fd5b505af115801561324a573d6000803e3d6000fd5b505050506040513d601f19601f8201168201806040525081019061326e91906152c7565b505050565b815160408084015160208501519151637921219560e11b81526001600160a01b039093169263f242432a926132af92869230929060040161556a565b600060405180830381600087803b1580156132c957600080fd5b505af11580156132dd573d6000803e3d6000fd5b505050505050565b600081815260018301602052604081205461332c57508154600181810184556000848152602080822090930184905584548482528286019093526040902091909155610796565b506000610796565b6040820151613372578151602083015160405163095ea7b360e01b81526001600160a01b039092169163095ea7b39161321c918591906004016151bd565b815160405163a22cb46560e01b81526001600160a01b038381166004830152600160248301529091169063a22cb465906044016132af565b604082015161358c5760006001600160a01b0382163b6134c6578251602084015160405147926001600160a01b0316916133ea9160240190815260200190565b60408051601f198184030181529181526020820180516001600160e01b0316632e1a7d4d60e01b1790525161341f91906155a2565b6000604051808303816000865af19150503d806000811461345c576040519150601f19603f3d011682016040523d82523d6000602084013e613461565b606091505b509092505081156134c4574784602001518261347d919061518a565b146134c45760405162461bcd60e51b81526020600482015260176024820152764661696c656420746f207769746864726177205745445560481b6044820152606401610c6f565b505b80156135055760208301516040516001600160a01b0384169180156108fc02916000818181858888f193505050501580156107c0573d6000803e3d6000fd5b8251602084015160405163a9059cbb60e01b81526001600160a01b039092169163a9059cbb9161353a918691906004016151bd565b602060405180830381600087803b15801561355457600080fd5b505af1158015613568573d6000803e3d6000fd5b505050506040513d601f19601f820116820180604052508101906107c091906152c7565b60408201516135ca578151602083015160405163a9059cbb60e01b81526001600160a01b039092169163a9059cbb9161321c918591906004016151bd565b815160408084015160208501519151637921219560e11b81526001600160a01b039093169263f242432a926132af92309287929060040161556a565b81546000906136575760405162461bcd60e51b815260206004820152601960248201527f496e76616c69642067656e657369732074696d657374616d70000000000000006044820152606401610c6f565b6000821161369b5760405162461bcd60e51b81526020600482015260116024820152700496e76616c69642074696d657374616d7607c1b6044820152606401610c6f565b60008360010154116136e65760405162461bcd60e51b8152602060048201526014602482015273092dcecc2d8d2c8408ae0dec6d040d8cadccee8d60631b6044820152606401610c6f565b60018301548354612ffe9084615415565b60408051808201909152600454815260055460208201526000908190819061371f9087613c13565b915091506000808584111580156137365750828611155b156137455750849050826137d5565b8684111580156137555750828711155b156137745782861115613768578261376a565b855b91508690506137d5565b60405162461bcd60e51b815260206004820152603060248201527f526f757465722e5f636f6d7075746545646765456d697373696f6e733a20496e60448201526f76616c69642074696d657374616d707360801b6064820152608401610c6f565b612a69886137e38385615415565b600554613c59565b60006107968242613606565b600082821161383e5760405162461bcd60e51b8152602060048201526013602482015272496e76616c69642065706f63682072616e676560681b6044820152606401610c6f565b600061384984613c70565b9050600061385684613c70565b9050600061386b670de000cd866f8000613c9e565b61387583856155be565b613888906893fa92954c28c89b946155fd565b6138929190615682565b90506138a86138a3826000196155fd565b613cd0565b9695505050505050565b600080838311156138fb5760405162461bcd60e51b8152602060048201526013602482015272125b9d985b1a59081d185ad948185b5bdd5b9d606a1b6044820152606401610c6f565b50816139078185615415565b91509250929050565b60608160000180548060200260200160405190810160405280929190818152602001828054801561396057602002820191906000526020600020905b81548152602001906001019080831161394c575b50505050509050919050565b6000600182108061397e575061271082115b156139c45760405162461bcd60e51b8152602060048201526016602482015275496e76616c696420736c6970706167652076616c756560501b6044820152606401610c6f565b61079682612710615415565b60008260000182815481106139e7576139e761515e565b9060005260206000200154905092915050565b600080613a078484613cfa565b613a136103e8876153f6565b613a1d9190615548565b9050613a356001613a2d85613d79565b839190613d87565b95945050505050565b60016103e8600a601e6000613a5286613d79565b905060005b846001600160401b0316881115613b4857613a738560016156b0565b9550613a808360016156b0565b93506001600160401b038116613aa757613a9b6005836156db565b945061012c9250613b36565b806001600160401b031660011415613ac6578194506127109250613b36565b6040805162461bcd60e51b81526020600482015260248101919091527f4665655574696c2e5f676574496e74657256616c7565733a206d61782063616c60448201527f6c20646570746820666f7220696e746572706f6c6174696f6e2076616c7565736064820152608401610c6f565b80613b4081615701565b915050613a57565b505092959194509250565b600085841080613b6257508484115b15613bc05760405162461bcd60e51b815260206004820152602860248201527f4d6174682e6c696e656172496e746572706f6c6174696f6e3a20496e76616c69604482015267642076616c75657360c01b6064820152608401610c6f565b6000613bcc8587615415565b613bd690856153f6565b90506000613be48887615415565b613bee90856153f6565b90506000613bfc8989615415565b905080613c09838561518a565b6130959190615548565b600080836020015183613c2691906153f6565b8451613c32919061518a565b91506001846020015183613c46919061518a565b613c509190615415565b90509250929050565b60008183613c6686613de3565b61299b91906153f6565b6000610796670de000cd866f8000613c8784613e26565b613c9990670de0b6b3a76400006155fd565b613e53565b60006714057b7ef767814f670de0b6b3a7640000613cbb84613e92565b0281613cc957613cc9615532565b0592915050565b600080821215613cf657604051635afb78ad60e11b815260048101839052602401610c6f565b5090565b600080826001600160401b031611613d545760405162461bcd60e51b815260206004820152601b60248201527f4665655574696c3a206e6f20617661696c61626c6520706169727300000000006044820152606401610c6f565b613d676001600160401b03831684615548565b90506001811161079657506001610796565b60006107966103e883615728565b6000816001600160401b0316836001600160401b03161115613dab57613dab615757565b826001600160401b0316841015613dc35750816129a8565b816001600160401b0316841115613ddb5750806129a8565b509192915050565b600080613dfb670de000cd866f8000613c9985613e26565b90506129a8670de0b6b3a7640000613e1c836893fa92954c28c89b946155fd565b6138a39190615682565b60006001600160ff1b03821115613cf65760405163322efb3360e21b815260048101839052602401610c6f565b600082613e78578115613e67576000613e71565b670de0b6b3a76400005b9050610796565b6129a8613e8d613e8785613e92565b84613f71565b614033565b6000808213613eb75760405163309fa7dd60e11b815260048101839052602401610c6f565b6000670de0b6b3a76400008312613ed057506001613eea565b6000199050826ec097ce7bc90715b34b9f10000000000492505b6000613eff670de0b6b3a764000085056140c9565b670de0b6b3a7640000808202945090915084821d90811415613f2357505002919050565b6706f05b59d3b200005b6000811315613f6857670de0b6b3a7640000828002059150671bc16d674ec800008212613f60579384019360019190911d905b60011d613f2d565b50505002919050565b6000600160ff1b831480613f885750600160ff1b82145b15613fa657604051630d01a11b60e21b815260040160405180910390fd5b60008060008512613fb75784613fbc565b846000035b915060008412613fcc5783613fd1565b836000035b90506000613fdf83836141a8565b90506001600160ff1b0381111561400c5760405163bf79e8d960e01b815260048101829052602401610c6f565b6000198087139086138082186001146140255782612a69565b505060000395945050505050565b6000808212156140805768033dd1780914b971141982121561405757506000919050565b61406382600003614033565b6ec097ce7bc90715b34b9f100000000081613cc957613cc9615532565b680a688906bd8b00000082126140ac5760405163e69458f960e01b815260048101839052602401610c6f565b670de0b6b3a7640000604083901b046129a88161426a565b919050565b6000600160801b82106140e957608091821c916140e6908261518a565b90505b600160401b821061410757604091821c91614104908261518a565b90505b640100000000821061412657602091821c91614123908261518a565b90505b62010000821061414357601091821c91614140908261518a565b90505b610100821061415f57600891821c9161415c908261518a565b90505b6010821061417a57600491821c91614177908261518a565b90505b6004821061419557600291821c91614192908261518a565b90505b600282106140c45761079660018261518a565b60008080600019848609848602925082811083820303915050670de0b6b3a764000081106141ec5760405163698d9a0160e11b815260048101829052602401610c6f565b600080670de0b6b3a76400008688099150506706f05b59d3b1ffff8111826142265780670de0b6b3a7640000850401945050505050610796565b620400008285030493909111909103600160ee1b02919091177faccb18165bd6fe31ae1cf318dc5b51eee0e1ba569b88cd74c1773b91fac106690201905092915050565b600160bf1b67800000000000000082161561428e5768016a09e667f3bcc9090260401c5b6740000000000000008216156142ad576801306fe0a31b7152df0260401c5b6720000000000000008216156142cc576801172b83c7d517adce0260401c5b6710000000000000008216156142eb5768010b5586cf9890f62a0260401c5b67080000000000000082161561430a576801059b0d31585743ae0260401c5b67040000000000000082161561432957680102c9a3e778060ee70260401c5b6702000000000000008216156143485768010163da9fb33356d80260401c5b67010000000000000082161561436757680100b1afa5abcbed610260401c5b66800000000000008216156143855768010058c86da1c09ea20260401c5b66400000000000008216156143a3576801002c605e2e8cec500260401c5b66200000000000008216156143c157680100162f3904051fa10260401c5b66100000000000008216156143df576801000b175effdc76ba0260401c5b66080000000000008216156143fd57680100058ba01fb9f96d0260401c5b660400000000000082161561441b5768010002c5cc37da94920260401c5b6602000000000000821615614439576801000162e525ee05470260401c5b66010000000000008216156144575768010000b17255775c040260401c5b65800000000000821615614474576801000058b91b5bc9ae0260401c5b6540000000000082161561449157680100002c5c89d5ec6d0260401c5b652000000000008216156144ae5768010000162e43f4f8310260401c5b651000000000008216156144cb57680100000b1721bcfc9a0260401c5b650800000000008216156144e85768010000058b90cf1e6e0260401c5b65040000000000821615614505576801000002c5c863b73f0260401c5b6502000000000082161561452257680100000162e430e5a20260401c5b6501000000000082161561453f576801000000b1721835510260401c5b64800000000082161561455b57680100000058b90c0b490260401c5b6440000000008216156145775768010000002c5c8601cc0260401c5b642000000000821615614593576801000000162e42fff00260401c5b6410000000008216156145af5768010000000b17217fbb0260401c5b6408000000008216156145cb576801000000058b90bfce0260401c5b6404000000008216156145e757680100000002c5c85fe30260401c5b6402000000008216156146035768010000000162e42ff10260401c5b64010000000082161561461f57680100000000b17217f80260401c5b638000000082161561463a5768010000000058b90bfc0260401c5b6340000000821615614655576801000000002c5c85fe0260401c5b632000000082161561467057680100000000162e42ff0260401c5b631000000082161561468b576801000000000b17217f0260401c5b63080000008216156146a657680100000000058b90c00260401c5b63040000008216156146c15768010000000002c5c8600260401c5b63020000008216156146dc576801000000000162e4300260401c5b63010000008216156146f75768010000000000b172180260401c5b62800000821615614711576801000000000058b90c0260401c5b6240000082161561472b57680100000000002c5c860260401c5b622000008216156147455768010000000000162e430260401c5b6210000082161561475f57680100000000000b17210260401c5b620800008216156147795768010000000000058b910260401c5b62040000821615614793576801000000000002c5c80260401c5b620200008216156147ad57680100000000000162e40260401c5b620100008216156147c7576801000000000000b1720260401c5b6180008216156147e057680100000000000058b90260401c5b6140008216156147f95768010000000000002c5d0260401c5b612000821615614812576801000000000000162e0260401c5b61100082161561482b5768010000000000000b170260401c5b610800821615614844576801000000000000058c0260401c5b61040082161561485d57680100000000000002c60260401c5b61020082161561487657680100000000000001630260401c5b61010082161561488f57680100000000000000b10260401c5b60808216156148a757680100000000000000590260401c5b60408216156148bf576801000000000000002c0260401c5b60208216156148d757680100000000000000160260401c5b60108216156148ef576801000000000000000b0260401c5b600882161561490757680100000000000000060260401c5b600482161561491f57680100000000000000030260401c5b600282161561493757680100000000000000010260401c5b600182161561494f57680100000000000000010260401c5b670de0b6b3a76400000260409190911c60bf031c90565b604051806060016040528060006001600160a01b0316815260200160008152602001600081525090565b8280548282559060005260206000209081019282156149cb579160200282015b828111156149cb5782518255916020019190600101906149b0565b50613cf6929150614a0d565b6040518060c001604052806000815260200160008152602001600081526020016000815260200160008152602001600081525090565b5b80821115613cf65760008155600101614a0e565b600060208284031215614a3457600080fd5b81356001600160e01b0319811681146129a857600080fd5b6001600160a01b038116811461245757600080fd5b60008060008084860360c0811215614a7857600080fd5b853594506060601f1982011215614a8e57600080fd5b506020850192506080850135614aa381614a4c565b9396929550929360a00135925050565b600060208284031215614ac557600080fd5b81356129a881614a4c565b60008060208385031215614ae357600080fd5b82356001600160401b0380821115614afa57600080fd5b818501915085601f830112614b0e57600080fd5b813581811115614b1d57600080fd5b8660208260051b8501011115614b3257600080fd5b60209290920196919550909350505050565b634e487b7160e01b600052604160045260246000fd5b604051606081016001600160401b0381118282101715614b7c57614b7c614b44565b60405290565b604051601f8201601f191681016001600160401b0381118282101715614baa57614baa614b44565b604052919050565b60006001600160401b03821115614bcb57614bcb614b44565b5060051b60200190565b600082601f830112614be657600080fd5b81356020614bfb614bf683614bb2565b614b82565b82815260059290921b84018101918181019086841115614c1a57600080fd5b8286015b84811015614c355780358352918301918301614c1e565b509695505050505050565b600060208284031215614c5257600080fd5b81356001600160401b03811115614c6857600080fd5b610e4884828501614bd5565b6000604082018483526020604081850152818551808452606086019150828701935060005b81811015614cb557845183529383019391830191600101614c99565b5090979650505050505050565b60008060408385031215614cd557600080fd5b8235614ce081614a4c565b946020939093013593505050565b600060608284031215614d0057600080fd5b614d08614b5a565b90508135614d1581614a4c565b80825250602082013560208201526040820135604082015292915050565b600060608284031215614d4557600080fd5b6129a88383614cee565b80516001600160a01b0316825260208082015190830152604090810151910152565b6001600160a01b0383168152608081016129a86020830184614d4f565b600080600060a08486031215614da357600080fd5b614dad8585614cee565b92506060840135614dbd81614a4c565b929592945050506080919091013590565b60008060408385031215614de157600080fd5b50508035926020909101359150565b600060208284031215614e0257600080fd5b5035919050565b600082601f830112614e1a57600080fd5b81356001600160401b03811115614e3357614e33614b44565b614e46601f8201601f1916602001614b82565b818152846020838601011115614e5b57600080fd5b816020850160208301376000918101602001919091529392505050565b600080600080600060a08688031215614e9057600080fd5b8535614e9b81614a4c565b94506020860135614eab81614a4c565b935060408601356001600160401b0380821115614ec757600080fd5b614ed389838a01614bd5565b94506060880135915080821115614ee957600080fd5b614ef589838a01614bd5565b93506080880135915080821115614f0b57600080fd5b50614f1888828901614e09565b9150509295509295909350565b6020808252825182820181905260009190848201906040850190845b81811015614f665783516001600160a01b031683529284019291840191600101614f41565b50909695505050505050565b60008060008060808587031215614f8857600080fd5b8435614f9381614a4c565b93506020850135614fa381614a4c565b93969395505050506040820135916060013590565b600080600080600060a08688031215614fd057600080fd5b8535614fdb81614a4c565b94506020860135614feb81614a4c565b9350604086013592506060860135915060808601356001600160401b0381111561501457600080fd5b614f1888828901614e09565b600081830360c081121561503357600080fd5b61503b614b5a565b915082518252602083015160208301526080603f198201121561505d57600080fd5b50604051608081018181106001600160401b038211171561508057615080614b44565b604090815283015181526060830151602082015260808301516150a281614a4c565b604082015260a08301516150b581614a4c565b6060820152604082015292915050565b600060208083850312156150d857600080fd5b82516001600160401b038111156150ee57600080fd5b8301601f810185136150ff57600080fd5b805161510d614bf682614bb2565b81815260c0918202830184019184820191908884111561512c57600080fd5b938501935b83851015615152576151438986615020565b83529384019391850191615131565b50979650505050505050565b634e487b7160e01b600052603260045260246000fd5b634e487b7160e01b600052601160045260246000fd5b6000821982111561519d5761519d615174565b500190565b60006000198214156151b6576151b6615174565b5060010190565b6001600160a01b03929092168252602082015260400190565b600060c082840312156151e857600080fd5b6129a88383615020565b80518252602080820151908301526040808201516001600160a01b039081169184019190915260609182015116910152565b6080810161079682846151f2565b60005b8381101561524d578181015183820152602001615235565b838111156107c05750506000910152565b60018060a01b038516815283602082015282604082015260806060820152600082518060808401526152978160a0850160208701615232565b601f01601f19169190910160a00195945050505050565b6000602082840312156152c057600080fd5b5051919050565b6000602082840312156152d957600080fd5b815180151581146129a857600080fd5b6000602082840312156152fb57600080fd5b81516129a881614a4c565b600181815b8085111561534157816000190482111561532757615327615174565b8085161561533457918102915b93841c939080029061530b565b509250929050565b60008261535857506001610796565b8161536557506000610796565b816001811461537b5760028114615385576153a1565b6001915050610796565b60ff84111561539657615396615174565b50506001821b610796565b5060208310610133831016604e8410600b84101617156153c4575081810a610796565b6153ce8383615306565b80600019048211156153e2576153e2615174565b029392505050565b60006129a88383615349565b600081600019048311821515161561541057615410615174565b500290565b60008282101561542757615427615174565b500390565b6001600160a01b03878116825286811660208301526101008201906154546040840188614d4f565b9490941660a082015260c081019290925260e0909101529392505050565b608081016154808285614d4f565b6001600160a01b039290921660609190910152919050565b600080604083850312156154ab57600080fd5b505080516020909101519092909150565b600061010082019050845182526020850151602083015260408501516154e560408401826151f2565b5060c08201939093526001600160a01b039190911660e090910152919050565b60008060e0838503121561551857600080fd5b6155228484615020565b915060c083015190509250929050565b634e487b7160e01b600052601260045260246000fd5b60008261555757615557615532565b500490565b606081016107968284614d4f565b6001600160a01b0394851681529290931660208301526040820152606081019190915260a06080820181905260009082015260c00190565b600082516155b4818460208701615232565b9190910192915050565b60008083128015600160ff1b8501841216156155dc576155dc615174565b6001600160ff1b03840183138116156155f7576155f7615174565b50500390565b60006001600160ff1b038184138284138082168684048611161561562357615623615174565b600160ff1b600087128281168783058912161561564257615642615174565b6000871292508782058712848416161561565e5761565e615174565b8785058712818416161561567457615674615174565b505050929093029392505050565b60008261569157615691615532565b600160ff1b8214600019841416156156ab576156ab615174565b500590565b60006001600160401b038083168185168083038211156156d2576156d2615174565b01949350505050565b60006001600160401b03808416806156f5576156f5615532565b92169190910492915050565b60006001600160401b038083168181141561571e5761571e615174565b6001019392505050565b60006001600160401b038083168185168183048111821515161561574e5761574e615174565b02949350505050565b634e487b7160e01b600052600160045260246000fdfea264697066735822122012cdcb99f37abad8ce97b3c5ccf74330619e61d3c790f32af9555961d12d9c2564736f6c63430008090033",
  "libraries": {
    "DeployPair": "0x600700b9e5c161A159dbbDbfCB5e13747eDDDd45",
    "DeployBasePair": "0xc78e661324B870Ba4e0fAC0d64A054Fa593D297a",
    "DeployEduPair": "0xF2Dc2050Fefab5132C49c0D7727abFa56719db18",
    "DeployGovernance": "0x208016c3D94C34c3FBC987D984DbA1A061717B57"
  },
  "devdoc": {
    "kind": "dev",
    "methods": {
      "addLiquidity((address,uint256,uint256))": {
        "params": {
          "wholePayment": "Payment details for adding liquidity."
        }
      },
      "basePairAddr()": {
        "returns": {
          "_0": "Returns the basePair address."
        }
      },
      "claimRewards(uint256[])": {
        "params": {
          "nonces": "The desired SFTs to claim from."
        }
      },
      "computeFeePercent(address,uint256)": {
        "details": "The more a pair is sold, the higher the feePercent. This is computed based on the pair's sales relative to the provided liquidity in other pairs.",
        "params": {
          "inAmount": "The input amount for which the feePercent is being computed.",
          "pairAddress": "The address of the pair for which the feePercent is being computed."
        },
        "returns": {
          "feePercent": "The computed feePercent based on the input amount and the pair's sales."
        }
      },
      "createPair((address,uint256,uint256))": {
        "details": "The first pair becomes the base pair -- For now, called by only owner..when DAO is implemented, DAO can call this",
        "returns": {
          "pairAddress": "Address of the newly created pair."
        }
      },
      "estimateOutAmount(address,address,uint256,uint256)": {
        "details": "The function calculates the amount of output tokens after applying the dynamic fee and slippage.",
        "params": {
          "inAmount": "The amount of input tokens.",
          "inPair": "The address of the input pair.",
          "outPair": "The address of the output pair.",
          "slippage": "The maximum allowable slippage percentage (e.g., 50 for 0.5%)."
        },
        "returns": {
          "amountOut": "The estimated amount of output tokens."
        }
      },
      "getAllPairs()": {
        "returns": {
          "_0": "Array of pair addresses."
        }
      },
      "getClaimableRewardsByNonces(uint256[])": {
        "params": {
          "nonces": "Array of nonces to compute claimable rewards for."
        },
        "returns": {
          "totalClaimable": "Total claimable rewards for all provided nonces."
        }
      },
      "getReferrer(address)": {
        "params": {
          "userAddress": "The address of the user."
        },
        "returns": {
          "referrerAddress": "The address of the referrer, address(0) if none.",
          "referrerId": "The ID of the referrer, 0 if none."
        }
      },
      "owner()": {
        "details": "Returns the address of the current owner."
      },
      "pairsCount()": {
        "returns": {
          "_0": "count the total count of listed pairs."
        }
      },
      "removeLiquidity(uint256,uint256)": {
        "params": {
          "liqRemoval": "The amount of LP tokens to burn.",
          "nonce": "The SFT nonce representing the LP tokens to burn."
        }
      },
      "renounceOwnership()": {
        "details": "Leaves the contract without owner. It will not be possible to call `onlyOwner` functions anymore. Can only be called by the current owner. NOTE: Renouncing ownership will leave the contract without an owner, thereby removing any functionality that is only available to the owner."
      },
      "supportsInterface(bytes4)": {
        "details": "See {IERC165-supportsInterface}."
      },
      "swap((address,uint256,uint256),address,uint256)": {
        "params": {
          "inPayment": "Payment details for the trade.",
          "outPairAddr": "Address of the output pair.",
          "slippage": "Maximum slippage allowed."
        }
      },
      "tradeableTokens()": {
        "returns": {
          "_0": "Array of pair addresses."
        }
      },
      "transferOwnership(address)": {
        "details": "Transfers ownership of the contract to a new account (`newOwner`). Can only be called by the current owner."
      }
    },
    "version": 1
  },
  "userdoc": {
    "errors": {
      "PRBMathSD59x18__Exp2InputTooBig(int256)": [
        {
          "notice": "Emitted when the input is greater than 192."
        }
      ],
      "PRBMathSD59x18__LogInputTooSmall(int256)": [
        {
          "notice": "Emitted when the input is less than or equal to zero."
        }
      ],
      "PRBMathSD59x18__MulInputTooSmall()": [
        {
          "notice": "Emitted when one of the inputs is MIN_SD59x18."
        }
      ],
      "PRBMathSD59x18__MulOverflow(uint256)": [
        {
          "notice": "Emitted when the intermediary absolute result overflows SD59x18."
        }
      ],
      "PRBMath__MulDivFixedPointOverflow(uint256)": [
        {
          "notice": "Emitted when the result overflows uint256."
        }
      ],
      "ToInt256CastOverflow(uint256)": [
        {
          "notice": "Emitted when trying to convert a uint256 number that doesn't fit within int256."
        }
      ],
      "ToUint256CastOverflow(int256)": [
        {
          "notice": "Emitted when trying to convert an int256 number that doesn't fit within uint256."
        }
      ]
    },
    "kind": "user",
    "methods": {
      "addLiquidity((address,uint256,uint256))": {
        "notice": "Adds liquidity to a pair."
      },
      "claimRewards(uint256[])": {
        "notice": "Claims rewards for a user across all pairs in which they hold LP tokens."
      },
      "computeFeePercent(address,uint256)": {
        "notice": "Computes the feePercent based on the pair's sales against the liquidity provided in other pairs."
      },
      "createPair((address,uint256,uint256))": {
        "notice": "Creates a new pair."
      },
      "estimateOutAmount(address,address,uint256,uint256)": {
        "notice": "Estimates the amount of output tokens to receive for a given input amount, considering slippage."
      },
      "getAllPairs()": {
        "notice": "Returns the list of all pairs."
      },
      "getClaimableRewardsByNonces(uint256[])": {
        "notice": "Computes claimable rewards for a list of nonces."
      },
      "getReferrer(address)": {
        "notice": "Gets the referrer and referrer ID of a user."
      },
      "removeLiquidity(uint256,uint256)": {
        "notice": "Removes liquidity from a pair and claims the corresponding rewards."
      },
      "swap((address,uint256,uint256),address,uint256)": {
        "notice": "Executes a trade between two pairs."
      },
      "tradeableTokens()": {
        "notice": "Returns the list of all trade token addreses."
      }
    },
    "version": 1
  },
  "storageLayout": {
    "storage": [
      {
        "astId": 7,
        "contract": "contracts/router/Router.sol:Router",
        "label": "_owner",
        "offset": 0,
        "slot": "0",
        "type": "t_address"
      },
      {
        "astId": 12030,
        "contract": "contracts/router/Router.sol:Router",
        "label": "userCount",
        "offset": 0,
        "slot": "1",
        "type": "t_uint256"
      },
      {
        "astId": 12035,
        "contract": "contracts/router/Router.sol:Router",
        "label": "users",
        "offset": 0,
        "slot": "2",
        "type": "t_mapping(t_address,t_struct(User)12028_storage)"
      },
      {
        "astId": 12039,
        "contract": "contracts/router/Router.sol:Router",
        "label": "userIdToAddress",
        "offset": 0,
        "slot": "3",
        "type": "t_mapping(t_uint256,t_address)"
      },
      {
        "astId": 10209,
        "contract": "contracts/router/Router.sol:Router",
        "label": "epochs",
        "offset": 0,
        "slot": "4",
        "type": "t_struct(Storage)3751_storage"
      },
      {
        "astId": 10212,
        "contract": "contracts/router/Router.sol:Router",
        "label": "pairs",
        "offset": 0,
        "slot": "6",
        "type": "t_struct(AddressSet)3123_storage"
      },
      {
        "astId": 10215,
        "contract": "contracts/router/Router.sol:Router",
        "label": "tradeTokens",
        "offset": 0,
        "slot": "8",
        "type": "t_struct(AddressSet)3123_storage"
      },
      {
        "astId": 10217,
        "contract": "contracts/router/Router.sol:Router",
        "label": "_wEduAddress",
        "offset": 0,
        "slot": "10",
        "type": "t_address"
      },
      {
        "astId": 10221,
        "contract": "contracts/router/Router.sol:Router",
        "label": "tokensPairAddress",
        "offset": 0,
        "slot": "11",
        "type": "t_mapping(t_address,t_address)"
      },
      {
        "astId": 10226,
        "contract": "contracts/router/Router.sol:Router",
        "label": "pairsData",
        "offset": 0,
        "slot": "12",
        "type": "t_mapping(t_address,t_struct(PairData)10193_storage)"
      },
      {
        "astId": 10229,
        "contract": "contracts/router/Router.sol:Router",
        "label": "globalData",
        "offset": 0,
        "slot": "13",
        "type": "t_struct(GlobalData)10206_storage"
      },
      {
        "astId": 10235,
        "contract": "contracts/router/Router.sol:Router",
        "label": "governance",
        "offset": 0,
        "slot": "19",
        "type": "t_contract(Governance)7341"
      },
      {
        "astId": 10237,
        "contract": "contracts/router/Router.sol:Router",
        "label": "adexTokenAddress",
        "offset": 0,
        "slot": "20",
        "type": "t_address"
      }
    ],
    "types": {
      "t_address": {
        "encoding": "inplace",
        "label": "address",
        "numberOfBytes": "20"
      },
      "t_array(t_bytes32)dyn_storage": {
        "base": "t_bytes32",
        "encoding": "dynamic_array",
        "label": "bytes32[]",
        "numberOfBytes": "32"
      },
      "t_array(t_uint256)dyn_storage": {
        "base": "t_uint256",
        "encoding": "dynamic_array",
        "label": "uint256[]",
        "numberOfBytes": "32"
      },
      "t_bytes32": {
        "encoding": "inplace",
        "label": "bytes32",
        "numberOfBytes": "32"
      },
      "t_contract(Governance)7341": {
        "encoding": "inplace",
        "label": "contract Governance",
        "numberOfBytes": "20"
      },
      "t_mapping(t_address,t_address)": {
        "encoding": "mapping",
        "key": "t_address",
        "label": "mapping(address => address)",
        "numberOfBytes": "32",
        "value": "t_address"
      },
      "t_mapping(t_address,t_struct(PairData)10193_storage)": {
        "encoding": "mapping",
        "key": "t_address",
        "label": "mapping(address => struct Router.PairData)",
        "numberOfBytes": "32",
        "value": "t_struct(PairData)10193_storage"
      },
      "t_mapping(t_address,t_struct(User)12028_storage)": {
        "encoding": "mapping",
        "key": "t_address",
        "label": "mapping(address => struct UserModule.User)",
        "numberOfBytes": "32",
        "value": "t_struct(User)12028_storage"
      },
      "t_mapping(t_bytes32,t_uint256)": {
        "encoding": "mapping",
        "key": "t_bytes32",
        "label": "mapping(bytes32 => uint256)",
        "numberOfBytes": "32",
        "value": "t_uint256"
      },
      "t_mapping(t_uint256,t_address)": {
        "encoding": "mapping",
        "key": "t_uint256",
        "label": "mapping(uint256 => address)",
        "numberOfBytes": "32",
        "value": "t_address"
      },
      "t_struct(AddressSet)3123_storage": {
        "encoding": "inplace",
        "label": "struct EnumerableSet.AddressSet",
        "members": [
          {
            "astId": 3122,
            "contract": "contracts/router/Router.sol:Router",
            "label": "_inner",
            "offset": 0,
            "slot": "0",
            "type": "t_struct(Set)2808_storage"
          }
        ],
        "numberOfBytes": "64"
      },
      "t_struct(GlobalData)10206_storage": {
        "encoding": "inplace",
        "label": "struct Router.GlobalData",
        "members": [
          {
            "astId": 10195,
            "contract": "contracts/router/Router.sol:Router",
            "label": "rewardsReserve",
            "offset": 0,
            "slot": "0",
            "type": "t_uint256"
          },
          {
            "astId": 10197,
            "contract": "contracts/router/Router.sol:Router",
            "label": "taxRewards",
            "offset": 0,
            "slot": "1",
            "type": "t_uint256"
          },
          {
            "astId": 10199,
            "contract": "contracts/router/Router.sol:Router",
            "label": "rewardsPerShare",
            "offset": 0,
            "slot": "2",
            "type": "t_uint256"
          },
          {
            "astId": 10201,
            "contract": "contracts/router/Router.sol:Router",
            "label": "totalTradeVolume",
            "offset": 0,
            "slot": "3",
            "type": "t_uint256"
          },
          {
            "astId": 10203,
            "contract": "contracts/router/Router.sol:Router",
            "label": "lastTimestamp",
            "offset": 0,
            "slot": "4",
            "type": "t_uint256"
          },
          {
            "astId": 10205,
            "contract": "contracts/router/Router.sol:Router",
            "label": "totalLiq",
            "offset": 0,
            "slot": "5",
            "type": "t_uint256"
          }
        ],
        "numberOfBytes": "192"
      },
      "t_struct(PairData)10193_storage": {
        "encoding": "inplace",
        "label": "struct Router.PairData",
        "members": [
          {
            "astId": 10182,
            "contract": "contracts/router/Router.sol:Router",
            "label": "sellVolume",
            "offset": 0,
            "slot": "0",
            "type": "t_uint256"
          },
          {
            "astId": 10184,
            "contract": "contracts/router/Router.sol:Router",
            "label": "buyVolume",
            "offset": 0,
            "slot": "1",
            "type": "t_uint256"
          },
          {
            "astId": 10186,
            "contract": "contracts/router/Router.sol:Router",
            "label": "lpRewardsPershare",
            "offset": 0,
            "slot": "2",
            "type": "t_uint256"
          },
          {
            "astId": 10188,
            "contract": "contracts/router/Router.sol:Router",
            "label": "tradeRewardsPershare",
            "offset": 0,
            "slot": "3",
            "type": "t_uint256"
          },
          {
            "astId": 10190,
            "contract": "contracts/router/Router.sol:Router",
            "label": "totalLiq",
            "offset": 0,
            "slot": "4",
            "type": "t_uint256"
          },
          {
            "astId": 10192,
            "contract": "contracts/router/Router.sol:Router",
            "label": "rewardsReserve",
            "offset": 0,
            "slot": "5",
            "type": "t_uint256"
          }
        ],
        "numberOfBytes": "192"
      },
      "t_struct(Set)2808_storage": {
        "encoding": "inplace",
        "label": "struct EnumerableSet.Set",
        "members": [
          {
            "astId": 2803,
            "contract": "contracts/router/Router.sol:Router",
            "label": "_values",
            "offset": 0,
            "slot": "0",
            "type": "t_array(t_bytes32)dyn_storage"
          },
          {
            "astId": 2807,
            "contract": "contracts/router/Router.sol:Router",
            "label": "_indexes",
            "offset": 0,
            "slot": "1",
            "type": "t_mapping(t_bytes32,t_uint256)"
          }
        ],
        "numberOfBytes": "64"
      },
      "t_struct(Storage)3751_storage": {
        "encoding": "inplace",
        "label": "struct Epochs.Storage",
        "members": [
          {
            "astId": 3748,
            "contract": "contracts/router/Router.sol:Router",
            "label": "genesis",
            "offset": 0,
            "slot": "0",
            "type": "t_uint256"
          },
          {
            "astId": 3750,
            "contract": "contracts/router/Router.sol:Router",
            "label": "epochLength",
            "offset": 0,
            "slot": "1",
            "type": "t_uint256"
          }
        ],
        "numberOfBytes": "64"
      },
      "t_struct(User)12028_storage": {
        "encoding": "inplace",
        "label": "struct UserModule.User",
        "members": [
          {
            "astId": 12020,
            "contract": "contracts/router/Router.sol:Router",
            "label": "id",
            "offset": 0,
            "slot": "0",
            "type": "t_uint256"
          },
          {
            "astId": 12022,
            "contract": "contracts/router/Router.sol:Router",
            "label": "addr",
            "offset": 0,
            "slot": "1",
            "type": "t_address"
          },
          {
            "astId": 12024,
            "contract": "contracts/router/Router.sol:Router",
            "label": "referrerId",
            "offset": 0,
            "slot": "2",
            "type": "t_uint256"
          },
          {
            "astId": 12027,
            "contract": "contracts/router/Router.sol:Router",
            "label": "referrals",
            "offset": 0,
            "slot": "3",
            "type": "t_array(t_uint256)dyn_storage"
          }
        ],
        "numberOfBytes": "128"
      },
      "t_uint256": {
        "encoding": "inplace",
        "label": "uint256",
        "numberOfBytes": "32"
      }
    }
  }
}